:1000000000800020BD01000005BB0000C1BA000057
:10001000C1BA0000C1BA0000C1BA0000C1BA0000F4
:10002000C1BA0000C1BA0000C1BA000005BB00009F
:1000300005BB0000C1BA000091AE000095AE000003
:1000400005BB000005BB000005BB000005BB0000B0
:1000500005BB000005BB000005BB000005BB0000A0
:1000600005BB000005BB000005BB000005BB000090
:1000700005BB000005BB000005BB000005BB000080
:1000800005BB000005BB000005BB000005BB000070
:1000900005BB000005BB000005BB000005BB000060
:1000A00005BB000005BB000005BB000005BB000050
:1000B00005BB00008DAC000099AC00009DAC0000B9
:1000C000A9AC0000ADAC0000B1AC000005BB000065
:1000D00005BB000005BB000005BB000005BB000020
:1000E00005BB000005BB000005BB000005BB000010
:1000F00005BB000079C9000005BB0000F9D2000073
:1001000005BB000069DA000005BB000005BB00006C
:1001100005BB000005BB000005BB000005BB0000DF
:1001200005BB000005BB000005BB000005BB0000CF
:1001300005BB000005BB000005BB000005BB0000BF
:1001400005BB000005BB000005BB000005BB0000AF
:1001500005BB000005BB000005BB000005BB00009F
:1001600005BB000089DD000005BB000005BB0000E9
:1001700005BB000005BB000005BB000005BB00007F
:1001800005BB000005BB000005BB000005BB00006F
:1001900005BB000005BB000005BB000005BB00005F
:1001A00005BB000005BB000005BB000005BB00004F
:1001B00005BB000005BB000005BB0000534B4CF223
:1001C000205210B5DA814DF62812DA8100BF00BF47
:1001D0000BF09CFC4E4B4FF010621A634D4A9A6331
:1001E0004D4ADA634D4A136913F4807303D15361A6
:1001F0004FF4A85313614A4B9A78110703D59A78A4
:1002000042F008029A70474B47492A221A70474B1E
:10021000474A8B4204D252F8040B43F8040BF8E728
:10022000444B454900228B4202D243F8042BFAE7A3
:10023000424943484FF4DE720BF06EFB414B424A99
:10024000802103F8011B9342FBD14FF0E0233C4A8D
:10025000C3F8082D3D4B8A221A70A3F5805324223F
:100260005A70A0221A709A799207FCD59A79D4060E
:10027000FCD4374B9A7902F00C02082AFAD10322F7
:100280001A7140225A719A799006FCD5304A9379B6
:100290005906FCD51E4B2F4959640221996420212F
:1002A0001170917901F00C010C29FAD12A4A5A6097
:1002B0004FF0E023294A5A6100229A6107221A610D
:1002C000274AC3F8202D62B60BF0D6FC134B5B69AE
:1002D000DA0705D523480BF0C3FC234B234ADA6128
:1002E000234B1B785B0609D51F4C204BE2699A42D1
:1002F00004D11C480BF0B4FC0023E3610BF00CFCB0
:1003000011F018F90BF000FBFEE700BF00200540DC
:1003100000800440823F04000100002B00D0034015
:1003200000D0074000E007407491FF1F2087FF1FA7
:10033000309801008091FF1F20BFFF1F00000000C8
:100340000082FF1F00E400E05FE400E00050064090
:100350000040064000000301C0100500FF760100C8
:1003600000002020DCF9B46A00E00340A5C3945AE1
:1003700000F00740FFFFFFFFFFFFFFFFFFFFFFFF52
:10038000FFFFFFFFFFFFFFFFFFFFFFFFFFFFFFFF7D
:10039000FFFFFFFFFFFFFFFFFFFFFFFFFFFFFFFF6D
:1003A000FFFFFFFFFFFFFFFFFFFFFFFFFFFFFFFF5D
:1003B000FFFFFFFFFFFFFFFFFFFFFFFFFFFFFFFF4D
:1003C000FFFFFFFFFFFFFFFFFFFFFFFFFFFFFFFF3D
:1003D000FFFFFFFFFFFFFFFFFFFFFFFFFFFFFFFF2D
:1003E000FFFFFFFFFFFFFFFFFFFFFFFFFFFFFFFF1D
:1003F000FFFFFFFFFFFFFFFFFFFFFFFFFFFFFFFF0D
:10040000FFFFFFFFFFFFFFFFFFFFFFFFDEF9FFFF23
:100410000548064B1B1AD90F01EBA301491002D066
:10042000034B03B1184770477491FF1F7491FF1F6E
:100430000000000008B5054B1BB105490548AFF3A6
:100440000080BDE80840FFF7E3BF00BF00000000E8
:100450008091FF1F289801002DE9F04F85B00746D5
:100460000E9E0393002EB4BFF31D3346DB10013301
:100470005B000293431C00934B1E8B4691460193F5
:100480004FF003083D7845EA090420460DF014FAC0
:10049000DDE900010DF01AFA3C70B9F1000F6CD1E2
:1004A00002F014F9002840D102983D700BF04CFE88
:1004B00002F00CF9002833D1039C002501E001353E
:1004C00001340DF03BFA98B1AE4211DD0DF04AFA5D
:1004D000207002F0FBF80028F1D021784348002377
:1004E00010220AF03FFF012141480EF069F9E6E7CA
:1004F000AE4209D002F0EAF800284FD1B8F1010865
:10050000C0D109E00DF02EFA0DF018FA0028F9D14B
:1005100002F0DCF8002845D1284605B0BDE8F08F90
:10052000072134480EF04CF9C6E7092132480EF095
:1005300047F92146002310222C480AF013FF2C48CB
:1005400001210EF03DF9BBF1010F32DD009C07EBFC
:100550000B0A14F8011B2548002310220AF002FFA1
:10056000234801210EF02CF95445F2D1B9F1000FC6
:1005700029D11E480AF0DEFE96E7BBF1000F32D00B
:100580001E493A4607EB0B0A002012F8013B434094
:100590009245C85CF9D10DF08FF981E713480AF054
:1005A000C9FEABE711480AF0C5FE284605B0BDE814
:1005B000F08FB9F1000FDCD0BBF1010F18BF0021A3
:1005C0000BD107F1010A0D493846002310F8012B21
:1005D00053405045CB5CF9D1194600231022034803
:1005E0000AF0C0FEC5E75846D5E700BF3888FF1FB0
:1005F000947D0100047A0100F87901006C900100FB
:1006000010B518220446002110F0D8FE0E4BA3614D
:10061000E36123626362A362E3620021182204F1B2
:10062000300010F0CBFE00210023084A084884F86F
:100630008410E065A364E36423656365A2652266B4
:100640006366204610BD00BF0000A0400000484384
:100650000000C8C2F0B590F8843087B00446002589
:1006600004265B0001278DF80C302A4604AB009667
:10067000032103A88DF80D508DF80E70FFF7ECFEE6
:1006800094F884308DF80E60BB408DF80C30072351
:10069000009320238DF80D302A4604AB032103A8D4
:1006A000FFF7DAFE00962A4694F884508DF80E7013
:1006B000BD408DF80C509DF8135025679DF81450DF
:1006C00065679DF81550A5679DF81650E56704AB62
:1006D000032103A833248DF80D40FFF7BDFE07B0BA
:1006E000F0BD00BF90F87400704700BF90F8700034
:1006F000704700BF90F87800704700BF90F87C000A
:10070000704700BF00B590F8841087B004234900FB
:1007100000204FF0320C0093012204AB8DF80C1036
:100720008DF80E00032103A88DF80DC0FFF794FE8D
:1007300002200BF009FD07B000BD00BF2DE9F04F0E
:10074000064691B096F8843002205B008DF80830A0
:100750000BF0FAFC96F8843030465B008DF80830D8
:10076000FFF778FFF16FB26F736F01910092B1489C
:10077000326F96F8841002F0DBF8032530233D2217
:100780008DF80A208DF80930012203AB2946009527
:1007900002A8FFF761FE31238DF80930012203AB77
:1007A0002946009502A801248DF80A50FFF754FE4F
:1007B00034238DF80930224603AB0095294602A860
:1007C0008DF80A40FFF748FE8DF8094012239A4C35
:1007D0008DF80A304FF01608CDF8008003AB0022E8
:1007E000032102A8FFF738FE0128074640F31A81CB
:1007F0000DF10B0103AA0128ACBF091801314FF01C
:10080000000912F8013B83EA0903914214F80390AE
:10081000F7D1CB469DF821A088485A46514602F0B0
:1008200087F8162F02D1CA4500F0008105200BF091
:100830008BFC013DD0D1162F96F884100AD0804849
:10084000CDF800B053463A4602F098F8002011B0B7
:10085000BDE8F08FCA45F2D19DF80C30B3EB410FE3
:10086000F4D19DF80D30012BF0D19DF80E30122BF4
:10087000ECD19DF810309DF80F0003EB00200FF035
:100880001FFD70490FF070FD716EF06404460FF0AB
:1008900027FF00B17466316E20460FF003FF00B1F0
:1008A0003466A6F10408DFF8A0A103AC06F1140930
:1008B0004546A379607903EB00200FF001FD514616
:1008C0000FF052FD45F8040FA96907460FF0EAFE44
:1008D00028B1B16E38460FF0F9FE00B1AF61296B57
:1008E00038460FF0FDFE00B12F63A94504F1020464
:1008F000DFD1002058F8041F0FF02EFCC145F9D1BC
:100900009DF81E209DF81D30B0644FF4807513FBD8
:100910000523981C0FF0D4FC4C490FF0D9FD01467B
:100920004B480FF0D5FD4B490FF014FC4A490FF02E
:100930001BFD07460EF088F9044638460EF084F990
:1009400046490EF0ABF94649074620460FF00CFD2C
:1009500044490FF001FC4449044638460FF004FDB9
:10096000014620460FF0F8FB01464FF07E500FF095
:10097000AFFD3E490FF0EEFB9DF8203004469DF898
:100980001F00346510FB053009300FF099FC384921
:100990000FF09EFD01462E480FF09AFD2D490FF0F5
:1009A000D9FB2D490FF0E0FC07460EF04DF9054646
:1009B00038460EF049F929490EF070F928490746E2
:1009C00028460FF0D1FC27490FF0C6FB2649054603
:1009D00038460FF0C9FC014628460FF0BDFB014622
:1009E0004FF07E500FF074FD20490FF0B3FBD6F8A6
:1009F0008030D6F8589070650546002B3AD10146F4
:100A000020460FF04FFE8046002847D02746494633
:100A100038460FF047FE00B1B765B8F1000F32D08D
:100A20002C4630E04FF0000BD946F3E696F88410E0
:100A300012E700BF0C7A01006C900100407A0100BF
:100A40008C7A01006B57053B2003C839001601471B
:100A50000AD7E33FE17A644000007A440000404056
:100A6000A40D8F395A80473A46A6DB333393884327
:100A7000002C01471333494656F8234020460FF017
:100A800011FE00B1B465F06D21460FF00BFE00B110
:100A9000F465034801F04CFF0120D8E62F46B6E785
:100AA000647A0100052994BF50F8210000207047A6
:100AB0002DE9F0410B4E8046041F00F1140754F855
:100AC000045F314628460FF0EDFD30B1D8F86810CC
:100AD00028460FF005FE00B12E46A742EFD1304662
:100AE000BDE8F08100002041F8B50026051F00F1A7
:100AF000140755F8044F314620460FF0F1FD00B9B8
:100B00003446BD422646F4D12046F8BD2DE9F84FC3
:100B1000D0F86880DFF858B082460026041F00F144
:100B200014074FF0000954F8045F414628460FF0BF
:100B3000D7FD58B1594628460FF0B4FD30B13046C4
:100B400029460FF009FB09F101090646A742EAD13F
:100B5000CAF88890B9F1000F07D048460FF0B0FBF3
:100B6000014630460FF0B4FC06463046BDE8F88F2B
:100B700000007042D0F88800704700BFD0F8803085
:100B800063B900B5036D416D83B01846CDE900131C
:100B90000FF088FD30B1019803B000BD133350F859
:100BA00023007047009803B000BD00BFD0F880302C
:100BB00063B900B5036D416D83B018460093019190
:100BC0000FF070FD30B1019803B000BD133350F841
:100BD00023007047009803B000BD00BF08B5D0F8EF
:100BE000803043B9416D006D0FF0B6FA4FF07C5183
:100BF0000FF0BAFB08BD133350F8230008BD00BF47
:100C0000806C704701299ABF143150F821000020F0
:100C1000704700BF3E2998BF80F88410704700BF1E
:100C200090F86C00704700BFC0F88010704700BF9C
:100C300080F86C10704700BF8166704770B500F592
:100C40000A55064600F128041C3520468C34FFF76F
:100C5000D7FCAC42F9D106F1B405012428460021A5
:100C6000FFF7E6FF214628460134FFF7D3FF3F2C6C
:100C700005F18C05F2D10749316106F500530022D8
:100C8000726105480549B0610022F161304683F880
:100C9000A42270BD00007A44000048430000C8C28E
:100CA000F8B500F50057002300F50A56C7F8A8323A
:100CB00000F1B4041C3602E08C34B4420FD020465C
:100CC000FFF7AEFF0028F7D02046D7F8A852FFF76D
:100CD00051FF8C340544B442C7F8A852EFD1D7F87D
:100CE000A802F8BD2DE9F04F00F5005393B08046FF
:100CF000012A4FF00000C3F8AC02069100F0E48135
:100D000008F1B4094FF0010B0793029207E00BF1D1
:100D1000010BBBF13F0F09F18C0900F0F28048464E
:100D2000FFF77EFF0028F2D000273C460126D8F8C6
:100D3000085039464846FFF7B5FE29460FF0D0FC6B
:100D400006FA07F32343DBB20137002818BF1C461D
:100D5000062FECD1029B0194012B00F0D580002CD2
:100D6000D5D04FEA4B0242F00105EDB233238DF8A6
:100D700025302846069BB34E03928DF824208DF82B
:100D800026300CF099FD02210DF125000CF09EFD9E
:100D90008DF82450725D9DF82530059253409DF8E2
:100DA0002620F35C5340F05C0CF086FD01F08EFCD5
:100DB000002840F05781039B8DF8243002200BF06F
:100DC000C3F901F083FC002840F036810AAB04939C
:100DD0001F464FF0000A01E00AF1010A0CF0AEFDD7
:100DE000002800F0CE80BAF11E0F15D00CF0BAFD2D
:100DF00007F8010B044601F069FC0028ECD0E1B2D1
:100E00000023102290480AF0ADFA01218F480DF01E
:100E1000D7FCE1E70CF0A6FD0CF090FD0028F9D11D
:100E200001F054FC002840F0B580029B012B00F03B
:100E3000B880039B8DF82430019B8DF8263028461E
:100E400032238DF825300CF037FD0DF125000221FD
:100E50000CF03CFD059A9DF825308DF82450534048
:100E60009DF82620F35C5340F05C0CF025FD01F06A
:100E70002DFC002840F0AE80039B8DF8243002202A
:100E80000BF062F901F022FC002840F09E80049DE6
:100E9000002700E001370CF051FD00284ED01E2F36
:100EA00015D00CF05FFD05F8010B044601F00EFCB7
:100EB0000028EFD0E1B20023102263480AF052FA72
:100EC000012162480DF07CFCE4E70CF04BFD0CF0D6
:100ED00035FD0028F9D101F0F9FB002834D1029B3F
:100EE000012B37D0079A0199D2F8AC320BF1010BE4
:100EF0000B44BBF13F0FC2F8AC3209F18C097FF40F
:100F00000EAF13B0BDE8F08F59464F480AF00AFA09
:100F100003214F480DF054FC019C4B48214600230F
:100F200002220AF01FFA4B4803210DF049FC002C65
:100F30007FF417AF44480AF0FDF9E8E61E2FC6D04B
:100F400001F0C4FB0028CAD03F480AF0F3F9029B25
:100F5000012BC7D1049C251D14F8011B3A4800231E
:100F600010220AF0FFF93C4801210DF029FCAC42A7
:100F7000F2D1079A0199D2F8AC320B44C2F8AC32E4
:100F8000D8E7BAF11E0F3FF447AF01F09FFB0028EE
:100F90003FF44BAF2C480AF0CDF9029B012B7FF4B4
:100FA00048AF049F3C1D17F8011B2748002310225F
:100FB0000AF0D8F9284801210DF002FCBC42F2D118
:100FC000032124480DF0FCFB33E7072123480DF0F3
:100FD000F7FB5CE7092122480DF0F2FB29460023CC
:100FE000102219480AF0BEF9184801210DF0E8FB5B
:100FF00009AD0DF1260715F8011F13480023102233
:101000000AF0B0F9114801210DF0DAFBBD42F2D12E
:101010009DF824309DF82520F35C0B4853409DF843
:101020002620F35C53401022F15C00230AF09AF969
:1010300005480AF07FF91FE7072108480DF0C0FBBB
:10104000C4E600BF6C9101003888FF1F947D010049
:10105000DC7A0100E07A0100E47A0100047A010000
:10106000F879010009211C480DF0AAFB0023102289
:1010700029461A480AF076F9194801210DF0A0FB1B
:1010800009AF0DF1260A17F8011F1448002310229A
:101090000AF068F9124801210DF092FB5745F2D190
:1010A0009DF824309DF82520F35C0C4853409DF8B2
:1010B0002620F35C53401022F15C00230AF052F921
:1010C00006480AF037F976E60448029201930AF0DE
:1010D00031F9029A019B13E6F87901003888FF1F65
:1010E000947D01002DE9F04F87B04FF0000B019087
:1010F0000123ADF808B08DF80A304FF00308002541
:1011000028460CF0D9FB02210DF109000CF0DEFBA2
:101110008DF8085001F0DAFA002840F0E180022052
:101120008DF808500BF010F801F0D0FA002840F0CC
:10113000D28003AF3E46002400E001340CF0FEFBF9
:10114000002800F0BC80042C15D00CF00BFC06F835
:10115000010B054601F0BAFA0028EED0E9B20023EF
:1011600010229D480AF0FEF801219C480DF028FB52
:10117000E3E70CF0F7FB0CF0E1FB04460028F8D1A4
:1011800001F0A4FA002840F0E0809DF80C30802B9C
:1011900040F0CE809DF80D30002B40F0C9809DF8C6
:1011A0000E50012D40F0C4808D4801F0C1FB019B21
:1011B00003F1B40604E001353F2D06F18C0697D00B
:1011C0003046FFF72DFD0028F5D165F07F02DFF8EE
:1011D000149200904FF46C5101208DF80A20ADF864
:1011E00008100CF069FB02210DF109000CF06EFBF8
:1011F00099F801209DF809104FF001084A408DF838
:1012000008809DF80A1019F802204A4019F80200D7
:101210000CF052FB01F05AFA002840F09F800320A6
:101220008DF808B00AF090FF01F050FA08B190E094
:1012300001340CF083FB00287DD00A2C16D00CF072
:1012400091FB07F8010B804601F040FA0028EFD02F
:101250005FFA88F1002310225F480AF083F8012129
:101260005E480DF0ADFAE3E70CF07CFB0CF066FB9A
:101270000028F9D101F02AFA002840F0A9809DF851
:101280000C30812B7FF434AF9DF80D303B2B7FF475
:101290002FAF9DF80E308035AB427FF429AF30463A
:1012A0000121FFF7C5FC019B4F4803F50052D2F81E
:1012B000A0320133C2F8A03201F03AFB18E7042C47
:1012C0003FF459AF01F002FA60BBB8F101082FD02A
:1012D0009DF8085014E7072144480DF071FA28E7FB
:1012E000092143480DF06CFA0023102229463A48A0
:1012F0000AF038F8394801210DF062FA02AC0DF11C
:101300000A0614F8011F3448002310220AF02AF8B4
:10131000324801210DF054FAA642F2D12E480AF0CB
:1013200009F8FCE62C480AF005F8B8F10108CFD11D
:1013300007B0BDE8F08F0A2C98D001F0C7F900285B
:1013400042D1022C7FF7D4AE99E7234809F0F2FF8F
:101350001BE7072125480DF033FA6AE709212448E5
:101360000DF02EFA4146009B1B48102209F0FAFFAF
:1013700041461A480DF024FA0DF108080DF10A0A49
:1013800018F8011F14480023102209F0EBFF13483E
:1013900001210DF015FAD045F2D19DF808309DF8E5
:1013A000092019F803300C4853409DF80A2019F819
:1013B00003305340102219F80310002309F0D2FF24
:1013C000054809F0B7FF2AE7034809F0B3FFB8E77B
:1013D000014809F0AFFF52E73888FF1F947D0100F4
:1013E000E87A01006C910100F47A0100047A0100AE
:1013F000F87901002DE9F04300F5005985B000238C
:101400000122C9F8A032ADF804308DF8062000F1B1
:10141000B408022700214046FFF70AFC38468DF841
:1014200004700CF049FA02210DF105000CF04EFA9F
:101430003D468DF8047001F049F9002865D114206B
:101440008DF804500AF080FE01F040F9002857D1D1
:101450000DF10706002400E001340CF06FFA70B3C0
:10146000082C15D00CF07EFA06F8010F054601F0A5
:101470002DF90028F0D0E9B200231022384809F0F5
:1014800071FF012137480DF09BF9E5E70CF06AFA8E
:101490000CF054FA0028F9D101F018F900285AD1BB
:1014A0009DF80830BB4216D0052002370AF04CFEEA
:1014B0007E2F08F18C08ADD105B0BDE8F083082C73
:1014C000E6D001F003F9002841D1042CECDD9DF8B1
:1014D0000830BB42E8D19DF80930002BE4D19DF8DB
:1014E0000A100129E0D19DF80C30002BDCD04046D9
:1014F000FFF79EFBD9F8A0320133C9F8A032D3E739
:10150000072119480DF05CF9A2E7092117480DF0F1
:1015100057F9002310223946114809F023FF1148DA
:1015200001210DF04DF901AC0DF1060614F8011F73
:101530000B480023102209F015FF0A4801210DF085
:101540003FF9A642F2D1064809F0F4FE77E70448D5
:1015500009F0F0FEB9E7024809F0ECFEA0E700BF91
:101560003888FF1F947D0100047A0100F87901009A
:101570002DE9F04700F50A5584B0804600F1B40427
:101580001C3500F500570026204600218C34FFF75B
:101590004FFBAC42C7F8A062F6D15C4F4FF0020996
:1015A0004FF07F0A43F67E42A5237F20ADF804204A
:1015B0008DF806300CF080F902210DF105000CF0D9
:1015C00085F997F87F309DF805208DF804A05340E9
:1015D0009DF80620FB5C5340F85C0CF06DF901F0BF
:1015E00075F800285BD17E2364208DF804300AF062
:1015F000ABFD01F06BF8002840F083800DF1070689
:10160000002400E001340CF099F958B3082C15D0EF
:101610000CF0A8F906F8010F054601F057F800286C
:10162000F0D0E9B200231022394809F09BFE0121D5
:1016300038480DF0C5F8E5E70CF094F90CF07EF9A8
:101640000028F9D101F042F890B99DF808307F2BBD
:1016500015D0B9F1010F1FD14046FFF743FD04B08B
:10166000BDE8F087082CE9D001F030F80028ECD074
:10167000274809F05FFE9DF808307F2BE9D19DF8DF
:1016800009303C2BE5D19DF80A30A52BE1D19DF81E
:101690000B30572BDDD1DFE74FF0010982E709213D
:1016A0001D480DF08DF8002310227F21184809F005
:1016B00059FE184801210DF083F801AC0DF1060523
:1016C00014F8011F12480023102209F04BFE1148A4
:1016D00001210DF075F8A542F2D19DF804309DF876
:1016E0000520FB5C0A4853409DF80620FB5C5340F4
:1016F0001022F95C002309F035FE054809F01AFEB6
:1017000071E7072105480DF05BF877E76C91010060
:101710003888FF1F947D0100F8790100047A0100E8
:101720002DE9F04385B042F27F02FF23C04EADF8B1
:10173000042081468DF806304FF003087F2545F0E0
:10174000010420460CF0B8F802210DF105000CF060
:10175000BDF88DF804409DF80520335D53409DF899
:101760000620F35C5340F05C0CF0A6F800F0AEFFEE
:10177000002840F0F98102208DF804500AF0E4FCC2
:1017800000F0A4FF002840F0EA8102AF002400E04E
:1017900001340CF0D3F8002800F05F81042C15D040
:1017A0000CF0E0F807F8010B054600F08FFF002869
:1017B000EED0E9B2002310229E4809F0D3FD0121AA
:1017C0009D480CF0FDFFE3E70CF0CCF80CF0B6F808
:1017D0000028F9D100F07AFF002840F039827F25F7
:1017E00000238DF804508DF806304FF0030845F0C3
:1017F000010420460CF060F802210DF105000CF008
:1018000065F88DF804409DF80520335D53409DF840
:101810000620F35C5340F05C0CF04EF800F056FFED
:10182000002840F0D38102208DF804500AF08CFC8F
:1018300000F04CFF002840F08D8102AF002400E052
:1018400001340CF07BF8002800F0F880042C15D04F
:101850000CF088F807F8010B054600F037FF002868
:10186000EED0E9B200231022724809F07BFD01217D
:1018700071480CF0A5FFE3E70CF074F80CF05EF88B
:101880000028F9D100F022FF002840F0ED8142F25B
:101890007F13ADF80430FF238DF806304FF00308B6
:1018A0007F2545F0010420460CF006F802210DF1D9
:1018B00005000CF00BF88DF804409DF80520335D11
:1018C00053409DF80620F35C5340F05C0BF0F4FFAE
:1018D00000F0FCFE002840F00B8102208DF804503F
:1018E0000AF032FC00F0F2FE002840F0FC8002AF6B
:1018F000002400E001340CF021F8002800F08A8078
:10190000042C15D00CF02EF807F8010B054600F05A
:10191000DDFE0028EED0E9B200231022454809F090
:1019200021FD012144480CF04BFFE3E70CF01AF8CD
:101930000CF004F80028F9D100F0C8FE002840F0AF
:101940008F817F2500238DF804508DF806304FF0ED
:10195000030845F0010420460BF0AEFF02210DF113
:1019600005000BF0B3FF8DF804409DF80520335DB2
:1019700053409DF80620F35C5340F05C0BF09CFF55
:1019800000F0A4FE00287CD102208DF804500AF05B
:10199000DBFB00F09BFE00286ED102AF002400E0CC
:1019A00001340BF0CBFF40B3042C15D00BF0DAFF61
:1019B00007F8010B054600F089FE0028F0D0E9B2D7
:1019C000002310221B4809F0CDFC01211A480CF01D
:1019D000F7FEE5E70BF0C6FF0BF0B0FF0028F9D1EA
:1019E00000F074FE002840F0378109F50053002212
:1019F00083F8A42205B0BDE8F083042CECD000F0FD
:101A000065FE002840F02081B8F10108EDD09DF876
:101A100004509EE7042C8BD000F058FE002840F0C4
:101A20000781B8F101088CD09DF8045039E700BF58
:101A30006C9101003888FF1F947D0100042C3FF455
:101A40001DAF00F043FE002840F0F680B8F1010819
:101A50003FF41DAF9DF80450C9E6042C3FF4B6AE28
:101A600000F034FE002840F0EB80B8F101083FF4AC
:101A7000B6AE9DF8045062E607217D480CF0A0FE4A
:101A80008BE709217B480CF09BFE214600231022A6
:101A9000794809F067FC794801210CF091FE01AC0E
:101AA0000DF1060714F8011F73480023102209F0F6
:101AB00059FC724801210CF083FEA742F2D19DF837
:101AC00004309DF80520F35C6B4853409DF80620D8
:101AD000F35C53401022F15C002309F043FC66489C
:101AE00009F028FC50E7072161480CF069FEFEE68A
:101AF000092160480CF064FE2146002310225E4854
:101B000009F030FC5D4801210CF05AFE01AC0DF1EA
:101B1000060714F8011F58480023102209F022FC80
:101B2000564801210CF04CFEBC42F2D19DF8043025
:101B30009DF80520F35C504853409DF80620F35C67
:101B400053401022F15C002309F00CFC4A4809F0D4
:101B5000F1FBC2E6072146480CF032FE6DE6072194
:101B600043480CF02DFE10E6092142480CF028FEF7
:101B7000214600231022404809F0F4FB3F48012190
:101B80000CF01EFE01AC0DF1060714F8011F3A48D7
:101B90000023102209F0E6FB384801210CF010FE6A
:101BA000A742F2D19DF804309DF80520F35C32483D
:101BB00053409DF80620F35C53401022F15C002353
:101BC00009F0D0FB2C4809F0B5FBD4E509212948E0
:101BD0000CF0F6FD214600231022274809F0C2FB35
:101BE000264801210CF0ECFD01AC0DF1060714F8BC
:101BF000011F21480023102209F0B4FB1F480121D6
:101C00000CF0DEFDA742F2D19DF804309DF80520CE
:101C1000F35C194853409DF80620F35C53401022B2
:101C2000F15C002309F09EFB134809F083FBFAE501
:101C3000114809F07FFBF4E60F4809F07BFB05E74C
:101C40000D4809F077FB10E70B4809F073FBDBE662
:101C5000094809F06FFBC2E5074809F06BFBC4E6D1
:101C6000054809F067FB6CE6034809F063FB0EE6E4
:101C7000047A0100F87901003888FF1F947D010083
:101C800038B500F50A5500F1B4041C3502E08C3477
:101C9000AC420AD02046FEF7C3FF0028F7D020460A
:101CA0008C34FEF72FFDAC42F4D138BD2DE9F0475E
:101CB000854A864B002100F1B40500F50A5782B031
:101CC00082460160426203621C372C4602E08C347B
:101CD000BC420AD02046FEF7A3FF0028F7D02046DA
:101CE0008C34FEF70FFDBC42F4D1C8200AF02CFA68
:101CF00001262C4604E001363F2E04F18C046AD004
:101D00002046FEF78DFF0028F5D0714800F010FE48
:101D10003146704800F00CFE2046FEF70FFD2046CD
:101D2000FEF76EFF0EF0FCF802460B466A4800F024
:101D3000FFFD2046FEF7BCFE0EF0F2F8804620467E
:101D40008946FEF7D1FE0EF0EBF80B460246CDE9D0
:101D50000023624842464B4600F0EAFD002120463F
:101D6000FEF750FF0EF0DCF8804689462046012140
:101D7000FEF748FF0EF0D4F80B460246CDE90023EB
:101D8000574842464B4600F0D3FD2046FEF738FF49
:101D90000146DAF800000EF0DFF9CAF8000020462C
:101DA000FEF7ECFEDAF818100EF07CFC002879D172
:101DB0002046FEF7FBFEDAF81C100EF091FC00281E
:101DC00099D02046FEF7F2FE01363F2ECAF81C00DD
:101DD00004F18C0494D1DAF804000EF071FA014693
:101DE000DAF800000EF074FBDAF81410CAF80000FC
:101DF00004460EF075FC08B1CAF81440DAF8101069
:101E000020460EF04FFC08B1CAF810400B200AF033
:101E100033F90AF5005494F8A432002848D1002B75
:101E20004ED0012384F8A4320023CAF80C302C468B
:101E300002E08C34BC4215D02046FEF7F1FE0028AB
:101E4000F7D02046FEF750FEDAF80C100EF048FCF2
:101E50000028EED02046FEF747FE8C34BC42CAF87C
:101E60000C00E9D11F4BCAF8083002E08C35BD42A6
:101E700015D02846FEF7D4FE0028F7D02846FEF7F6
:101E800017FEDAF808100EF00DFC0028EED02846F8
:101E9000FEF70EFE8C35BD42CAF80800E9D102B04B
:101EA000BDE8F0872046FEF769FECAF818007FE714
:101EB0000BB90023B6E70C4800F04CFD0023B1E756
:101EC0000A4800F05BFDACE700C0794400C079C46B
:101ED000C47F0100087B0100447B0100587B0100A6
:101EE000847B01000000A040D87B0100A07B0100A2
:101EF00000F50050D0F8AC02704700BF8068704712
:101F0000C06870470068704741607047F8B500F5D9
:101F10000A550F46164600F1B4041C3502E08C3415
:101F2000AC420FD02046FEF77BFE0028F7D02046BB
:101F30003946FEF779FE204631468C34FEF77CFEAA
:101F4000AC42EFD1F8BD00BF2DE9F8432A4A2B4B34
:101F5000DFF8AC90426200F50A558046036200F15A
:101F6000B4041C350026002702E08C34AC4210D0AB
:101F70002046FEF755FE0028F7D02046FEF72EFE3D
:101F800049460EF0ADFB88B98C34AC4206F101062F
:101F9000EED108F50058D8F8A002801B0EF090F999
:101FA000014638460EF094FABDE8F8832046FEF765
:101FB00015FE014638460EF0CFF807462046FEF7DC
:101FC0000DFED8F820100EF08BFB70B92046FEF7FE
:101FD00005FED8F824100EF065FB0028C5D0204679
:101FE000FEF7FCFDC8F82400BFE72046FEF7F6FD2B
:101FF000C8F82000EAE700BF00C0794400C079C4F7
:1020000000008CC2006A7047406A7047F8B500F55E
:102010000A560746002500F1B4041C3602E08C3451
:10202000B4420FD02046FEF7FBFD0028F7D0204633
:10203000FEF76CFD014628460EF08EF88C34B44253
:102040000546EFD107F50057D7F8A0020EF038F992
:10205000014628460EF03CFAF8BD00BF2DE9F04FCE
:10206000074699B0A948884607F5005600F002FCDB
:10207000A64800F0FFFBA54800F0FCFB07F50A5559
:10208000D6F8A0220D920023C6F8A8321C3507F11D
:10209000B40907F1B40A03E009F18C09A94510D08D
:1020A0004846FEF7BDFD0028F6D04846D6F8A842BF
:1020B000FEF760FD09F18C090444A945C6F8A84261
:1020C000EED1D6F8A832119338687B6810930DF0E2
:1020D00027FF5446CDE90E014FF0000903E00AF155
:1020E0008C0A554510D05046FEF79AFD0028F6D0D0
:1020F0005046FEF70BFD014648460EF02DF80AF15A
:102100008C0A55458146EED1D6F8A0020EF0D8F8DB
:10211000014648460EF0DCF90DF002FFD7F80890B2
:10212000CDE9120148460DF0FBFED7F80CB0CDE921
:10213000140158460DF0F4FECDE916014946584603
:102140000EF008F872490EF00FF90DF0E9FE824624
:1021500038468B46FFF7F8FE0DF0E2FEDDE9162368
:10216000CDE90623DDE91423CDE90423DDE91223BB
:10217000CDE90223DDE90E23CDE90A01CDE90023F3
:102180000D99109B119A6348CDE908AB00F072FBE2
:102190005E4800F06FFB604809210AF097FAD6F814
:1021A000A0125E4809F0BEF85D480A210AF08EFAD6
:1021B0000023C6F8A832A146A24603E009F18C0923
:1021C000A94510D04846FEF72BFD0028F6D048461A
:1021D000D6F8A842FEF7CEFC09F18C090444A945C3
:1021E000C6F8A842EED1D6F8A8124C4809F09AF8E1
:1021F0004A4809F09FF838680DF092FE0B4603211B
:1022000002460091454809F0B7F8464801210AF016
:102210005DFA5446414809F08DF84FF0000AA14696
:1022200003E009F18C09A94510D04846FEF7F8FCF7
:102230000028F6D04846FEF769FC014650460DF0EE
:102240008BFF09F18C09A9458246EED1D6F8A00290
:102250000EF036F8014650460EF03AF90DF060FEE9
:10226000032502460B462D48009509F085F82E48B7
:1022700004210AF02BFAB8680DF052FE00950246D0
:102280000B46264809F078F8284804210AF01EFA7F
:10229000F8680DF045FE009502460B461F4809F010
:1022A0006BF8214804210AF011FAB968F8680DF0BA
:1022B00051FF17490EF058F80DF032FE0026024685
:1022C0000B461648009609F057F8022118480AF004
:1022D000FDF9124809F02EF80A2116480AF0F6F91D
:1022E0003846FFF731FE0DF01BFE009502460B4607
:1022F0000A4809F041F8104801210AF0E7F90748B7
:1023000009F018F80127B2461EE000BFC47F0100A3
:1023100000007A44007C0100A07C0100B487FF1F0C
:10232000AC7C0100B87C0100BC7C0100C47C0100D5
:10233000CC7C0100D07C0100DC7C010001373F2F08
:1023400004F18C0400F08C802046FEF769FC002824
:10235000F4D02046FEF7C6F92046FEF7C7F920461E
:10236000FEF7C8F92046FEF7C9F9082140480CF0ED
:1023700027FA4048394608F0D5FF092F73DD0221BE
:102380003D480CF01DFA2046FEF73AFC0DF0C8FD62
:102390005FFA88F902460B463648CDF8009008F0FF
:1023A000EBFF364801210CF00BFA0025564620E0E1
:1023B000062133480CF004FA31462E4808F0B2FFEB
:1023C000022130480CF0FCF929462046FEF76AFB52
:1023D0000DF0A6FDCDF8009002460B46254808F00A
:1023E000CBFF0135254801210CF0EAF9062D07D075
:1023F0000136092EDCDC012123480CF0E1F9D7E796
:10240000112122480CF0DCF900212046FEF7FAFBEE
:102410000DF086FD022502460B461648009508F091
:10242000ABFF12211A480CF0CBF901212046FEF730
:10243000E9FB0DF075FD009502460B460D4808F0CE
:102440009BFF012113480CF0BBF90137094808F044
:1024500071FF3F2F0AF1060A04F18C047FF474AF78
:1024600019B0BDE8F08F012107480CF0A9F986E703
:10247000E07C01003888FF1FFC8B0100B87C010064
:10248000EC7C0100847D0100947D0100F47C01005E
:10249000087D0100DC7C01002DE9F04F00F1B4055E
:1024A00083B0894692469B462E46012704E00137B9
:1024B0003F2F06F18C067AD03046FEF7B1FB00289C
:1024C000F5D000230A2249467A4808F04BFF012143
:1024D00079480CF075F950460DF022FD0B460021AD
:1024E00002460091734808F047FF012172480CF042
:1024F00067F959466F4808F015FF01216E480CF046
:102500005FF939466B4808F00DFF6B4801210CF06C
:1025100057F900244FF0020821463046FEF7C2FA70
:102520000DF0FEFCCDF8008002460B46614808F035
:1025300023FF0134604801210CF042F9082CEBD153
:1025400000213046FEF75EFB0DF0EAFCCDF800807E
:1025500002460B46574808F00FFF012156480CF081
:102560002FF901213046FEF74DFB0DF0D9FCCDF8D7
:10257000008002460B464F4808F0FEFE01214E48FF
:102580000CF01EF902213046FEF73CFB0DF0C8FCB2
:10259000CDF8008002460B46464808F0EDFE0137B4
:1025A000444808F0C7FE3F2F06F18C0684D101266F
:1025B0004FF0000804E001363F2E05F18C0575D080
:1025C0002846FEF72DFB0028F5D000230A224946B5
:1025D0003A4808F0C7FE384801210AF037FD504656
:1025E0000DF09EFCCDF8008002460B46334808F003
:1025F000C3FE314801210AF029FD59462F4808F051
:1026000091FE2D4801210AF021FD31462B4808F0AA
:1026100089FE294801210AF019FD002402272146DC
:102620002846FEF73FFA0DF07BFC009702460B466A
:10263000224808F0A1FE01341F4801210AF006FDDE
:10264000082CECD100212846FEF7DCFA0DF068FCDE
:10265000009702460B46194808F08EFE16480121E5
:102660000AF0F4FC01212846FEF7CCFA0DF058FCE4
:10267000009702460B46114808F07EFE0E480121E5
:102680000AF0E4FC02212846FEF7BCFA0DF048FCF3
:10269000009702460B46094808F06EFE01360748CF
:1026A00008F048FE3F2E05F18C0589D103B0BDE846
:1026B000F08F00BF3888FF1F1C7D0100C887FF1FF7
:1026C000014B1870704700BF2087FF1F024B18781E
:1026D000B0FA80F0400970472087FF1F0278002A77
:1026E00000F0B78030B5034685B00D46252A38D1B5
:1026F000587800283DD0A0F12502D1B2552903F128
:10270000010430D8552A2ED8DFE802F09F2D2D2D58
:102710002D2D2D2D2D2D2D2D2D2D2D2D2D2D2D2DE9
:102720002D2D2D2D2D2D2D2D2D932D2D2D2D2D2D73
:102730002D2D2D2D2D2D2D2D2D2D2D882D2D2D7C1F
:102740002D2D2D2D2D2D2D2D2D7439392D5E2D2D29
:10275000392D2D392D2D2D2D2D2D493F2D2D2D563A
:102760002D6918781C460CF0D3F86278631C002A97
:10277000BCD1394805B0BDE8304008F0DBBD55F8A4
:10278000041B354808F0CEFDEFE755F8041B01297E
:102790000EBF3248324801210CF012F8E5E755F837
:1027A000043B002BE1D0184603930EF009FF0146CD
:1027B00003980CF005F8D8E755F8041B26480023C9
:1027C000102208F0CFFDD0E7073525F007050321DB
:1027D000F5E802232048009108F0CEFDC5E7073553
:1027E00025F007050021F5E802231B48009108F0B9
:1027F000C3FDBAE755F8041B17480023022208F06E
:10280000B1FDB2E7022117480BF0DAFF55F8041BBF
:1028100011480023102208F0A5FDA6E755F8043B57
:10282000012B0BBF10481148042105210BF0C8FFF4
:102830009BE702210E480BF0C3FF55F8041B064826
:102840000023022208F08EFD8FE725200CF060F8AF
:102850008BE7014808F06EBD3888FF1F287D010016
:102860002C7D0100207D0100307D0100387D0100BC
:10287000247D01000FB400B583B004A951F8040B06
:102880000191FFF72BFF03B05DF804EB04B0704734
:1028900070B5DFF878C01E4BDCF800C082B004468B
:1028A000CDF804C0DDF804C0C3F800C00D461646DC
:1028B000614600230A22174808F054FD03211648F8
:1028C0000BF07EFF032C07D8DFE804F01B16021183
:1028D000124807210BF074FF022111480BF070FF22
:1028E0003146284602B0BDE87040FFF7F7BE05212B
:1028F0000C480BF065FFEFE704210B480BF060FF7D
:10290000EAE7052109480BF05BFFE5E73CB9FF1F4B
:102910009891FF1F3888FF1FDC7A0100507D01006D
:10292000847D0100587D0100487D0100407D01004B
:102930000FB400B5064B187883B020B905AA0499E6
:102940000192FFF7A5FF03B05DF804EB04B07047F8
:102950002087FF1F0FB4084B00B51B78012B83B0F5
:1029600005D805AA049901920120FFF791FF03B051
:102970005DF804EB04B070472087FF1F0FB4084BCD
:1029800000B51B78032B83B005D805AA04990192E2
:102990000320FFF77DFF03B05DF804EB04B0704740
:1029A0002087FF1F10B4074C0749084A00232370F3
:1029B000036510BC4365836580F85C300B60136071
:1029C000704700BFA491FF1FA091FF1F9C91FF1FA4
:1029D0002DE9F84F9B4F9C4C9C4E3B78B4F86620F9
:1029E0003280002B40F0C080B4F86030984D994898
:1029F0002B80FFF709FB216B0DF054FE08B100237B
:102A00002B809448FFF7FEFAE16A0DF069FE10B1E1
:102A1000002333802B808F48FFF772FAE1680DF0B6
:102A20005FFE08B100232B808A48FFF769FAE1684E
:102A30000DF056FE08B100232B808648FFF75EFAA2
:102A400021690DF02FFE002800F0918000233380D3
:102A50002B88002B00F086803B787E48002B30D1FD
:102A6000FFF7D2FA616B0DF01DFE002840F02681C1
:102A7000794B78481B68012B00F00881FFF740FA7A
:102A8000216A0646A0690DF065FB014630460DF04F
:102A900027FE002866D028880DF012FC82466D487B
:102AA000FFF72EFAA7698146216A38460DF052FBDE
:102AB0008046B4F864000DF0FFFB0646B4F86000F1
:102AC0002FE0FFF7A1FA616B0DF0ECFD002840F05C
:102AD0002481614B5F481B68012B00F0BF80FFF72A
:102AE0000FFA216A0646A0690DF034FB0146304614
:102AF0000DF0F6FD002835D028880DF0E1FB824668
:102B00005448FFF7FDF9A7698146216A38460DF060
:102B100021FB8046B4F864000DF0CEFB0646B4F805
:102B200062000DF0C9FB31460DF014FB414604462E
:102B300048460DF00FFB014620460DF015FC4146BE
:102B4000044638460DF006FB014620460DF0C0FC59
:102B500031460DF001FB014650460DF0FBFA0DF039
:102B600005FE2880BDE8F88FB4F862303EE73948AA
:102B7000FFF7C4F9E1690DF095FD00287FF466AF19
:102B80003388002B3FF464AF3248FFF73BFAA16B68
:102B90000DF0A6FD002840F0EF802E48FFF7AEF9BB
:102BA00021690DF09DFD002843D02A48FFF7A6F9C2
:102BB000D4F8C4108046E0690DF0CEFA01464046D4
:102BC0000DF070FD00283FF443AF30880DF078FB26
:102BD00083462048FFF792F98246B4F86600D4F89D
:102BE0001C800DF069FB4146814650460DF0B2FA5B
:102BF0004946824600200DF0ADFA014650460DF0E0
:102C0000B3FBD4F8C410824640460DF0A5FA414605
:102C10000DF0A0FA014650460DF05AFC49460DF061
:102C20009BFA014658460DF095FA0DF09FFD308055
:102C30000EE70848FFF762F9E1690DF051FD002841
:102C4000B3D105E71492FF1F3893FF1FEC92FF1FCB
:102C5000EE92FF1F6C94FF1FF891FF1FFFF750F9D2
:102C6000216A0646606A0DF075FA014630460DF09D
:102C700037FD00283FF476AF28880DF021FB82460F
:102C80005348FFF73DF9676A81463EE7FFF738F999
:102C9000216A0646606A0DF05DFA014630460DF085
:102CA0001FFD00283FF45EAF28880DF009FB824627
:102CB0004748FFF725F9676A8146F5E628880DF051
:102CC000FFFA81464248FFF79FF98046B4F860005A
:102CD000276B0DF0F1FA3946064640460DF03AFAF8
:102CE0003146804600200DF035FA014640460DF091
:102CF0003BFB39468046606B0DF02CFA014640469E
:102D00000DF0E6FB31460DF027FA014648460DF07E
:102D100021FA0DF02BFD2880AAE628880DF0D0FAC4
:102D200081462B48FFF770F98046B4F86200276BA4
:102D30000DF0C2FA3946064640460DF00BFA314610
:102D4000804600200DF006FA014640460DF00CFBCF
:102D500039468046606B0DF0FDF9014640460DF0A6
:102D6000B7FB31460DF0F8F9014648460DF0F2F98F
:102D70000DF0FCFC2880ACE630880DF0A1FA83460B
:102D80001348FFF73FF98246B4F86600D4F838805C
:102D90000DF092FA4146814650460DF0DBF90146AE
:102DA00048460DF0E1FA41468146E06A0DF0D2F95D
:102DB000014648460DF08CFB00210DF0CDF901468F
:102DC00058460DF0C7F90DF0D1FC3080E5E600BFA4
:102DD0006C94FF1FDDF800C0521AACEB030C1CD042
:102DE000401ABCF1000F0CFB00F002EBD27109DBC2
:102DF00000EB610000FB02F1002990FBF2F01844A7
:102E000010DB7047A0EB610000FB02F1002990FB92
:102E1000F2F01844F5DB013070470CEBDC7C03EB7F
:102E20006C0070470138704710B5044682B049B154
:102E3000084601910EF0C4FB236801995B680246C5
:102E400020469847204602B0BDE8104008F072BA0C
:102E50002DE9F0414648474C474F484EFFF70AFDE1
:102E6000474B48485C60484CDC60484C1C61484C0F
:102E70009C61484C9C62484CDC61484CDC62484C8C
:102E80001C63484CC3F8CC40C3F8D04000245C63BA
:102E9000454C9C63454CDC634FF07C549C64444C33
:102EA000DC6440F20128434C1C65A3F80880424CC6
:102EB0005C624FF00C08414CC3F8548040F61C484B
:102EC000C3F8C440C3F868803D4C18624FF00A084C
:102ED000002232214FF40575586118644FF0640EDA
:102EE00001201C66C3F86C80364C1D8041F204083A
:102EF00083F84420C3F8A41098655C66C3F85CE0CE
:102F0000314CC3F87080C3F88C10C3F8AC10FF21AB
:102F10004FF0020C2D4DC3F8C0409A67C3F88000F3
:102F2000C3F8B400C3F88420C3F8B010C3F8A820D5
:102F300083F8C92083F8CA205A2441F288304FF41C
:102F40007A7144F62062C3F89470C3F89860C3F8AD
:102F5000A050C3F8BCE0C3F87CC0C3F8B8C05C673D
:102F6000C3F88800C3F89010C3F89C20BDE8F08136
:102F7000607D010020A107000000114400F0C84559
:102F80003893FF1FCDCC4C3E666686400000404023
:102F900033338340CDCCCC3DCDCC4C40000082427D
:102FA000000020C158028813000020420000A04009
:102FB0009A9979400AD7233D333373409A99993EC1
:102FC0002C01960032002C0188130500D606D60687
:102FD00070B5444D444C4548E66800232B70FEF71D
:102FE0008FFF014630460DF05DFB08B104232B70C6
:102FF0003E48FEF783FF21690DF054FB18B12B7892
:1030000043F010032B703948FEF7FCFFE16A0DF026
:1030100067FB18B12B7843F040032B700023334833
:103020006B70FEF7F1FF216B0DF03CFB08B1012343
:103030006B7000232D48EB70FEF762FF06462B48AD
:10304000FEF75CFF014630460DF084F8216C0DF070
:1030500047FB08B10123EB70254D244800232B705A
:10306000FEF74EFFA16A0646E0680DF073F80146D0
:1030700030460DF035FB08B104232B701B48FEF7DA
:103080003DFFA16A064620690DF066F8014630460C
:103090000DF008FB18B12B7843F010032B70134888
:1030A000FEF7B0FFE16B0646E06A0DF053F801460B
:1030B00030460DF015FB18B12B7843F040032B7010
:1030C00000230A486B70FEF79FFFE16B0646206BFA
:1030D0000DF042F8014630460DF0E4FA08B1012344
:1030E0006B7070BDE892FF1F3893FF1F6C94FF1F39
:1030F000E492FF1F2DE9F043A44C2368012B85B017
:1031000048D0022B79D0032B03D033B305B0BDE8F0
:10311000F0839F4A9F4B4FF47A711160D3F8AC0053
:103120000DF0CEF89B4B0546D3F8B0000DF0C8F873
:1031300029460DF00FF898490DF016F996490DF053
:10314000C7F929460DF008F80DF0EAFA0146062005
:1031500008F0EAFD2368002BD8D18E4B8F48D3F8B6
:10316000AC10D3F8B02003688D48521A002A02FB35
:1031700003F367DB323380FB0320DA17C2EB601204
:10318000002B1144C0F2FF80062005B0BDE8F043DB
:1031900008F0CABD7E4B1B680A33B3F57A7F4EDC5C
:1031A000184603930DF08CF87E490DF0DDF8039B73
:1031B0000746774A774D1360D5F8AC000DF080F8DC
:1031C0000646D5F8B0000DF07BF831460CF0C2FF92
:1031D00039460DF0C9F870490DF07AF931460CF016
:1031E000BBFF0DF09DFA0146062008F09DFD6E4BD9
:1031F0001B6893BB2368022B85D1654A654B002170
:103200001160D3F8AC000DF05BF8624B0546D3F8C3
:10321000B0000DF055F829460CF09CFF00210DF090
:10322000A3F85D490DF054F929460CF095FF0DF017
:1032300077FA0146062008F077FD236863E7002748
:103240000023B6E7323B80FB0320DA17C2EB6012A3
:10325000002B114498DB013196E7022153484C4D75
:103260004C4F0BF0ADFA524808F064F80621514873
:103270000BF0A6FA28680DF023F84A490DF074F80F
:103280000CF04EFE022602460B460096484808F017
:1032900073F80D2148480BF093FAD7F8AC000DF005
:1032A0000FF8804628680DF00BF83E490DF05CF8E9
:1032B0008146D7F8B0000DF003F841460CF04AFF04
:1032C000014648460DF050F833490DF001F94146EA
:1032D0000CF042FF0CF024FE009602460B463448E8
:1032E00008F04AF8314631480BF06AFA304808F0E5
:1032F00021F831462D4809F0E9F9304808F01AF86C
:1033000006212C4809F0E2F928680CF0D9FF25497C
:103310000DF02AF80CF004FE009602460B462748F2
:1033200008F02AF80D21244809F0D0F9D7F8AC00AC
:103330000CF0C6FF804628680CF0C2FF19490DF05A
:1033400013F80546D7F8B0000CF0BAFF41460CF070
:1033500001FF014628460DF007F80F490DF0B8F8B7
:1033600041460CF0F9FE0CF0DBFD009602460B46E0
:10337000124808F001F80D48314609F0A7F90F4846
:1033800007F0D8FF36E70139FEE600BFE091FF1FE6
:103390002092FF1F3893FF1F0000C8424087FF1F85
:1033A0001F85EB51CDCCCC3D2887FF1FFC8B010046
:1033B0003888FF1F807D0100887D0100B487FF1FD2
:1033C00030B51C481C4C83B007F0B4FF194807F017
:1033D000B1FF184807F0AEFF0D2118480BF0F0F9C7
:1033E000174807F0A7FF164807F0A4FF144807F096
:1033F000A1FF12480D2109F069F9D4F8A830012B7A
:1034000022D0104D0B48297800230A2207F0AAFF8A
:1034100000230B4829780A2207F0A4FF2B78052BFC
:103420005ED8DFE813F04802510224022D02360272
:103430003F0200BF3888FF1F3893FF1F987D0100AF
:10344000B487FF1F1493FF1F0921BF480BF0B8F981
:103450000921BD4809F03AF9BC48FEF74FFD216942
:103460000DF020F9002840F08382B848FEF748FDAF
:10347000E1680DF035F9002840F07182B348FEF79D
:103480003FFD0546B148FEF739FD014628460CF0E0
:1034900061FE216C0DF024F9002840F05782AB4802
:1034A000FEF752FDE16A0DF01BF9002840F045825D
:1034B000A648FEF749FD216B0DF0F4F8002840F016
:1034C0003382A34BA1481B68012B00F01C82FEF73E
:1034D00015FD21690DF004F9002840F0FE819D4D95
:1034E0009D4802210BF06CF99B48022109F0EEF88F
:1034F000122008F0C1FD012800F08E81112008F093
:10350000BBFD012800F09681944B1B68012B00F055
:103510009E8102219048924C0BF052F9914B9248B7
:10352000196807F0FFFE904807F004FF04218F4858
:103530000BF046F90B2008F09FFD002301460A22FC
:10354000894807F00FFF0C2008F096FD0023014684
:103550000A22854807F006FF142008F08DFD00239D
:1035600001460A22804807F0FDFE152008F084FD80
:1035700000230A2201467C4807F0F4FE06217C481D
:103580000BF01EF97B4807F0D5FE0421774809F0BF
:103590009DF80B2008F070FD002301460A227548B3
:1035A00007F0E0FE0C2008F067FD002301460A2228
:1035B000704807F0D7FE142008F05EFD0023014696
:1035C0000A226C4807F0CEFE152008F055FD0023B6
:1035D00001460A22674807F0C5FE6548062109F042
:1035E00075F82368D80700F1D980012162480BF0F3
:1035F000E7F80121604809F069F82368990740F16C
:10360000D98001215D480BF0DBF85C48012109F00D
:103610005DF823685A0740F1D980012157480BF023
:10362000CFF85648012109F051F823681B0740F1F3
:10363000D980012151480BF0C3F85048012109F00D
:1036400045F804214E480BF0BBF8112008F014FD9A
:10365000002301460A22444807F084FE102008F0A7
:103660000BFD002301460A223F4807F07BFE122093
:1036700008F002FD002301460A223B4807F072FED3
:10368000132008F0F9FC00230A220146364807F00F
:1036900069FE04213A4809F019F8112008F0ECFC01
:1036A000002301460A22334807F05CFE102008F090
:1036B000E3FC002301460A222E4807F053FE1220A5
:1036C00008F0DAFC002301460A222A4807F04AFEE5
:1036D000132008F0D1FC0A2201460023254807F0F8
:1036E00041FE244807F026FE182126480BF068F812
:1036F000254B18880CF0E4FD24490CF035FE0CF045
:103700000FFC002402460B461748009407F034FED5
:103710001F211F480BF054F81E4B18880CF0D0FDE9
:103720001A490CF021FE0CF0FBFB00940B460246FC
:103730000D4807F021FE184802210BF041F82B78C4
:10374000032B58D003B030BDA87D01006C94FF1F3F
:10375000F891FF1F1493FF1FFC8B0100D091FF1FF6
:103760000893FF1FF491FF1F3888FF1FA07E010000
:10377000A87E0100B487FF1FB47E0100B07E010067
:10378000B87E0100C07E0100EE92FF1FCDCCCC3D83
:10379000DC7E0100EC92FF1FFC7E010001218248CB
:1037A0000BF00EF80121804808F090FF236899077C
:1037B0003FF527AF01217D480BF002F87B4801213E
:1037C00008F084FF23685A073FF527AF01217748A7
:1037D0000AF0F6FF7548012108F078FF23681B07FF
:1037E0003FF527AF012171480AF0EAFF6F48012138
:1037F00008F06CFF25E76E4B1B788BB31E216D48DC
:103800000AF0DEFF6C481B2108F060FF6B4803B034
:10381000BDE8304007F08EBD0E2169480AF0D0FFA8
:1038200067480E2108F052FF112008F025FC0128FE
:103830007FF46AAE0A2163480AF0C2FF61480A2198
:1038400008F044FF604B1B68012B7FF462AE12212D
:103850005E480AF0B5FF5D48122108F037FF58E6D0
:1038600020215B480AF0ACFF5A481D21CCE7072114
:1038700059480AF0A5FF5848072108F027FF2FE60E
:10388000082156480AF09CFF5448082108F01EFF02
:1038900026E60B2152480AF093FF51480B2108F00D
:1038A00015FF1DE607214F480AF08AFF4D48072102
:1038B00008F00CFF14E606214B480AF081FF4A4845
:1038C000062108F003FF0BE6072148480AF078FFBD
:1038D0004648072108F0FAFE02E64548454DFEF746
:1038E0000FFBE1680CF0DEFE00283FF4F9AD2B7809
:1038F000052B10D10A2140480AF062FF3E480A21F8
:1039000008F0E4FEECE5FEF7F9FA616A0CF0E8FE77
:10391000002836D1374D394808210AF051FF374881
:10392000082108F0D3FEDBE50D2135480AF048FFF9
:1039300033480D2108F0CAFEC3E50C2131480AF0D6
:103940003FFF30480C2108F0C1FEB1E511212E489F
:103950000AF036FF2C48112108F0B8FE9FE50E2131
:103960002A480AF02DFF29480E2108F0AFFE85E510
:103970000F2127480AF024FF25480F2108F0A6FE52
:1039800073E5162123481B4D0AF01AFF0A211A4835
:103990000AF016FF1F48162108F098FE16480A2163
:1039A00008F094FE9CE500BFB07E0100B47E0100EB
:1039B0001492FF1F447F0100647F0100B487FF1F42
:1039C000707E0100807E0100D091FF1F8C7E01007F
:1039D000007F0100247F0100547E01005C7E010015
:1039E000487E0100687E0100387E0100407E0100B3
:1039F0006C94FF1F1493FF1F207E01002C7E01009A
:103A0000F87D0100E87D0100D47D0100C47D010046
:103A1000B47D0100087E01002DE9F04FBD4CD4F8C3
:103A20007CA0BAF1010F8FB000F0CE81BAF1030F84
:103A30005AD0DFF8E482B94FB94EA36F3168B94864
:103A4000012B04BF01F10041316007F08FF93B68A1
:103A5000002B40F08781B34807F054F93B68C8F861
:103A600000000546002B40F03681E36F012B00F08B
:103A7000F680AD4928460CF033FE30B9AB492846F4
:103A80000CF010FE002800F07782DFF8A492A94F16
:103A9000D9F800300C930C983B68DFF89CA2C01A50
:103AA0000CF00AFC29460CF05FFCA4490CF010FD58
:103AB000A2490CF00DFDDAF800100CF04DFBD9F81E
:103AC00000300B930B9BCAF800003B60D4F8B400A5
:103AD0000CF0F6FB29460CF047FC0023C8F8000068
:103AE00033600FB0BDE8F08FDFF85492954DD9F8F0
:103AF0000020DFF82482D2F8840001230F212B60FC
:103B000006F0BEFB2B68854F012B3A6800F08C81D4
:103B1000002A40F04582D9F80030DFF82CA2D3F813
:103B20008400436B1D69ADB2CAF8005006F08CF8F2
:103B300040F6E44303FB05F5B4F8A230B5FBF0F51D
:103B4000E81A00B20CF0BCFB8049754E0546D4F86B
:103B500094000CF009FC014628460CF0B9FCDAF898
:103B600000303060632B00F30E82002333603B682B
:103B7000002B3FF462AF022175480AF021FED9F80C
:103B80000030D3F88400DAF8003040F6E44B0BFB49
:103B900003F506F059F8B5FBF0F00CF08DFB054687
:103BA000B4F8A2000CF08CFB014628460CF0D2FAC7
:103BB0000CF0B6F9022502460B460095654807F061
:103BC000DBFB294662480AF0FBFD30680CF0A8F9DF
:103BD000009502460B465F4807F0CEFB29465E483B
:103BE0000AF0EEFD29465A480AF0EAFD29465848EF
:103BF00008F06CFDD9F80020DAF80030D2F8840023
:103C00000BFB03F906F020F8B9FBF0F00CF054FBC5
:103C10008146B4F8A2000CF053FB014648460CF074
:103C200099FA0CF07DF9009502460B464B4807F0D7
:103C3000A3FB2946464808F049FD30680CF070F9AE
:103C4000009502460B46454807F096FB2946424838
:103C500008F03CFD3E48294608F038FDEDE6394BBA
:103C60001B68012B00F01A82022B7FF42FAFD4F8CF
:103C70009C7038460CF024FB29460CF013FD40B92B
:103C800078420CF01DFB29460CF02AFD002800F0BC
:103C90009A82DFF89CA0DFF89C90DAF80030099354
:103CA0000998D9F80030244FC01A0CF005FB2946BA
:103CB0000CF05AFB21490CF00BFC20490CF008FCDD
:103CC00039680CF049FADAF800300893089B38603C
:103CD000C9F80030FAE60CF023F9022502460B463B
:103CE00000951C4807F048FB04211D480AF068FDB8
:103CF000D8F800000CF014F9009502460B4617485E
:103D000007F03AFB1648042108F0E0FCD8F8005010
:103D1000ABE600BF3893FF1F4492FF1FDC91FF1FEB
:103D20004092FF1F1893FF1F0000FA430000FAC3E0
:103D30003CB9FF1F3892FF1F3C92FF1F00007A44DE
:103D4000CC91FF1F4487FF1F4892FF1FACC5273748
:103D5000FC8B01003888FF1FBC7F0100B487FF1F68
:103D6000C07F0100BC4806F0CDFF0CF0D9F8022559
:103D700002460B460095B94807F0FEFA0321B84801
:103D80000AF01EFDD4F89C10B44807F0CBFA0321CA
:103D9000B3480AF015FDB04806F0B4FF0CF0C0F8C7
:103DA000009502460B46AF4807F0E6FAAC480321FF
:103DB00008F08CFCD4F89C10AA4807F0B3FAA84885
:103DC000032108F083FC46E6DFF89C82DFF89C9232
:103DD000D4F89C50D9F80030D8F80060D3F884703B
:103DE00028460CF06DFA31460CF07AFC78B1684246
:103DF0000CF066FA014630460CF072FC38B19C4D6E
:103E000038460F21C5F800A006F03AFA7AE6984D38
:103E1000022338460E212B6006F032FA2B68954FAC
:103E2000012B3A687FF474AE002A40F06581D9F81E
:103E30000030DFF844A2D3F88400436B1D69ADB2B3
:103E4000CAF8005005F000FFB4F8A0308B4E40F6E1
:103E5000E44202FB05F5B5FBF0F5E81A00B20CF000
:103E60002FFA87490546D4F898000CF07DFA0146F0
:103E700028460CF02DFBD9F800303060D3F88400D0
:103E8000DAF8003040F6E44202FB03F505F0DCFE10
:103E9000B4F8A020B5FBF0F31BB29B1A002BB4F8CA
:103EA000C220B8BF5B429342BCBF002333603B6873
:103EB000002B3FF4C2AD022172480AF081FCD9F810
:103EC0000030D3F88400DAF8003040F6E44505FB12
:103ED00003F3039305F0B8FEB4F8A010039BB3FB03
:103EE000F0F31BB2591A5D4807F01CFA022165482D
:103EF0000AF066FC30680CF013F84FF0020B024633
:103F00000B46CDF800B0554807F036FA03215E485D
:103F10000AF056FC59465B480AF052FC594659488B
:103F200008F0D4FBD9F80020DAF80030D2F8840089
:103F300003FB05F505F088FEB4F8A010B5FBF0F51D
:103F40002DB2691A474807F0EDF959464D4808F077
:103F5000BDFB30680BF0E4FFCDF800B002460B4625
:103F6000404807F009FA4848032108F0AFFB4548EC
:103F7000594608F0ABFB60E5444B1B680D93444B7E
:103F80000D9A1A60A2E5D9F80030D3F8840005F044
:103F90005BFEDAF8003064389842FFF4E6ADE6E5FF
:103FA0002E48DFF8D4A007F0C5F90C2139480AF0F3
:103FB00007FC0C2138480AF003FC2A4807F0BAF93C
:103FC00034480C2108F082FB33480C2108F07EFBBA
:103FD000D9F800203B68D2F88400426B1569ADB275
:103FE000CAF80050002B3FF4A1AD05F02DFE40F6BD
:103FF000E4460A22002306FB05F1B1FBF0F1174865
:1040000007F0B0F902211F480AF0DAFBB4F8A21059
:10401000124807F087F9D9F80030DAF80010D3F821
:10402000840001FB06F605F00FFE00230A22B6FB12
:10403000F0F10C4807F096F91248022108F046FB0F
:104040000848B4F8A21007F06DF9D9F80030DAF892
:104050000050D3F8840069E51893FF1F3888FF1FCC
:10406000E07A0100B487FF1F4492FF1FCC91FF1F2D
:104070004487FF1FDC91FF1F4892FF1F4092FF1FE4
:10408000ACC52737FC8B0100A87F01003CB9FF1F9E
:104090003892FF1FAC7F0100987F010051492846EC
:1040A0000CF01EFB30B9504928460CF0FBFA0028F2
:1040B00000F08280DFF834A1DFF83491DAF80030C4
:1040C00006930698D9F800304A4FC01A0CF0F4F85D
:1040D00029460CF049F948490CF0FAF946490CF028
:1040E000F7F939680CF038F8DAF800300593059BD9
:1040F0003860C9F80030E9E4404807F01BF940484F
:1041000007F018F9E36F012B4FF00B0162D03D4827
:104110000AF056FB3B480B2108F0D8FA0C213A482C
:10412000DFF8E8A00AF04CFB37480C2108F0CEFA83
:10413000D9F800203B68D2F88400426B1569ADB213
:10414000CAF80050002B3FF47DAE05F07DFD40F62F
:10415000E4460A22002306FB05F1B1FBF0F12748F3
:1041600007F000F901212A480AF02AFBB4F8A01050
:10417000224807F0D7F8D9F80030DAF80010D3F861
:10418000840001FB06F605F05FFD00230A22B6FB62
:10419000F0F11B4807F0E6F81D48012108F096FAF7
:1041A0001748B4F8A01007F0BDF8D9F80030DAF8D5
:1041B0000050D3F8840045E60C4B1B6807930C4B6A
:1041C000079A1A6082E4094B1B680A93084B0A9A03
:1041D0001A607BE40F480AF0F3FA0E480B2108F04E
:1041E00075FA9BE70000FA430000FAC33CB9FF1FD1
:1041F0003892FF1F3C92FF1F00007A443888FF1F4F
:10420000B487FF1F8C7F0100987F01004892FF1F39
:10421000947D0100807F01002DE9F043DFF89C824E
:10422000D8F8003085B0002B00F0A680A44CA54D36
:10423000D4F88430A44EA54F012B00F0CD80D7F8E0
:104240000080E36DD4F8589009FB03F34FF47A70C3
:1042500003FB00F00CF034F89D49814640460CF019
:1042600083F849460CF034F99A490CF07DF80CF0CB
:1042700057FA632828607ADD954948460CF028F9FA
:10428000642338602B603368002B6DD0E36F012B03
:1042900000F0CA80032B00F0D780022B00F0E080F2
:1042A0008D4E8E4802210AF08BFA30680BF038FEF2
:1042B000022402460B460094894807F05DF8214627
:1042C00088480AF07DFA214684480AF079FA29687C
:1042D000834807F027F8062183480AF071FA386806
:1042E0007B490CF041F80BF01BFE009402460B4694
:1042F0007B4807F041F803217C480AF061FA7848CE
:1043000007F018F82146754808F0E0F930680BF01E
:1043100007FE009402460B46754807F02DF821462B
:10432000704808F0D3F9724807F004F8296870481B
:1043300006F0F8FF6C48062108F0C8F938686449AF
:104340000CF012F80BF0ECFD009402460B466848A6
:1043500007F012F86548032108F0B8F9644805B081
:10436000BDE8F04306F0E6BF05B0BDE8F0830028E5
:10437000BCBF00232B6086E75E48514C524EFDF7D0
:1043800045FE5D49E76E0BF0EFFF0CF0EFF9656F4E
:10439000226FA16E00953B4680B2FEF71BFD494D92
:1043A00033682860002B64D1E36D484F03FB00F0B5
:1043B000A36D03FB00F000EB800040000BF080FFDA
:1043C00043490CF085F80123C8F80030D4F8843054
:1043D0003860012B7FF433AF4648FDF717FEE36EDC
:1043E000454903930BF0C0FF0CF0C0F9D4F874C03A
:1043F000226FA16E039BCDF800C080B2FEF7EAFCED
:10440000E36DD4F85890039303FB00F009FB00F030
:1044100000EB800040000BF053FF2D490CF058F8E2
:10442000039B386080460FE7344B1B68012B3AD062
:104430000A2133480AF0C4F931480A2108F046F944
:10444000E36F032B7FF429AF10212E480AF0B8F94F
:104450002C48102108F03AF9E36F022B7FF420AFCB
:10446000072129480AF0ACF92748072108F02EF95E
:1044700016E7022119480AF0A3F92968184806F03E
:1044800051FF022115480AF09BF91448022108F057
:104490001DF92968164806F045FF1048022108F06A
:1044A00015F9286880E70A2118480AF089F91748A1
:1044B0000A2108F00BF9E36FECE600BF2492FF1F1E
:1044C0003893FF1F4087FF1F2887FF1F3C92FF1F65
:1044D000E4388E3E0000C8424492FF1FFC8B01006E
:1044E0003888FF1FBC7F0100FC7F010004800100B1
:1044F000B487FF1F6C94FF1F00007A444487FF1F9E
:10450000D47F0100E07F0100F47F0100C87F01003B
:1045100000B5112083B007F0AFFD012804D01220B0
:1045200007F0AAFD012822D10121152007F082FD04
:104530002D4B2E492E4A1B6808680193D2F888300B
:1045400003442C480221016001998B4208D8D2F81B
:1045500090000BF0B5FE284B19680CF0A3F8D0B111
:1045600001210C2003B05DF804EB07F063BD0021CE
:104570000B2007F05FFD00210C2007F05BFD002100
:10458000152007F057FD1D491A4B01200022087025
:104590001A6003B000BD01210B2007F04BFD144A47
:1045A000144992F8C8200323012A0B6016D0122068
:1045B00007F062FD012808BF104A4FF003034FF0D7
:1045C000110008BF137007F057FD012806D0002125
:1045D0000C2003B05DF804EB07F02CBD074B022262
:1045E0001A700021F4E700BF3CB9FF1FF892FF1FCB
:1045F0003893FF1F0C93FF1F4492FF1F1493FF1F5C
:1046000010B56D4A6D4C116823688B4284B034D06C
:1046100013F0010039D098070ED401F0FD011160AC
:1046200059070BD51168C80767D5990703F004002F
:104630004CD4A0B904B010BD58073ED400210520C9
:1046400007F072FB5C4A2168136803F0FB031360F8
:10465000CB0750D48B0701F0040037D468B1116840
:104660004B07E7D4564B1B68002B56D055490968B9
:1046700003910399994262D821680029DAD1162062
:1046800004B0BDE8104007F04FBB0146162007F00C
:104690004BFB494A2368106813F0020F00F0FE013B
:1046A000116020D05807C9D513F00100BAD1464B8C
:1046B00041F0020111601860D2E7CB071DD5424BD3
:1046C00041F00201002011601860C9E711683E4BFB
:1046D00041F002014FF0000C1160C3F800C0002847
:1046E000BED104B010BD00F0FC0010605807A5D585
:1046F000D907B4D596E70B4694E7344B1B68002BDB
:104700003FD03049096801910199994229D821681F
:104710008B0701F00400A1D5D8E72D4B1B68002BB7
:104720003ED1FF21052007F0FFFA264929480B68F2
:104730000293029B0068224A0344136097E7264BCA
:104740000520D3F88C1007F0EFFA1B4A2168136894
:1047500043F0040313601A4B0020186000298ED028
:1047600068E71D4B1620D3F88C1007F0DDFA124ACB
:1047700016481368002143F00103016013602168AB
:1047800068E7FF21162007F0CFFA0E4911480B68A1
:104790000093009B00680D4A03441360064AB1E78A
:1047A0000E4806F0C7FD0C210D480AF009F80B4829
:1047B00006F0C0FDB5E700BF0893FF1F0C93FF1F75
:1047C000FC92FF1F3CB9FF1F0093FF1F0493FF1FC4
:1047D0002887FF1F6887FF1F3893FF1F3888FF1F38
:1047E000088001002DE9F0476A4EDFF8AC8133689C
:1047F0006A4FD3F884006A4D0F2105F041FD002374
:10480000012222216748C8F800303A6009F0D8FF39
:104810006448222107F05AFFD8F80030132BD8BF84
:1048200040F6E44923DC3368B5F8A0A0D3F884004F
:10483000436B1C6905F008FAA4B2034601215A48EB
:1048400009FB04F4B4FBF3F4A244A5F8A0A009F01A
:10485000B7FF5548012107F039FF642007F074FCC9
:10486000D8F800300133132BC8F80030DBDDB5F881
:10487000A0304E494E48A1FB03215B1A01EB5301C6
:10488000C1F30F11A5F8A01006F04CFD1D214948F9
:1048900009F096FF0221484809F092FF444806F0CB
:1048A00049FDB5F8A010454806F03CFD41481D21E2
:1048B00007F00CFF0221404807F008FF3F4806F0D0
:1048C00039FD0023C8F8003033680E21D3F8840086
:1048D00005F0D6FC0223222132483B6009F070FF2C
:1048E0003048222107F0F2FED8F80030132B25DCE7
:1048F00040F6E4473368B5F8A290D3F88400436BE0
:104900001C6905F0A1F9A4B203460121264807FB62
:1049100004F4B4FBF3F4A144A5F8A29009F050FF0D
:104920002148012107F0D2FE642007F00DFCD8F8E1
:1049300000300133132BC8F80030DBDDB5F8A230AE
:104940001A491B48A1FB03215B1A01EB5301C1F378
:104950000F11A5F8A21006F0E5FC1D21184809F07A
:104960002FFF0221144809F02BFF114806F0E2FC4A
:10497000B5F8A210114806F0D5FC11481D2107F02A
:10498000A5FE0D48022107F0A1FEBDE8F0470B4847
:1049900006F0D0BCCC91FF1FFC91FF1F4487FF1F86
:1049A0003893FF1F188001003C8001008761188642
:1049B0003888FF1F40800100FC8B0100B487FF1F77
:1049C000608001002DE9F843BA4CBB4D082340F24A
:1049D0005132E371686D22600BF072FCB74B1B68BB
:1049E0000646002B40F03281A9690BF0BDFCB449AA
:1049F0000BF0BAFC0BF0BAFEB24BE9691F88B24B60
:104A00001FFA80F9C0F3072830461E880BF0ACFC73
:104A1000AB490BF0A9FC0BF0A9FE002369F30703D7
:104A200068F30F2367F317433F0A67F31F63A3601D
:104A3000002366F30703360A80B266F30F2360F3A0
:104A40001743000A60F31F639A49A048E36005F02A
:104A500037FF9F4A9D4813681288228103EB830326
:104A60009C4A082640F255315B001288216023736E
:104A700090496281334100276373E671E78105F055
:104A80001FFF40F2563394482360E671FDF73AFA6F
:104A900092490BF069FC0BF069FE20728E48FDF71D
:104AA00031FA8E490BF060FC0BF060FE8C4B8B49A9
:104AB000F040607218680BF00BFD0BF031FE608166
:104AC0008548FDF741FA7E490BF04EFC0BF028FEBD
:104AD00020738148FDF738FA79490BF045FC0BF05B
:104AE0001FFE3041734960737848E78105F0E8FEA6
:104AF000022007F029FB7B4A7B4B12681B68734836
:104B0000A26040F25A3121606A49E360E67105F023
:104B1000D7FE764B67496D48E67140F25E322260FF
:104B2000D3E90023A260E36005F0CAFE022007F08B
:104B30000BFB6F4B5F496548E6714FF45C72226076
:104B4000D3E90023E360A26005F0BAFE694B1B685D
:104B5000012B7DD0022007F0F7FA4FF08173A3609C
:104B6000B5F85C30A381082640F2991340F2733700
:104B70000220E3812760E67107F0E6FA56482760D5
:104B8000E671FDF7BBF95C490BF0EEFB0BF0EEFDB7
:104B900020725148FDF7B2F957490BF0E5FB0BF0D5
:104BA000E5FD20FA06F34C486372FDF7A9F9524976
:104BB0000BF0DAFB0BF0DAFDA0724748FDF7A0F925
:104BC0004D490BF0D1FB0BF0D1FD20FA06F3424822
:104BD000E372FDF719FA49490BF0BEFA0BF0C6FD76
:104BE00020733D48FDF710FA44490BF0B5FA0BF07D
:104BF000BDFD20FA06F338486373FDF703FA3F4919
:104C00000BF0AAFA0BF0B2FDA0733348FDF7FAF9E6
:104C10003A490BF0A1FA0BF0A9FD264920FA06F358
:104C20002A48E37305F04CFE022007F08DFAEA6D86
:104C3000AB6D13FB02F3022123FA06F240F2793046
:104C4000E171237262722060BDE8F883696ACCE684
:104C50002148FDF753F9296D0BF07EFA07461E48EF
:104C6000FDF74EF9014638460BF01CFD00283FF4D5
:104C700071AF40F2C3331848E6712360FDF73EF987
:104C8000EE6C31460BF00EFD002839D01A49304643
:104C90000BF06AFB0BF06AFD030A237240F201423B
:104CA00003236072034909486281E36005F008FE4E
:104CB00050E700BFBC91FF1F3893FF1FF891FF1F03
:104CC00000002041EE92FF1FEC92FF1F88B7FF1FEC
:104CD0004087FF1F5887FF1F6C94FF1F0000C842CA
:104CE0004492FF1FE892FF1FE492FF1F5087FF1FAF
:104CF0004887FF1FD091FF1F00007A4433938843F9
:104D00000948FDF7FBF809490BF02EFB0BF02EFDCF
:104D1000030A05482372FDF7F1F804490BF024FB60
:104D20000BF024FDBAE700BF6C94FF1F00007A442B
:104D30002DE9F04F83B009F0C9FCB14D286007F0B0
:104D400071FD002800F3CA80AE4C28682368042B4C
:104D500000F0CC80092B31D1AB4E96F8CA30012B34
:104D600084BF002386F8CA3096F8C930012B02D9D7
:104D7000002386F8C930322801F01782712801F02B
:104D8000C281312814D196F8C930B3FA83F30122D5
:104D90005B09226086F8C93078200123052B286042
:104DA00000F0E281032B00F0EF81012B00F057812E
:104DB000732800F00E8303B0BDE8F08F022B40F0A3
:104DC0002981A0F13103422BF2D801A252F823F03D
:104DD0007D6700004F68000065680000D96800002A
:104DE000C9660000416A0000796A0000916A00000B
:104DF000B14D0000B14D0000B14D0000B14D0000BB
:104E0000B14D0000B14D0000B14D0000B14D0000AA
:104E1000B14D0000B14D0000B14D0000B14D00009A
:104E2000B14D0000B14D0000B14D0000B14D00008A
:104E3000B14D0000B14D0000B14D0000B14D00007A
:104E4000B14D0000B14D0000B14D0000B14D00006A
:104E5000B14D0000B14D0000B14D0000B14D00005A
:104E6000B14D0000B14D0000B14D0000B14D00004A
:104E7000B14D0000B14D0000B14D0000B14D00003A
:104E8000B14D0000B14D0000B14D0000B14D00002A
:104E9000B14D0000B14D00000D500000B14D0000BB
:104EA000B14D0000B14D0000B14D0000B14D00000A
:104EB000B14D0000B14D0000B14D0000B14D0000FA
:104EC000B14D0000B14D0000B14D0000B14D0000EA
:104ED000CB530000B14D000063670000494C07F060
:104EE000B5FC23682860042B7FF434AFA0F13103B4
:104EF000402B3FF65DAF01A252F823F03B66000065
:104F00004166000047660000656600006B660000B1
:104F10008366000047510000F1650000F76500005E
:104F2000B14D0000B14D0000B14D0000B14D000089
:104F3000B14D0000B14D0000B14D0000B14D000079
:104F4000B14D0000B14D0000B14D0000B14D000069
:104F5000B14D0000B14D0000B14D0000B14D000059
:104F6000B14D0000B14D0000B14D0000B14D000049
:104F7000B14D0000B14D0000B14D0000B14D000039
:104F8000B14D0000B14D0000B14D0000B14D000029
:104F9000B14D0000B14D0000B14D0000B14D000019
:104FA000B14D0000B14D0000B14D0000B14D000009
:104FB000B14D0000B14D0000B14D0000B14D0000F9
:104FC000B14D0000B14D0000B14D0000B14D0000E9
:104FD000B14D0000B14D0000B14D0000B14D0000D9
:104FE000B14D0000B14D0000B14D0000B14D0000C9
:104FF000B14D0000B14D0000B14D00003166000020
:105000000092FF1FD491FF1F3893FF1FFFF7EAFBA9
:1050100023682868082B40F08580322876D07128D4
:1050200000F0D38131287FF4C3AE09F095FB00284E
:1050300001F33482E04E07F0F5FB002802F34586C9
:1050400096F84410B26CDD48022984BF002186F82E
:105050004410FCF75BFF6920012323602860A0F166
:105060005203262B3FF6A4AE01A252F823F000BF54
:10507000C96A0000B14D0000B14D0000B14D000003
:10508000B14D0000B14D0000B14D0000B14D000028
:10509000B14D0000B14D0000B14D0000B14D000018
:1050A000B14D0000B14D0000B14D00007955000038
:1050B0008B7C0000895C00007B5C0000BF58000016
:1050C000B14D0000B14D0000B14D0000B1580000DD
:1050D000B14D0000B5800000B14D0000B14D0000A1
:1050E000B14D0000B14D0000B14D0000A9660000B7
:1050F000B14D0000B14D0000B14D0000B14D0000B8
:10510000B14D0000B14D00008755000009F024FBAF
:10511000002801F3E18107F085FB002801F3C88135
:1051200023682868072B19D1342800F34B813028D5
:105130007FF73EAE3238022802F2BF87DFE810F078
:10514000F607E8070C089E4A1368B3FA83F30121B7
:105150005B0921601360642001232860062B00F0A6
:10516000A180052B7FF41EAE352801F3298030285D
:105170007FF71EAE3238032802F2B687DFE810F060
:10518000490848092B086609A0F13003422B3FF675
:105190000FAE01A252F823F07F780000CD6A000024
:1051A000076B00003174000073740000B5740000D8
:1051B0000375000051750000D17500001B760000DA
:1051C000B14D0000B14D0000B14D0000B14D0000E7
:1051D000B14D0000B14D0000B14D0000B14D0000D7
:1051E000B14D0000B14D0000B14D0000B14D0000C7
:1051F000B14D0000B14D0000B14D0000B14D0000B7
:10520000B14D0000B14D0000B14D0000B14D0000A6
:10521000B14D0000B14D0000B14D0000B14D000096
:10522000B14D0000B14D0000B14D0000B14D000086
:10523000B14D0000B14D0000B14D0000B14D000076
:10524000B14D0000B14D0000B14D0000B14D000066
:10525000B14D0000B14D0000B14D0000FD780000DF
:105260003779000071790000AB790000917C000073
:1052700069760000FF7600004D770000B14D000018
:105280009F770000E1770000B14D0000B14D0000B4
:10529000B14D0000B14D0000B14D00002F7800006D
:1052A0003D780000A0F13103402B3FF681AD01A213
:1052B00052F823F01969000065690000B169000027
:1052C000F96900008F670000A3670000DF67000036
:1052D0007D6100008F610000B14D0000B14D000004
:1052E000B14D0000B14D0000B14D0000B14D0000C6
:1052F000B14D0000B14D0000B14D0000B14D0000B6
:10530000B14D0000B14D0000B14D0000B14D0000A5
:10531000B14D0000B14D0000B14D0000B14D000095
:10532000B14D0000B14D0000B14D0000B14D000085
:10533000B14D0000B14D0000B14D0000B14D000075
:10534000B14D0000B14D0000B14D0000B14D000065
:10535000B14D0000B14D0000B14D0000B14D000055
:10536000B14D0000B14D0000B14D0000B14D000045
:10537000B14D00001B670000B14D0000B14D0000B1
:10538000B14D0000B14D0000B14D0000B14D000025
:10539000B14D0000B14D0000B14D0000B14D000015
:1053A000B14D0000B14D0000B14D0000B14D000005
:1053B000B14D0000CB5300003893FF1F6C94FF1FCA
:1053C000E091FF1F71287FF4F3AC00227323226069
:1053D0002B602368002B7FF4EEAC6D4E6D486E4D54
:1053E00005F0A8FF04216D4809F0EAF9694805F0C5
:1053F000A1FF10216A4809F0E3F9664805F09AFF19
:105400001321684809F0DCF92968624805F08AFF31
:10541000604805F08FFF1421634809F0D1F95D4819
:1054200005F088FF1E21614809F0CAF9594805F0C6
:1054300081FF15215E4809F0C3F9564805F07AFF4F
:105440001E215C4809F0BCF9524805F073FF202189
:10545000594809F0B5F94F4805F06CFF1921574834
:1054600009F0AEF94B4805F065FF1221544809F0E8
:10547000A7F9484805F05EFF1921524809F0A0F944
:10548000444805F057FF0F214F4809F099F941486A
:1054900005F050FF0D214D4809F092F93D4805F007
:1054A00049FF4B4805F046FF04213C4807F00EF940
:1054B000474805F03FFF1021394807F007F94448F5
:1054C00005F038FF3748132107F000F929684048F4
:1054D00005F028FF3E4805F02DFF1421324807F063
:1054E000F5F83B4805F026FF1E21304807F0EEF89E
:1054F000374805F01FFF15212D4807F0E7F834481D
:1055000005F018FF1E212B4807F0E0F8304805F0A1
:1055100011FF2021284807F0D9F82D4805F00AFF8F
:105520001921264807F0D2F8294805F003FF122177
:10553000234807F0CBF8264805F0FCFE1921214846
:1055400007F0C4F8224805F0F5FE0F211E4807F0C9
:10555000BDF81F4805F0EEFE0D211C4807F0B6F817
:105560001B4805F0E7FE002201233260236003B0F0
:10557000BDE8F08F09F0AAF809F0EEF80028F9D19B
:105580002AE009F0A3F809F0E7F80028F9D1FFE0D4
:105590002887FF1F3888FF1F7087FF1FC084010006
:1055A000C8840100DC840100F0840100088501004A
:1055B0002885010040850100608501008485010087
:1055C000A0850100B4850100D0850100E0850100BF
:1055D000B487FF1F07F03AF907F024F905460028C1
:1055E000F8D1B948B94E05F0A5FEB74805F0A2FEBE
:1055F000B54805F09FFEB44805F09CFEB24805F0A2
:1056000099FE1F21B24809F0DBF8AF4805F092FE81
:105610001C21B04809F0D4F8B06AAF490AF0A4FEE2
:105620000AF07EFC009502460B46A74805F0A4FE52
:105630000221AA4809F0C4F8A34805F07BFE232103
:10564000A74809F0BDF8306CA3490AF08DFE0AF0B6
:1056500067FC009502460B469B4805F08DFE022133
:105660009E4809F0ADF8984805F064FE19219D4860
:1056700009F0A6F8F06B0AF053FC022702460B462D
:105680009148009705F078FE3946974809F098F858
:105690008D4805F04FFE1921944809F091F8B6F8AD
:1056A000C010894805F03EFE0321914809F088F8B2
:1056B000854805F03FFE8F4805F03CFE8D4805F01B
:1056C00039FE8C4805F036FE8A4805F033FE8948DD
:1056D00005F030FE1F217E4806F0F8FF854805F0F2
:1056E00029FE7C481C2106F0F1FFB06A7A490AF0D5
:1056F0003BFE0AF015FC009502460B467D4805F07E
:105700003BFE3946754806F0E1FF7A4805F012FE87
:105710007348232106F0DAFF306C6F490AF024FE4B
:105720000AF0FEFB009502460B46724805F024FE87
:1057300039466A4806F0CAFF6E4805F0FBFD694825
:10574000192106F0C3FFF06B0AF0EAFB00970B4645
:105750000246684805F010FE3946634806F0B6FF79
:10576000644805F0E7FD6148192106F0AFFFB6F87F
:10577000C010604805F0D6FD5D48032106F0A6FF85
:105780005C4805F0D7FD072300F0B9BC07F05EF8D0
:1057900007F048F805460028F8D14B484B4E05F075
:1057A000C9FD494805F0C6FD474805F0C3FD464818
:1057B00005F0C0FD444805F0BDFD15214E4808F038
:1057C000FFFF414805F0B6FD3F4805F0B3FD2C2131
:1057D0004A4808F0F5FF3C4805F0ACFD2521484853
:1057E00008F0EEFF0A222B4696F8C910364805F05D
:1057F000B9FD354805F09EFD1921424808F0E0FF4B
:105800003C4805F097FD3B4805F094FD394805F00C
:1058100091FD384805F08EFD364805F08BFD1521C9
:10582000354806F053FF334805F084FD314805F054
:1058300081FD2C21314806F049FF2E4805F07AFD04
:105840002F48252106F042FF2B4696F8C91029481B
:105850000A2205F087FD274805F06CFD294819212B
:1058600006F034FF96F8CA30002B42F058820E2121
:10587000254808F0A5FF144805F05CFD22480E21DC
:1058800006F024FF1B4805F055FD13211F4808F0C2
:1058900097FF0D4805F04EFD1C48132106F016FF3A
:1058A000144805F047FD092300F029BC08F00EFF5D
:1058B00008F052FF0028F9D12CE008F007FF08F0AB
:1058C0004BFF0028F9D1C5E03888FF1F3893FF1F30
:1058D000648301008483010000007A44CC7C0100D1
:1058E000A4830100C883010038830100E483010020
:1058F00000840100B487FF1FB8850100A480010067
:10590000D4800100FC800100188101003C8101006D
:1059100006F09CFF06F086FF05460028F8D14348B4
:10592000434E05F007FD414805F004FD3F4805F0F2
:1059300001FD3E4805F0FEFC3C4805F0FBFC15214E
:105940003C4808F03DFF394805F0F4FC18213A487E
:1059500008F036FF0A222B4696F84410334805F02B
:1059600001FD324805F0E6FC2821344808F028FF04
:10597000B06C33490AF0F8FC0AF0D2FA00950246FE
:105980000B462A4805F0F8FC02212E4808F018FFC3
:10599000264805F0CFFC13212B4808F011FF2348BF
:1059A00005F0C8FC294805F0C5FC284805F0C2FCF4
:1059B000264805F0BFFC254805F0BCFC234805F04F
:1059C000B9FC15211B4806F081FE204805F0B2FC09
:1059D0001948182106F07AFE2B460A2296F8441040
:1059E0001A4805F0BFFC194805F0A4FC134828210B
:1059F00006F06CFEB06C12490AF0B6FC0AF090FAA0
:105A000000950B460246114805F0B6FC02210D48F0
:105A100006F05CFE0D4805F08DFC0B48132106F0E6
:105A200055FE0A4805F086FC082368E33888FF1F06
:105A30003893FF1F88850100508101006C810100AF
:105A400000007A44CC7C01003C810100B487FF1F38
:105A500006F0FCFE06F0E6FE05460028F8D18D486B
:105A60008D4E05F067FC8B4805F064FC894805F015
:105A700061FC884805F05EFC864805F05BFC11215E
:105A8000864808F09DFE834805F054FC2821844890
:105A900008F096FEB06983490AF066FC0AF040FA05
:105AA000009502460B467B4805F066FC02217E48C5
:105AB00008F086FE774805F03DFC16217B4808F08B
:105AC0007FFE306A77490AF04FFC0AF029FA009508
:105AD00002460B466F4805F04FFC0221724808F061
