:1000000000800020BD01000055BB000011BB0000B6
:1000100011BB000011BB000011BB000011BB0000B0
:1000200011BB000011BB000011BB000055BB00005C
:1000300055BB000011BB0000E1AE0000E5AE0000C2
:1000400055BB000055BB000055BB000055BB000070
:1000500055BB000055BB000055BB000055BB000060
:1000600055BB000055BB000055BB000055BB000050
:1000700055BB000055BB000055BB000055BB000040
:1000800055BB000055BB000055BB000055BB000030
:1000900055BB000055BB000055BB000055BB000020
:1000A00055BB000055BB000055BB000055BB000010
:1000B00055BB0000DDAC0000E9AC0000EDAC000079
:1000C000F9AC0000FDAC000001AD000055BB000024
:1000D00055BB000055BB000055BB000055BB0000E0
:1000E00055BB000055BB000055BB000055BB0000D0
:1000F00055BB0000C9C9000055BB000049D3000032
:1001000055BB0000B9DA000055BB000055BB00002C
:1001100055BB000055BB000055BB000055BB00009F
:1001200055BB000055BB000055BB000055BB00008F
:1001300055BB000055BB000055BB000055BB00007F
:1001400055BB000055BB000055BB000055BB00006F
:1001500055BB000055BB000055BB000055BB00005F
:1001600055BB0000D9DD000055BB000055BB0000A9
:1001700055BB000055BB000055BB000055BB00003F
:1001800055BB000055BB000055BB000055BB00002F
:1001900055BB000055BB000055BB000055BB00001F
:1001A00055BB000055BB000055BB000055BB00000F
:1001B00055BB000055BB000055BB0000534B4CF233
:1001C000205210B5DA814DF62812DA8100BF00BF47
:1001D0000BF0C4FC4E4B4FF010621A634D4A9A6309
:1001E0004D4ADA634D4A136913F4807303D15361A6
:1001F0004FF4A85313614A4B9A78110703D59A78A4
:1002000042F008029A70474B47492A221A70474B1E
:10021000474A8B4204D252F8040B43F8040BF8E728
:10022000444B454900228B4202D243F8042BFAE7A3
:10023000424943484FF4DE720BF096FB414B424A71
:10024000802103F8011B9342FBD14FF0E0233C4A8D
:10025000C3F8082D3D4B8A221A70A3F5805324223F
:100260005A70A0221A709A799207FCD59A79D4060E
:10027000FCD4374B9A7902F00C02082AFAD10322F7
:100280001A7140225A719A799006FCD5304A9379B6
:100290005906FCD51E4B2F4959640221996420212F
:1002A0001170917901F00C010C29FAD12A4A5A6097
:1002B0004FF0E023294A5A6100229A6107221A610D
:1002C000274AC3F8202D62B60BF0FEFC134B5B6986
:1002D000DA0705D523480BF0EBFC234B234ADA6100
:1002E000234B1B785B0609D51F4C204BE2699A42D1
:1002F00004D11C480BF0DCFC0023E3610BF034FC60
:1003000011F040F90BF028FBFEE700BF002005408C
:1003100000800440823F04000100002B00D0034015
:1003200000D0074000E007407491FF1F2087FF1FA7
:10033000709801008091FF1F20BFFF1F0000000088
:100340000082FF1F00E400E05FE400E00050064090
:100350000040064000000301C0100500FF760100C8
:1003600000002020177FB66A00E00340A5C3945A1E
:1003700000F00740FFFFFFFFFFFFFFFFFFFFFFFF52
:10038000FFFFFFFFFFFFFFFFFFFFFFFFFFFFFFFF7D
:10039000FFFFFFFFFFFFFFFFFFFFFFFFFFFFFFFF6D
:1003A000FFFFFFFFFFFFFFFFFFFFFFFFFFFFFFFF5D
:1003B000FFFFFFFFFFFFFFFFFFFFFFFFFFFFFFFF4D
:1003C000FFFFFFFFFFFFFFFFFFFFFFFFFFFFFFFF3D
:1003D000FFFFFFFFFFFFFFFFFFFFFFFFFFFFFFFF2D
:1003E000FFFFFFFFFFFFFFFFFFFFFFFFFFFFFFFF1D
:1003F000FFFFFFFFFFFFFFFFFFFFFFFFFFFFFFFF0D
:10040000FFFFFFFFFFFFFFFFFFFFFFFFDEF9FFFF23
:100410000548064B1B1AD90F01EBA301491002D066
:10042000034B03B1184770477491FF1F7491FF1F6E
:100430000000000008B5054B1BB105490548AFF3A6
:100440000080BDE80840FFF7E3BF00BF00000000E8
:100450008091FF1F689801002DE9F04F85B0074695
:100460000E9E0393002EB4BFF31D3346DB10013301
:100470005B000293431C00934B1E8B4691460193F5
:100480004FF003083D7845EA090420460DF03CFA98
:10049000DDE900010DF042FA3C70B9F1000F6CD1BA
:1004A00002F014F9002840D102983D700BF074FE60
:1004B00002F00CF9002833D1039C002501E001353E
:1004C00001340DF063FA98B1AE4211DD0DF072FA0D
:1004D000207002F0FBF80028F1D021784348002377
:1004E00010220AF067FF012141480EF091F9E6E77A
:1004F000AE4209D002F0EAF800284FD1B8F1010865
:10050000C0D109E00DF056FA0DF040FA0028F9D1FB
:1005100002F0DCF8002845D1284605B0BDE8F08F90
:10052000072134480EF074F9C6E7092132480EF06D
:100530006FF92146002310222C480AF03BFF2C487B
:1005400001210EF065F9BBF1010F32DD009C07EBD4
:100550000B0A14F8011B2548002310220AF02AFF79
:10056000234801210EF054F95445F2D1B9F1000F9E
:1005700029D11E480AF006FF96E7BBF1000F32D0E2
:100580001E493A4607EB0B0A002012F8013B434094
:100590009245C85CF9D10DF0B7F981E713480AF02C
:1005A000F1FEABE711480AF0EDFE284605B0BDE8C4
:1005B000F08FB9F1000FDCD0BBF1010F18BF0021A3
:1005C0000BD107F1010A0D493846002310F8012B21
:1005D00053405045CB5CF9D1194600231022034803
:1005E0000AF0E8FEC5E75846D5E700BF3888FF1F88
:1005F000D47D0100447A0100387A0100AC900100FA
:1006000010B518220446002110F000FF0E4BA36124
:10061000E36123626362A362E3620021182204F1B2
:10062000300010F0F3FE00210023084A084884F847
:100630008410E065A364E36423656365A2652266B4
:100640006366204610BD00BF0000A0400000484384
:100650000000C8C2F0B590F8843087B00446002589
:1006600004265B0001278DF80C302A4604AB009667
:10067000032103A88DF80D508DF80E70FFF7ECFEE6
:1006800094F884308DF80E60BB408DF80C30072351
:10069000009320238DF80D302A4604AB032103A8D4
:1006A000FFF7DAFE00962A4694F884508DF80E7013
:1006B000BD408DF80C509DF8135025679DF81450DF
:1006C00065679DF81550A5679DF81650E56704AB62
:1006D000032103A833248DF80D40FFF7BDFE07B0BA
:1006E000F0BD00BF90F87400704700BF90F8700034
:1006F000704700BF90F87800704700BF90F87C000A
:10070000704700BF00B590F8841087B004234900FB
:1007100000204FF0320C0093012204AB8DF80C1036
:100720008DF80E00032103A88DF80DC0FFF794FE8D
:1007300002200BF031FD07B000BD00BF2DE9F04FE6
:10074000064691B096F8843002205B008DF80830A0
:100750000BF022FD96F8843030465B008DF80830AF
:10076000FFF778FFF16FB26F736F01910092B1489C
:10077000326F96F8841002F0DBF8032530233D2217
:100780008DF80A208DF80930012203AB2946009527
:1007900002A8FFF761FE31238DF80930012203AB77
:1007A0002946009502A801248DF80A50FFF754FE4F
:1007B00034238DF80930224603AB0095294602A860
:1007C0008DF80A40FFF748FE8DF8094012239A4C35
:1007D0008DF80A304FF01608CDF8008003AB0022E8
:1007E000032102A8FFF738FE0128074640F31A81CB
:1007F0000DF10B0103AA0128ACBF091801314FF01C
:10080000000912F8013B83EA0903914214F80390AE
:10081000F7D1CB469DF821A088485A46514602F0B0
:1008200087F8162F02D1CA4500F0008105200BF091
:10083000B3FC013DD0D1162F96F884100AD0804821
:10084000CDF800B053463A4602F098F8002011B0B7
:10085000BDE8F08FCA45F2D19DF80C30B3EB410FE3
:10086000F4D19DF80D30012BF0D19DF80E30122BF4
:10087000ECD19DF810309DF80F0003EB00200FF035
:1008800047FD70490FF098FD716EF06404460FF05B
:100890004FFF00B17466316E20460FF02BFF00B1A0
:1008A0003466A6F10408DFF8A0A103AC06F1140930
:1008B0004546A379607903EB00200FF029FD5146EE
:1008C0000FF07AFD45F8040FA96907460FF012FFF3
:1008D00028B1B16E38460FF021FF00B1AF61296B2E
:1008E00038460FF025FF00B12F63A94504F102043B
:1008F000DFD1002058F8041F0FF056FCC145F9D194
:100900009DF81E209DF81D30B0644FF4807513FBD8
:100910000523981C0FF0FCFC4C490FF001FE01462A
:100920004B480FF0FDFD4B490FF03CFC4A490FF0DE
:1009300043FD07460EF0B0F9044638460EF0ACF918
:1009400046490EF0D3F94649074620460FF034FDDC
:1009500044490FF029FC4449044638460FF02CFD69
:10096000014620460FF020FC01464FF07E500FF06C
:10097000D7FD3E490FF016FC9DF8203004469DF847
:100980001F00346510FB053009300FF0C1FC3849F9
:100990000FF0C6FD01462E480FF0C2FD2D490FF0A5
:1009A00001FC2D490FF008FD07460EF075F90546CC
:1009B00038460EF071F929490EF098F92849074692
:1009C00028460FF0F9FC27490FF0EEFB26490546B3
:1009D00038460FF0F1FC014628460FF0E5FB0146D2
:1009E0004FF07E500FF09CFD20490FF0DBFBD6F856
:1009F0008030D6F8589070650546002B3AD10146F4
:100A000020460FF077FE8046002847D0274649460B
:100A100038460FF06FFE00B1B765B8F1000F32D065
:100A20002C4630E04FF0000BD946F3E696F88410E0
:100A300012E700BF4C7A0100AC900100807A0100FF
:100A4000CC7A01006B57053B2003C83900160147DB
:100A50000AD7E33FE17A644000007A440000404056
:100A6000A40D8F395A80473A46A6DB333393884327
:100A7000002C01471333494656F8234020460FF017
:100A800039FE00B1B465F06D21460FF033FE00B1C0
:100A9000F465034801F04CFF0120D8E62F46B6E785
:100AA000A47A0100052994BF50F821000020704766
:100AB0002DE9F0410B4E8046041F00F1140754F855
:100AC000045F314628460FF015FE30B1D8F86810A3
:100AD00028460FF02DFE00B12E46A742EFD130463A
:100AE000BDE8F08100002041F8B50026051F00F1A7
:100AF000140755F8044F314620460FF019FE00B98F
:100B00003446BD422646F4D12046F8BD2DE9F84FC3
:100B1000D0F86880DFF858B082460026041F00F144
:100B200014074FF0000954F8045F414628460FF0BF
:100B3000FFFD58B1594628460FF0DCFD30B1304674
:100B400029460FF031FB09F101090646A742EAD117
:100B5000CAF88890B9F1000F07D048460FF0D8FBCB
:100B6000014630460FF0DCFC06463046BDE8F88F03
:100B700000007042D0F88800704700BFD0F8803085
:100B800063B900B5036D416D83B01846CDE900131C
:100B90000FF0B0FD30B1019803B000BD133350F831
:100BA00023007047009803B000BD00BFD0F880302C
:100BB00063B900B5036D416D83B018460093019190
:100BC0000FF098FD30B1019803B000BD133350F819
:100BD00023007047009803B000BD00BF08B5D0F8EF
:100BE000803043B9416D006D0FF0DEFA4FF07C515B
:100BF0000FF0E2FB08BD133350F8230008BD00BF1F
:100C0000806C704701299ABF143150F821000020F0
:100C1000704700BF3E2998BF80F88410704700BF1E
:100C200090F86C00704700BFC0F88010704700BF9C
:100C300080F86C10704700BF8166704770B500F592
:100C40000A55064600F128041C3520468C34FFF76F
:100C5000D7FCAC42F9D106F1B405012428460021A5
:100C6000FFF7E6FF214628460134FFF7D3FF3F2C6C
:100C700005F18C05F2D10749316106F500530022D8
:100C8000726105480549B0610022F161304683F880
:100C9000A42270BD00007A44000048430000C8C28E
:100CA000F8B500F50057002300F50A56C7F8A8323A
:100CB00000F1B4041C3602E08C34B4420FD020465C
:100CC000FFF7AEFF0028F7D02046D7F8A852FFF76D
:100CD00051FF8C340544B442C7F8A852EFD1D7F87D
:100CE000A802F8BD2DE9F04F00F5005393B08046FF
:100CF000012A4FF00000C3F8AC02069100F0E48135
:100D000008F1B4094FF0010B0793029207E00BF1D1
:100D1000010BBBF13F0F09F18C0900F0F28048464E
:100D2000FFF77EFF0028F2D000273C460126D8F8C6
:100D3000085039464846FFF7B5FE29460FF0F8FC43
:100D400006FA07F32343DBB20137002818BF1C461D
:100D5000062FECD1029B0194012B00F0D580002CD2
:100D6000D5D04FEA4B0242F00105EDB233238DF8A6
:100D700025302846069BB34E03928DF824208DF82B
:100D800026300CF0C1FD02210DF125000CF0C6FD4E
:100D90008DF82450725D9DF82530059253409DF8E2
:100DA0002620F35C5340F05C0CF0AEFD01F08EFCAD
:100DB000002840F05781039B8DF8243002200BF06F
:100DC000EBF901F083FC002840F036810AAB049374
:100DD0001F464FF0000A01E00AF1010A0CF0D6FDAF
:100DE000002800F0CE80BAF11E0F15D00CF0E2FD05
:100DF00007F8010B044601F069FC0028ECD0E1B2D1
:100E00000023102290480AF0D5FA01218F480DF0F6
:100E1000FFFCE1E70CF0CEFD0CF0B8FD0028F9D1A5
:100E200001F054FC002840F0B580029B012B00F03B
:100E3000B880039B8DF82430019B8DF8263028461E
:100E400032238DF825300CF05FFD0DF125000221D5
:100E50000CF064FD059A9DF825308DF82450534020
:100E60009DF82620F35C5340F05C0CF04DFD01F042
:100E70002DFC002840F0AE80039B8DF8243002202A
:100E80000BF08AF901F022FC002840F09E80049DBE
:100E9000002700E001370CF079FD00284ED01E2F0E
:100EA00015D00CF087FD05F8010B044601F00EFC8F
:100EB0000028EFD0E1B20023102263480AF07AFA4A
:100EC000012162480DF0A4FCE4E70CF073FD0CF086
:100ED0005DFD0028F9D101F0F9FB002834D1029B17
:100EE000012B37D0079A0199D2F8AC320BF1010BE4
:100EF0000B44BBF13F0FC2F8AC3209F18C097FF40F
:100F00000EAF13B0BDE8F08F59464F480AF032FAE1
:100F100003214F480DF07CFC019C4B4821460023E7
:100F200002220AF047FA4B4803210DF071FC002C15
:100F30007FF417AF44480AF025FAE8E61E2FC6D022
:100F400001F0C4FB0028CAD03F480AF01BFA029BFC
:100F5000012BC7D1049C251D14F8011B3A4800231E
:100F600010220AF027FA3C4801210DF051FCAC4256
:100F7000F2D1079A0199D2F8AC320B44C2F8AC32E4
:100F8000D8E7BAF11E0F3FF447AF01F09FFB0028EE
:100F90003FF44BAF2C480AF0F5F9029B012B7FF48C
:100FA00048AF049F3C1D17F8011B2748002310225F
:100FB0000AF000FA284801210DF02AFCBC42F2D1C7
:100FC000032124480DF024FC33E7072123480DF0CA
:100FD0001FFC5CE7092122480DF01AFC294600237A
:100FE000102219480AF0E6F9184801210DF010FC0A
:100FF00009AD0DF1260715F8011F13480023102233
:101000000AF0D8F9114801210DF002FCBD42F2D1DD
:101010009DF824309DF82520F35C0B4853409DF843
:101020002620F35C53401022F15C00230AF0C2F941
:1010300005480AF0A7F91FE7072108480DF0E8FB6B
:10104000C4E600BFAC9101003888FF1FD47D0100C9
:101050001C7B0100207B0100247B0100447A0100FD
:10106000387A010009211C480DF0D2FB0023102220
:1010700029461A480AF09EF9194801210DF0C8FBCB
:1010800009AF0DF1260A17F8011F1448002310229A
:101090000AF090F9124801210DF0BAFB5745F2D140
:1010A0009DF824309DF82520F35C0C4853409DF8B2
:1010B0002620F35C53401022F15C00230AF07AF9F9
:1010C00006480AF05FF976E60448029201930AF0B6
:1010D00059F9029A019B13E6387A01003888FF1FFC
:1010E000D47D01002DE9F04F87B04FF0000B019047
:1010F0000123ADF808B08DF80A304FF00308002541
:1011000028460CF001FC02210DF109000CF006FC50
:101110008DF8085001F0DAFA002840F0E180022052
:101120008DF808500BF038F801F0D0FA002840F0A4
:10113000D28003AF3E46002400E001340CF026FCD0
:10114000002800F0BC80042C15D00CF033FC06F80D
:10115000010B054601F0BAFA0028EED0E9B20023EF
:1011600010229D480AF026F901219C480DF050FB01
:10117000E3E70CF01FFC0CF009FC04460028F8D152
:1011800001F0A4FA002840F0E0809DF80C30802B9C
:1011900040F0CE809DF80D30002B40F0C9809DF8C6
:1011A0000E50012D40F0C4808D4801F0C1FB019B21
:1011B00003F1B40604E001353F2D06F18C0697D00B
:1011C0003046FFF72DFD0028F5D165F07F02DFF8EE
:1011D000149200904FF46C5101208DF80A20ADF864
:1011E00008100CF091FB02210DF109000CF096FBA8
:1011F00099F801209DF809104FF001084A408DF838
:1012000008809DF80A1019F802204A4019F80200D7
:101210000CF07AFB01F05AFA002840F09F8003207E
:101220008DF808B00AF0B8FF01F050FA08B190E06C
:1012300001340CF0ABFB00287DD00A2C16D00CF04A
:10124000B9FB07F8010B804601F040FA0028EFD007
:101250005FFA88F1002310225F480AF0ABF8012101
:101260005E480DF0D5FAE3E70CF0A4FB0CF08EFB22
:101270000028F9D101F02AFA002840F0A9809DF851
:101280000C30812B7FF434AF9DF80D303B2B7FF475
:101290002FAF9DF80E308035AB427FF429AF30463A
:1012A0000121FFF7C5FC019B4F4803F50052D2F81E
:1012B000A0320133C2F8A03201F03AFB18E7042C47
:1012C0003FF459AF01F002FA60BBB8F101082FD02A
:1012D0009DF8085014E7072144480DF099FA28E7D3
:1012E000092143480DF094FA0023102229463A4878
:1012F0000AF060F8394801210DF08AFA02AC0DF1CC
:101300000A0614F8011F3448002310220AF052F88C
:10131000324801210DF07CFAA642F2D12E480AF0A3
:1013200031F8FCE62C480AF02DF8B8F10108CFD1CD
:1013300007B0BDE8F08F0A2C98D001F0C7F900285B
:1013400042D1022C7FF7D4AE99E723480AF01AF86D
:101350001BE7072125480DF05BFA6AE709212448BD
:101360000DF056FA4146009B1B4810220AF022F865
:1013700041461A480DF04CFA0DF108080DF10A0A21
:1013800018F8011F1448002310220AF013F813481C
:1013900001210DF03DFAD045F2D19DF808309DF8BD
:1013A000092019F803300C4853409DF80A2019F819
:1013B00003305340102219F80310002309F0FAFFFC
:1013C000054809F0DFFF2AE7034809F0DBFFB8E72B
:1013D000014809F0D7FF52E73888FF1FD47D01008C
:1013E000287B0100AC910100347B0100447A0100AC
:1013F000387A01002DE9F04300F5005985B000234B
:101400000122C9F8A032ADF804308DF8062000F1B1
:10141000B408022700214046FFF70AFC38468DF841
:1014200004700CF071FA02210DF105000CF076FA4F
:101430003D468DF8047001F049F9002865D114206B
:101440008DF804500AF0A8FE01F040F9002857D1A9
:101450000DF10706002400E001340CF097FA70B398
:10146000082C15D00CF0A6FA06F8010F054601F07D
:101470002DF90028F0D0E9B200231022384809F0F5
:1014800099FF012137480DF0C3F9E5E70CF092FA16
:101490000CF07CFA0028F9D101F018F900285AD193
:1014A0009DF80830BB4216D0052002370AF074FEC2
:1014B0007E2F08F18C08ADD105B0BDE8F083082C73
:1014C000E6D001F003F9002841D1042CECDD9DF8B1
:1014D0000830BB42E8D19DF80930002BE4D19DF8DB
:1014E0000A100129E0D19DF80C30002BDCD04046D9
:1014F000FFF79EFBD9F8A0320133C9F8A032D3E739
:10150000072119480DF084F9A2E7092117480DF0C9
:101510007FF9002310223946114809F04BFF11488A
:1015200001210DF075F901AC0DF1060614F8011F4B
:101530000B480023102209F03DFF0A4801210DF05D
:1015400067F9A642F2D1064809F01CFF77E7044884
:1015500009F018FFB9E7024809F014FFA0E700BF3F
:101560003888FF1FD47D0100447A0100387A0100D9
:101570002DE9F04700F50A5584B0804600F1B40427
:101580001C3500F500570026204600218C34FFF75B
:101590004FFBAC42C7F8A062F6D15C4F4FF0020996
:1015A0004FF07F0A43F67E42A5237F20ADF804204A
:1015B0008DF806300CF0A8F902210DF105000CF0B1
:1015C000ADF997F87F309DF805208DF804A05340C1
:1015D0009DF80620FB5C5340F85C0CF095F901F097
:1015E00075F800285BD17E2364208DF804300AF062
:1015F000D3FD01F06BF8002840F083800DF1070661
:10160000002400E001340CF0C1F958B3082C15D0C7
:101610000CF0D0F906F8010F054601F057F8002844
:10162000F0D0E9B200231022394809F0C3FE0121AD
:1016300038480DF0EDF8E5E70CF0BCF90CF0A6F930
:101640000028F9D101F042F890B99DF808307F2BBD
:1016500015D0B9F1010F1FD14046FFF743FD04B08B
:10166000BDE8F087082CE9D001F030F80028ECD074
:10167000274809F087FE9DF808307F2BE9D19DF8B7
:1016800009303C2BE5D19DF80A30A52BE1D19DF81E
:101690000B30572BDDD1DFE74FF0010982E709213D
:1016A0001D480DF0B5F8002310227F21184809F0DD
:1016B00081FE184801210DF0ABF801AC0DF10605D3
:1016C00014F8011F12480023102209F073FE11487C
:1016D00001210DF09DF8A542F2D19DF804309DF84E
:1016E0000520FB5C0A4853409DF80620FB5C5340F4
:1016F0001022F95C002309F05DFE054809F042FE66
:1017000071E7072105480DF083F877E7AC910100F8
:101710003888FF1FD47D0100387A0100447A010027
:101720002DE9F04385B042F27F02FF23C04EADF8B1
:10173000042081468DF806304FF003087F2545F0E0
:10174000010420460CF0E0F802210DF105000CF038
:10175000E5F88DF804409DF80520335D53409DF871
:101760000620F35C5340F05C0CF0CEF800F0AEFFC6
:10177000002840F0F98102208DF804500AF00CFD99
:1017800000F0A4FF002840F0EA8102AF002400E04E
:1017900001340CF0FBF8002800F05F81042C15D018
:1017A0000CF008F907F8010B054600F08FFF002840
:1017B000EED0E9B2002310229E4809F0FBFD012182
:1017C0009D480DF025F8E3E70CF0F4F80CF0DEF896
:1017D0000028F9D100F07AFF002840F039827F25F7
:1017E00000238DF804508DF806304FF0030845F0C3
:1017F000010420460CF088F802210DF105000CF0E0
:101800008DF88DF804409DF80520335D53409DF818
:101810000620F35C5340F05C0CF076F800F056FFC5
:10182000002840F0D38102208DF804500AF0B4FC67
:1018300000F04CFF002840F08D8102AF002400E052
:1018400001340CF0A3F8002800F0F880042C15D027
:101850000CF0B0F807F8010B054600F037FF002840
:10186000EED0E9B200231022724809F0A3FD012155
:1018700071480CF0CDFFE3E70CF09CF80CF086F813
:101880000028F9D100F022FF002840F0ED8142F25B
:101890007F13ADF80430FF238DF806304FF00308B6
:1018A0007F2545F0010420460CF02EF802210DF1B1
:1018B00005000CF033F88DF804409DF80520335DE9
:1018C00053409DF80620F35C5340F05C0CF01CF88C
:1018D00000F0FCFE002840F00B8102208DF804503F
:1018E0000AF05AFC00F0F2FE002840F0FC8002AF43
:1018F000002400E001340CF049F8002800F08A8050
:10190000042C15D00CF056F807F8010B054600F032
:10191000DDFE0028EED0E9B200231022454809F090
:1019200049FD012144480CF073FFE3E70CF042F855
:101930000CF02CF80028F9D100F0C8FE002840F087
:101940008F817F2500238DF804508DF806304FF0ED
:10195000030845F0010420460BF0D6FF02210DF1EB
:1019600005000BF0DBFF8DF804409DF80520335D8A
:1019700053409DF80620F35C5340F05C0BF0C4FF2D
:1019800000F0A4FE00287CD102208DF804500AF05B
:1019900003FC00F09BFE00286ED102AF002400E0A3
:1019A00001340BF0F3FF40B3042C15D00CF002F817
:1019B00007F8010B054600F089FE0028F0D0E9B2D7
:1019C000002310221B4809F0F5FC01211A480CF0F5
:1019D0001FFFE5E70BF0EEFF0BF0D8FF0028F9D171
:1019E00000F074FE002840F0378109F50053002212
:1019F00083F8A42205B0BDE8F083042CECD000F0FD
:101A000065FE002840F02081B8F10108EDD09DF876
:101A100004509EE7042C8BD000F058FE002840F0C4
:101A20000781B8F101088CD09DF8045039E700BF58
:101A3000AC9101003888FF1FD47D0100042C3FF4D5
:101A40001DAF00F043FE002840F0F680B8F1010819
:101A50003FF41DAF9DF80450C9E6042C3FF4B6AE28
:101A600000F034FE002840F0EB80B8F101083FF4AC
:101A7000B6AE9DF8045062E607217D480CF0C8FE22
:101A80008BE709217B480CF0C3FE2146002310227E
:101A9000794809F08FFC794801210CF0B9FE01ACBE
:101AA0000DF1060714F8011F73480023102209F0F6
:101AB00081FC724801210CF0ABFEA742F2D19DF8E7
:101AC00004309DF80520F35C6B4853409DF80620D8
:101AD000F35C53401022F15C002309F06BFC664874
:101AE00009F050FC50E7072161480CF091FEFEE63A
:101AF000092160480CF08CFE2146002310225E482C
:101B000009F058FC5D4801210CF082FE01AC0DF19A
:101B1000060714F8011F58480023102209F04AFC58
:101B2000564801210CF074FEBC42F2D19DF80430FD
:101B30009DF80520F35C504853409DF80620F35C67
:101B400053401022F15C002309F034FC4A4809F0AC
:101B500019FCC2E6072146480CF05AFE6DE6072143
:101B600043480CF055FE10E6092142480CF050FEA7
:101B7000214600231022404809F01CFC3F48012167
:101B80000CF046FE01AC0DF1060714F8011F3A48AF
:101B90000023102209F00EFC384801210CF038FE19
:101BA000A742F2D19DF804309DF80520F35C32483D
:101BB00053409DF80620F35C53401022F15C002353
:101BC00009F0F8FB2C4809F0DDFBD4E50921294890
:101BD0000CF01EFE214600231022274809F0EAFBE4
:101BE000264801210CF014FE01AC0DF1060714F893
:101BF000011F21480023102209F0DCFB1F480121AE
:101C00000CF006FEA742F2D19DF804309DF80520A5
:101C1000F35C194853409DF80620F35C53401022B2
:101C2000F15C002309F0C6FB134809F0ABFBFAE5B1
:101C3000114809F0A7FBF4E60F4809F0A3FB05E7FC
:101C40000D4809F09FFB10E70B4809F09BFBDBE612
:101C5000094809F097FBC2E5074809F093FBC4E681
:101C6000054809F08FFB6CE6034809F08BFB0EE694
:101C7000447A0100387A01003888FF1FD47D0100C2
:101C800038B500F50A5500F1B4041C3502E08C3477
:101C9000AC420AD02046FEF7C3FF0028F7D020460A
:101CA0008C34FEF72FFDAC42F4D138BD2DE9F0475E
:101CB000854A864B002100F1B40500F50A5782B031
:101CC00082460160426203621C372C4602E08C347B
:101CD000BC420AD02046FEF7A3FF0028F7D02046DA
:101CE0008C34FEF70FFDBC42F4D1C8200AF054FA40
:101CF00001262C4604E001363F2E04F18C046AD004
:101D00002046FEF78DFF0028F5D0714800F010FE48
:101D10003146704800F00CFE2046FEF70FFD2046CD
:101D2000FEF76EFF0EF024F902460B466A4800F0FB
:101D3000FFFD2046FEF7BCFE0EF01AF98046204655
:101D40008946FEF7D1FE0EF013F90B460246CDE9A7
:101D50000023624842464B4600F0EAFD002120463F
:101D6000FEF750FF0EF004F9804689462046012117
:101D7000FEF748FF0EF0FCF80B460246CDE90023C3
:101D8000574842464B4600F0D3FD2046FEF738FF49
:101D90000146DAF800000EF007FACAF80000204603
:101DA000FEF7ECFEDAF818100EF0A4FC002879D14A
:101DB0002046FEF7FBFEDAF81C100EF0B9FC0028F6
:101DC00099D02046FEF7F2FE01363F2ECAF81C00DD
:101DD00004F18C0494D1DAF804000EF099FA01466B
:101DE000DAF800000EF09CFBDAF81410CAF80000D4
:101DF00004460EF09DFC08B1CAF81440DAF8101041
:101E000020460EF077FC08B1CAF810400B200AF00B
:101E10005BF90AF5005494F8A432002848D1002B4D
:101E20004ED0012384F8A4320023CAF80C302C468B
:101E300002E08C34BC4215D02046FEF7F1FE0028AB
:101E4000F7D02046FEF750FEDAF80C100EF070FCCA
:101E50000028EED02046FEF747FE8C34BC42CAF87C
:101E60000C00E9D11F4BCAF8083002E08C35BD42A6
:101E700015D02846FEF7D4FE0028F7D02846FEF7F6
:101E800017FEDAF808100EF035FC0028EED02846D0
:101E9000FEF70EFE8C35BD42CAF80800E9D102B04B
:101EA000BDE8F0872046FEF769FECAF818007FE714
:101EB0000BB90023B6E70C4800F04CFD0023B1E756
:101EC0000A4800F05BFDACE700C0794400C079C46B
:101ED00004800100487B0100847B0100987B0100A5
:101EE000C47B01000000A040187C0100E07B0100E1
:101EF00000F50050D0F8AC02704700BF8068704712
:101F0000C06870470068704741607047F8B500F5D9
:101F10000A550F46164600F1B4041C3502E08C3415
:101F2000AC420FD02046FEF77BFE0028F7D02046BB
:101F30003946FEF779FE204631468C34FEF77CFEAA
:101F4000AC42EFD1F8BD00BF2DE9F8432A4A2B4B34
:101F5000DFF8AC90426200F50A558046036200F15A
:101F6000B4041C350026002702E08C34AC4210D0AB
:101F70002046FEF755FE0028F7D02046FEF72EFE3D
:101F800049460EF0D5FB88B98C34AC4206F1010607
:101F9000EED108F50058D8F8A002801B0EF0B8F971
:101FA000014638460EF0BCFABDE8F8832046FEF73D
:101FB00015FE014638460EF0F7F807462046FEF7B4
:101FC0000DFED8F820100EF0B3FB70B92046FEF7D6
:101FD00005FED8F824100EF08DFB0028C5D0204651
:101FE000FEF7FCFDC8F82400BFE72046FEF7F6FD2B
:101FF000C8F82000EAE700BF00C0794400C079C4F7
:1020000000008CC2006A7047406A7047F8B500F55E
:102010000A560746002500F1B4041C3602E08C3451
:10202000B4420FD02046FEF7FBFD0028F7D0204633
:10203000FEF76CFD014628460EF0B6F88C34B4422B
:102040000546EFD107F50057D7F8A0020EF060F96A
:10205000014628460EF064FAF8BD00BF2DE9F04FA6
:10206000074699B0A948884607F5005600F002FCDB
:10207000A64800F0FFFBA54800F0FCFB07F50A5559
:10208000D6F8A0220D920023C6F8A8321C3507F11D
:10209000B40907F1B40A03E009F18C09A94510D08D
:1020A0004846FEF7BDFD0028F6D04846D6F8A842BF
:1020B000FEF760FD09F18C090444A945C6F8A84261
:1020C000EED1D6F8A832119338687B6810930DF0E2
:1020D0004FFF5446CDE90E014FF0000903E00AF12D
:1020E0008C0A554510D05046FEF79AFD0028F6D0D0
:1020F0005046FEF70BFD014648460EF055F80AF132
:102100008C0A55458146EED1D6F8A0020EF000F9B2
:10211000014648460EF004FA0DF02AFFD7F8089061
:10212000CDE9120148460DF023FFD7F80CB0CDE9F8
:10213000140158460DF01CFFCDE9160149465846DA
:102140000EF030F872490EF037F90DF011FF8246AB
:1021500038468B46FFF7F8FE0DF00AFFDDE916233F
:10216000CDE90623DDE91423CDE90423DDE91223BB
:10217000CDE90223DDE90E23CDE90A01CDE90023F3
:102180000D99109B119A6348CDE908AB00F072FBE2
:102190005E4800F06FFB604809210AF0BFFAD6F8EC
:1021A000A0125E4809F0E6F85D480A210AF0B6FA86
:1021B0000023C6F8A832A146A24603E009F18C0923
:1021C000A94510D04846FEF72BFD0028F6D048461A
:1021D000D6F8A842FEF7CEFC09F18C090444A945C3
:1021E000C6F8A842EED1D6F8A8124C4809F0C2F8B9
:1021F0004A4809F0C7F838680DF0BAFE0B460321CB
:1022000002460091454809F0DFF8464801210AF0EE
:1022100085FA5446414809F0B5F84FF0000AA14646
:1022200003E009F18C09A94510D04846FEF7F8FCF7
:102230000028F6D04846FEF769FC014650460DF0EE
:10224000B3FF09F18C09A9458246EED1D6F8A00268
:102250000EF05EF8014650460EF062F90DF088FE71
:10226000032502460B462D48009509F0ADF82E488F
:1022700004210AF053FAB8680DF07AFE0095024680
:102280000B46264809F0A0F8284804210AF046FA2F
:10229000F8680DF06DFE009502460B461F4809F0E8
:1022A00093F8214804210AF039FAB968F8680DF06A
:1022B00079FF17490EF080F80DF05AFE002602460D
:1022C0000B461648009609F07FF8022118480AF0DC
:1022D00025FA124809F056F80A2116480AF01EFAA3
:1022E0003846FFF731FE0DF043FE009502460B46DF
:1022F0000A4809F069F8104801210AF00FFA074866
:1023000009F040F80127B2461EE000BF048001003A
:1023100000007A44407C0100E07C0100B487FF1F8C
:10232000EC7C0100F87C0100FC7C0100047D0100D4
:102330000C7D0100107D01001C7D010001373F2F45
:1023400004F18C0400F08C802046FEF769FC002824
:10235000F4D02046FEF7C6F92046FEF7C7F920461E
:10236000FEF7C8F92046FEF7C9F9082140480CF0ED
:102370004FFA4048394608F0FDFF092F73DD02216E
:102380003D480CF045FA2046FEF73AFC0DF0F0FD12
:102390005FFA88F902460B463648CDF8009009F0FE
:1023A00013F8364801210CF033FA0025564620E098
:1023B000062133480CF02CFA31462E4808F0DAFF9B
:1023C000022130480CF024FA29462046FEF76AFB29
:1023D0000DF0CEFDCDF8009002460B46254808F0E2
:1023E000F3FF0135254801210CF012FA062D07D024
:1023F0000136092EDCDC012123480CF009FAD7E76D
:10240000112122480CF004FA00212046FEF7FAFBC5
:102410000DF0AEFD022502460B461648009508F069
:10242000D3FF12211A480CF0F3F901212046FEF7E0
:10243000E9FB0DF09DFD009502460B460D4808F0A6
:10244000C3FF012113480CF0E3F90137094808F0F4
:1024500099FF3F2F0AF1060A04F18C047FF474AF50
:1024600019B0BDE8F08F012107480CF0D1F986E7DB
:10247000207D01003888FF1F3C8C0100F87C0100A2
:102480002C7D0100C47D0100D47D0100347D01005C
:10249000487D01001C7D01002DE9F04F00F1B405DD
:1024A00083B0894692469B462E46012704E00137B9
:1024B0003F2F06F18C067AD03046FEF7B1FB00289C
:1024C000F5D000230A2249467A4808F073FF01211B
:1024D00079480CF09DF950460DF04AFD0B4600215D
:1024E00002460091734808F06FFF012172480CF01A
:1024F0008FF959466F4808F03DFF01216E480CF0F6
:1025000087F939466B4808F035FF6B4801210CF01C
:102510007FF900244FF0020821463046FEF7C2FA48
:102520000DF026FDCDF8008002460B46614808F00C
:102530004BFF0134604801210CF06AF9082CEBD103
:1025400000213046FEF75EFB0DF012FDCDF8008055
:1025500002460B46574808F037FF012156480CF059
:1025600057F901213046FEF74DFB0DF001FDCDF886
:10257000008002460B464F4808F026FF01214E48D6
:102580000CF046F902213046FEF73CFB0DF0F0FC62
:10259000CDF8008002460B46464808F015FF01378B
:1025A000444808F0EFFE3F2F06F18C0684D1012647
:1025B0004FF0000804E001363F2E05F18C0575D080
:1025C0002846FEF72DFB0028F5D000230A224946B5
:1025D0003A4808F0EFFE384801210AF05FFD504606
:1025E0000DF0C6FCCDF8008002460B46334808F0DB
:1025F000EBFE314801210AF051FD59462F4808F001
:10260000B9FE2D4801210AF049FD31462B4808F05A
:10261000B1FE294801210AF041FD0024022721468C
:102620002846FEF73FFA0DF0A3FC009702460B4642
:10263000224808F0C9FE01341F4801210AF02EFD8E
:10264000082CECD100212846FEF7DCFA0DF090FCB6
:10265000009702460B46194808F0B6FE16480121BD
:102660000AF01CFD01212846FEF7CCFA0DF080FC93
:10267000009702460B46114808F0A6FE0E480121BD
:102680000AF00CFD02212846FEF7BCFA0DF070FCA2
:10269000009702460B46094808F096FE01360748A7
:1026A00008F070FE3F2E05F18C0589D103B0BDE81E
:1026B000F08F00BF3888FF1F5C7D0100C887FF1FB7
:1026C000014B1870704700BF2087FF1F024B18781E
:1026D000B0FA80F0400970472087FF1F0278002A77
:1026E00000F0B78030B5034685B00D46252A38D1B5
:1026F000587800283DD0A0F12502D1B2552903F128
:10270000010430D8552A2ED8DFE802F09F2D2D2D58
:102710002D2D2D2D2D2D2D2D2D2D2D2D2D2D2D2DE9
:102720002D2D2D2D2D2D2D2D2D932D2D2D2D2D2D73
:102730002D2D2D2D2D2D2D2D2D2D2D882D2D2D7C1F
:102740002D2D2D2D2D2D2D2D2D7439392D5E2D2D29
:10275000392D2D392D2D2D2D2D2D493F2D2D2D563A
:102760002D6918781C460CF0FBF86278631C002A6F
:10277000BCD1394805B0BDE8304008F003BE55F87B
:10278000041B354808F0F6FDEFE755F8041B012956
:102790000EBF3248324801210CF03AF8E5E755F80F
:1027A000043B002BE1D0184603930EF029FF0146AD
:1027B00003980CF02DF8D8E755F8041B26480023A1
:1027C000102208F0F7FDD0E7073525F007050321B3
:1027D000F5E802232048009108F0F6FDC5E707352B
:1027E00025F007050021F5E802231B48009108F0B9
:1027F000EBFDBAE755F8041B17480023022208F046
:10280000D9FDB2E7022117480CF002F855F8041B75
:1028100011480023102208F0CDFDA6E755F8043B2F
:10282000012B0BBF10481148042105210BF0F0FFCC
:102830009BE702210E480BF0EBFF55F8041B0648FE
:102840000023022208F0B6FD8FE725200CF088F85F
:102850008BE7014808F096BD3888FF1F687D0100AE
:102860006C7D0100607D0100707D0100787D0100BC
:10287000647D01000FB400B583B004A951F8040BC6
:102880000191FFF72BFF03B05DF804EB04B0704734
:1028900070B5DFF878C01E4BDCF800C082B004468B
:1028A000CDF804C0DDF804C0C3F800C00D461646DC
:1028B000614600230A22174808F07CFD03211648D0
:1028C0000BF0A6FF032C07D8DFE804F01B1602115B
:1028D000124807210BF09CFF022111480BF098FFD2
:1028E0003146284602B0BDE87040FFF7F7BE05212B
:1028F0000C480BF08DFFEFE704210B480BF088FF2D
:10290000EAE7052109480BF083FFE5E73CB9FF1F23
:102910009891FF1F3888FF1F1C7B0100907D0100EC
:10292000C47D0100987D0100887D0100807D01004B
:102930000FB400B5064B187883B020B905AA0499E6
:102940000192FFF7A5FF03B05DF804EB04B07047F8
:102950002087FF1F0FB4084B00B51B78012B83B0F5
:1029600005D805AA049901920120FFF791FF03B051
:102970005DF804EB04B070472087FF1F0FB4084BCD
:1029800000B51B78032B83B005D805AA04990192E2
:102990000320FFF77DFF03B05DF804EB04B0704740
:1029A0002087FF1F10B4074C0749084A00232370F3
:1029B000036510BC4365836580F85C300B60136071
:1029C000704700BFA491FF1FA091FF1F9C91FF1FA4
:1029D0002DE9F84F9B4F9C4C9C4E3B78B4F86620F9
:1029E0003280002B40F0C080B4F86030984D994898
:1029F0002B80FFF709FB216B0DF07CFE08B1002353
:102A00002B809448FFF7FEFAE16A0DF091FE10B1B9
:102A1000002333802B808F48FFF772FAE1680DF0B6
:102A200087FE08B100232B808A48FFF769FAE16826
:102A30000DF07EFE08B100232B808648FFF75EFA7A
:102A400021690DF057FE002800F0918000233380AB
:102A50002B88002B00F086803B787E48002B30D1FD
:102A6000FFF7D2FA616B0DF045FE002840F0268199
:102A7000794B78481B68012B00F00881FFF740FA7A
:102A8000216A0646A0690DF08DFB014630460DF027
:102A90004FFE002866D028880DF03AFC82466D482B
:102AA000FFF72EFAA7698146216A38460DF07AFBB6
:102AB0008046B4F864000DF027FC0646B4F86000C8
:102AC0002FE0FFF7A1FA616B0DF014FE002840F033
:102AD0002481614B5F481B68012B00F0BF80FFF72A
:102AE0000FFA216A0646A0690DF05CFB01463046EC
:102AF0000DF01EFE002835D028880DF009FC824616
:102B00005448FFF7FDF9A7698146216A38460DF060
:102B100049FB8046B4F864000DF0F6FB0646B4F8B5
:102B200062000DF0F1FB31460DF03CFB41460446DE
:102B300048460DF037FB014620460DF03DFC41466E
:102B4000044638460DF02EFB014620460DF0E8FC09
:102B500031460DF029FB014650460DF023FB0DF0E8
:102B60002DFE2880BDE8F88FB4F862303EE7394882
:102B7000FFF7C4F9E1690DF0BDFD00287FF466AFF1
:102B80003388002B3FF464AF3248FFF73BFAA16B68
:102B90000DF0CEFD002840F0EF802E48FFF7AEF993
:102BA00021690DF0C5FD002843D02A48FFF7A6F99A
:102BB000D4F8C4108046E0690DF0F6FA01464046AC
:102BC0000DF098FD00283FF443AF30880DF0A0FBD6
:102BD00083462048FFF792F98246B4F86600D4F89D
:102BE0001C800DF091FB4146814650460DF0DAFA0B
:102BF0004946824600200DF0D5FA014650460DF0B8
:102C0000DBFBD4F8C410824640460DF0CDFA4146B5
:102C10000DF0C8FA014650460DF082FC49460DF011
:102C2000C3FA014658460DF0BDFA0DF0C7FD3080DD
:102C30000EE70848FFF762F9E1690DF079FD002819
:102C4000B3D105E71492FF1F3893FF1FEC92FF1FCB
:102C5000EE92FF1F6C94FF1FF891FF1FFFF750F9D2
:102C6000216A0646606A0DF09DFA014630460DF075
:102C70005FFD00283FF476AF28880DF049FB8246BF
:102C80005348FFF73DF9676A81463EE7FFF738F999
:102C9000216A0646606A0DF085FA014630460DF05D
:102CA00047FD00283FF45EAF28880DF031FB8246D7
:102CB0004748FFF725F9676A8146F5E628880DF051
:102CC00027FB81464248FFF79FF98046B4F8600031
:102CD000276B0DF019FB3946064640460DF062FAA7
:102CE0003146804600200DF05DFA014640460DF069
:102CF00063FB39468046606B0DF054FA014640464E
:102D00000DF00EFC31460DF04FFA014648460DF02D
:102D100049FA0DF053FD2880AAE628880DF0F8FA4C
:102D200081462B48FFF770F98046B4F86200276BA4
:102D30000DF0EAFA3946064640460DF033FA3146C0
:102D4000804600200DF02EFA014640460DF034FB7F
:102D500039468046606B0DF025FA014640460DF07D
:102D6000DFFB31460DF020FA014648460DF01AFA15
:102D70000DF024FD2880ACE630880DF0C9FA8346BA
:102D80001348FFF73FF98246B4F86600D4F838805C
:102D90000DF0BAFA4146814650460DF003FA01465D
:102DA00048460DF009FB41468146E06A0DF0FAF90C
:102DB000014648460DF0B4FB00210DF0F5F901463F
:102DC00058460DF0EFF90DF0F9FC3080E5E600BF54
:102DD0006C94FF1FDDF800C0521AACEB030C1CD042
:102DE000401ABCF1000F0CFB00F002EBD27109DBC2
:102DF00000EB610000FB02F1002990FBF2F01844A7
:102E000010DB7047A0EB610000FB02F1002990FB92
:102E1000F2F01844F5DB013070470CEBDC7C03EB7F
:102E20006C0070470138704710B5044682B049B154
:102E3000084601910EF0E4FB236801995B680246A5
:102E400020469847204602B0BDE8104008F09ABAE4
:102E50002DE9F0414648474C474F484EFFF70AFDE1
:102E6000474B48485C60484CDC60484C1C61484C0F
:102E70009C61484C9C62484CDC61484CDC62484C8C
:102E80001C63484CC3F8CC40C3F8D04000245C63BA
:102E9000454C9C63454CDC634FF07C549C64444C33
:102EA000DC6440F20128434C1C65A3F80880424CC6
:102EB0005C624FF00C08414CC3F8548040F61C484B
:102EC000C3F8C440C3F868803D4C18624FF00A084C
:102ED000002232214FF40575586118644FF0640EDA
:102EE00001201C66C3F86C80364C1D8041F204083A
:102EF00083F84420C3F8A41098655C66C3F85CE0CE
:102F0000314CC3F87080C3F88C10C3F8AC10FF21AB
:102F10004FF0020C2D4DC3F8C0409A67C3F88000F3
:102F2000C3F8B400C3F88420C3F8B010C3F8A820D5
:102F300083F8C92083F8CA205A2441F288304FF41C
:102F40007A7144F62062C3F89470C3F89860C3F8AD
:102F5000A050C3F8BCE0C3F87CC0C3F8B8C05C673D
:102F6000C3F88800C3F89010C3F89C20BDE8F08136
:102F7000A07D010020A107000000114400F0C84519
:102F80003893FF1FCDCC4C3E666686400000404023
:102F900033338340CDCCCC3DCDCC4C40000082427D
:102FA000000020C158028813000020420000A04009
:102FB0009A9979400AD7233D333373409A99993EC1
:102FC0002C01960032002C0188130500D606D60687
:102FD00070B5444D444C4548E66800232B70FEF71D
:102FE0008FFF014630460DF085FB08B104232B709E
:102FF0003E48FEF783FF21690DF07CFB18B12B786A
:1030000043F010032B703948FEF7FCFFE16A0DF026
:103010008FFB18B12B7843F040032B70002333480B
:103020006B70FEF7F1FF216B0DF064FB08B101231B
:103030006B7000232D48EB70FEF762FF06462B48AD
:10304000FEF75CFF014630460DF0ACF8216C0DF048
:103050006FFB08B10123EB70254D244800232B7032
:10306000FEF74EFFA16A0646E0680DF09BF80146A8
:1030700030460DF05DFB08B104232B701B48FEF7B2
:103080003DFFA16A064620690DF08EF801463046E4
:103090000DF030FB18B12B7843F010032B70134860
:1030A000FEF7B0FFE16B0646E06A0DF07BF80146E3
:1030B00030460DF03DFB18B12B7843F040032B70E8
:1030C00000230A486B70FEF79FFFE16B0646206BFA
:1030D0000DF06AF8014630460DF00CFB08B10123F3
:1030E0006B7070BDE892FF1F3893FF1F6C94FF1F39
:1030F000E492FF1F2DE9F043A44C2368012B85B017
:1031000048D0022B79D0032B03D033B305B0BDE8F0
:10311000F0839F4A9F4B4FF47A711160D3F8AC0053
:103120000DF0F6F89B4B0546D3F8B0000DF0F0F823
:1031300029460DF037F898490DF03EF996490DF003
:10314000EFF929460DF030F80DF012FB014606208C
:1031500008F012FE2368002BD8D18E4B8F48D3F88D
:10316000AC10D3F8B02003688D48521A002A02FB35
:1031700003F367DB323380FB0320DA17C2EB601204
:10318000002B1144C0F2FF80062005B0BDE8F043DB
:1031900008F0F2BD7E4B1B680A33B3F57A7F4EDC34
:1031A000184603930DF0B4F87E490DF005F9039B22
:1031B0000746774A774D1360D5F8AC000DF0A8F8B4
:1031C0000646D5F8B0000DF0A3F831460CF0EAFF42
:1031D00039460DF0F1F870490DF0A2F931460CF0C6
:1031E000E3FF0DF0C5FA0146062008F0C5FD6E4B61
:1031F0001B6893BB2368022B85D1654A654B002170
:103200001160D3F8AC000DF083F8624B0546D3F89B
:10321000B0000DF07DF829460CF0C4FF00210DF040
:10322000CBF85D490DF07CF929460CF0BDFF0DF09F
:103230009FFA0146062008F09FFD236863E70027F8
:103240000023B6E7323B80FB0320DA17C2EB6012A3
:10325000002B114498DB013196E7022153484C4D75
:103260004C4F0BF0D5FA524808F08CF80621514823
:103270000BF0CEFA28680DF04BF84A490DF09CF897
:103280000CF076FE022602460B460096484808F0EF
:103290009BF80D2148480BF0BBFAD7F8AC000DF0B5
:1032A00037F8804628680DF033F83E490DF084F871
:1032B0008146D7F8B0000DF02BF841460CF072FFB4
:1032C000014648460DF078F833490DF029F941469A
:1032D0000CF06AFF0CF04CFE009602460B46344898
:1032E00008F072F8314631480BF092FA304808F095
:1032F00049F831462D4809F011FA304808F042F8F3
:1033000006212C4809F00AFA28680DF001F8254931
:103310000DF052F80CF02CFE009602460B462748A2
:1033200008F052F80D21244809F0F8F9D7F8AC005C
:103330000CF0EEFF804628680CF0EAFF19490DF00A
:103340003BF80546D7F8B0000CF0E2FF41460CF020
:1033500029FF014628460DF02FF80F490DF0E0F83F
:1033600041460CF021FF0CF003FE009602460B468E
:10337000124808F029F80D48314609F0CFF90F48F6
:1033800008F000F836E70139FEE600BFE091FF1FC4
:103390002092FF1F3893FF1F0000C8424087FF1F85
:1033A0001F85EB51CDCCCC3D2887FF1F3C8C010005
:1033B0003888FF1FC07D0100C87D0100B487FF1F52
:1033C00030B51C481C4C83B007F0DCFF194807F0EF
:1033D000D9FF184807F0D6FF0D2118480BF018FA4E
:1033E000174807F0CFFF164807F0CCFF144807F046
:1033F000C9FF12480D2109F091F9D4F8A830012B2A
:1034000022D0104D0B48297800230A2207F0D2FF62
:1034100000230B4829780A2207F0CCFF2B78052BD4
:103420005ED8DFE813F04802510224022D02360272
:103430003F0200BF3888FF1F3893FF1FD87D01006F
:10344000B487FF1F1493FF1F0921BF480BF0E0F959
:103450000921BD4809F062F9BC48FEF74FFD21691A
:103460000DF048F9002840F08382B848FEF748FD87
:10347000E1680DF05DF9002840F07182B348FEF775
:103480003FFD0546B148FEF739FD014628460CF0E0
:1034900089FE216C0DF04CF9002840F05782AB48B2
:1034A000FEF752FDE16A0DF043F9002840F0458235
:1034B000A648FEF749FD216B0DF01CF9002840F0ED
:1034C0003382A34BA1481B68012B00F01C82FEF73E
:1034D00015FD21690DF02CF9002840F0FE819D4D6D
:1034E0009D4802210BF094F99B48022109F016F93E
:1034F000122008F0E9FD012800F08E81112008F06B
:10350000E3FD012800F09681944B1B68012B00F02D
:103510009E8102219048924C0BF07AF9914B92488F
:10352000196807F027FF904807F02CFF04218F4807
:103530000BF06EF90B2008F0C7FD002301460A22AC
:10354000894807F037FF0C2008F0BEFD0023014634
:103550000A22854807F02EFF142008F0B5FD00234D
:1035600001460A22804807F025FF152008F0ACFD2F
:1035700000230A2201467C4807F01CFF06217C48F4
:103580000BF046F97B4807F0FDFE0421774809F06F
:10359000C5F80B2008F098FD002301460A22754863
:1035A00007F008FF0C2008F08FFD002301460A22D7
:1035B000704807F0FFFE142008F086FD0023014646
:1035C0000A226C4807F0F6FE152008F07DFD002366
:1035D00001460A22674807F0EDFE6548062109F01A
:1035E0009DF82368D80700F1D980012162480BF0CB
:1035F0000FF90121604809F091F82368990740F11B
:10360000D98001215D480BF003F95C48012109F0E4
:1036100085F823685A0740F1D980012157480BF0FB
:10362000F7F85648012109F079F823681B0740F1A3
:10363000D980012151480BF0EBF85048012109F0E5
:103640006DF804214E480BF0E3F8112008F03CFD22
:10365000002301460A22444807F0ACFE102008F07F
:1036600033FD002301460A223F4807F0A3FE122043
:1036700008F02AFD002301460A223B4807F09AFE83
:10368000132008F021FD00230A220146364807F0E6
:1036900091FE04213A4809F041F8112008F014FD88
:1036A000002301460A22334807F084FE102008F068
:1036B0000BFD002301460A222E4807F07BFE122054
:1036C00008F002FD002301460A222A4807F072FE94
:1036D000132008F0F9FC0A2201460023254807F0D0
:1036E00069FE244807F04EFE182126480BF090F89A
:1036F000254B18880CF00CFE24490CF05DFE0CF0F4
:1037000037FC002402460B461748009407F05CFE85
:103710001F211F480BF07CF81E4B18880CF0F8FD99
:103720001A490CF049FE0CF023FC00940B460246AB
:103730000D4807F049FE184802210BF069F82B7874
:10374000032B58D003B030BDE87D01006C94FF1FFF
:10375000F891FF1F1493FF1F3C8C0100D091FF1FB5
:103760000893FF1FF491FF1F3888FF1FE07E0100C0
:10377000E87E0100B487FF1FF47E0100F07E0100A7
:10378000F87E0100007F0100EE92FF1FCDCCCC3D02
:103790001C7F0100EC92FF1F3C7F01000121824849
:1037A0000BF036F80121804808F0B8FF236899072C
:1037B0003FF527AF01217D480BF02AF87B48012116
:1037C00008F0ACFF23685A073FF527AF012177487F
:1037D0000BF01EF87548012108F0A0FF23681B07B5
:1037E0003FF527AF012171480BF012F86F48012116
:1037F00008F094FF25E76E4B1B788BB31E216D48B4
:103800000BF006F86C481B2108F088FF6B4803B0EA
:10381000BDE8304007F0B6BD0E2169480AF0F8FF58
:1038200067480E2108F07AFF112008F04DFC0128AE
:103830007FF46AAE0A2163480AF0EAFF61480A2170
:1038400008F06CFF604B1B68012B7FF462AE122105
:103850005E480AF0DDFF5D48122108F05FFF58E680
:1038600020215B480AF0D4FF5A481D21CCE70721EC
:1038700059480AF0CDFF5848072108F04FFF2FE6BE
:10388000082156480AF0C4FF5448082108F046FFB2
:1038900026E60B2152480AF0BBFF51480B2108F0E5
:1038A0003DFF1DE607214F480AF0B2FF4D480721B2
:1038B00008F034FF14E606214B480AF0A9FF4A48F5
:1038C000062108F02BFF0BE6072148480AF0A0FF6D
:1038D0004648072108F022FF02E64548454DFEF71D
:1038E0000FFBE1680CF006FF00283FF4F9AD2B78E0
:1038F000052B10D10A2140480AF08AFF3E480A21D0
:1039000008F00CFFECE5FEF7F9FA616A0CF010FF25
:10391000002836D1374D394808210AF079FF374859
:10392000082108F0FBFEDBE50D2135480AF070FFA9
:1039300033480D2108F0F2FEC3E50C2131480AF0AE
:1039400067FF30480C2108F0E9FEB1E511212E484F
:103950000AF05EFF2C48112108F0E0FE9FE50E21E1
:103960002A480AF055FF29480E2108F0D7FE85E5C0
:103970000F2127480AF04CFF25480F2108F0CEFE02
:1039800073E5162123481B4D0AF042FF0A211A480D
:103990000AF03EFF1F48162108F0C0FE16480A2113
:1039A00008F0BCFE9CE500BFF07E0100F47E010043
:1039B0001492FF1F847F0100A47F0100B487FF1FC2
:1039C000B07E0100C07E0100D091FF1FCC7E0100BF
:1039D000407F0100647F0100947E01009C7E010015
:1039E000887E0100A87E0100787E0100807E0100B3
:1039F0006C94FF1F1493FF1F607E01006C7E01001A
:103A0000387E0100287E0100147E0100047E010042
:103A1000F47D0100487E01002DE9F04FBD4CD4F843
:103A20007CA0BAF1010F8FB000F0CE81BAF1030F84
:103A30005AD0DFF8E482B94FB94EA36F3168B94864
:103A4000012B04BF01F10041316007F0B7F93B6879
:103A5000002B40F08781B34807F07CF93B68C8F839
:103A600000000546002B40F03681E36F012B00F08B
:103A7000F680AD4928460CF05BFE30B9AB492846CC
:103A80000CF038FE002800F07782DFF8A492A94FEE
:103A9000D9F800300C930C983B68DFF89CA2C01A50
:103AA0000CF032FC29460CF087FCA4490CF038FDE0
:103AB000A2490CF035FDDAF800100CF075FBD9F8CE
:103AC00000300B930B9BCAF800003B60D4F8B400A5
:103AD0000CF01EFC29460CF06FFC0023C8F8000017
:103AE00033600FB0BDE8F08FDFF85492954DD9F8F0
:103AF0000020DFF82482D2F8840001230F212B60FC
:103B000006F0E6FB2B68854F012B3A6800F08C81AC
:103B1000002A40F04582D9F80030DFF82CA2D3F813
:103B20008400436B1D69ADB2CAF8005006F0B4F8CA
:103B300040F6E44303FB05F5B4F8A230B5FBF0F51D
:103B4000E81A00B20CF0E4FB8049754E0546D4F843
:103B500094000CF031FC014628460CF0E1FCDAF848
:103B600000303060632B00F30E82002333603B682B
:103B7000002B3FF462AF022175480AF049FED9F8E4
:103B80000030D3F88400DAF8003040F6E44B0BFB49
:103B900003F506F081F8B5FBF0F00CF0B5FB054637
:103BA000B4F8A2000CF0B4FB014628460CF0FAFA77
:103BB0000CF0DEF9022502460B460095654807F039
:103BC00003FC294662480AF023FE30680CF0D0F965
:103BD000009502460B465F4807F0F6FB29465E4813
:103BE0000AF016FE29465A480AF012FE294658489D
:103BF00008F094FDD9F80020DAF80030D2F88400FB
:103C00000BFB03F906F048F8B9FBF0F00CF07CFB75
:103C10008146B4F8A2000CF07BFB014648460CF04C
:103C2000C1FA0CF0A5F9009502460B464B4807F087
:103C3000CBFB2946464808F071FD30680CF098F936
:103C4000009502460B46454807F0BEFB2946424810
:103C500008F064FD3E48294608F060FDEDE6394B6A
:103C60001B68012B00F01A82022B7FF42FAFD4F8CF
:103C70009C7038460CF04CFB29460CF03BFD40B9DB
:103C800078420CF045FB29460CF052FD002800F06C
:103C90009A82DFF89CA0DFF89C90DAF80030099354
:103CA0000998D9F80030244FC01A0CF02DFB294692
:103CB0000CF082FB21490CF033FC20490CF030FC65
:103CC00039680CF071FADAF800300893089B386014
:103CD000C9F80030FAE60CF04BF9022502460B4613
:103CE00000951C4807F070FB04211D480AF090FD68
:103CF000D8F800000CF03CF9009502460B46174836
:103D000007F062FB1648042108F008FDD8F80050BF
:103D1000ABE600BF3893FF1F4492FF1FDC91FF1FEB
:103D20004092FF1F1893FF1F0000FA430000FAC3E0
:103D30003CB9FF1F3892FF1F3C92FF1F00007A44DE
:103D4000CC91FF1F4487FF1F4892FF1FACC5273748
:103D50003C8C01003888FF1FFC7F0100B487FF1FE7
:103D600000800100BC4806F0F5FF0CF001F90225C7
:103D700002460B460095B94807F026FB0321B848D8
:103D80000AF046FDD4F89C10B44807F0F3FA03217A
:103D9000B3480AF03DFDB04806F0DCFF0CF0E8F84F
:103DA000009502460B46AF4807F00EFBAC480321D6
:103DB00008F0B4FCD4F89C10AA4807F0DBFAA84835
:103DC000032108F0ABFC46E6DFF89C82DFF89C920A
:103DD000D4F89C50D9F80030D8F80060D3F884703B
:103DE00028460CF095FA31460CF0A2FC78B16842F6
:103DF0000CF08EFA014630460CF09AFC38B19C4D1E
:103E000038460F21C5F800A006F062FA7AE6984D10
:103E1000022338460E212B6006F05AFA2B68954F84
:103E2000012B3A687FF474AE002A40F06581D9F81E
:103E30000030DFF844A2D3F88400436B1D69ADB2B3
:103E4000CAF8005005F028FFB4F8A0308B4E40F6B9
:103E5000E44202FB05F5B5FBF0F5E81A00B20CF000
:103E600057FA87490546D4F898000CF0A5FA0146A0
:103E700028460CF055FBD9F800303060D3F88400A8
:103E8000DAF8003040F6E44202FB03F505F004FFE7
:103E9000B4F8A020B5FBF0F31BB29B1A002BB4F8CA
:103EA000C220B8BF5B429342BCBF002333603B6873
:103EB000002B3FF4C2AD022172480AF0A9FCD9F8E8
:103EC0000030D3F88400DAF8003040F6E44505FB12
:103ED00003F3039305F0E0FEB4F8A010039BB3FBDB
:103EE000F0F31BB2591A5D4807F044FA0221654805
:103EF0000AF08EFC30680CF03BF84FF0020B0246E3
:103F00000B46CDF800B0554807F05EFA03215E4835
:103F10000AF07EFC59465B480AF07AFC594659483B
:103F200008F0FCFBD9F80020DAF80030D2F8840061
:103F300003FB05F505F0B0FEB4F8A010B5FBF0F5F5
:103F40002DB2691A474807F015FA59464D4808F04E
:103F5000E5FB30680CF00CF8CDF800B002460B46DB
:103F6000404807F031FA4848032108F0D7FB45489C
:103F7000594608F0D3FB60E5444B1B680D93444B56
:103F80000D9A1A60A2E5D9F80030D3F8840005F044
:103F900083FEDAF8003064389842FFF4E6ADE6E5D7
:103FA0002E48DFF8D4A007F0EDF90C2139480AF0CB
:103FB0002FFC0C2138480AF02BFC2A4807F0E2F9C4
:103FC00034480C2108F0AAFB33480C2108F0A6FB6A
:103FD000D9F800203B68D2F88400426B1569ADB275
:103FE000CAF80050002B3FF4A1AD05F055FE40F695
:103FF000E4460A22002306FB05F1B1FBF0F1174865
:1040000007F0D8F902211F480AF002FCB4F8A21008
:10401000124807F0AFF9D9F80030DAF80010D3F8F9
:10402000840001FB06F605F037FE00230A22B6FBEA
:10403000F0F10C4807F0BEF91248022108F06EFBBF
:104040000848B4F8A21007F095F9D9F80030DAF86A
:104050000050D3F8840069E51893FF1F3888FF1FCC
:10406000207B0100B487FF1F4492FF1FCC91FF1FEC
:104070004487FF1FDC91FF1F4892FF1F4092FF1FE4
:10408000ACC527373C8C0100E87F01003CB9FF1F1D
:104090003892FF1FEC7F0100D87F0100514928466C
:1040A0000CF046FB30B9504928460CF023FB0028A1
:1040B00000F08280DFF834A1DFF83491DAF80030C4
:1040C00006930698D9F800304A4FC01A0CF01CF934
:1040D00029460CF071F948490CF022FA46490CF0D7
:1040E0001FFA39680CF060F8DAF800300593059B88
:1040F0003860C9F80030E9E4404807F043F9404827
:1041000007F040F9E36F012B4FF00B0162D03D48FF
:104110000AF07EFB3B480B2108F000FB0C213A48DB
:10412000DFF8E8A00AF074FB37480C2108F0F6FA33
:10413000D9F800203B68D2F88400426B1569ADB213
:10414000CAF80050002B3FF47DAE05F0A5FD40F607
:10415000E4460A22002306FB05F1B1FBF0F12748F3
:1041600007F028F901212A480AF052FBB4F8A01000
:10417000224807F0FFF8D9F80030DAF80010D3F839
:10418000840001FB06F605F087FD00230A22B6FB3A
:10419000F0F11B4807F00EF91D48012108F0BEFAA6
:1041A0001748B4F8A01007F0E5F8D9F80030DAF8AD
:1041B0000050D3F8840045E60C4B1B6807930C4B6A
:1041C000079A1A6082E4094B1B680A93084B0A9A03
:1041D0001A607BE40F480AF01BFB0E480B2108F025
:1041E0009DFA9BE70000FA430000FAC33CB9FF1FA9
:1041F0003892FF1F3C92FF1F00007A443888FF1F4F
:10420000B487FF1FCC7F0100D87F01004892FF1FB9
:10421000D47D0100C07F01002DE9F043DFF89C82CE
:10422000D8F8003085B0002B00F0A680A44CA54D36
:10423000D4F88430A44EA54F012B00F0CD80D7F8E0
:104240000080E36DD4F8589009FB03F34FF47A70C3
:1042500003FB00F00CF05CF89D49814640460CF0F1
:10426000ABF849460CF05CF99A490CF0A5F80CF053
:104270007FFA632828607ADD954948460CF050F9AA
:10428000642338602B603368002B6DD0E36F012B03
:1042900000F0CA80032B00F0D780022B00F0E080F2
:1042A0008D4E8E4802210AF0B3FA30680BF060FEA2
:1042B000022402460B460094894807F085F82146FF
:1042C00088480AF0A5FA214684480AF0A1FA29682C
:1042D000834807F04FF8062183480AF099FA3868B6
:1042E0007B490CF069F80BF043FE009402460B4644
:1042F0007B4807F069F803217C480AF089FA78487E
:1043000007F040F82146754808F008FA30680BF0CD
:104310002FFE009402460B46754807F055F82146DB
:10432000704808F0FBF9724807F02CF829687048CB
:1043300007F020F86C48062108F0F0F93868644965
:104340000CF03AF80BF014FE009402460B46684855
:1043500007F03AF86548032108F0E0F9644805B031
:10436000BDE8F04307F00EB805B0BDE8F0830028C3
:10437000BCBF00232B6086E75E48514C524EFDF7D0
:1043800045FE5D49E76E0CF017F80CF017FA656F03
:10439000226FA16E00953B4680B2FEF71BFD494D92
:1043A00033682860002B64D1E36D484F03FB00F0B5
:1043B000A36D03FB00F000EB800040000BF0A8FFB2
:1043C00043490CF0ADF80123C8F80030D4F884302C
:1043D0003860012B7FF433AF4648FDF717FEE36EDC
:1043E000454903930BF0E8FF0CF0E8F9D4F874C0EA
:1043F000226FA16E039BCDF800C080B2FEF7EAFCED
:10440000E36DD4F85890039303FB00F009FB00F030
:1044100000EB800040000BF07BFF2D490CF080F892
:10442000039B386080460FE7344B1B68012B3AD062
:104430000A2133480AF0ECF931480A2108F06EF9F4
:10444000E36F032B7FF429AF10212E480AF0E0F927
:104450002C48102108F062F9E36F022B7FF420AFA3
:10446000072129480AF0D4F92748072108F056F90E
:1044700016E7022119480AF0CBF92968184806F016
:1044800079FF022115480AF0C3F91448022108F007
:1044900045F92968164806F06DFF1048022108F01A
:1044A0003DF9286880E70A2118480AF0B1F9174851
:1044B0000A2108F033F9E36FECE600BF2492FF1FF6
:1044C0003893FF1F4087FF1F2887FF1F3C92FF1F65
:1044D000E4388E3E0000C8424492FF1F3C8C01002D
:1044E0003888FF1FFC7F01003C80010044800100F0
:1044F000B487FF1F6C94FF1F00007A444487FF1F9E
:104500001480010020800100348001000880010037
:1045100000B5112083B007F0D7FD012804D0122088
:1045200007F0D2FD012822D10121152007F0AAFDB4
:104530002D4B2E492E4A1B6808680193D2F888300B
:1045400003442C480221016001998B4208D8D2F81B
:1045500090000BF0DDFE284B19680CF0CBF8D0B1C1
:1045600001210C2003B05DF804EB07F08BBD0021A6
:104570000B2007F087FD00210C2007F083FD0021B0
:10458000152007F07FFD1D491A4B012000220870FD
:104590001A6003B000BD01210B2007F073FD144A1F
:1045A000144992F8C8200323012A0B6016D0122068
:1045B00007F08AFD012808BF104A4FF003034FF0AF
:1045C000110008BF137007F07FFD012806D00021FD
:1045D0000C2003B05DF804EB07F054BD074B02223A
:1045E0001A700021F4E700BF3CB9FF1FF892FF1FCB
:1045F0003893FF1F0C93FF1F4492FF1F1493FF1F5C
:1046000010B56D4A6D4C116823688B4284B034D06C
:1046100013F0010039D098070ED401F0FD011160AC
:1046200059070BD51168C80767D5990703F004002F
:104630004CD4A0B904B010BD58073ED400210520C9
:1046400007F09AFB5C4A2168136803F0FB031360D0
:10465000CB0750D48B0701F0040037D468B1116840
:104660004B07E7D4564B1B68002B56D055490968B9
:1046700003910399994262D821680029DAD1162062
:1046800004B0BDE8104007F077BB0146162007F0E4
:1046900073FB494A2368106813F0020F00F0FE0113
:1046A000116020D05807C9D513F00100BAD1464B8C
:1046B00041F0020111601860D2E7CB071DD5424BD3
:1046C00041F00201002011601860C9E711683E4BFB
:1046D00041F002014FF0000C1160C3F800C0002847
:1046E000BED104B010BD00F0FC0010605807A5D585
:1046F000D907B4D596E70B4694E7344B1B68002BDB
:104700003FD03049096801910199994229D821681F
:104710008B0701F00400A1D5D8E72D4B1B68002BB7
:104720003ED1FF21052007F027FB264929480B68C9
:104730000293029B0068224A0344136097E7264BCA
:104740000520D3F88C1007F017FB1B4A216813686B
:1047500043F0040313601A4B0020186000298ED028
:1047600068E71D4B1620D3F88C1007F005FB124AA2
:1047700016481368002143F00103016013602168AB
:1047800068E7FF21162007F0F7FA0E4911480B6879
:104790000093009B00680D4A03441360064AB1E78A
:1047A0000E4806F0EFFD0C210D480AF031F80B48D9
:1047B00006F0E8FDB5E700BF0893FF1F0C93FF1F4D
:1047C000FC92FF1F3CB9FF1F0093FF1F0493FF1FC4
:1047D0002887FF1F6887FF1F3893FF1F3888FF1F38
:1047E000488001002DE9F0476A4EDFF8AC8133685C
:1047F0006A4FD3F884006A4D0F2105F069FD00234C
:10480000012222216748C8F800303A600AF000F817
:104810006448222107F082FFD8F80030132BD8BF5C
:1048200040F6E44923DC3368B5F8A0A0D3F884004F
:10483000436B1C6905F030FAA4B2034601215A48C3
:1048400009FB04F4B4FBF3F4A244A5F8A0A009F01A
:10485000DFFF5548012107F061FF642007F09CFC51
:10486000D8F800300133132BC8F80030DBDDB5F881
:10487000A0304E494E48A1FB03215B1A01EB5301C6
:10488000C1F30F11A5F8A01006F074FD1D214948D1
:1048900009F0BEFF0221484809F0BAFF444806F07B
:1048A00071FDB5F8A010454806F064FD41481D2192
:1048B00007F034FF0221404807F030FF3F4806F080
:1048C00061FD0023C8F8003033680E21D3F884005E
:1048D00005F0FEFC0223222132483B6009F098FFDC
:1048E0003048222107F01AFFD8F80030132B25DCBE
:1048F00040F6E4473368B5F8A290D3F88400436BE0
:104900001C6905F0C9F9A4B203460121264807FB3A
:1049100004F4B4FBF3F4A144A5F8A29009F078FFE5
:104920002148012107F0FAFE642007F035FCD8F891
:1049300000300133132BC8F80030DBDDB5F8A230AE
:104940001A491B48A1FB03215B1A01EB5301C1F378
:104950000F11A5F8A21006F00DFD1D21184809F051
:1049600057FF0221144809F053FF114806F00AFDD1
:10497000B5F8A210114806F0FDFC11481D2107F002
:10498000CDFE0D48022107F0C9FEBDE8F0470B48F7
:1049900006F0F8BCCC91FF1FFC91FF1F4487FF1F5E
:1049A0003893FF1F588001007C80010087611886C2
:1049B0003888FF1F808001003C8C0100B487FF1FF6
:1049C000A08001002DE9F843BA4CBB4D082340F20A
:1049D0005132E371686D22600BF09AFCB74B1B6893
:1049E0000646002B40F03281A9690BF0E5FCB44982
:1049F0000BF0E2FC0BF0E2FEB24BE9691F88B24B10
:104A00001FFA80F9C0F3072830461E880BF0D4FC4B
:104A1000AB490BF0D1FC0BF0D1FE002369F3070387
:104A200068F30F2367F317433F0A67F31F63A3601D
:104A3000002366F30703360A80B266F30F2360F3A0
:104A40001743000A60F31F639A49A048E36005F02A
:104A50005FFF9F4A9D4813681288228103EB8303FE
:104A60009C4A082640F255315B001288216023736E
:104A700090496281334100276373E671E78105F055
:104A800047FF40F2563394482360E671FDF73AFA47
:104A900092490BF091FC0BF091FE20728E48FDF7CD
:104AA00031FA8E490BF088FC0BF088FE8C4B8B4959
:104AB000F040607218680BF033FD0BF059FE608116
:104AC0008548FDF741FA7E490BF076FC0BF050FE6D
:104AD00020738148FDF738FA79490BF06DFC0BF033
:104AE00047FE3041734960737848E78105F010FF55
:104AF000022007F051FB7B4A7B4B12681B6873480E
:104B0000A26040F25A3121606A49E360E67105F023
:104B1000FFFE764B67496D48E67140F25E322260D7
:104B2000D3E90023A260E36005F0F2FE022007F063
:104B300033FB6F4B5F496548E6714FF45C7222604E
:104B4000D3E90023E360A26005F0E2FE694B1B6835
:104B5000012B7DD0022007F01FFB4FF08173A36073
:104B6000B5F85C30A381082640F2991340F2733700
:104B70000220E3812760E67107F00EFB56482760AC
:104B8000E671FDF7BBF95C490BF016FC0BF016FE65
:104B900020725148FDF7B2F957490BF00DFC0BF0AC
:104BA0000DFE20FA06F34C486372FDF7A9F952494D
:104BB0000BF002FC0BF002FEA0724748FDF7A0F9D3
:104BC0004D490BF0F9FB0BF0F9FD20FA06F34248D2
:104BD000E372FDF719FA49490BF0E6FA0BF0EEFD26
:104BE00020733D48FDF710FA44490BF0DDFA0BF055
:104BF000E5FD20FA06F338486373FDF703FA3F49F1
:104C00000BF0D2FA0BF0DAFDA0733348FDF7FAF996
:104C10003A490BF0C9FA0BF0D1FD264920FA06F308
:104C20002A48E37305F074FE022007F0B5FAEA6D36
:104C3000AB6D13FB02F3022123FA06F240F2793046
:104C4000E171237262722060BDE8F883696ACCE684
:104C50002148FDF753F9296D0BF0A6FA07461E48C7
:104C6000FDF74EF9014638460BF044FD00283FF4AD
:104C700071AF40F2C3331848E6712360FDF73EF987
:104C8000EE6C31460BF036FD002839D01A4930461B
:104C90000BF092FB0BF092FD030A237240F20142EB
:104CA00003236072034909486281E36005F030FE26
:104CB00050E700BFBC91FF1F3893FF1FF891FF1F03
:104CC00000002041EE92FF1FEC92FF1F88B7FF1FEC
:104CD0004087FF1F5887FF1F6C94FF1F0000C842CA
:104CE0004492FF1FE892FF1FE492FF1F5087FF1FAF
:104CF0004887FF1FD091FF1F00007A4433938843F9
:104D00000948FDF7FBF809490BF056FB0BF056FD7F
:104D1000030A05482372FDF7F1F804490BF04CFB38
:104D20000BF04CFDBAE700BF6C94FF1F00007A4403
:104D30002DE9F04F83B009F0F1FCB14D286007F088
:104D400099FD002800F3CA80AE4C28682368042B24
:104D500000F0CC80092B31D1AB4E96F8CA30012B34
:104D600084BF002386F8CA3096F8C930012B02D9D7
:104D7000002386F8C930322801F01782712801F02B
:104D8000C281312814D196F8C930B3FA83F30122D5
:104D90005B09226086F8C93078200123052B286042
:104DA00000F0E281032B00F0EF81012B00F057812E
:104DB000732800F00E8303B0BDE8F08F022B40F0A3
:104DC0002981A0F13103422BF2D801A252F823F03D
:104DD0007D6700004F68000065680000D96800002A
:104DE000C9660000416A0000796A0000916A00000B
:104DF000B14D0000B14D0000B14D0000B14D0000BB
:104E0000B14D0000B14D0000B14D0000B14D0000AA
:104E1000B14D0000B14D0000B14D0000B14D00009A
:104E2000B14D0000B14D0000B14D0000B14D00008A
:104E3000B14D0000B14D0000B14D0000B14D00007A
:104E4000B14D0000B14D0000B14D0000B14D00006A
:104E5000B14D0000B14D0000B14D0000B14D00005A
:104E6000B14D0000B14D0000B14D0000B14D00004A
:104E7000B14D0000B14D0000B14D0000B14D00003A
:104E8000B14D0000B14D0000B14D0000B14D00002A
:104E9000B14D0000B14D00000D500000B14D0000BB
:104EA000B14D0000B14D0000B14D0000B14D00000A
:104EB000B14D0000B14D0000B14D0000B14D0000FA
:104EC000B14D0000B14D0000B14D0000B14D0000EA
:104ED000CB530000B14D000063670000494C07F060
:104EE000DDFC23682860042B7FF434AFA0F131038C
:104EF000402B3FF65DAF01A252F823F03B66000065
:104F00004166000047660000656600006B660000B1
:104F10008366000047510000F1650000F76500005E
:104F2000B14D0000B14D0000B14D0000B14D000089
:104F3000B14D0000B14D0000B14D0000B14D000079
:104F4000B14D0000B14D0000B14D0000B14D000069
:104F5000B14D0000B14D0000B14D0000B14D000059
:104F6000B14D0000B14D0000B14D0000B14D000049
:104F7000B14D0000B14D0000B14D0000B14D000039
:104F8000B14D0000B14D0000B14D0000B14D000029
:104F9000B14D0000B14D0000B14D0000B14D000019
:104FA000B14D0000B14D0000B14D0000B14D000009
:104FB000B14D0000B14D0000B14D0000B14D0000F9
:104FC000B14D0000B14D0000B14D0000B14D0000E9
:104FD000B14D0000B14D0000B14D0000B14D0000D9
:104FE000B14D0000B14D0000B14D0000B14D0000C9
:104FF000B14D0000B14D0000B14D00003166000020
:105000000092FF1FD491FF1F3893FF1FFFF7EAFBA9
:1050100023682868082B40F08580322876D07128D4
:1050200000F0D38131287FF4C3AE09F0BDFB002826
:1050300001F33482E04E07F01DFC002802F34586A0
:1050400096F84410B26CDD48022984BF002186F82E
:105050004410FCF75BFF6920012323602860A0F166
:105060005203262B3FF6A4AE01A252F823F000BF54
:10507000C96A0000B14D0000B14D0000B14D000003
:10508000B14D0000B14D0000B14D0000B14D000028
:10509000B14D0000B14D0000B14D0000B14D000018
:1050A000B14D0000B14D0000B14D00007955000038
:1050B0008B7C0000895C00007B5C0000BF58000016
:1050C000B14D0000B14D0000B14D0000B1580000DD
:1050D000B14D0000B5800000B14D0000B14D0000A1
:1050E000B14D0000B14D0000B14D0000A9660000B7
:1050F000B14D0000B14D0000B14D0000B14D0000B8
:10510000B14D0000B14D00008755000009F04CFB87
:10511000002801F3E18107F0ADFB002801F3C8810D
:1051200023682868072B19D1342800F34B813028D5
:105130007FF73EAE3238022802F2BF87DFE810F078
:10514000F607E8070C089E4A1368B3FA83F30121B7
:105150005B0921601360642001232860062B00F0A6
:10516000A180052B7FF41EAE352801F3298030285D
:105170007FF71EAE3238032802F2B687DFE810F060
:10518000490848092B086609A0F13003422B3FF675
:105190000FAE01A252F823F07F780000CD6A000024
:1051A000076B00003174000073740000B5740000D8
:1051B0000375000051750000D17500001B760000DA
:1051C000B14D0000B14D0000B14D0000B14D0000E7
:1051D000B14D0000B14D0000B14D0000B14D0000D7
:1051E000B14D0000B14D0000B14D0000B14D0000C7
:1051F000B14D0000B14D0000B14D0000B14D0000B7
:10520000B14D0000B14D0000B14D0000B14D0000A6
:10521000B14D0000B14D0000B14D0000B14D000096
:10522000B14D0000B14D0000B14D0000B14D000086
:10523000B14D0000B14D0000B14D0000B14D000076
:10524000B14D0000B14D0000B14D0000B14D000066
:10525000B14D0000B14D0000B14D0000FD780000DF
:105260003779000071790000AB790000917C000073
:1052700069760000FF7600004D770000B14D000018
:105280009F770000E1770000B14D0000B14D0000B4
:10529000B14D0000B14D0000B14D00002F7800006D
:1052A0003D780000A0F13103402B3FF681AD01A213
:1052B00052F823F01969000065690000B169000027
:1052C000F96900008F670000A3670000DF67000036
:1052D0007D6100008F610000B14D0000B14D000004
:1052E000B14D0000B14D0000B14D0000B14D0000C6
:1052F000B14D0000B14D0000B14D0000B14D0000B6
:10530000B14D0000B14D0000B14D0000B14D0000A5
:10531000B14D0000B14D0000B14D0000B14D000095
:10532000B14D0000B14D0000B14D0000B14D000085
:10533000B14D0000B14D0000B14D0000B14D000075
:10534000B14D0000B14D0000B14D0000B14D000065
:10535000B14D0000B14D0000B14D0000B14D000055
:10536000B14D0000B14D0000B14D0000B14D000045
:10537000B14D00001B670000B14D0000B14D0000B1
:10538000B14D0000B14D0000B14D0000B14D000025
:10539000B14D0000B14D0000B14D0000B14D000015
:1053A000B14D0000B14D0000B14D0000B14D000005
:1053B000B14D0000CB5300003893FF1F6C94FF1FCA
:1053C000E091FF1F71287FF4F3AC00227323226069
:1053D0002B602368002B7FF4EEAC6D4E6D486E4D54
:1053E00005F0D0FF04216D4809F012FA694805F074
:1053F000C9FF10216A4809F00BFA664805F0C2FFA0
:105400001321684809F004FA2968624805F0B2FFE0
:10541000604805F0B7FF1421634809F0F9F95D48C9
:1054200005F0B0FF1E21614809F0F2F9594805F076
:10543000A9FF15215E4809F0EBF9564805F0A2FFD7
:105440001E215C4809F0E4F9524805F09BFF202139
:10545000594809F0DDF94F4805F094FF19215748E4
:1054600009F0D6F94B4805F08DFF1221544809F098
:10547000CFF9484805F086FF1921524809F0C8F9CC
:10548000444805F07FFF0F214F4809F0C1F941481A
:1054900005F078FF0D214D4809F0BAF93D4805F0B7
:1054A00071FF4B4805F06EFF04213C4807F036F9C8
:1054B000474805F067FF1021394807F02FF94448A5
:1054C00005F060FF3748132107F028F929684048A4
:1054D00005F050FF3E4805F055FF1421324807F013
:1054E0001DF93B4805F04EFF1E21304807F016F924
:1054F000374805F047FF15212D4807F00FF93448CC
:1055000005F040FF1E212B4807F008F9304805F050
:1055100039FF2021284807F001F92D4805F032FF16
:105520001921264807F0FAF8294805F02BFF122127
:10553000234807F0F3F8264805F024FF19212148F5
:1055400007F0ECF8224805F01DFF0F211E4807F078
:10555000E5F81F4805F016FF0D211C4807F0DEF89E
:105560001B4805F00FFF002201233260236003B0C7
:10557000BDE8F08F09F0D2F809F016F90028F9D14A
:105580002AE009F0CBF809F00FF90028F9D1FFE083
:105590002887FF1F3888FF1F7087FF1F00850100C5
:1055A000088501001C850100308501004885010047
:1055B0006885010080850100A0850100C485010087
:1055C000E0850100F48501001086010020860100BD
:1055D000B487FF1F07F062F907F04CF90546002871
:1055E000F8D1B948B94E05F0CDFEB74805F0CAFE6E
:1055F000B54805F0C7FEB44805F0C4FEB24805F052
:10560000C1FE1F21B24809F003F9AF4805F0BAFE08
:105610001C21B04809F0FCF8B06AAF490AF0CCFE92
:105620000AF0A6FC009502460B46A74805F0CCFE02
:105630000221AA4809F0ECF8A34805F0A3FE2321B3
:10564000A74809F0E5F8306CA3490AF0B5FE0AF066
:105650008FFC009502460B469B4805F0B5FE0221E3
:105660009E4809F0D5F8984805F08CFE19219D4810
:1056700009F0CEF8F06B0AF07BFC022702460B46DD
:105680009148009705F0A0FE3946974809F0C0F808
:105690008D4805F077FE1921944809F0B9F8B6F85D
:1056A000C010894805F066FE0321914809F0B0F862
:1056B000854805F067FE8F4805F064FE8D4805F0CB
:1056C00061FE8C4805F05EFE8A4805F05BFE894865
:1056D00005F058FE1F217E4807F020F8854805F0A8
:1056E00051FE7C481C2107F019F8B06A7A490AF08B
:1056F00063FE0AF03DFC009502460B467D4805F02E
:1057000063FE3946754807F009F87A4805F03AFE15
:105710007348232107F002F8306C6F490AF04CFE01
:105720000AF026FC009502460B46724805F04CFE36
:1057300039466A4806F0F2FF6E4805F023FE6948D4
:10574000192106F0EBFFF06B0AF012FC00970B46F4
:105750000246684805F038FE3946634806F0DEFF29
:10576000644805F00FFE6148192106F0D7FFB6F82E
:10577000C010604805F0FEFD5D48032106F0CEFF35
:105780005C4805F0FFFD072300F0B9BC07F086F880
:1057900007F070F805460028F8D14B484B4E05F04D
:1057A000F1FD494805F0EEFD474805F0EBFD4648A0
:1057B00005F0E8FD444805F0E5FD15214E4809F0E7
:1057C00027F8414805F0DEFD3F4805F0DBFD2C21C0
:1057D0004A4809F01DF83C4805F0D4FD2521484809
:1057E00009F016F80A222B4696F8C910364805F03B
:1057F000E1FD354805F0C6FD1921424809F008F8D9
:105800003C4805F0BFFD3B4805F0BCFD394805F0BC
:10581000B9FD384805F0B6FD364805F0B3FD152151
:10582000354806F07BFF334805F0ACFD314805F004
:10583000A9FD2C21314806F071FF2E4805F0A2FD8C
:105840002F48252106F06AFF2B4696F8C9102948F3
:105850000A2205F0AFFD274805F094FD29481921DB
:1058600006F05CFF96F8CA30002B42F058820E21F9
:10587000254808F0CDFF144805F084FD22480E218C
:1058800006F04CFF1B4805F07DFD13211F4808F072
:10589000BFFF0D4805F076FD1C48132106F03EFFC2
:1058A000144805F06FFD092300F029BC08F036FF0D
:1058B00008F07AFF0028F9D12CE008F02FFF08F05B
:1058C00073FF0028F9D1C5E03888FF1F3893FF1F08
:1058D000A4830100C483010000007A440C7D010010
:1058E000E48301000884010078830100248401001E
:1058F00040840100B487FF1FF8850100E4800100A7
:10590000148101003C810100588101007C8101006B
:1059100006F0C4FF06F0AEFF05460028F8D1434864
:10592000434E05F02FFD414805F02CFD3F4805F0A2
:1059300029FD3E4805F026FD3C4805F023FD1521D4
:105940003C4808F065FF394805F01CFD18213A482D
:1059500008F05EFF0A222B4696F84410334805F003
:1059600029FD324805F00EFD2821344808F050FF8B
:10597000B06C33490AF020FD0AF0FAFA00950246AD
:105980000B462A4805F020FD02212E4808F040FF72
:10599000264805F0F7FC13212B4808F039FF23486F
:1059A00005F0F0FC294805F0EDFC284805F0EAFC7C
:1059B000264805F0E7FC254805F0E4FC234805F0FF
:1059C000E1FC15211B4806F0A9FE204805F0DAFC91
:1059D0001948182106F0A2FE2B460A2296F8441018
:1059E0001A4805F0E7FC194805F0CCFC13482821BB
:1059F00006F094FEB06C12490AF0DEFC0AF0B8FA28
:105A000000950B460246114805F0DEFC02210D48C8
:105A100006F084FE0D4805F0B5FC0B48132106F096
:105A20007DFE0A4805F0AEFC082368E33888FF1FB6
:105A30003893FF1FC885010090810100AC810100EF
:105A400000007A440C7D01007C810100B487FF1FB7
:105A500006F024FF06F00EFF05460028F8D18D4819
:105A60008D4E05F08FFC8B4805F08CFC894805F0C5
:105A700089FC884805F086FC864805F083FC1121E6
:105A8000864808F0C5FE834805F07CFC2821844840
:105A900008F0BEFEB06983490AF08EFC0AF068FA8D
:105AA000009502460B467B4805F08EFC02217E489D
:105AB00008F0AEFE774805F065FC16217B4808F03B
:105AC000A7FE306A77490AF077FC0AF051FA009590
:105AD00002460B466F4805F077FC0221724808F039
