:1000000000800020BD01000075BB000031BB000076
:1000100031BB000031BB000031BB000031BB000030
:1000200031BB000031BB000031BB000075BB0000DC
:1000300075BB000031BB000001AF000005AF000040
:1000400075BB000075BB000075BB000075BB0000F0
:1000500075BB000075BB000075BB000075BB0000E0
:1000600075BB000075BB000075BB000075BB0000D0
:1000700075BB000075BB000075BB000075BB0000C0
:1000800075BB000075BB000075BB000075BB0000B0
:1000900075BB000075BB000075BB000075BB0000A0
:1000A00075BB000075BB000075BB000075BB000090
:1000B00075BB0000FDAC000009AD00000DAD0000F7
:1000C00019AD00001DAD000021AD000075BB0000A2
:1000D00075BB000075BB000075BB000075BB000060
:1000E00075BB000075BB000075BB000075BB000050
:1000F00075BB0000E9C9000075BB000069D30000B2
:1001000075BB0000D9DA000075BB000075BB0000AC
:1001100075BB000075BB000075BB000075BB00001F
:1001200075BB000075BB000075BB000075BB00000F
:1001300075BB000075BB000075BB000075BB0000FF
:1001400075BB000075BB000075BB000075BB0000EF
:1001500075BB000075BB000075BB000075BB0000DF
:1001600075BB0000F9DD000075BB000075BB000029
:1001700075BB000075BB000075BB000075BB0000BF
:1001800075BB000075BB000075BB000075BB0000AF
:1001900075BB000075BB000075BB000075BB00009F
:1001A00075BB000075BB000075BB000075BB00008F
:1001B00075BB000075BB000075BB0000534B4CF2D3
:1001C000205210B5DA814DF62812DA8100BF00BF47
:1001D0000BF0D4FC4E4B4FF010621A634D4A9A63F9
:1001E0004D4ADA634D4A136913F4807303D15361A6
:1001F0004FF4A85313614A4B9A78110703D59A78A4
:1002000042F008029A70474B47492A221A70474B1E
:10021000474A8B4204D252F8040B43F8040BF8E728
:10022000444B454900228B4202D243F8042BFAE7A3
:10023000424943484FF4DE720BF0A6FB414B424A61
:10024000802103F8011B9342FBD14FF0E0233C4A8D
:10025000C3F8082D3D4B8A221A70A3F5805324223F
:100260005A70A0221A709A799207FCD59A79D4060E
:10027000FCD4374B9A7902F00C02082AFAD10322F7
:100280001A7140225A719A799006FCD5304A9379B6
:100290005906FCD51E4B2F4959640221996420212F
:1002A0001170917901F00C010C29FAD12A4A5A6097
:1002B0004FF0E023294A5A6100229A6107221A610D
:1002C000274AC3F8202D62B60BF00EFD134B5B6975
:1002D000DA0705D523480BF0FBFC234B234ADA61F0
:1002E000234B1B785B0609D51F4C204BE2699A42D1
:1002F00004D11C480BF0ECFC0023E3610BF044FC40
:1003000011F050F90BF038FBFEE700BF002005406C
:1003100000800440823F04000100002B00D0034015
:1003200000D0074000E007407491FF1F2087FF1FA7
:10033000709801008091FF1F20BFFF1F0000000088
:100340000082FF1F00E400E05FE400E00050064090
:100350000040064000000301C0100500FF760100C8
:10036000000020203F91B26A00E00340A5C3945AE8
:1003700000F00740FFFFFFFFFFFFFFFFFFFFFFFF52
:10038000FFFFFFFFFFFFFFFFFFFFFFFFFFFFFFFF7D
:10039000FFFFFFFFFFFFFFFFFFFFFFFFFFFFFFFF6D
:1003A000FFFFFFFFFFFFFFFFFFFFFFFFFFFFFFFF5D
:1003B000FFFFFFFFFFFFFFFFFFFFFFFFFFFFFFFF4D
:1003C000FFFFFFFFFFFFFFFFFFFFFFFFFFFFFFFF3D
:1003D000FFFFFFFFFFFFFFFFFFFFFFFFFFFFFFFF2D
:1003E000FFFFFFFFFFFFFFFFFFFFFFFFFFFFFFFF1D
:1003F000FFFFFFFFFFFFFFFFFFFFFFFFFFFFFFFF0D
:10040000FFFFFFFFFFFFFFFFFFFFFFFFDEF9FFFF23
:100410000548064B1B1AD90F01EBA301491002D066
:10042000034B03B1184770477491FF1F7491FF1F6E
:100430000000000008B5054B1BB105490548AFF3A6
:100440000080BDE80840FFF7E3BF00BF00000000E8
:100450008091FF1F689801002DE9F04F85B0074695
:100460000E9E0393002EB4BFF31D3346DB10013301
:100470005B000293431C00934B1E8B4691460193F5
:100480004FF003083D7845EA090420460DF04CFA88
:10049000DDE900010DF052FA3C70B9F1000F6CD1AA
:1004A00002F02AF9002840D102983D700BF084FE3A
:1004B00002F022F9002833D1039C002501E0013528
:1004C00001340DF073FA98B1AE4211DD0DF082FAED
:1004D000207002F011F90028F1D021784348002360
:1004E00010220AF077FF012141480EF0A1F9E6E75A
:1004F000AE4209D002F000F900284FD1B8F101084E
:10050000C0D109E00DF066FA0DF050FA0028F9D1DB
:1005100002F0F2F8002845D1284605B0BDE8F08F7A
:10052000072134480EF084F9C6E7092132480EF05D
:100530007FF92146002310222C480AF04BFF2C485B
:1005400001210EF075F9BBF1010F32DD009C07EBC4
:100550000B0A14F8011B2548002310220AF03AFF69
:10056000234801210EF064F95445F2D1B9F1000F8E
:1005700029D11E480AF016FF96E7BBF1000F32D0D2
:100580001E493A4607EB0B0A002012F8013B434094
:100590009245C85CF9D10DF0C7F981E713480AF01C
:1005A00001FFABE711480AF0FDFE284605B0BDE8A3
:1005B000F08FB9F1000FDCD0BBF1010F18BF0021A3
:1005C0000BD107F1010A0D493846002310F8012B21
:1005D00053405045CB5CF9D1194600231022034803
:1005E0000AF0F8FEC5E75846D5E700BF3888FF1F78
:1005F000D47D0100447A0100387A0100AC900100FA
:1006000010B518220446002110F010FF0E4BA36114
:10061000E36123626362A362E3620021182204F1B2
:10062000300010F003FF00210023084A084884F836
:100630008410E065A364E36423656365A2652266B4
:100640006366204610BD00BF0000A0400000484384
:100650000000C8C20023036043608360C36003617D
:10066000436183640365436583657047F0B590F823
:10067000843087B00446002504265B0001278DF8EE
:100680000C302A4604AB0096032103A88DF80D50C8
:100690008DF80E70FFF7E0FE94F884308DF80E6050
:1006A000BB408DF80C300723009320238DF80D30CC
:1006B0002A4604AB032103A8FFF7CEFE00962A4684
:1006C00094F884508DF80E70BD408DF80C509DF854
:1006D000135025679DF8145065679DF81550A56760
:1006E0009DF81650E56704AB032103A833248DF869
:1006F0000D40FFF7B1FE07B0F0BD00BF90F87400E9
:10070000704700BF90F87000704700BF90F8780005
:10071000704700BF90F87C00704700BF00B590F8AC
:10072000841087B00423490000204FF0320C00935E
:10073000012204AB8DF80C108DF80E00032103A8E4
:100740008DF80DC0FFF788FE02200BF035FD07B0D5
:1007500000BD00BF2DE9F043044693B094F8843007
:1007600002205B008DF810300BF026FD94F88430E9
:1007700020465B008DF81030FFF778FFE16FA26F25
:10078000636F01910092AD48226F94F8841002F0DB
:10079000E5F8032530233D228DF812208DF8113025
:1007A000012205AB2946009504A8FFF755FE312329
:1007B0008DF81130012205AB2946009504A80126C9
:1007C0008DF81250FFF748FE342332468DF8113071
:1007D000294605AB009504A88DF81260FFF73CFE92
:1007E00012238DF8123016230093294605AB04A876
:1007F00000228DF81160FFF72FFE01289DF82930A7
:10080000064640F3118105AD0DF1130CDFF830E21F
:1008100084442946002211F8010B42408C451EF801
:100820000220F8D11946874802931746039202F036
:1008300095F8162E029B02D1039A9A420AD094F898
:10084000841081480097324602F0AEF8002013B0C1
:10085000BDE8F0839DF8143094F88420B3EB420F88
:10086000F4D19DF81530012BF0D19DF81630122BE4
:10087000ECD19DF818309DF8170003EB00200FF025
:1008800057FD72490FF0A8FD616EE06406460FF057
:100890005FFF00B16666216E30460FF03BFF00B18E
:1008A0002666261FB146AB79687903EB00200FF06E
:1008B0003FFD67490FF090FD46F8040FB169074608
:1008C0000FF028FF28B1A16E38460FF037FF00B1B6
:1008D000B761316B38460FF03BFF00B1376304F16D
:1008E0001403B34205F10205DDD100204D4655F851
:1008F000041F0FF069FC04F11403AB42A946F5D1C3
:100900009DF826209DF82530A0644FF4807613FBD7
:100910000623981C0FF00CFD4E490FF011FE014606
:100920004D480FF00DFE4D490FF04CFC4C490FF0B7
:1009300053FD07460EF0C0F9054638460EF0BCF9E7
:1009400048490EF0E3F94849074628460FF044FDB0
:1009500046490FF039FC4649054638460FF03CFD44
:10096000014628460FF030FC01464FF07E500FF054
:10097000E7FD40490FF026FC9DF8283005469DF81C
:100980002700256510FB063009300FF0D1FC3A49ED
:100990000FF0D6FD014630480FF0D2FD2F490FF081
:1009A00011FC2F490FF018FD07460EF085F9064699
:1009B00038460EF081F92B490EF0A8F92A4907466E
:1009C00030460FF009FD29490FF0FEFB2849064685
:1009D00038460FF001FD014630460FF0F5FB0146A9
:1009E0004FF07E500FF0ACFD22490FF0EBFBA26DF3
:1009F000D4F88030606506461746002B3ED101468C
:100A000028460FF087FE024600284BD02B46394679
:100A10001846039202930FF07DFE039A08B1029BE1
:100A2000A365A2B3354632E0194606480293002278
:100A300001F094FF0027029B01E700BF4C7A010000
:100A4000AC900100807A0100CC7A01006B57053B25
:100A50002003C839001601470AD7E33FE17A644012
:100A600000007A4400004040A40D8F395A80473A74
:100A700046A6DB3333938843002C014713331146DA
:100A800054F8235028460FF045FE00B1A565E06DEF
:100A900029460FF03FFE00B1E565034801F05EFF17
:100AA0000120D4E63346B2E7A47A0100052994BFB9
:100AB00050F82100002070472DE9F0410B4E804690
:100AC000041F00F1140754F8045F314628460FF064
:100AD00021FE30B1D8F8681028460FF039FE00B179
:100AE0002E46A742EFD13046BDE8F08100002041FC
:100AF000F8B50026051F00F1140755F8044F3146DC
:100B000020460FF025FE00B93446BD422646F4D1FA
:100B10002046F8BD2DE9F84FD0F86880DFF850B0D6
:100B200082460026041F00F114074FF0000954F814
:100B3000045F414628460FF00BFE58B1594628463F
:100B40000FF0E8FD30B1304629460FF03DFB09F1CA
:100B500001090646A742EAD1CAF8889048460FF034
:100B6000E7FB014630460FF0EBFCBDE8F88F00BF15
:100B700000007042D0F88800704700BFD0F8803085
:100B800063B900B5036D416D83B01846CDE900131C
:100B90000FF0C0FD30B1019803B000BD133350F821
:100BA00023007047009803B000BD00BFD0F880302C
:100BB00063B900B5036D416D83B018460093019190
:100BC0000FF0A8FD30B1019803B000BD133350F809
:100BD00023007047009803B000BD00BF08B5D0F8EF
:100BE000803043B9416D006D0FF0EEFA4FF07C514B
:100BF0000FF0F2FB08BD133350F8230008BD00BF0F
:100C0000806C704701299ABF143150F821000020F0
:100C1000704700BF3E2998BF80F88410704700BF1E
:100C200090F86C00704700BFC0F88010704700BF9C
:100C300080F86C10704700BF8166704770B500F592
:100C40000A55064600F128041C3520468C34FFF76F
:100C5000D7FCAC42F9D106F1B405012428460021A5
:100C6000FFF7E6FF214628460134FFF7D3FF3F2C6C
:100C700005F18C05F2D10749316106F500530022D8
:100C8000726105480549B0610022F161304683F880
:100C9000A42270BD00007A44000048430000C8C28E
:100CA00038B500F50A5500F1B4041C3502E08C3467
:100CB000AC420AD02046FFF7B3FF0028F7D0204609
:100CC0008C34FFF7C7FCAC42F4D138BDF8B500F561
:100CD0000057002300F50A56C7F8A83200F1B40403
:100CE0001C3602E08C34B4420FD02046FFF798FF48
:100CF0000028F7D02046D7F8A852FFF73BFF8C34E6
:100D00000544B442C7F8A852EFD1D7F8A802F8BDFD
:100D10002DE9F04F00F5005393B08046012A4FF0C3
:100D20000000C3F8AC02069100F0E48108F1B409B8
:100D30004FF0010B0793029207E00BF1010BBBF19F
:100D40003F0F09F18C0900F0F2804846FFF768FF79
:100D50000028F2D000273C460126D8F80850394632
:100D60004846FFF7A3FE29460FF0F2FC06FA07F308
:100D70002343DBB20137002818BF1C46062FECD1F5
:100D8000029B0194012B00F0D580002CD5D04FEAB6
:100D90004B0242F00105EDB233238DF82530284691
:100DA000069BB34E03928DF824208DF826300CF06C
:100DB000BBFD02210DF125000CF0C0FD8DF8245083
:100DC000725D9DF82530059253409DF82620F35C16
:100DD0005340F05C0CF0A8FD01F08EFC002840F0C0
:100DE0005781039B8DF8243002200BF0E5F901F0C8
:100DF00083FC002840F036810AAB04931F464FF075
:100E0000000A01E00AF1010A0CF0D0FD002800F010
:100E1000CE80BAF11E0F15D00CF0DCFD07F8010BE7
:100E2000044601F069FC0028ECD0E1B20023102256
:100E300090480AF0CFFA01218F480DF0F9FCE1E764
:100E40000CF0C8FD0CF0B2FD0028F9D101F054FC03
:100E5000002840F0B580029B012B00F0B880039B76
:100E60008DF82430019B8DF82630284632238DF8EA
:100E700025300CF059FD0DF1250002210CF05EFD2E
:100E8000059A9DF825308DF8245053409DF8262072
:100E9000F35C5340F05C0CF047FD01F02DFC0028A2
:100EA00040F0AE80039B8DF8243002200BF084F9D3
:100EB00001F022FC002840F09E80049D002700E005
:100EC00001370CF073FD00284ED01E2F15D00CF00A
:100ED00081FD05F8010B044601F00EFC0028EFD05F
:100EE000E1B20023102263480AF074FA012162483B
:100EF0000DF09EFCE4E70CF06DFD0CF057FD0028B2
:100F0000F9D101F0F9FB002834D1029B012B37D035
:100F1000079A0199D2F8AC320BF1010B0B44BBF1EB
:100F20003F0FC2F8AC3209F18C097FF40EAF13B059
:100F3000BDE8F08F59464F480AF02CFA03214F487C
:100F40000DF076FC019C4B482146002302220AF05A
:100F500041FA4B4803210DF06BFC002C7FF417AFD6
:100F600044480AF01FFAE8E61E2FC6D001F0C4FB81
:100F70000028CAD03F480AF015FA029B012BC7D1BE
:100F8000049C251D14F8011B3A48002310220AF086
:100F900021FA3C4801210DF04BFCAC42F2D1079AFA
:100FA0000199D2F8AC320B44C2F8AC32D8E7BAF1AE
:100FB0001E0F3FF447AF01F09FFB00283FF44BAFFB
:100FC0002C480AF0EFF9029B012B7FF448AF049FF5
:100FD0003C1D17F8011B2748002310220AF0FAF9DC
:100FE000284801210DF024FCBC42F2D10321244801
:100FF0000DF01EFC33E7072123480DF019FC5CE7D8
:10100000092122480DF014FC29460023102219481A
:101010000AF0E0F9184801210DF00AFC09AD0DF1C4
:10102000260715F8011F1348002310220AF0D2F9F1
:10103000114801210DF0FCFBBD42F2D19DF8243096
:101040009DF82520F35C0B4853409DF82620F35C67
:1010500053401022F15C00230AF0BCF905480AF065
:10106000A1F91FE7072108480DF0E2FBC4E600BF25
:10107000AC9101003888FF1FD47D01001C7B01006A
:10108000207B0100247B0100447A0100387A0100B2
:1010900009211C480DF0CCFB0023102229461A48D8
:1010A0000AF098F9194801210DF0C2FB09AF0DF1C2
:1010B000260A17F8011F1448002310220AF08AF9A3
:1010C000124801210DF0B4FB5745F2D19DF82430B0
:1010D0009DF82520F35C0C4853409DF82620F35CD6
:1010E00053401022F15C00230AF074F906480AF01C
:1010F00059F976E60448029201930AF053F9029AEC
:10110000019B13E6387A01003888FF1FD47D010067
:101110002DE9F04F87B04FF0000B01900123ADF89F
:1011200008B08DF80A304FF00308002528460CF06F
:10113000FBFB02210DF109000CF000FC8DF80850BA
:1011400001F0DAFA002840F0E18002208DF8085022
:101150000BF032F801F0D0FA002840F0D28003AF53
:101160003E46002400E001340CF020FC002800F092
:10117000BC80042C15D00CF02DFC06F8010B0546A4
:1011800001F0BAFA0028EED0E9B2002310229D48FF
:101190000AF020F901219C480DF04AFBE3E70CF02E
:1011A00019FC0CF003FC04460028F8D101F0A4FA65
:1011B000002840F0E0809DF80C30802B40F0CE807D
:1011C0009DF80D30002B40F0C9809DF80E50012D88
:1011D00040F0C4808D4801F0C1FB019B03F1B406CF
:1011E00004E001353F2D06F18C0697D03046FFF71D
:1011F00017FD0028F5D165F07F02DFF8149200900A
:101200004FF46C5101208DF80A20ADF808100CF055
:101210008BFB02210DF109000CF090FB99F80120E5
:101220009DF809104FF001084A408DF808809DF89C
:101230000A1019F802204A4019F802000CF074FB59
:1012400001F05AFA002840F09F8003208DF808B082
:101250000AF0B2FF01F050FA08B190E001340CF04E
:10126000A5FB00287DD00A2C16D00CF0B3FB07F8A4
:10127000010B804601F040FA0028EFD05FFA88F1B8
:10128000002310225F480AF0A5F801215E480DF006
:10129000CFFAE3E70CF09EFB0CF088FB0028F9D1B5
:1012A00001F02AFA002840F0A9809DF80C30812B2B
:1012B0007FF434AF9DF80D303B2B7FF42FAF9DF8BA
:1012C0000E308035AB427FF429AF30460121FFF765
:1012D000AFFC019B4F4803F50052D2F8A032013316
:1012E000C2F8A03201F03AFB18E7042C3FF459AFE2
:1012F00001F002FA60BBB8F101082FD09DF8085048
:1013000014E7072144480DF093FA28E709214348E0
:101310000DF08EFA0023102229463A480AF05AF8B6
:10132000394801210DF084FA02AC0DF10A0614F8D7
:10133000011F3448002310220AF04CF832480121E2
:101340000DF076FAA642F2D12E480AF02BF8FCE610
:101350002C480AF027F8B8F10108CFD107B0BDE852
:10136000F08F0A2C98D001F0C7F9002842D1022C46
:101370007FF7D4AE99E723480AF014F81BE707215A
:1013800025480DF055FA6AE7092124480DF050FA76
:101390004146009B1B4810220AF01CF841461A489F
:1013A0000DF046FA0DF108080DF10A0A18F8011FB0
:1013B0001448002310220AF00DF8134801210DF003
:1013C00037FAD045F2D19DF808309DF8092019F878
:1013D00003300C4853409DF80A2019F8033053405D
:1013E000102219F80310002309F0F4FF054809F052
:1013F000D9FF2AE7034809F0D5FFB8E7014809F00B
:10140000D1FF52E73888FF1FD47D0100287B0100FF
:10141000AC910100347B0100447A0100387A01006C
:101420002DE9F04300F5005985B000230122C9F8E9
:10143000A032ADF804308DF8062000F1B408022780
:1014400000214046FFF7F4FB38468DF804700CF09D
:101450006BFA02210DF105000CF070FA3D468DF893
:10146000047001F049F9002865D114208DF804506A
:101470000AF0A2FE01F040F9002857D10DF107064D
:10148000002400E001340CF091FA70B3082C15D060
:101490000CF0A0FA06F8010F054601F02DF900281E
:1014A000F0D0E9B200231022384809F093FF01215F
:1014B00037480DF0BDF9E5E70CF08CFA0CF076FA40
:1014C0000028F9D101F018F900285AD19DF8083008
:1014D000BB4216D0052002370AF06EFE7E2F08F1BF
:1014E0008C08ADD105B0BDE8F083082CE6D001F042
:1014F00003F9002841D1042CECDD9DF80830BB42F3
:10150000E8D19DF80930002BE4D19DF80A1001299B
:10151000E0D19DF80C30002BDCD04046FFF788FB73
:10152000D9F8A0320133C9F8A032D3E7072119480E
:101530000DF07EF9A2E7092117480DF079F9002393
:1015400010223946114809F045FF114801210DF0DC
:101550006FF901AC0DF1060614F8011F0B480023CA
:10156000102209F037FF0A4801210DF061F9A64267
:10157000F2D1064809F016FF77E7044809F012FF98
:10158000B9E7024809F00EFFA0E700BF3888FF1F47
:10159000D47D0100447A0100387A01002DE9F0473A
:1015A00000F50A5584B0804600F1B4041C3500F5FE
:1015B00000570026204600218C34FFF739FBAC424F
:1015C000C7F8A062F6D15C4F4FF002094FF07F0AD6
:1015D00043F67E42A5237F20ADF804208DF8063027
:1015E0000CF0A2F902210DF105000CF0A7F997F813
:1015F0007F309DF805208DF804A053409DF806200B
:10160000FB5C5340F85C0CF08FF901F075F8002892
:101610005BD17E2364208DF804300AF0CDFD01F00B
:101620006BF8002840F083800DF10706002400E0ED
:1016300001340CF0BBF958B3082C15D00CF0CAF9E2
:1016400006F8010F054601F057F80028F0D0E9B27E
:1016500000231022394809F0BDFE012138480DF061
:10166000E7F8E5E70CF0B6F90CF0A0F90028F9D19D
:1016700001F042F890B99DF808307F2B15D0B9F1F0
:10168000010F1FD14046FFF743FD04B0BDE8F087CE
:10169000082CE9D001F030F80028ECD0274809F0F8
:1016A00081FE9DF808307F2BE9D19DF809303C2B55
:1016B000E5D19DF80A30A52BE1D19DF80B30572BD1
:1016C000DDD1DFE74FF0010982E709211D480DF068
:1016D000AFF8002310227F21184809F07BFE18483C
:1016E00001210DF0A5F801AC0DF1060514F8011F5C
:1016F00012480023102209F06DFE114801210DF05F
:1017000097F8A542F2D19DF804309DF80520FB5CC6
:101710000A4853409DF80620FB5C53401022F95CB8
:10172000002309F057FE054809F03CFE71E7072148
:1017300005480DF07DF877E7AC9101003888FF1F70
:10174000D47D0100387A0100447A01002DE9F0438C
:1017500085B042F27F02FF23C04EADF804208146DF
:101760008DF806304FF003087F2545F00104204630
:101770000CF0DAF802210DF105000CF0DFF88DF81D
:1017800004409DF80520335D53409DF80620F35C2E
:101790005340F05C0CF0C8F800F0AEFF002840F0B9
:1017A000F98102208DF804500AF006FD00F0A4FF34
:1017B000002840F0EA8102AF002400E001340CF080
:1017C000F5F8002800F05F81042C15D00CF002F928
:1017D00007F8010B054600F08FFF0028EED0E9B2B4
:1017E000002310229E4809F0F5FD01219D480DF0CF
:1017F0001FF8E3E70CF0EEF80CF0D8F80028F9D168
:1018000000F07AFF002840F039827F2500238DF810
:1018100004508DF806304FF0030845F001042046CF
:101820000CF082F802210DF105000CF087F88DF81C
:1018300004409DF80520335D53409DF80620F35C7D
:101840005340F05C0CF070F800F056FF002840F0B8
:10185000D38102208DF804500AF0AEFC00F04CFF5A
:10186000002840F08D8102AF002400E001340CF02C
:101870009DF8002800F0F880042C15D00CF0AAF890
:1018800007F8010B054600F037FF0028EED0E9B25B
:1018900000231022724809F09DFD012171480CF0CF
:1018A000C7FFE3E70CF096F80CF080F80028F9D1B8
:1018B00000F022FF002840F0ED8142F27F13ADF8E6
:1018C0000430FF238DF806304FF003087F2545F0E4
:1018D000010420460CF028F802210DF105000CF05F
:1018E0002DF88DF804409DF80520335D53409DF898
:1018F0000620F35C5340F05C0CF016F800F0FCFEA0
:10190000002840F00B8102208DF804500AF054FCAE
:1019100000F0F2FE002840F0FC8002AF002400E05E
:1019200001340CF043F8002800F08A80042C15D014
:101930000CF050F807F8010B054600F0DDFE00281A
:10194000EED0E9B200231022454809F043FD012101
:1019500044480CF06DFFE3E70CF03CF80CF026F87F
:101960000028F9D100F0C8FE002840F08F817F25C3
:1019700000238DF804508DF806304FF0030845F031
:10198000010420460BF0D0FF02210DF105000BF001
:10199000D5FF8DF804409DF80520335D53409DF838
:1019A0000620F35C5340F05C0BF0BEFF00F0A4FE99
:1019B00000287CD102208DF804500AF0FDFB00F0D5
:1019C0009BFE00286ED102AF002400E001340BF032
:1019D000EDFF40B3042C15D00BF0FCFF07F8010B12
:1019E000054600F089FE0028F0D0E9B2002310225D
:1019F0001B4809F0EFFC01211A480CF019FFE5E73C
:101A00000BF0E8FF0BF0D2FF0028F9D100F074FED4
:101A1000002840F0378109F50053002283F8A42202
:101A200005B0BDE8F083042CECD000F065FE002882
:101A300040F02081B8F10108EDD09DF804509EE7F8
:101A4000042C8BD000F058FE002840F00781B8F13C
:101A500001088CD09DF8045039E700BFAC9101001B
:101A60003888FF1FD47D0100042C3FF41DAF00F027
:101A700043FE002840F0F680B8F101083FF41DAFA6
:101A80009DF80450C9E6042C3FF4B6AE00F034FED5
:101A9000002840F0EB80B8F101083FF4B6AE9DF8A5
:101AA000045062E607217D480CF0C2FE8BE7092155
:101AB0007B480CF0BDFE214600231022794809F036
:101AC00089FC794801210CF0B3FE01AC0DF1060749
:101AD00014F8011F73480023102209F07BFC7248A0
:101AE00001210CF0A5FEA742F2D19DF804309DF82B
:101AF0000520F35C6B4853409DF80620F35C53408F
:101B00001022F15C002309F065FC664809F04AFCEC
:101B100050E7072161480CF08BFEFEE60921604882
:101B20000CF086FE2146002310225E4809F052FC8C
:101B30005D4801210CF07CFE01AC0DF1060714F8A4
:101B4000011F58480023102209F044FC5648012187
:101B50000CF06EFEBC42F2D19DF804309DF80520D9
:101B6000F35C504853409DF80620F35C534010222C
:101B7000F15C002309F02EFC4A4809F013FCC2E690
:101B8000072146480CF054FE6DE6072143480CF04F
:101B90004FFE10E6092142480CF04AFE2146002380
:101BA0001022404809F016FC3F4801210CF040FE8D
:101BB00001AC0DF1060714F8011F3A48002310226A
:101BC00009F008FC384801210CF032FEA742F2D19E
:101BD0009DF804309DF80520F35C324853409DF891
:101BE0000620F35C53401022F15C002309F0F2FB65
:101BF0002C4809F0D7FBD4E5092129480CF018FE40
:101C0000214600231022274809F0E4FB2648012141
:101C10000CF00EFE01AC0DF1060714F8011F21486F
:101C20000023102209F0D6FB1F4801210CF000FE12
:101C3000A742F2D19DF804309DF80520F35C1948C5
:101C400053409DF80620F35C53401022F15C0023C2
:101C500009F0C0FB134809F0A5FBFAE5114809F0AB
:101C6000A1FBF4E60F4809F09DFB05E70D4809F0DC
:101C700099FB10E70B4809F095FBDBE6094809F0F2
:101C800091FBC2E5074809F08DFBC4E6054809F061
:101C900089FB6CE6034809F085FB0EE6447A0100F7
:101CA000387A01003888FF1FD47D010038B500F56F
:101CB0000A5500F1B4041C3502E08C34AC420AD061
:101CC0002046FEF7ADFF0028F7D020468C34FEF703
:101CD00025FDAC42F4D138BD2DE9F047854A864B4D
:101CE000002100F1B40500F50A5782B08246016078
:101CF000426203621C372C4602E08C34BC420AD09C
:101D00002046FEF78DFF0028F7D020468C34FEF7E2
:101D100005FDBC42F4D1C8200AF04EFA01262C463B
:101D200004E001363F2E04F18C046AD02046FEF711
:101D300077FF0028F5D0714800F010FE314670485A
:101D400000F00CFE2046FEF705FD2046FEF758FF8A
:101D50000EF01EF902460B466A4800F0FFFD2046D1
:101D6000FEF7AAFE0EF014F9804620468946FEF7DB
:101D7000BFFE0EF00DF90B460246CDE90023624886
:101D800042464B4600F0EAFD00212046FEF73AFFAE
:101D90000EF0FEF88046894620460121FEF732FF0C
:101DA0000EF0F6F80B460246CDE9002357484246AE
:101DB0004B4600F0D3FD2046FEF722FF0146DAF83D
:101DC00000000EF001FACAF800002046FEF7D6FE29
:101DD000DAF818100EF09EFC002879D12046FEF7A4
:101DE000E5FEDAF81C100EF0B3FC002899D020466E
:101DF000FEF7DCFE01363F2ECAF81C0004F18C040D
:101E000094D1DAF804000EF093FA0146DAF80000F3
:101E10000EF096FBDAF81410CAF8000004460EF033
:101E200097FC08B1CAF81440DAF8101020460EF0FA
:101E300071FC08B1CAF810400B200AF055F90AF5F8
:101E4000005494F8A432002848D1002B4ED001232E
:101E500084F8A4320023CAF80C302C4602E08C34FB
:101E6000BC4215D02046FEF7DBFE0028F7D0204606
:101E7000FEF73EFEDAF80C100EF06AFC0028EED0F9
:101E80002046FEF735FE8C34BC42CAF80C00E9D17E
:101E90001F4BCAF8083002E08C35BD4215D02846E9
:101EA000FEF7BEFE0028F7D02846FEF705FEDAF85A
:101EB00008100EF02FFC0028EED02846FEF7FCFD9F
:101EC0008C35BD42CAF80800E9D102B0BDE8F08700
:101ED0002046FEF753FECAF818007FE70BB900232F
:101EE000B6E70C4800F04CFD0023B1E70A4800F0CB
:101EF0005BFDACE700C0794400C079C404800100F8
:101F0000487B0100847B0100987B0100C47B0100B9
:101F10000000A040187C0100E07B010000F50050AB
:101F2000D0F8AC02704700BF80687047C068704747
:101F30000068704741607047F8B500F50A550F46D4
:101F4000164600F1B4041C3502E08C34AC420FD0CC
:101F50002046FEF765FE0028F7D020463946FEF7FA
:101F600063FE204631468C34FEF766FEAC42EFD16C
:101F7000F8BD00BF2DE9F8432A4A2B4BDFF8AC909F
:101F8000426200F50A558046036200F1B4041C3534
:101F90000026002702E08C34AC4210D02046FEF729
:101FA0003FFE0028F7D02046FEF718FE49460EF007
:101FB000CFFB88B98C34AC4206F10106EED108F5AE
:101FC0000058D8F8A002801B0EF0B2F9014638463E
:101FD0000EF0B6FABDE8F8832046FEF7FFFD014695
:101FE00038460EF0F1F807462046FEF7F7FDD8F820
:101FF00020100EF0ADFB70B92046FEF7EFFDD8F8CB
:1020000024100EF087FB0028C5D02046FEF7E6FD21
:10201000C8F82400BFE72046FEF7E0FDC8F820001E
:10202000EAE700BF00C0794400C079C400008CC258
:10203000006A7047406A7047F8B500F50A560746CF
:10204000002500F1B4041C3602E08C34B4420FD0F9
:102050002046FEF7E5FD0028F7D02046FEF75AFDA2
:10206000014628460EF0B0F88C34B4420546EFD154
:1020700007F50057D7F8A0020EF05AF90146284696
:102080000EF05EFAF8BD00BF2DE9F04F074699B09B
:10209000A948884607F5005600F002FCA64800F063
:1020A000FFFBA54800F0FCFB07F50A55D6F8A02277
:1020B0000D920023C6F8A8321C3507F1B40907F1C8
:1020C000B40A03E009F18C09A94510D04846FEF78F
:1020D000A7FD0028F6D04846D6F8A842FEF74AFDEC
:1020E00009F18C090444A945C6F8A842EED1D6F8F6
:1020F000A832119338687B6810930DF049FF54465D
:10210000CDE90E014FF0000903E00AF18C0A5545B4
:1021100010D05046FEF784FD0028F6D05046FEF75A
:10212000F9FC014648460EF04FF80AF18C0A554575
:102130008146EED1D6F8A0020EF0FAF801464846E4
:102140000EF0FEF90DF024FFD7F80890CDE912014A
:1021500048460DF01DFFD7F80CB0CDE914015846E4
:102160000DF016FFCDE91601494658460EF02AF843
:1021700072490EF031F90DF00BFF824638468B465E
:10218000FFF7F8FE0DF004FFDDE91623CDE9062385
:10219000DDE91423CDE90423DDE91223CDE902238F
:1021A000DDE90E23CDE90A01CDE900230D99109B4D
:1021B000119A6348CDE908AB00F072FB5E4800F06D
:1021C0006FFB604809210AF0B9FAD6F8A0125E4800
:1021D00009F0E0F85D480A210AF0B0FA0023C6F8D9
:1021E000A832A146A24603E009F18C09A94510D006
:1021F0004846FEF715FD0028F6D04846D6F8A84216
:10220000FEF7B8FC09F18C090444A945C6F8A842B8
:10221000EED1D6F8A8124C4809F0BCF84A4809F0AB
:10222000C1F838680DF0B4FE0B4603210246009158
:10223000454809F0D9F8464801210AF07FFA54468A
:10224000414809F0AFF84FF0000AA14603E009F158
:102250008C09A94510D04846FEF7E2FC0028F6D0CC
:102260004846FEF757FC014650460DF0ADFF09F118
:102270008C09A9458246EED1D6F8A0020EF058F896
:10228000014650460EF05CF90DF082FE0325024631
:102290000B462D48009509F0A7F82E4804210AF0B6
:1022A0004DFAB8680DF074FE009502460B462648BC
:1022B00009F09AF8284804210AF040FAF8680DF06D
:1022C00067FE009502460B461F4809F08DF821482D
:1022D00004210AF033FAB968F8680DF073FF174962
:1022E0000EF07AF80DF054FE002602460B46164812
:1022F000009609F079F8022118480AF01FFA1248EE
:1023000009F050F80A2116480AF018FA3846FFF783
:1023100031FE0DF03DFE009502460B460A4809F0DD
:1023200063F8104801210AF009FA074809F03AF861
:102330000127B2461EE000BF0480010000007A447D
:10234000407C0100E07C0100B487FF1FEC7C0100B1
:10235000F87C0100FC7C0100047D01000C7D010083
:10236000107D01001C7D010001373F2F04F18C041A
:1023700000F08C802046FEF753FC0028F4D0204665
:10238000FEF7BCF92046FEF7BDF92046FEF7BEF980
:102390002046FEF7BFF9082140480CF049FA4048B2
:1023A000394608F0F7FF092F73DD02213D480CF094
:1023B0003FFA2046FEF724FC0DF0EAFD5FFA88F9AB
:1023C00002460B463648CDF8009009F00DF8364825
:1023D00001210CF02DFA0025564620E00621334855
:1023E0000CF026FA31462E4808F0D4FF022130487E
:1023F0000CF01EFA29462046FEF758FB0DF0C8FDEA
:10240000CDF8009002460B46254808F0EDFF013557
:10241000254801210CF00CFA062D07D00136092EB3
:10242000DCDC012123480CF003FAD7E71121224814
:102430000CF0FEF900212046FEF7E4FB0DF0A8FDAC
:10244000022502460B461648009508F0CDFF1221E2
:102450001A480CF0EDF901212046FEF7D3FB0DF0F0
:1024600097FD009502460B460D4808F0BDFF01217F
:1024700013480CF0DDF90137094808F093FF3F2FAE
:102480000AF1060A04F18C047FF474AF19B0BDE8B8
:10249000F08F012107480CF0CBF986E7207D010081
:1024A0003888FF1F3C8C0100F87C01002C7D010066
:1024B000C47D0100D47D0100347D0100487D010010
:1024C0001C7D01002DE9F04F00F1B40583B0894671
:1024D00092469B462E46012704E001373F2F06F126
:1024E0008C067AD03046FEF79BFB0028F5D00023FF
:1024F0000A2249467A4808F06DFF012179480CF01C
:1025000097F950460DF044FD0B460021024600911C
:10251000734808F069FF012172480CF089F95946A7
:102520006F4808F037FF01216E480CF081F93946F9
:102530006B4808F02FFF6B4801210CF079F900245B
:102540004FF0020821463046FEF7B0FA0DF020FDAC
:10255000CDF8008002460B46614808F045FF013483
:10256000604801210CF064F9082CEBD100213046C1
:10257000FEF748FB0DF00CFDCDF8008002460B463F
:10258000574808F031FF012156480CF051F901215C
:102590003046FEF737FB0DF0FBFCCDF8008002461D
:1025A0000B464F4808F020FF01214E480CF040F93F
:1025B00002213046FEF726FB0DF0EAFCCDF8008044
:1025C00002460B46464808F00FFF0137444808F022
:1025D000E9FE3F2F06F18C0684D101264FF000085A
:1025E00004E001363F2E05F18C0575D02846FEF734
:1025F00017FB0028F5D000230A2249463A4808F084
:10260000E9FE384801210AF059FD50460DF0C0FCA2
:10261000CDF8008002460B46334808F0E5FE31480D
:1026200001210AF04BFD59462F4808F0B3FE2D4812
:1026300001210AF043FD31462B4808F0ABFE294842
:1026400001210AF03BFD0024022721462846FEF71F
:102650002DFA0DF09DFC009702460B46224808F02B
:10266000C3FE01341F4801210AF028FD082CECD1DB
:1026700000212846FEF7C6FA0DF08AFC00970246B4
:102680000B46194808F0B0FE164801210AF016FD65
:1026900001212846FEF7B6FA0DF07AFC00970246B3
:1026A0000B46114808F0A0FE0E4801210AF006FD75
:1026B00002212846FEF7A6FA0DF06AFC00970246B2
:1026C0000B46094808F090FE0136074808F06AFEFC
:1026D0003F2E05F18C0589D103B0BDE8F08F00BF16
:1026E0003888FF1F5C7D0100C887FF1F014B1870F1
:1026F000704700BF2087FF1F024B1878B0FA80F0A8
:10270000400970472087FF1F0278002A00F0B78039
:1027100030B5034685B00D46252A38D158780028B3
:102720003DD0A0F12502D1B2552903F1010430D8E2
:10273000552A2ED8DFE802F09F2D2D2D2D2D2D2D81
:102740002D2D2D2D2D2D2D2D2D2D2D2D2D2D2D2DB9
:102750002D2D2D2D2D932D2D2D2D2D2D2D2D2D2D43
:102760002D2D2D2D2D2D2D882D2D2D7C2D2D2D2DEF
:102770002D2D2D2D2D7439392D5E2D2D392D2D39E1
:102780002D2D2D2D2D2D493F2D2D2D562D691878B0
:102790001C460CF0F5F86278631C002ABCD139485D
:1027A00005B0BDE8304008F0FDBD55F8041B3548C4
:1027B00008F0F0FDEFE755F8041B01290EBF324881
:1027C000324801210CF034F8E5E755F8043B002BC2
:1027D000E1D0184603930EF013FF014603980CF066
:1027E00027F8D8E755F8041B26480023102208F0E4
:1027F000F1FDD0E7073525F007050321F5E80223B1
:102800002048009108F0F0FDC5E7073525F00705E1
:102810000021F5E802231B48009108F0E5FDBAE726
:1028200055F8041B17480023022208F0D3FDB2E735
:10283000022117480BF0FCFF55F8041B1148002338
:10284000102208F0C7FDA6E755F8043B012B0BBF8B
:1028500010481148042105210BF0EAFF9BE70221F3
:102860000E480BF0E5FF55F8041B06480023022232
:1028700008F0B0FD8FE725200CF082F88BE70148C7
:1028800008F090BD3888FF1F687D01006C7D010055
:10289000607D0100707D0100787D0100647D010094
:1028A0000FB400B583B004A951F8040B0191FFF7F0
:1028B0002BFF03B05DF804EB04B0704770B5DFF890
:1028C00078C01E4BDCF800C082B00446CDF804C0CE
:1028D000DDF804C0C3F800C00D461646614600236B
:1028E0000A22174808F076FD032116480BF0A0FFD6
:1028F000032C07D8DFE804F01B1602111248072149
:102900000BF096FF022111480BF092FF314628464A
:1029100002B0BDE87040FFF7F7BE05210C480BF090
:1029200087FFEFE704210B480BF082FFEAE7052160
:1029300009480BF07DFFE5E73CB9FF1F9891FF1FA9
:102940003888FF1F1C7B0100907D0100C47D0100C1
:10295000987D0100887D0100807D01000FB400B5E5
:10296000064B187883B020B905AA04990192FFF7A5
:10297000A5FF03B05DF804EB04B070472087FF1F8C
:102980000FB4084B00B51B78012B83B005D805AAFE
:10299000049901920120FFF791FF03B05DF804EB69
:1029A00004B070472087FF1F0FB4084B00B51B7899
:1029B000032B83B005D805AA049901920320FFF7E1
:1029C0007DFF03B05DF804EB04B070472087FF1F64
:1029D00010B4074C0749084A00232370036510BC54
:1029E0004365836580F85C300B601360704700BFFF
:1029F000A491FF1FA091FF1F9C91FF1F2DE9F84F8D
:102A00009B4F9C4C9C4E3B78B4F866203280002B48
:102A100040F0C080B4F86030984D99482B80FFF7A3
:102A200009FB216B0DF076FE08B100232B80944842
:102A3000FFF7FEFAE16A0DF08BFE10B10023338040
:102A40002B808F48FFF772FAE1680DF081FE08B124
:102A500000232B808A48FFF769FAE1680DF078FEC1
:102A600008B100232B808648FFF75EFA21690DF03C
:102A700051FE002800F09180002333802B88002B2A
:102A800000F086803B787E48002B30D1FFF7D2FAE9
:102A9000616B0DF03FFE002840F02681794B7848AD
:102AA0001B68012B00F00881FFF740FA216A0646F7
:102AB000A0690DF087FB014630460DF049FE002865
:102AC00066D028880DF034FC82466D48FFF72EFA58
:102AD000A7698146216A38460DF074FB8046B4F838
:102AE00064000DF021FC0646B4F860002FE0FFF70B
:102AF000A1FA616B0DF00EFE002840F02481614BBD
:102B00005F481B68012B00F0BF80FFF70FFA216AB6
:102B10000646A0690DF056FB014630460DF018FE42
:102B2000002835D028880DF003FC82465448FFF772
:102B3000FDF9A7698146216A38460DF043FB8046BE
:102B4000B4F864000DF0F0FB0646B4F862000DF036
:102B5000EBFB31460DF036FB4146044648460DF08E
:102B600031FB014620460DF037FC4146044638460D
:102B70000DF028FB014620460DF0E2FC31460DF039
:102B800023FB014650460DF01DFB0DF027FE28806B
:102B9000BDE8F88FB4F862303EE73948FFF7C4F972
:102BA000E1690DF0B7FD00287FF466AF3388002B94
:102BB0003FF464AF3248FFF73BFAA16B0DF0C8FD5C
:102BC000002840F0EF802E48FFF7AEF921690DF0A4
:102BD000BFFD002843D02A48FFF7A6F9D4F8C41057
:102BE0008046E0690DF0F0FA014640460DF092FD96
:102BF00000283FF443AF30880DF09AFB834620480D
:102C0000FFF792F98246B4F86600D4F81C800DF004
:102C10008BFB4146814650460DF0D4FA4946824628
:102C200000200DF0CFFA014650460DF0D5FBD4F848
:102C3000C410824640460DF0C7FA41460DF0C2FA74
:102C4000014650460DF07CFC49460DF0BDFA0146A8
:102C500058460DF0B7FA0DF0C1FD30800EE7084878
:102C6000FFF762F9E1690DF073FD0028B3D105E7C4
:102C70001492FF1F3893FF1FEC92FF1FEE92FF1F6D
:102C80006C94FF1FF891FF1FFFF750F9216A064669
:102C9000606A0DF097FA014630460DF059FD0028A4
:102CA0003FF476AF28880DF043FB82465348FFF788
:102CB0003DF9676A81463EE7FFF738F9216A064623
:102CC000606A0DF07FFA014630460DF041FD0028A4
:102CD0003FF45EAF28880DF02BFB82464748FFF794
:102CE00025F9676A8146F5E628880DF021FB8146C3
:102CF0004248FFF79FF98046B4F86000276B0DF05B
:102D000013FB3946064640460DF05CFA31468046D4
:102D100000200DF057FA014640460DF05DFB3946A4
:102D20008046606B0DF04EFA014640460DF008FCFF
:102D300031460DF049FA014648460DF043FA0DF0D0
:102D40004DFD2880AAE628880DF0F2FA81462B482E
:102D5000FFF770F98046B4F86200276B0DF0E4FAD3
:102D60003946064640460DF02DFA31468046002091
:102D70000DF028FA014640460DF02EFB39468046FC
:102D8000606B0DF01FFA014640460DF0D9FB31464D
:102D90000DF01AFA014648460DF014FA0DF01EFD2A
:102DA0002880ACE630880DF0C3FA83461348FFF75D
:102DB0003FF98246B4F86600D4F838800DF0B4FAD2
:102DC0004146814650460DF0FDF9014648460DF05A
:102DD00003FB41468146E06A0DF0F4F9014648469E
:102DE0000DF0AEFB00210DF0EFF9014658460DF055
:102DF000E9F90DF0F3FC3080E5E600BF6C94FF1FAD
:102E0000DDF800C0521AACEB030C1CD0401ABCF128
:102E1000000F0CFB00F002EBD27109DB00EB61004C
:102E200000FB02F1002990FBF2F0184410DB704720
:102E3000A0EB610000FB02F1002990FBF2F01844C6
:102E4000F5DB013070470CEBDC7C03EB6C0070476A
:102E50000138704710B5044682B049B10846019167
:102E60000EF0CEFB236801995B6802462046984726
:102E7000204602B0BDE8104008F094BA2DE9F041B8
:102E80004648474C474F484EFFF70AFD474B4848D6
:102E90005C60484CDC60484C1C61484C9C61484C70
:102EA0009C62484CDC61484CDC62484C1C63484CDA
:102EB000C3F8CC40C3F8D04000245C63454C9C630D
:102EC000454CDC634FF07C549C64444CDC6440F221
:102ED0000128434C1C65A3F80880424C5C624FF00B
:102EE0000C08414CC3F8548040F61C48C3F8C44059
:102EF000C3F868803D4C18624FF00A080022322166
:102F00004FF40575586118644FF0640E01201C667B
:102F1000C3F86C80364C1D8041F2040883F84420CD
:102F2000C3F8A41098655C66C3F85CE0314CC3F844
:102F30007080C3F88C10C3F8AC10FF214FF0020C66
:102F40002D4DC3F8C0409A67C3F88000C3F8B400A1
:102F5000C3F88420C3F8B010C3F8A82083F8C920B0
:102F600083F8CA205A2441F288304FF47A7144F62B
:102F70002062C3F89470C3F89860C3F8A050C3F8F7
:102F8000BCE0C3F87CC0C3F8B8C05C67C3F8880075
:102F9000C3F89010C3F89C20BDE8F081A07D01002B
:102FA00020A107000000114400F0C8453893FF1F1E
:102FB000CDCC4C3E666686400000404033338340B3
:102FC000CDCCCC3DCDCC4C4000008242000020C195
:102FD00058028813000020420000A0409A997940CE
:102FE0000AD7233D333373409A99993E2C019600BA
:102FF00032002C0188130500D606D60670B5444D64
:10300000444C4548E66800232B70FEF78FFF0146CD
:1030100030460DF07FFB08B104232B703E48FEF7CD
:1030200083FF21690DF076FB18B12B7843F0100374
:103030002B703948FEF7FCFFE16A0DF089FB18B1EF
:103040002B7843F040032B70002333486B70FEF75E
:10305000F1FF216B0DF05EFB08B101236B700023C3
:103060002D48EB70FEF762FF06462B48FEF75CFF2B
:10307000014630460DF0A6F8216C0DF069FB08B151
:103080000123EB70254D244800232B70FEF74EFFE3
:10309000A16A0646E0680DF095F8014630460DF04D
:1030A00057FB08B104232B701B48FEF73DFFA16AB4
:1030B000064620690DF088F8014630460DF02AFBDF
:1030C00018B12B7843F010032B701348FEF7B0FFB4
:1030D000E16B0646E06A0DF075F8014630460DF0EA
:1030E00037FB18B12B7843F040032B7000230A48BC
:1030F0006B70FEF79FFFE16B0646206B0DF064F8E6
:10310000014630460DF006FB08B101236B7070BD1F
:10311000E892FF1F3893FF1F6C94FF1FE492FF1F7C
:103120002DE9F043A44C2368012B85B048D0022B35
:1031300079D0032B03D033B305B0BDE8F0839F4AA9
:103140009F4B4FF47A711160D3F8AC000DF0F0F89A
:103150009B4B0546D3F8B0000DF0EAF829460DF078
:1031600031F898490DF038F996490DF0E9F92946FA
:103170000DF02AF80DF00CFB0146062008F00CFEBD
:103180002368002BD8D18E4B8F48D3F8AC10D3F8DE
:10319000B02003688D48521A002A02FB03F367DB54
:1031A000323380FB0320DA17C2EB6012002B11448C
:1031B000C0F2FF80062005B0BDE8F04308F0ECBD8A
:1031C0007E4B1B680A33B3F57A7F4EDC18460393B7
:1031D0000DF0AEF87E490DF0FFF8039B0746774AE5
:1031E000774D1360D5F8AC000DF0A2F80646D5F87F
:1031F000B0000DF09DF831460CF0E4FF39460DF0BB
:10320000EBF870490DF09CF931460CF0DDFF0DF044
:10321000BFFA0146062008F0BFFD6E4B1B6893BB4A
:103220002368022B85D1654A654B00211160D3F8D4
:10323000AC000DF07DF8624B0546D3F8B0000DF000
:1032400077F829460CF0BEFF00210DF0C5F85D4966
:103250000DF076F929460CF0B7FF0DF099FA01460A
:10326000062008F099FD236863E700270023B6E7EE
:10327000323B80FB0320DA17C2EB6012002B1144B3
:1032800098DB013196E7022153484C4D4C4F0BF02F
:10329000CFFA524808F086F8062151480BF0C8FAD8
:1032A00028680DF045F84A490DF096F80CF070FECC
:1032B000022602460B460096484808F095F80D2174
:1032C00048480BF0B5FAD7F8AC000DF031F880465D
:1032D00028680DF02DF83E490DF07EF88146D7F8AC
:1032E000B0000DF025F841460CF06CFF0146484651
:1032F0000DF072F833490DF023F941460CF064FFEC
:103300000CF046FE009602460B46344808F06CF876
:10331000314631480BF08CFA304808F043F831461A
:103320002D4809F00BFA304808F03CF806212C48EB
:1033300009F004FA28680CF0FBFF25490DF04CF861
:103340000CF026FE009602460B46274808F04CF883
:103350000D21244809F0F2F9D7F8AC000CF0E8FF91
:10336000804628680CF0E4FF19490DF035F8054651
:10337000D7F8B0000CF0DCFF41460CF023FF01460B
:1033800028460DF029F80F490DF0DAF841460CF007
:103390001BFF0CF0FDFD009602460B46124808F09C
:1033A00023F80D48314609F0C9F90F4807F0FAFF34
:1033B00036E70139FEE600BFE091FF1F2092FF1FB4
:1033C0003893FF1F0000C8424087FF1F1F85EB5145
:1033D000CDCCCC3D2887FF1F3C8C01003888FF1FD7
:1033E000C07D0100C87D0100B487FF1F30B51C48B7
:1033F0001C4C83B007F0D6FF194807F0D3FF1848DC
:1034000007F0D0FF0D2118480BF012FA174807F00B
:10341000C9FF164807F0C6FF144807F0C3FF12485B
:103420000D2109F08BF9D4F8A830012B22D0104DD2
:103430000B48297800230A2207F0CCFF00230B4811
:1034400029780A2207F0C6FF2B78052B5ED8DFE823
:1034500013F04802510224022D0236023F0200BF3F
:103460003888FF1F3893FF1FD87D0100B487FF1FE6
:103470001493FF1F0921BF480BF0DAF90921BD4859
:1034800009F05CF9BC48FEF74FFD21690DF042F9E7
:10349000002840F08382B848FEF748FDE1680DF04F
:1034A00057F9002840F07182B348FEF73FFD05460A
:1034B000B148FEF739FD014628460CF083FE216C29
:1034C0000DF046F9002840F05782AB48FEF752FD58
:1034D000E16A0DF03DF9002840F04582A648FEF76C
:1034E00049FD216B0DF016F9002840F03382A34B03
:1034F000A1481B68012B00F01C82FEF715FD216915
:103500000DF026F9002840F0FE819D4D9D480221D6
:103510000BF08EF99B48022109F010F9122008F0F7
:10352000E3FD012800F08E81112008F0DDFD012867
:1035300000F09681944B1B68012B00F09E810221C4
:103540009048924C0BF074F9914B9248196807F02F
:1035500021FF904807F026FF04218F480BF068F9FF
:103560000B2008F0C1FD002301460A22894807F01C
:1035700031FF0C2008F0B8FD002301460A228548DF
:1035800007F028FF142008F0AFFD002301460A22AF
:10359000804807F01FFF152008F0A6FD00230A222F
:1035A00001467C4807F016FF06217C480BF040F9E5
:1035B0007B4807F0F7FE0421774809F0BFF80B209D
:1035C00008F092FD002301460A22754807F002FF29
:1035D0000C2008F089FD002301460A22704807F0FC
:1035E000F9FE142008F080FD002301460A226C48F1
:1035F00007F0F0FE152008F077FD002301460A22AF
:10360000674807F0E7FE6548062109F097F8236848
:10361000D80700F1D980012162480BF009F9012196
:10362000604809F08BF82368990740F1D98001219F
:103630005D480BF0FDF85C48012109F07FF8236834
:103640005A0740F1D980012157480BF0F1F856484C
:10365000012109F073F823681B0740F1D98001218B
:1036600051480BF0E5F85048012109F067F80421B2
:103670004E480BF0DDF8112008F036FD002301461E
:103680000A22444807F0A6FE102008F02DFD002372
:1036900001460A223F4807F09DFE122008F024FD53
:1036A000002301460A223B4807F094FE132008F04D
:1036B0001BFD00230A220146364807F08BFE042139
:1036C0003A4809F03BF8112008F00EFD00230146AE
:1036D0000A22334807F07EFE102008F005FD002383
:1036E00001460A222E4807F075FE122008F0FCFC65
:1036F000002301460A222A4807F06CFE132008F036
:10370000F3FC0A2201460023254807F063FE244803
:1037100007F048FE182126480BF08AF8254B188838
:103720000CF006FE24490CF057FE0CF031FC00248E
:1037300002460B461748009407F056FE1F211F480B
:103740000BF076F81E4B18880CF0F2FD1A490CF0BD
:1037500043FE0CF01DFC00940B4602460D4807F09A
:1037600043FE184802210BF063F82B78032B58D046
:1037700003B030BDE87D01006C94FF1FF891FF1F7E
:103780001493FF1F3C8C0100D091FF1F0893FF1F73
:10379000F491FF1F3888FF1FE07E0100E87E0100E2
:1037A000B487FF1FF47E0100F07E0100F87E010067
:1037B000007F0100EE92FF1FCDCCCC3D1C7F0100AD
:1037C000EC92FF1F3C7F0100012182480BF030F892
:1037D0000121804808F0B2FF236899073FF527AF21
:1037E00001217D480BF024F87B48012108F0A6FF59
:1037F00023685A073FF527AF012177480BF018F8E7
:103800007548012108F09AFF23681B073FF527AF91
:10381000012171480BF00CF86F48012108F08EFF70
:1038200025E76E4B1B788BB31E216D480BF000F81B
:103830006C481B2108F082FF6B4803B0BDE83040A4
:1038400007F0B0BD0E2169480AF0F2FF67480E216B
:1038500008F074FF112008F047FC01287FF46AAEDD
:103860000A2163480AF0E4FF61480A2108F066FF74
:10387000604B1B68012B7FF462AE12215E480AF098
:10388000D7FF5D48122108F059FF58E620215B4818
:103890000AF0CEFF5A481D21CCE7072159480AF00B
:1038A000C7FF5848072108F049FF2FE6082156486E
:1038B0000AF0BEFF5448082108F040FF26E60B211D
:1038C00052480AF0B5FF51480B2108F037FF1DE6BA
:1038D00007214F480AF0ACFF4D48072108F02EFFA2
:1038E00014E606214B480AF0A3FF4A48062108F0D7
:1038F00025FF0BE6072148480AF09AFF46480721B2
:1039000008F01CFF02E64548454DFEF70FFBE16855
:103910000CF000FF00283FF4F9AD2B78052B10D1F7
:103920000A2140480AF084FF3E480A2108F006FFB9
:10393000ECE5FEF7F9FA616A0CF00AFF002836D1CF
:10394000374D394808210AF073FF3748082108F03D
:10395000F5FEDBE50D2135480AF06AFF33480D21FD
:1039600008F0ECFEC3E50C2131480AF061FF304855
:103970000C2108F0E3FEB1E511212E480AF058FFB2
:103980002C48112108F0DAFE9FE50E212A480AF0A2
:103990004FFF29480E2108F0D1FE85E50F21274869
:1039A0000AF046FF25480F2108F0C8FE73E51621EE
:1039B00023481B4D0AF03CFF0A211A480AF038FF41
:1039C0001F48162108F0BAFE16480A2108F0B6FE74
:1039D0009CE500BFF07E0100F47E01001492FF1F01
:1039E000847F0100A47F0100B487FF1FB07E010027
:1039F000C07E0100D091FF1FCC7E0100407F0100FE
:103A0000647F0100947E01009C7E0100887E01009D
:103A1000A87E0100787E0100807E01006C94FF1F6B
:103A20001493FF1F607E01006C7E0100387E010050
:103A3000287E0100147E0100047E0100F47D010057
:103A4000487E01002DE9F04FBD4CD4F87CA0BAF1BE
:103A5000010F8FB000F0CE81BAF1030F5AD0DFF81A
:103A6000E482B94FB94EA36F3168B948012B04BF46
:103A700001F10041316007F0B1F93B68002B40F0E3
:103A80008781B34807F076F93B68C8F8000005461F
:103A9000002B40F03681E36F012B00F0F680AD493A
:103AA00028460CF055FE30B9AB4928460CF032FEE2
:103AB000002800F07782DFF8A492A94FD9F80030EF
:103AC0000C930C983B68DFF89CA2C01A0CF02CFCFD
:103AD00029460CF081FCA4490CF032FDA2490CF0FF
:103AE0002FFDDAF800100CF06FFBD9F800300B93C3
:103AF0000B9BCAF800003B60D4F8B4000CF018FC33
:103B000029460CF069FC0023C8F8000033600FB0B0
:103B1000BDE8F08FDFF85492954DD9F80020DFF81A
:103B20002482D2F8840001230F212B6006F0E0FBF1
:103B30002B68854F012B3A6800F08C81002A40F0F9
:103B40004582D9F80030DFF82CA2D3F88400436B0B
:103B50001D69ADB2CAF8005006F0AEF840F6E44375
:103B600003FB05F5B4F8A230B5FBF0F5E81A00B296
:103B70000CF0DEFB8049754E0546D4F894000CF03D
:103B80002BFC014628460CF0DBFCDAF800303060F4
:103B9000632B00F30E82002333603B68002B3FF45D
:103BA00062AF022175480AF043FED9F80030D3F81D
:103BB0008400DAF8003040F6E44B0BFB03F506F026
:103BC0007BF8B5FBF0F00CF0AFFB0546B4F8A200B3
:103BD0000CF0AEFB014628460CF0F4FA0CF0D8F9D4
:103BE000022502460B460095654807F0FDFB294675
:103BF00062480AF01DFE30680CF0CAF900950246D2
:103C00000B465F4807F0F0FB29465E480AF010FEBD
:103C100029465A480AF00CFE2946584808F08EFDFD
:103C2000D9F80020DAF80030D2F884000BFB03F951
:103C300006F042F8B9FBF0F00CF076FB8146B4F8E0
:103C4000A2000CF075FB014648460CF0BBFA0CF0E4
:103C50009FF9009502460B464B4807F0C5FB2946E5
:103C6000464808F06BFD30680CF092F9009502466A
:103C70000B46454807F0B8FB2946424808F05EFD70
:103C80003E48294608F05AFDEDE6394B1B68012BEA
:103C900000F01A82022B7FF42FAFD4F89C703846C4
:103CA0000CF046FB29460CF035FD40B978420CF08B
:103CB0003FFB29460CF04CFD002800F09A82DFF80B
:103CC0009CA0DFF89C90DAF8003009930998D9F8A5
:103CD0000030244FC01A0CF027FB29460CF07CFB67
:103CE00021490CF02DFC20490CF02AFC39680CF01D
:103CF0006BFADAF800300893089B3860C9F8003096
:103D0000FAE60CF045F9022502460B4600951C48E0
:103D100007F06AFB04211D480AF08AFDD8F800006C
:103D20000CF036F9009502460B46174807F05CFB8D
:103D30001648042108F002FDD8F80050ABE600BF99
:103D40003893FF1F4492FF1FDC91FF1F4092FF1F1B
:103D50001893FF1F0000FA430000FAC33CB9FF1F8D
:103D60003892FF1F3C92FF1F00007A44CC91FF1F46
:103D70004487FF1F4892FF1FACC527373C8C0100CA
:103D80003888FF1FFC7F0100B487FF1F00800100FF
:103D9000BC4806F0EFFF0CF0FBF8022502460B468C
:103DA0000095B94807F020FB0321B8480AF040FD10
:103DB000D4F89C10B44807F0EDFA0321B3480AF098
:103DC00037FDB04806F0D6FF0CF0E2F80095024649
:103DD0000B46AF4807F008FBAC48032108F0AEFCE7
:103DE000D4F89C10AA4807F0D5FAA848032108F097
:103DF000A5FC46E6DFF89C82DFF89C92D4F89C5044
:103E0000D9F80030D8F80060D3F8847028460CF058
:103E10008FFA31460CF09CFC78B168420CF088FABD
:103E2000014630460CF094FC38B19C4D38460F21C9
:103E3000C5F800A006F05CFA7AE6984D02233846F1
:103E40000E212B6006F054FA2B68954F012B3A682F
:103E50007FF474AE002A40F06581D9F80030DFF8B5
:103E600044A2D3F88400436B1D69ADB2CAF8005078
:103E700005F022FFB4F8A0308B4E40F6E44202FB7E
:103E800005F5B5FBF0F5E81A00B20CF051FA8749D8
:103E90000546D4F898000CF09FFA014628460CF02D
:103EA0004FFBD9F800303060D3F88400DAF80030E6
:103EB00040F6E44202FB03F505F0FEFEB4F8A02054
:103EC000B5FBF0F31BB29B1A002BB4F8C220B8BFAD
:103ED0005B429342BCBF002333603B68002B3FF43E
:103EE000C2AD022172480AF0A3FCD9F80030D3F821
:103EF0008400DAF8003040F6E44505FB03F3039351
:103F000005F0DAFEB4F8A010039BB3FBF0F31BB28C
:103F1000591A5D4807F03EFA022165480AF088FC0C
:103F200030680CF035F84FF0020B02460B46CDF826
:103F300000B0554807F058FA03215E480AF078FCB3
:103F400059465B480AF074FC5946594808F0F6FB9C
:103F5000D9F80020DAF80030D2F8840003FB05F528
:103F600005F0AAFEB4F8A010B5FBF0F52DB2691A61
:103F7000474807F00FFA59464D4808F0DFFB306814
:103F80000CF006F8CDF800B002460B46404807F0AA
:103F90002BFA4848032108F0D1FB4548594608F060
:103FA000CDFB60E5444B1B680D93444B0D9A1A60A2
:103FB000A2E5D9F80030D3F8840005F07DFEDAF8E8
:103FC000003064389842FFF4E6ADE6E52E48DFF8AD
:103FD000D4A007F0E7F90C2139480AF029FC0C219C
:103FE00038480AF025FC2A4807F0DCF934480C214F
:103FF00008F0A4FB33480C2108F0A0FBD9F80020FE
:104000003B68D2F88400426B1569ADB2CAF8005023
:10401000002B3FF4A1AD05F04FFE40F6E4460A2226
:10402000002306FB05F1B1FBF0F1174807F0D2F9C8
:1040300002211F480AF0FCFBB4F8A210124807F056
:10404000A9F9D9F80030DAF80010D3F8840001FBA0
:1040500006F605F031FE00230A22B6FBF0F10C480B
:1040600007F0B8F91248022108F068FB0848B4F8D4
:10407000A21007F08FF9D9F80030DAF80050D3F821
:10408000840069E51893FF1F3888FF1F207B01001B
:10409000B487FF1F4492FF1FCC91FF1F4487FF1F6F
:1040A000DC91FF1F4892FF1F4092FF1FACC52737CE
:1040B0003C8C0100E87F01003CB9FF1F3892FF1FD4
:1040C000EC7F0100D87F0100514928460CF040FBED
:1040D00030B9504928460CF01DFB002800F08280C2
:1040E000DFF834A1DFF83491DAF80030069306984F
:1040F000D9F800304A4FC01A0CF016F929460CF0D6
:104100006BF948490CF01CFA46490CF019FA396869
:104110000CF05AF8DAF800300593059B3860C9F8BE
:104120000030E9E4404807F03DF9404807F03AF92B
:10413000E36F012B4FF00B0162D03D480AF078FB92
:104140003B480B2108F0FAFA0C213A48DFF8E8A0C6
:104150000AF06EFB37480C2108F0F0FAD9F800207D
:104160003B68D2F88400426B1569ADB2CAF80050C2
:10417000002B3FF47DAE05F09FFD40F6E4460A2299
:10418000002306FB05F1B1FBF0F1274807F022F907
:1041900001212A480AF04CFBB4F8A010224807F08D
:1041A000F9F8D9F80030DAF80010D3F8840001FBF0
:1041B00006F605F081FD00230A22B6FBF0F11B484C
:1041C00007F008F91D48012108F0B8FA1748B4F8BB
:1041D000A01007F0DFF8D9F80030DAF80050D3F873
:1041E000840045E60C4B1B6807930C4B079A1A603A
:1041F00082E4094B1B680A93084B0A9A1A607BE415
:104200000F480AF015FB0E480B2108F097FA9BE7C0
:104210000000FA430000FAC33CB9FF1F3892FF1FA9
:104220003C92FF1F00007A443888FF1FB487FF1FAD
:10423000CC7F0100D87F01004892FF1FD47D010090
:10424000C07F01002DE9F043DFF89C82D8F80030F0
:1042500085B0002B00F0A680A44CA54DD4F8843086
:10426000A44EA54F012B00F0CD80D7F80080E36D60
:10427000D4F8589009FB03F34FF47A7003FB00F075
:104280000CF056F89D49814640460CF0A5F8494689
:104290000CF056F99A490CF09FF80CF079FA632863
:1042A00028607ADD954948460CF04AF96423386065
:1042B0002B603368002B6DD0E36F012B00F0CA80B8
:1042C000032B00F0D780022B00F0E0808D4E8E484B
:1042D00002210AF0ADFA30680BF05AFE02240246C1
:1042E0000B460094894807F07FF8214688480AF079
:1042F0009FFA214684480AF09BFA2968834807F010
:1043000049F8062183480AF093FA38687B490CF093
:1043100063F80BF03DFE009402460B467B4807F025
:1043200063F803217C480AF083FA784807F03AF8EA
:104330002146754808F002FA30680BF029FE009417
:1043400002460B46754807F04FF82146704808F0C2
:10435000F5F9724807F026F82968704807F01AF84E
:104360006C48062108F0EAF9386864490CF034F822
:104370000BF00EFE009402460B46684807F034F836
:104380006548032108F0DAF9644805B0BDE8F04358
:1043900007F008B805B0BDE8F0830028BCBF0023D3
:1043A0002B6086E75E48514C524EFDF745FE5D4955
:1043B000E76E0CF011F80CF011FA656F226FA16E28
:1043C00000953B4680B2FEF71BFD494D33682860DF
:1043D000002B64D1E36D484F03FB00F0A36D03FB9A
:1043E00000F000EB800040000BF0A2FF43490CF00E
:1043F000A7F80123C8F80030D4F884303860012BC6
:104400007FF433AF4648FDF717FEE36E454903934B
:104410000BF0E2FF0CF0E2F9D4F874C0226FA16E49
:10442000039BCDF800C080B2FEF7EAFCE36DD4F840
:104430005890039303FB00F009FB00F000EB8000B1
:1044400040000BF075FF2D490CF07AF8039B3860A3
:1044500080460FE7344B1B68012B3AD00A213348C2
:104460000AF0E6F931480A2108F068F9E36F032BF6
:104470007FF429AF10212E480AF0DAF92C481021D8
:1044800008F05CF9E36F022B7FF420AF0721294885
:104490000AF0CEF92748072108F050F916E7022163
:1044A00019480AF0C5F92968184806F073FF022177
:1044B00015480AF0BDF91448022108F03FF92968AF
:1044C000164806F067FF1048022108F037F92868FF
:1044D00080E70A2118480AF0ABF917480A2108F0CA
:1044E0002DF9E36FECE600BF2492FF1F3893FF1F06
:1044F0004087FF1F2887FF1F3C92FF1FE4388E3E36
:104500000000C8424492FF1F3C8C01003888FF1F06
:10451000FC7F01003C80010044800100B487FF1F44
:104520006C94FF1F00007A444487FF1F1480010031
:1045300020800100348001000880010000B51120B6
:1045400083B007F0D1FD012804D0122007F0CCFD84
:10455000012822D10121152007F0A4FD2D4B2E4961
:104560002E4A1B6808680193D2F8883003442C480F
:104570000221016001998B4208D8D2F890000BF01B
:10458000D7FE284B19680CF0C5F8D0B101210C20DA
:1045900003B05DF804EB07F085BD00210B2007F0A8
:1045A00081FD00210C2007F07DFD0021152007F082
:1045B00079FD1D491A4B0120002208701A6003B0D2
:1045C00000BD01210B2007F06DFD144A144992F83B
:1045D000C8200323012A0B6016D0122007F084FDA7
:1045E000012808BF104A4FF003034FF0110008BF25
:1045F000137007F079FD012806D000210C2003B0CC
:104600005DF804EB07F04EBD074B02221A70002143
:10461000F4E700BF3CB9FF1FF892FF1F3893FF1F5C
:104620000C93FF1F4492FF1F1493FF1F10B56D4A98
:104630006D4C116823688B4284B034D013F00100B4
:1046400039D098070ED401F0FD01116059070BD540
:104650001168C80767D5990703F004004CD4A0B9C6
:1046600004B010BD58073ED40021052007F094FB8C
:104670005C4A2168136803F0FB031360CB0750D436
:104680008B0701F0040037D468B111684B07E7D4F9
:10469000564B1B68002B56D0554909680391039966
:1046A000994262D821680029DAD1162004B0BDE809
:1046B000104007F071BB0146162007F06DFB494A18
:1046C0002368106813F0020F00F0FE01116020D083
:1046D0005807C9D513F00100BAD1464B41F0020189
:1046E00011601860D2E7CB071DD5424B41F00201A3
:1046F000002011601860C9E711683E4B41F00201CB
:104700004FF0000C1160C3F800C00028BED104B007
:1047100010BD00F0FC0010605807A5D5D907B4D52E
:1047200096E70B4694E7344B1B68002B3FD030498B
:10473000096801910199994229D821688B0701F0F4
:104740000400A1D5D8E72D4B1B68002B3ED1FF21DB
:10475000052007F021FB264929480B680293029B9C
:104760000068224A0344136097E7264B0520D3F8DC
:104770008C1007F011FB1B4A2168136843F00403F7
:1047800013601A4B0020186000298ED068E71D4B7B
:104790001620D3F88C1007F0FFFA124A1648136857
:1047A000002143F0010301601360216868E7FF21E5
:1047B000162007F0F1FA0E4911480B680093009B90
:1047C00000680D4A03441360064AB1E70E4806F03C
:1047D000E9FD0C210D480AF02BF80B4806F0E2FD2C
:1047E000B5E700BF0893FF1F0C93FF1FFC92FF1F4C
:1047F0003CB9FF1F0093FF1F0493FF1F2887FF1F73
:104800006887FF1F3893FF1F3888FF1F488001000B
:104810002DE9F0476A4EDFF8AC8133686A4FD3F870
:1048200084006A4D0F2105F063FD0023012222213F
:104830006748C8F800303A6009F0FAFF644822215E
:1048400007F07CFFD8F80030132BD8BF40F6E449BE
:1048500023DC3368B5F8A0A0D3F88400436B1C694F
:1048600005F02AFAA4B2034601215A4809FB04F4D0
:10487000B4FBF3F4A244A5F8A0A009F0D9FF554871
:10488000012107F05BFF642007F096FCD8F80030A8
:104890000133132BC8F80030DBDDB5F8A0304E49EA
:1048A0004E48A1FB03215B1A01EB5301C1F30F1129
:1048B000A5F8A01006F06EFD1D21494809F0B8FFCB
:1048C0000221484809F0B4FF444806F06BFDB5F8F2
:1048D000A010454806F05EFD41481D2107F02EFF5F
:1048E0000221404807F02AFF3F4806F05BFD002305
:1048F000C8F8003033680E21D3F8840005F0F8FCC6
:104900000223222132483B6009F092FF30482221E5
:1049100007F014FFD8F80030132B25DC40F6E447ED
:104920003368B5F8A290D3F88400436B1C6905F096
:10493000C3F9A4B203460121264807FB04F4B4FBE3
:10494000F3F4A144A5F8A29009F072FF21480121D7
:1049500007F0F4FE642007F02FFCD8F80030013394
:10496000132BC8F80030DBDDB5F8A2301A491B481C
:10497000A1FB03215B1A01EB5301C1F30F11A5F851
:10498000A21006F007FD1D21184809F051FF022171
:10499000144809F04DFF114806F004FDB5F8A210C7
:1049A000114806F0F7FC11481D2107F0C7FE0D481D
:1049B000022107F0C3FEBDE8F0470B4806F0F2BC49
:1049C000CC91FF1FFC91FF1F4487FF1F3893FF1FEF
:1049D000588001007C800100876118863888FF1F9D
:1049E000808001003C8C0100B487FF1FA080010083
:1049F0002DE9F843BA4CBB4D082340F25132E37124
:104A0000686D22600BF094FCB74B1B680646002BC8
:104A100040F03281A9690BF0DFFCB4490BF0DCFCFB
:104A20000BF0DCFEB24BE9691F88B24B1FFA80F92C
:104A3000C0F3072830461E880BF0CEFCAB490BF0C4
:104A4000CBFC0BF0CBFE002369F3070368F30F23C5
:104A500067F317433F0A67F31F63A360002366F3FE
:104A60000703360A80B266F30F2360F31743000A88
:104A700060F31F639A49A048E36005F059FF9F4A1D
:104A80009D4813681288228103EB83039C4A082601
:104A900040F255315B001288216023739049628196
:104AA000334100276373E671E78105F041FF40F26F
:104AB000563394482360E671FDF73AFA92490BF0B9
:104AC0008BFC0BF08BFE20728E48FDF731FA8E497D
:104AD0000BF082FC0BF082FE8C4B8B49F040607235
:104AE00018680BF02DFD0BF053FE60818548FDF733
:104AF00041FA7E490BF070FC0BF04AFE20738148AE
:104B0000FDF738FA79490BF067FC0BF041FE3041B4
:104B1000734960737848E78105F00AFF022007F0C7
:104B20004BFB7B4A7B4B12681B687348A26040F2C8
:104B30005A3121606A49E360E67105F0F9FE764B6F
:104B400067496D48E67140F25E322260D3E9002386
:104B5000A260E36005F0ECFE022007F02DFB6F4B36
:104B60005F496548E6714FF45C722260D3E9002327
:104B7000E360A26005F0DCFE694B1B68012B7DD071
:104B8000022007F019FB4FF08173A360B5F85C3089
:104B9000A381082640F2991340F273370220E38183
:104BA0002760E67107F008FB56482760E671FDF7BD
:104BB000BBF95C490BF010FC0BF010FE2072514861
:104BC000FDF7B2F957490BF007FC0BF007FE20FA8E
:104BD00006F34C486372FDF7A9F952490BF0FCFB50
:104BE0000BF0FCFDA0724748FDF7A0F94D490BF012
:104BF000F3FB0BF0F3FD20FA06F34248E372FDF7F6
:104C000019FA49490BF0E0FA0BF0E8FD20733D4832
:104C1000FDF710FA44490BF0D7FA0BF0DFFD20FA4C
:104C200006F338486373FDF703FA3F490BF0CCFAFB
:104C30000BF0D4FDA0733348FDF7FAF93A490BF0B5
:104C4000C3FA0BF0CBFD264920FA06F32A48E3739A
:104C500005F06EFE022007F0AFFAEA6DAB6D13FBB4
:104C600002F3022123FA06F240F27930E171237255
:104C700062722060BDE8F883696ACCE62148FDF7DE
:104C800053F9296D0BF0A0FA07461E48FDF74EF9BF
:104C9000014638460BF03EFD00283FF471AF40F26C
:104CA000C3331848E6712360FDF73EF9EE6C3146D8
:104CB0000BF030FD002839D01A4930460BF08CFB40
:104CC0000BF08CFD030A237240F201420323607251
:104CD000034909486281E36005F02AFE50E700BFFE
:104CE000BC91FF1F3893FF1FF891FF1F0000204168
:104CF000EE92FF1FEC92FF1F88B7FF1F4087FF1F38
:104D00005887FF1F6C94FF1F0000C8424492FF1F8A
:104D1000E892FF1FE492FF1F5087FF1F4887FF1F85
:104D2000D091FF1F00007A44339388430948FDF770
:104D3000FBF809490BF050FB0BF050FD030A054846
:104D40002372FDF7F1F804490BF046FB0BF046FD2A
:104D5000BAE700BF6C94FF1F00007A442DE9F04FC2
:104D600083B009F0EBFCB14D286007F093FD0028FB
:104D700000F3CA80AE4C28682368042B00F0CC8076
:104D8000092B31D1AB4E96F8CA30012B84BF0023DA
:104D900086F8CA3096F8C930012B02D9002386F86C
:104DA000C930322801F01782712801F0C281312800
:104DB00014D196F8C930B3FA83F301225B0922605B
:104DC00086F8C93078200123052B286000F0E281A5
:104DD000032B00F0EF81012B00F05781732800F0C6
:104DE0000E8303B0BDE8F08F022B40F02981A0F1C3
:104DF0003103422BF2D801A252F823F0A967000038
:104E00007B6800009168000005690000F5660000FD
:104E10006D6A0000A56A0000BD6A0000DD4D00005B
:104E2000DD4D0000DD4D0000DD4D0000DD4D0000DA
:104E3000DD4D0000DD4D0000DD4D0000DD4D0000CA
:104E4000DD4D0000DD4D0000DD4D0000DD4D0000BA
:104E5000DD4D0000DD4D0000DD4D0000DD4D0000AA
:104E6000DD4D0000DD4D0000DD4D0000DD4D00009A
:104E7000DD4D0000DD4D0000DD4D0000DD4D00008A
:104E8000DD4D0000DD4D0000DD4D0000DD4D00007A
:104E9000DD4D0000DD4D0000DD4D0000DD4D00006A
:104EA000DD4D0000DD4D0000DD4D0000DD4D00005A
:104EB000DD4D0000DD4D0000DD4D0000DD4D00004A
:104EC000DD4D000039500000DD4D0000DD4D0000DB
:104ED000DD4D0000DD4D0000DD4D0000DD4D00002A
:104EE000DD4D0000DD4D0000DD4D0000DD4D00001A
:104EF000DD4D0000DD4D0000DD4D0000F7530000EA
:104F0000DD4D00008F670000494C07F0D7FC236897
:104F10002860042B7FF434AFA0F13103402B3FF61F
:104F20005DAF01A252F823F0676600006D660000D5
:104F3000736600009166000097660000AF6600008F
:104F4000735100001D66000023660000DD4D000067
:104F5000DD4D0000DD4D0000DD4D0000DD4D0000A9
:104F6000DD4D0000DD4D0000DD4D0000DD4D000099
:104F7000DD4D0000DD4D0000DD4D0000DD4D000089
:104F8000DD4D0000DD4D0000DD4D0000DD4D000079
:104F9000DD4D0000DD4D0000DD4D0000DD4D000069
:104FA000DD4D0000DD4D0000DD4D0000DD4D000059
:104FB000DD4D0000DD4D0000DD4D0000DD4D000049
:104FC000DD4D0000DD4D0000DD4D0000DD4D000039
:104FD000DD4D0000DD4D0000DD4D0000DD4D000029
:104FE000DD4D0000DD4D0000DD4D0000DD4D000019
:104FF000DD4D0000DD4D0000DD4D0000DD4D000009
:10500000DD4D0000DD4D0000DD4D0000DD4D0000F8
:10501000DD4D0000DD4D0000DD4D0000DD4D0000E8
:10502000DD4D0000DD4D00005D6600000092FF1FB9
:10503000D491FF1F3893FF1FFFF7EAFB236828680E
:10504000082B40F08580322876D0712800F0D3817B
:1050500031287FF4C3AE09F0B7FB002801F3348296
:10506000E04E07F017FC002802F3458696F844103E
:10507000B26CDD48022984BF002186F84410FCF799
:105080005BFF6920012323602860A0F15203262BD7
:105090003FF6A4AE01A252F823F000BFF56A00006B
:1050A000DD4D0000DD4D0000DD4D0000DD4D000058
:1050B000DD4D0000DD4D0000DD4D0000DD4D000048
:1050C000DD4D0000DD4D0000DD4D0000DD4D000038
:1050D000DD4D0000DD4D0000A5550000B77C00004F
:1050E000B55C0000A75C0000EB580000DD4D00003F
:1050F000DD4D0000DD4D0000DD580000DD4D0000FD
:10510000E1800000DD4D0000DD4D0000DD4D0000C0
:10511000DD4D0000DD4D0000D5660000DD4D0000D6
:10512000DD4D0000DD4D0000DD4D0000DD4D0000D7
:10513000DD4D0000B355000009F046FB002801F3E7
:10514000E18107F0A7FB002801F3C88123682868E4
:10515000072B19D1342800F34B8130287FF73EAE5E
:105160003238022802F2BF87DFE810F0F607E807BE
:105170000C089E4A1368B3FA83F301215B0921608E
:105180001360642001232860062B00F0A180052B0A
:105190007FF41EAE352801F3298030287FF71EAE3C
:1051A0003238032802F2B687DFE810F049084809D0
:1051B0002B086609A0F13003422B3FF60FAE01A287
:1051C00052F823F0AB780000F96A0000336B00005E
:1051D0005D7400009F740000E17400002F750000F2
:1051E0007D750000FD75000047760000DD4D000074
:1051F000DD4D0000DD4D0000DD4D0000DD4D000007
:10520000DD4D0000DD4D0000DD4D0000DD4D0000F6
:10521000DD4D0000DD4D0000DD4D0000DD4D0000E6
:10522000DD4D0000DD4D0000DD4D0000DD4D0000D6
:10523000DD4D0000DD4D0000DD4D0000DD4D0000C6
:10524000DD4D0000DD4D0000DD4D0000DD4D0000B6
:10525000DD4D0000DD4D0000DD4D0000DD4D0000A6
:10526000DD4D0000DD4D0000DD4D0000DD4D000096
:10527000DD4D0000DD4D0000DD4D0000DD4D000086
:10528000DD4D0000DD4D000029790000637900004C
:105290009D790000D7790000BD7C00009576000064
:1052A0002B77000079770000DD4D0000CB77000000
:1052B0000D780000DD4D0000DD4D0000DD4D0000EB
:1052C000DD4D0000DD4D00005B78000069780000D6
:1052D000A0F13103402B3FF681AD01A252F823F03B
:1052E0004569000091690000DD690000256A000041
:1052F000BB670000CF6700000B680000A9610000D9
:10530000BB610000DD4D0000DD4D0000DD4D000003
:10531000DD4D0000DD4D0000DD4D0000DD4D0000E5
:10532000DD4D0000DD4D0000DD4D0000DD4D0000D5
:10533000DD4D0000DD4D0000DD4D0000DD4D0000C5
:10534000DD4D0000DD4D0000DD4D0000DD4D0000B5
:10535000DD4D0000DD4D0000DD4D0000DD4D0000A5
:10536000DD4D0000DD4D0000DD4D0000DD4D000095
:10537000DD4D0000DD4D0000DD4D0000DD4D000085
:10538000DD4D0000DD4D0000DD4D0000DD4D000075
:10539000DD4D0000DD4D0000DD4D0000DD4D000065
:1053A00047670000DD4D0000DD4D0000DD4D0000D1
:1053B000DD4D0000DD4D0000DD4D0000DD4D000045
:1053C000DD4D0000DD4D0000DD4D0000DD4D000035
:1053D000DD4D0000DD4D0000DD4D0000DD4D000025
:1053E000F75300003893FF1F6C94FF1FE091FF1FDD
:1053F00071287FF4F3AC0022732322602B602368B2
:10540000002B7FF4EEAC6D4E6D486E4D05F0CAFF7B
:1054100004216D4809F00CFA694805F0C3FF10211A
:105420006A4809F005FA664805F0BCFF1321684890
:1054300009F0FEF92968624805F0ACFF604805F004
:10544000B1FF1421634809F0F3F95D4805F0AAFFA4
:105450001E21614809F0ECF9594805F0A3FF152118
:105460005E4809F0E5F9564805F09CFF1E215C48AE
:1054700009F0DEF9524805F095FF2021594809F05E
:10548000D7F94F4805F08EFF1921574809F0D0F998
:105490004B4805F087FF1221544809F0C9F94848E4
:1054A00005F080FF1921524809F0C2F9444805F07F
:1054B00079FF0F214F4809F0BBF9414805F072FF11
:1054C0000D214D4809F0B4F93D4805F06BFF4B48FC
:1054D00005F068FF04213C4807F030F9474805F023
:1054E00061FF1021394807F029F9444805F05AFFB7
:1054F0003748132107F022F92968404805F04AFF90
:105500003E4805F04FFF1421324807F017F93B4899
:1055100005F048FF1E21304807F010F9374805F024
:1055200041FF15212D4807F009F9344805F03AFFED
:105530001E212B4807F002F9304805F033FF2021E7
:10554000284807F0FBF82D4805F02CFF19212648C4
:1055500007F0F4F8294805F025FF1221234807F049
:10556000EDF8264805F01EFF1921214807F0E6F85E
:10557000224805F017FF0F211E4807F0DFF81F48EB
:1055800005F010FF0D211C4807F0D8F81B4805F066
:1055900009FF002201233260236003B0BDE8F08FD1
:1055A00009F0CCF809F010F90028F9D12AE009F047
:1055B000C5F809F009F90028F9D1FFE02887FF1F95
:1055C0003888FF1F7087FF1F0085010008850100D4
:1055D0001C850100308501004885010068850100B7
:1055E00080850100A0850100C4850100E0850100DF
:1055F000F48501001086010020860100B487FF1F9A
:1056000007F05CF907F046F905460028F8D1B948DB
:10561000B94E05F0C7FEB74805F0C4FEB54805F021
:10562000C1FEB44805F0BEFEB24805F0BBFE1F2126
:10563000B24809F0FDF8AF4805F0B4FE1C21B048AF
:1056400009F0F6F8B06AAF490AF0C6FE0AF0A0FC0D
:10565000009502460B46A74805F0C6FE0221AA485F
:1056600009F0E6F8A34805F09DFE2321A74809F0BC
:10567000DFF8306CA3490AF0AFFE0AF089FC009510
:1056800002460B469B4805F0AFFE02219E4809F0FA
:10569000CFF8984805F086FE19219D4809F0C8F812
:1056A000F06B0AF075FC022702460B469148009702
:1056B00005F09AFE3946974809F0BAF88D4805F08A
:1056C00071FE1921944809F0B3F8B6F8C010894862
:1056D00005F060FE0321914809F0AAF8854805F01D
:1056E00061FE8F4805F05EFE8D4805F05BFE8C483C
:1056F00005F058FE8A4805F055FE894805F052FE2F
:105700001F217E4807F01AF8854805F04BFE7C48BB
:105710001C2107F013F8B06A7A490AF05DFE0AF01E
:1057200037FC009502460B467D4805F05DFE394684
:10573000754807F003F87A4805F034FE73482321D2
:1057400006F0FCFF306C6F490AF046FE0AF020FCC0
:10575000009502460B46724805F046FE39466A48F7
:1057600006F0ECFF6E4805F01DFE6948192106F0B1
:10577000E5FFF06B0AF00CFC00970B460246684808
:1057800005F032FE3946634806F0D8FF644805F05C
:1057900009FE6148192106F0D1FFB6F8C010604833
:1057A00005F0F8FD5D48032106F0C8FF5C4805F0F0
:1057B000F9FD072300F0B9BC07F080F807F06AF89C
:1057C00005460028F8D14B484B4E05F0EBFD494803
:1057D00005F0E8FD474805F0E5FD464805F0E2FD27
:1057E000444805F0DFFD15214E4809F021F84148F5
:1057F00005F0D8FD3F4805F0D5FD2C214A4809F0B9
:1058000017F83C4805F0CEFD2521484809F010F86E
:105810000A222B4696F8C910364805F0DBFD3548BC
:1058200005F0C0FD1921424809F002F83C4805F096
:10583000B9FD3B4805F0B6FD394805F0B3FD3848E1
:1058400005F0B0FD364805F0ADFD1521354806F0F0
:1058500075FF334805F0A6FD314805F0A3FD2C2166
:10586000314806F06BFF2E4805F09CFD2F4825219E
:1058700006F064FF2B4696F8C91029480A2205F065
:10588000A9FD274805F08EFD2948192106F056FF8D
:1058900096F8CA30002B42F058820E21254808F0B5
:1058A000C7FF144805F07EFD22480E2106F046FF92
:1058B0001B4805F077FD13211F4808F0B9FF0D487C
:1058C00005F070FD1C48132106F038FF144805F060
:1058D00069FD092300F029BC08F030FF08F074FFCF
:1058E0000028F9D12CE008F029FF08F06DFF00280E
:1058F000F9D1C5E03888FF1F3893FF1FA48301004A
:10590000C483010000007A440C7D0100E48301009F
:105910000884010078830100248401004084010090
:10592000B487FF1FF8850100E480010014810100A5
:105930003C810100588101007C81010006F0BEFF1E
:1059400006F0A8FF05460028F8D14348434E05F06D
:1059500029FD414805F026FD3F4805F023FD3E485E
:1059600005F020FD3C4805F01DFD15213C4808F0E0
:105970005FFF394805F016FD18213A4808F058FF36
:105980000A222B4696F84410334805F023FD32488E
:1059900005F008FD2821344808F04AFFB06C33496F
:1059A0000AF01AFD0AF0F4FA009502460B462A485E
:1059B00005F01AFD02212E4808F03AFF264805F0AE
:1059C000F1FC13212B4808F033FF234805F0EAFCD3
:1059D000294805F0E7FC284805F0E4FC264805F0D6
:1059E000E1FC254805F0DEFC234805F0DBFC152131
:1059F0001B4806F0A3FE204805F0D4FC19481821E6
:105A000006F09CFE2B460A2296F844101A4805F030
:105A1000E1FC194805F0C6FC1348282106F08EFE6B
:105A2000B06C12490AF0D8FC0AF0B2FA00950B46A5
:105A30000246114805F0D8FC02210D4806F07EFE12
:105A40000D4805F0AFFC0B48132106F077FE0A481D
:105A500005F0A8FC082368E33888FF1F3893FF1F70
:105A6000C885010090810100AC81010000007A44EA
:105A70000C7D01007C810100B487FF1F06F01EFF32
:105A800006F008FF05460028F8D18D488D4E05F038
:105A900089FC8B4805F086FC894805F083FC884822
:105AA00005F080FC864805F07DFC1121864808F051
:105AB000BFFE834805F076FC2821844808F0B8FE34
:105AC000B06983490AF088FC0AF062FA0095024640
:105AD0000B467B4805F088FC02217E4808F0A8FEB2
