:1000000000800020BD0100009DBB000059BB000026
:1000100059BB000059BB000059BB000059BB000090
:1000200059BB000059BB000059BB00009DBB00003C
:100030009DBB000059BB00002DAF000031AF000098
:100040009DBB00009DBB00009DBB00009DBB000050
:100050009DBB00009DBB00009DBB00009DBB000040
:100060009DBB00009DBB00009DBB00009DBB000030
:100070009DBB00009DBB00009DBB00009DBB000020
:100080009DBB00009DBB00009DBB00009DBB000010
:100090009DBB00009DBB00009DBB00009DBB000000
:1000A0009DBB00009DBB00009DBB00009DBB0000F0
:1000B0009DBB000029AD000035AD000039AD00004A
:1000C00045AD000049AD00004DAD00009DBB0000F6
:1000D0009DBB00009DBB00009DBB00009DBB0000C0
:1000E0009DBB00009DBB00009DBB00009DBB0000B0
:1000F0009DBB000011CA00009DBB000091D3000011
:100100009DBB000001DB00009DBB00009DBB00000B
:100110009DBB00009DBB00009DBB00009DBB00007F
:100120009DBB00009DBB00009DBB00009DBB00006F
:100130009DBB00009DBB00009DBB00009DBB00005F
:100140009DBB00009DBB00009DBB00009DBB00004F
:100150009DBB00009DBB00009DBB00009DBB00003F
:100160009DBB000021DE00009DBB00009DBB000088
:100170009DBB00009DBB00009DBB00009DBB00001F
:100180009DBB00009DBB00009DBB00009DBB00000F
:100190009DBB00009DBB00009DBB00009DBB0000FF
:1001A0009DBB00009DBB00009DBB00009DBB0000EF
:1001B0009DBB00009DBB00009DBB0000534B4CF25B
:1001C000205210B5DA814DF62812DA8100BF00BF47
:1001D0000BF0E8FC4E4B4FF010621A634D4A9A63E5
:1001E0004D4ADA634D4A136913F4807303D15361A6
:1001F0004FF4A85313614A4B9A78110703D59A78A4
:1002000042F008029A70474B47492A221A70474B1E
:10021000474A8B4204D252F8040B43F8040BF8E728
:10022000444B454900228B4202D243F8042BFAE7A3
:10023000424943484FF4DE720BF0BAFB414B424A4D
:10024000802103F8011B9342FBD14FF0E0233C4A8D
:10025000C3F8082D3D4B8A221A70A3F5805324223F
:100260005A70A0221A709A799207FCD59A79D4060E
:10027000FCD4374B9A7902F00C02082AFAD10322F7
:100280001A7140225A719A799006FCD5304A9379B6
:100290005906FCD51E4B2F4959640221996420212F
:1002A0001170917901F00C010C29FAD12A4A5A6097
:1002B0004FF0E023294A5A6100229A6107221A610D
:1002C000274AC3F8202D62B60BF022FD134B5B6961
:1002D000DA0705D523480BF00FFD234B234ADA61DB
:1002E000234B1B785B0609D51F4C204BE2699A42D1
:1002F00004D11C480BF000FD0023E3610BF058FC17
:1003000011F064F90BF04CFBFEE700BF0020054044
:1003100000800440823F04000100002B00D0034015
:1003200000D0074000E007407491FF1F2087FF1FA7
:10033000C09801008091FF1F20BFFF1F0000000038
:100340000082FF1F00E400E05FE400E00050064090
:100350000040064000000301C0100500FF760100C8
:1003600000002020AE80B26A00E00340A5C3945A8A
:1003700000F00740FFFFFFFFFFFFFFFFFFFFFFFF52
:10038000FFFFFFFFFFFFFFFFFFFFFFFFFFFFFFFF7D
:10039000FFFFFFFFFFFFFFFFFFFFFFFFFFFFFFFF6D
:1003A000FFFFFFFFFFFFFFFFFFFFFFFFFFFFFFFF5D
:1003B000FFFFFFFFFFFFFFFFFFFFFFFFFFFFFFFF4D
:1003C000FFFFFFFFFFFFFFFFFFFFFFFFFFFFFFFF3D
:1003D000FFFFFFFFFFFFFFFFFFFFFFFFFFFFFFFF2D
:1003E000FFFFFFFFFFFFFFFFFFFFFFFFFFFFFFFF1D
:1003F000FFFFFFFFFFFFFFFFFFFFFFFFFFFFFFFF0D
:10040000FFFFFFFFFFFFFFFFFFFFFFFFDEF9FFFF23
:100410000548064B1B1AD90F01EBA301491002D066
:10042000034B03B1184770477491FF1F7491FF1F6E
:100430000000000008B5054B1BB105490548AFF3A6
:100440000080BDE80840FFF7E3BF00BF00000000E8
:100450008091FF1FB89801002DE9F04F85B0074645
:100460000E9E0393002EB4BFF31D3346DB10013301
:100470005B000293431C00934B1E8B4691460193F5
:100480004FF003083D7845EA090420460DF060FA74
:10049000DDE900010DF066FA3C70B9F1000F6CD196
:1004A00002F02AF9002840D102983D700BF098FE26
:1004B00002F022F9002833D1039C002501E0013528
:1004C00001340DF087FA98B1AE4211DD0DF096FAC5
:1004D000207002F011F90028F1D021784348002360
:1004E00010220AF08DFF012141480EF0B5F9E6E730
:1004F000AE4209D002F000F900284FD1B8F101084E
:10050000C0D109E00DF07AFA0DF064FA0028F9D1B3
:1005100002F0F2F8002845D1284605B0BDE8F08F7A
:10052000072134480EF098F9C6E7092132480EF049
:1005300093F92146002310222C480AF061FF2C4831
:1005400001210EF089F9BBF1010F32DD009C07EBB0
:100550000B0A14F8011B2548002310220AF050FF53
:10056000234801210EF078F95445F2D1B9F1000F7A
:1005700029D11E480AF02CFF96E7BBF1000F32D0BC
:100580001E493A4607EB0B0A002012F8013B434094
:100590009245C85CF9D10DF0DBF981E713480AF008
:1005A00017FFABE711480AF013FF284605B0BDE876
:1005B000F08FB9F1000FDCD0BBF1010F18BF0021A3
:1005C0000BD107F1010A0D493846002310F8012B21
:1005D00053405045CB5CF9D1194600231022034803
:1005E0000AF00EFFC5E75846D5E700BF3888FF1F61
:1005F000147E0100847A0100787A0100FC900100E9
:1006000010B518220446002110F024FF0E4BA36100
:10061000E36123626362A362E3620021182204F1B2
:10062000300010F017FF00210023084A084884F822
:100630008410E065A364E36423656365A2652266B4
:100640006366204610BD00BF0000A0400000484384
:100650000000C8C20023036043608360C36003617D
:10066000436183640365436583657047F0B590F823
:10067000843087B00446002504265B0001278DF8EE
:100680000C302A4604AB0096032103A88DF80D50C8
:100690008DF80E70FFF7E0FE94F884308DF80E6050
:1006A000BB408DF80C300723009320238DF80D30CC
:1006B0002A4604AB032103A8FFF7CEFE00962A4684
:1006C00094F884508DF80E70BD408DF80C509DF854
:1006D000135025679DF8145065679DF81550A56760
:1006E0009DF81650E56704AB032103A833248DF869
:1006F0000D40FFF7B1FE07B0F0BD00BF90F87400E9
:10070000704700BF90F87000704700BF90F8780005
:10071000704700BF90F87C00704700BF00B590F8AC
:10072000841087B00423490000204FF0320C00935E
:10073000012204AB8DF80C108DF80E00032103A8E4
:100740008DF80DC0FFF788FE02200BF049FD07B0C1
:1007500000BD00BF2DE9F043044693B094F8843007
:1007600002205B008DF810300BF03AFD94F88430D5
:1007700020465B008DF81030FFF778FFE16FA26F25
:10078000636F01910092AD48226F94F8841002F0DB
:10079000E5F8032530233D228DF812208DF8113025
:1007A000012205AB2946009504A8FFF755FE312329
:1007B0008DF81130012205AB2946009504A80126C9
:1007C0008DF81250FFF748FE342332468DF8113071
:1007D000294605AB009504A88DF81260FFF73CFE92
:1007E00012238DF8123016230093294605AB04A876
:1007F00000228DF81160FFF72FFE01289DF82930A7
:10080000064640F3118105AD0DF1130CDFF830E21F
:1008100084442946002211F8010B42408C451EF801
:100820000220F8D11946874802931746039202F036
:1008300095F8162E029B02D1039A9A420AD094F898
:10084000841081480097324602F0AEF8002013B0C1
:10085000BDE8F0839DF8143094F88420B3EB420F88
:10086000F4D19DF81530012BF0D19DF81630122BE4
:10087000ECD19DF818309DF8170003EB00200FF025
:100880006BFD72490FF0BCFD616EE06406460FF02F
:1008900073FF00B16666216E30460FF04FFF00B166
:1008A0002666261FB146AB79687903EB00200FF06E
:1008B00053FD67490FF0A4FD46F8040FB1690746E0
:1008C0000FF03CFF28B1A16E38460FF04BFF00B18E
:1008D000B761316B38460FF04FFF00B1376304F159
:1008E0001403B34205F10205DDD100204D4655F851
:1008F000041F0FF07DFC04F11403AB42A946F5D1AF
:100900009DF826209DF82530A0644FF4807613FBD7
:100910000623981C0FF020FD4E490FF025FE0146DE
:100920004D480FF021FE4D490FF060FC4C490FF08F
:1009300067FD07460EF0D4F9054638460EF0D0F9AB
:1009400048490EF0F7F94849074628460FF058FD88
:1009500046490FF04DFC4649054638460FF050FD1C
:10096000014628460FF044FC01464FF07E500FF040
:10097000FBFD40490FF03AFC9DF8283005469DF8F4
:100980002700256510FB063009300FF0E5FC3A49D9
:100990000FF0EAFD014630480FF0E6FD2F490FF059
:1009A00025FC2F490FF02CFD07460EF099F906465D
:1009B00038460EF095F92B490EF0BCF92A49074646
:1009C00030460FF01DFD29490FF012FC284906465C
:1009D00038460FF015FD014630460FF009FC014680
:1009E0004FF07E500FF0C0FD22490FF0FFFBA26DCB
:1009F000D4F88030606506461746002B3ED101468C
:100A000028460FF09BFE024600284BD02B46394665
:100A10001846039202930FF091FE039A08B1029BCD
:100A2000A365A2B3354632E0194606480293002278
:100A300001F094FF0027029B01E700BF8C7A0100C0
:100A4000FC900100C07A01000C7B01006B57053B54
:100A50002003C839001601470AD7E33FE17A644012
:100A600000007A4400004040A40D8F395A80473A74
:100A700046A6DB3333938843002C014713331146DA
:100A800054F8235028460FF059FE00B1A565E06DDB
:100A900029460FF053FE00B1E565034801F05EFF03
:100AA0000120D4E63346B2E7E47A0100052994BF79
:100AB00050F82100002070472DE9F0410B4E804690
:100AC000041F00F1140754F8045F314628460FF064
:100AD00035FE30B1D8F8681028460FF04DFE00B151
:100AE0002E46A742EFD13046BDE8F08100002041FC
:100AF000F8B50026051F00F1140755F8044F3146DC
:100B000020460FF039FE00B93446BD422646F4D1E6
:100B10002046F8BD2DE9F84FD0F86880DFF850B0D6
:100B200082460026041F00F114074FF0000954F814
:100B3000045F414628460FF01FFE58B1594628462B
:100B40000FF0FCFD30B1304629460FF051FB09F1A2
:100B500001090646A742EAD1CAF8889048460FF034
:100B6000FBFB014630460FF0FFFCBDE8F88F00BFED
:100B700000007042D0F88800704700BFD0F8803085
:100B800063B900B5036D416D83B01846CDE900131C
:100B90000FF0D4FD30B1019803B000BD133350F80D
:100BA00023007047009803B000BD00BFD0F880302C
:100BB00063B900B5036D416D83B018460093019190
:100BC0000FF0BCFD30B1019803B000BD133350F8F5
:100BD00023007047009803B000BD00BF08B5D0F8EF
:100BE000803043B9416D006D0FF002FB4FF07C5136
:100BF0000FF006FC08BD133350F8230008BD00BFFA
:100C0000806C704701299ABF143150F821000020F0
:100C1000704700BF3E2998BF80F88410704700BF1E
:100C200090F86C00704700BFC0F88010704700BF9C
:100C300080F86C10704700BF8166704770B500F592
:100C40000A55064600F128041C3520468C34FFF76F
:100C5000D7FCAC42F9D106F1B405012428460021A5
:100C6000FFF7E6FF214628460134FFF7D3FF3F2C6C
:100C700005F18C05F2D10749316106F500530022D8
:100C8000726105480549B0610022F161304683F880
:100C9000A42270BD00007A44000048430000C8C28E
:100CA00038B500F50A5500F1B4041C3502E08C3467
:100CB000AC420AD02046FFF7B3FF0028F7D0204609
:100CC0008C34FFF7C7FCAC42F4D138BDF8B500F561
:100CD0000057002300F50A56C7F8A83200F1B40403
:100CE0001C3602E08C34B4420FD02046FFF798FF48
:100CF0000028F7D02046D7F8A852FFF73BFF8C34E6
:100D00000544B442C7F8A852EFD1D7F8A802F8BDFD
:100D10002DE9F04F00F5005393B08046012A4FF0C3
:100D20000000C3F8AC02069100F0E48108F1B409B8
:100D30004FF0010B0793029207E00BF1010BBBF19F
:100D40003F0F09F18C0900F0F2804846FFF768FF79
:100D50000028F2D000273C460126D8F80850394632
:100D60004846FFF7A3FE29460FF006FD06FA07F3F3
:100D70002343DBB20137002818BF1C46062FECD1F5
:100D8000029B0194012B00F0D580002CD5D04FEAB6
:100D90004B0242F00105EDB233238DF82530284691
:100DA000069BB34E03928DF824208DF826300CF06C
:100DB000CFFD02210DF125000CF0D4FD8DF824505B
:100DC000725D9DF82530059253409DF82620F35C16
:100DD0005340F05C0CF0BCFD01F08EFC002840F0AC
:100DE0005781039B8DF8243002200BF0F9F901F0B4
:100DF00083FC002840F036810AAB04931F464FF075
:100E0000000A01E00AF1010A0CF0E4FD002800F0FC
:100E1000CE80BAF11E0F15D00CF0F0FD07F8010BD3
:100E2000044601F069FC0028ECD0E1B20023102256
:100E300090480AF0E5FA01218F480DF00DFDE1E739
:100E40000CF0DCFD0CF0C6FD0028F9D101F054FCDB
:100E5000002840F0B580029B012B00F0B880039B76
:100E60008DF82430019B8DF82630284632238DF8EA
:100E700025300CF06DFD0DF1250002210CF072FD06
:100E8000059A9DF825308DF8245053409DF8262072
:100E9000F35C5340F05C0CF05BFD01F02DFC00288E
:100EA00040F0AE80039B8DF8243002200BF098F9BF
:100EB00001F022FC002840F09E80049D002700E005
:100EC00001370CF087FD00284ED01E2F15D00CF0F6
:100ED00095FD05F8010B044601F00EFC0028EFD04B
:100EE000E1B20023102263480AF08AFA0121624825
:100EF0000DF0B2FCE4E70CF081FD0CF06BFD002876
:100F0000F9D101F0F9FB002834D1029B012B37D035
:100F1000079A0199D2F8AC320BF1010B0B44BBF1EB
:100F20003F0FC2F8AC3209F18C097FF40EAF13B059
:100F3000BDE8F08F59464F480AF042FA03214F4866
:100F40000DF08AFC019C4B482146002302220AF046
:100F500057FA4B4803210DF07FFC002C7FF417AFAC
:100F600044480AF035FAE8E61E2FC6D001F0C4FB6B
:100F70000028CAD03F480AF02BFA029B012BC7D1A8
:100F8000049C251D14F8011B3A48002310220AF086
:100F900037FA3C4801210DF05FFCAC42F2D1079AD0
:100FA0000199D2F8AC320B44C2F8AC32D8E7BAF1AE
:100FB0001E0F3FF447AF01F09FFB00283FF44BAFFB
:100FC0002C480AF005FA029B012B7FF448AF049FDE
:100FD0003C1D17F8011B2748002310220AF010FAC5
:100FE000284801210DF038FCBC42F2D103212448ED
:100FF0000DF032FC33E7072123480DF02DFC5CE7B0
:10100000092122480DF028FC294600231022194806
:101010000AF0F6F9184801210DF01EFC09AD0DF19A
:10102000260715F8011F1348002310220AF0E8F9DB
:10103000114801210DF010FCBD42F2D19DF8243081
:101040009DF82520F35C0B4853409DF82620F35C67
:1010500053401022F15C00230AF0D2F905480AF04F
:10106000B7F91FE7072108480DF0F6FBC4E600BFFB
:10107000FC9101003888FF1F147E01005C7B010099
:10108000607B0100647B0100847A0100787A0100B2
:1010900009211C480DF0E0FB0023102229461A48C4
:1010A0000AF0AEF9194801210DF0D6FB09AF0DF198
:1010B000260A17F8011F1448002310220AF0A0F98D
:1010C000124801210DF0C8FB5745F2D19DF824309C
:1010D0009DF82520F35C0C4853409DF82620F35CD6
:1010E00053401022F15C00230AF08AF906480AF006
:1010F0006FF976E60448029201930AF069F9029AC0
:10110000019B13E6787A01003888FF1F147E0100E6
:101110002DE9F04F87B04FF0000B01900123ADF89F
:1011200008B08DF80A304FF00308002528460CF06F
:101130000FFC02210DF109000CF014FC8DF8085091
:1011400001F0DAFA002840F0E18002208DF8085022
:101150000BF046F801F0D0FA002840F0D28003AF3F
:101160003E46002400E001340CF034FC002800F07E
:10117000BC80042C15D00CF041FC06F8010B054690
:1011800001F0BAFA0028EED0E9B2002310229D48FF
:101190000AF036F901219C480DF05EFBE3E70CF004
:1011A0002DFC0CF017FC04460028F8D101F0A4FA3D
:1011B000002840F0E0809DF80C30802B40F0CE807D
:1011C0009DF80D30002B40F0C9809DF80E50012D88
:1011D00040F0C4808D4801F0C1FB019B03F1B406CF
:1011E00004E001353F2D06F18C0697D03046FFF71D
:1011F00017FD0028F5D165F07F02DFF8149200900A
:101200004FF46C5101208DF80A20ADF808100CF055
:101210009FFB02210DF109000CF0A4FB99F80120BD
:101220009DF809104FF001084A408DF808809DF89C
:101230000A1019F802204A4019F802000CF088FB45
:1012400001F05AFA002840F09F8003208DF808B082
:101250000AF0C6FF01F050FA08B190E001340CF03A
:10126000B9FB00287DD00A2C16D00CF0C7FB07F87C
:10127000010B804601F040FA0028EFD05FFA88F1B8
:10128000002310225F480AF0BBF801215E480DF0F0
:10129000E3FAE3E70CF0B2FB0CF09CFB0028F9D179
:1012A00001F02AFA002840F0A9809DF80C30812B2B
:1012B0007FF434AF9DF80D303B2B7FF42FAF9DF8BA
:1012C0000E308035AB427FF429AF30460121FFF765
:1012D000AFFC019B4F4803F50052D2F8A032013316
:1012E000C2F8A03201F03AFB18E7042C3FF459AFE2
:1012F00001F002FA60BBB8F101082FD09DF8085048
:1013000014E7072144480DF0A7FA28E709214348CC
:101310000DF0A2FA0023102229463A480AF070F88C
:10132000394801210DF098FA02AC0DF10A0614F8C3
:10133000011F3448002310220AF062F832480121CC
:101340000DF08AFAA642F2D12E480AF041F8FCE6E6
:101350002C480AF03DF8B8F10108CFD107B0BDE83C
:10136000F08F0A2C98D001F0C7F9002842D1022C46
:101370007FF7D4AE99E723480AF02AF81BE7072144
:1013800025480DF069FA6AE7092124480DF064FA4E
:101390004146009B1B4810220AF032F841461A4889
:1013A0000DF05AFA0DF108080DF10A0A18F8011F9C
:1013B0001448002310220AF023F8134801210DF0ED
:1013C0004BFAD045F2D19DF808309DF8092019F864
:1013D00003300C4853409DF80A2019F8033053405D
:1013E000102219F8031000230AF00AF8054809F042
:1013F000EFFF2AE7034809F0EBFFB8E7014809F0DF
:10140000E7FF52E73888FF1F147E0100687B010068
:10141000FC910100747B0100847A0100787A01005C
:101420002DE9F04300F5005985B000230122C9F8E9
:10143000A032ADF804308DF8062000F1B408022780
:1014400000214046FFF7F4FB38468DF804700CF09D
:101450007FFA02210DF105000CF084FA3D468DF86B
:10146000047001F049F9002865D114208DF804506A
:101470000AF0B6FE01F040F9002857D10DF1070639
:10148000002400E001340CF0A5FA70B3082C15D04C
:101490000CF0B4FA06F8010F054601F02DF900280A
:1014A000F0D0E9B200231022384809F0A9FF012149
:1014B00037480DF0D1F9E5E70CF0A0FA0CF08AFA04
:1014C0000028F9D101F018F900285AD19DF8083008
:1014D000BB4216D0052002370AF082FE7E2F08F1AB
:1014E0008C08ADD105B0BDE8F083082CE6D001F042
:1014F00003F9002841D1042CECDD9DF80830BB42F3
:10150000E8D19DF80930002BE4D19DF80A1001299B
:10151000E0D19DF80C30002BDCD04046FFF788FB73
:10152000D9F8A0320133C9F8A032D3E7072119480E
:101530000DF092F9A2E7092117480DF08DF900236B
:1015400010223946114809F05BFF114801210DF0C6
:1015500083F901AC0DF1060614F8011F0B480023B6
:10156000102209F04DFF0A4801210DF075F9A6423D
:10157000F2D1064809F02CFF77E7044809F028FF6C
:10158000B9E7024809F024FFA0E700BF3888FF1F31
:10159000147E0100847A0100787A01002DE9F04779
:1015A00000F50A5584B0804600F1B4041C3500F5FE
:1015B00000570026204600218C34FFF739FBAC424F
:1015C000C7F8A062F6D15C4F4FF002094FF07F0AD6
:1015D00043F67E42A5237F20ADF804208DF8063027
:1015E0000CF0B6F902210DF105000CF0BBF997F8EB
:1015F0007F309DF805208DF804A053409DF806200B
:10160000FB5C5340F85C0CF0A3F901F075F800287E
:101610005BD17E2364208DF804300AF0E1FD01F0F7
:101620006BF8002840F083800DF10706002400E0ED
:1016300001340CF0CFF958B3082C15D00CF0DEF9BA
:1016400006F8010F054601F057F80028F0D0E9B27E
:1016500000231022394809F0D3FE012138480DF04B
:10166000FBF8E5E70CF0CAF90CF0B4F90028F9D161
:1016700001F042F890B99DF808307F2B15D0B9F1F0
:10168000010F1FD14046FFF743FD04B0BDE8F087CE
:10169000082CE9D001F030F80028ECD0274809F0F8
:1016A00097FE9DF808307F2BE9D19DF809303C2B3F
:1016B000E5D19DF80A30A52BE1D19DF80B30572BD1
:1016C000DDD1DFE74FF0010982E709211D480DF068
:1016D000C3F8002310227F21184809F091FE184812
:1016E00001210DF0B9F801AC0DF1060514F8011F48
:1016F00012480023102209F083FE114801210DF049
:10170000ABF8A542F2D19DF804309DF80520FB5CB2
:101710000A4853409DF80620FB5C53401022F95CB8
:10172000002309F06DFE054809F052FE71E707211C
:1017300005480DF091F877E7FC9101003888FF1F0C
:10174000147E0100787A0100847A01002DE9F043CB
:1017500085B042F27F02FF23C04EADF804208146DF
:101760008DF806304FF003087F2545F00104204630
:101770000CF0EEF802210DF105000CF0F3F88DF8F5
:1017800004409DF80520335D53409DF80620F35C2E
:101790005340F05C0CF0DCF800F0AEFF002840F0A5
:1017A000F98102208DF804500AF01AFD00F0A4FF20
:1017B000002840F0EA8102AF002400E001340CF080
:1017C00009F9002800F05F81042C15D00CF016F9FF
:1017D00007F8010B054600F08FFF0028EED0E9B2B4
:1017E000002310229E4809F00BFE01219D480DF0B8
:1017F00033F8E3E70CF002F90CF0ECF80028F9D12B
:1018000000F07AFF002840F039827F2500238DF810
:1018100004508DF806304FF0030845F001042046CF
:101820000CF096F802210DF105000CF09BF88DF8F4
:1018300004409DF80520335D53409DF80620F35C7D
:101840005340F05C0CF084F800F056FF002840F0A4
:10185000D38102208DF804500AF0C2FC00F04CFF46
:10186000002840F08D8102AF002400E001340CF02C
:10187000B1F8002800F0F880042C15D00CF0BEF868
:1018800007F8010B054600F037FF0028EED0E9B25B
:1018900000231022724809F0B3FD012171480CF0B9
:1018A000DBFFE3E70CF0AAF80CF094F80028F9D17C
:1018B00000F022FF002840F0ED8142F27F13ADF8E6
:1018C0000430FF238DF806304FF003087F2545F0E4
:1018D000010420460CF03CF802210DF105000CF04B
:1018E00041F88DF804409DF80520335D53409DF884
:1018F0000620F35C5340F05C0CF02AF800F0FCFE8C
:10190000002840F00B8102208DF804500AF068FC9A
:1019100000F0F2FE002840F0FC8002AF002400E05E
:1019200001340CF057F8002800F08A80042C15D000
:101930000CF064F807F8010B054600F0DDFE002806
:10194000EED0E9B200231022454809F059FD0121EB
:1019500044480CF081FFE3E70CF050F80CF03AF843
:101960000028F9D100F0C8FE002840F08F817F25C3
:1019700000238DF804508DF806304FF0030845F031
:10198000010420460BF0E4FF02210DF105000BF0ED
:10199000E9FF8DF804409DF80520335D53409DF824
:1019A0000620F35C5340F05C0BF0D2FF00F0A4FE85
:1019B00000287CD102208DF804500AF011FC00F0C0
:1019C0009BFE00286ED102AF002400E001340CF031
:1019D00001F840B3042C15D00CF010F807F8010BF7
:1019E000054600F089FE0028F0D0E9B2002310225D
:1019F0001B4809F005FD01211A480CF02DFFE5E711
:101A00000BF0FCFF0BF0E6FF0028F9D100F074FEAC
:101A1000002840F0378109F50053002283F8A42202
:101A200005B0BDE8F083042CECD000F065FE002882
:101A300040F02081B8F10108EDD09DF804509EE7F8
:101A4000042C8BD000F058FE002840F00781B8F13C
:101A500001088CD09DF8045039E700BFFC910100CB
:101A60003888FF1F147E0100042C3FF41DAF00F0E6
:101A700043FE002840F0F680B8F101083FF41DAFA6
:101A80009DF80450C9E6042C3FF4B6AE00F034FED5
:101A9000002840F0EB80B8F101083FF4B6AE9DF8A5
:101AA000045062E607217D480CF0D6FE8BE7092141
:101AB0007B480CF0D1FE214600231022794809F022
:101AC0009FFC794801210CF0C7FE01AC0DF106071F
:101AD00014F8011F73480023102209F091FC72488A
:101AE00001210CF0B9FEA742F2D19DF804309DF817
:101AF0000520F35C6B4853409DF80620F35C53408F
:101B00001022F15C002309F07BFC664809F060FCC0
:101B100050E7072161480CF09FFEFEE6092160486E
:101B20000CF09AFE2146002310225E4809F068FC62
:101B30005D4801210CF090FE01AC0DF1060714F890
:101B4000011F58480023102209F05AFC5648012171
:101B50000CF082FEBC42F2D19DF804309DF80520C5
:101B6000F35C504853409DF80620F35C534010222C
:101B7000F15C002309F044FC4A4809F029FCC2E664
:101B8000072146480CF068FE6DE6072143480CF03B
:101B900063FE10E6092142480CF05EFE2146002358
:101BA0001022404809F02CFC3F4801210CF054FE63
:101BB00001AC0DF1060714F8011F3A48002310226A
:101BC00009F01EFC384801210CF046FEA742F2D174
:101BD0009DF804309DF80520F35C324853409DF891
:101BE0000620F35C53401022F15C002309F008FC4E
:101BF0002C4809F0EDFBD4E5092129480CF02CFE16
:101C0000214600231022274809F0FAFB264801212B
:101C10000CF022FE01AC0DF1060714F8011F21485B
:101C20000023102209F0ECFB1F4801210CF014FEE8
:101C3000A742F2D19DF804309DF80520F35C1948C5
:101C400053409DF80620F35C53401022F15C0023C2
:101C500009F0D6FB134809F0BBFBFAE5114809F07F
:101C6000B7FBF4E60F4809F0B3FB05E70D4809F0B0
:101C7000AFFB10E70B4809F0ABFBDBE6094809F0C6
:101C8000A7FBC2E5074809F0A3FBC4E6054809F035
:101C90009FFB6CE6034809F09BFB0EE6847A01008B
:101CA000787A01003888FF1F147E010038B500F5EE
:101CB0000A5500F1B4041C3502E08C34AC420AD061
:101CC0002046FEF7ADFF0028F7D020468C34FEF703
:101CD00025FDAC42F4D138BD2DE9F047854A864B4D
:101CE000002100F1B40500F50A5782B08246016078
:101CF000426203621C372C4602E08C34BC420AD09C
:101D00002046FEF78DFF0028F7D020468C34FEF7E2
:101D100005FDBC42F4D1C8200AF062FA01262C4627
:101D200004E001363F2E04F18C046AD02046FEF711
:101D300077FF0028F5D0714800F010FE314670485A
:101D400000F00CFE2046FEF705FD2046FEF758FF8A
:101D50000EF032F902460B466A4800F0FFFD2046BD
:101D6000FEF7AAFE0EF028F9804620468946FEF7C7
:101D7000BFFE0EF021F90B460246CDE90023624872
:101D800042464B4600F0EAFD00212046FEF73AFFAE
:101D90000EF012F98046894620460121FEF732FFF7
:101DA0000EF00AF90B460246CDE900235748424699
:101DB0004B4600F0D3FD2046FEF722FF0146DAF83D
:101DC00000000EF015FACAF800002046FEF7D6FE15
:101DD000DAF818100EF0B2FC002879D12046FEF790
:101DE000E5FEDAF81C100EF0C7FC002899D020465A
:101DF000FEF7DCFE01363F2ECAF81C0004F18C040D
:101E000094D1DAF804000EF0A7FA0146DAF80000DF
:101E10000EF0AAFBDAF81410CAF8000004460EF01F
:101E2000ABFC08B1CAF81440DAF8101020460EF0E6
:101E300085FC08B1CAF810400B200AF069F90AF5D0
:101E4000005494F8A432002848D1002B4ED001232E
:101E500084F8A4320023CAF80C302C4602E08C34FB
:101E6000BC4215D02046FEF7DBFE0028F7D0204606
:101E7000FEF73EFEDAF80C100EF07EFC0028EED0E5
:101E80002046FEF735FE8C34BC42CAF80C00E9D17E
:101E90001F4BCAF8083002E08C35BD4215D02846E9
:101EA000FEF7BEFE0028F7D02846FEF705FEDAF85A
:101EB00008100EF043FC0028EED02846FEF7FCFD8B
:101EC0008C35BD42CAF80800E9D102B0BDE8F08700
:101ED0002046FEF753FECAF818007FE70BB900232F
:101EE000B6E70C4800F04CFD0023B1E70A4800F0CB
:101EF0005BFDACE700C0794400C079C444800100B8
:101F0000887B0100C47B0100D87B0100047C0100B8
:101F10000000A040587C0100207C010000F500502A
:101F2000D0F8AC02704700BF80687047C068704747
:101F30000068704741607047F8B500F50A550F46D4
:101F4000164600F1B4041C3502E08C34AC420FD0CC
:101F50002046FEF765FE0028F7D020463946FEF7FA
:101F600063FE204631468C34FEF766FEAC42EFD16C
:101F7000F8BD00BF2DE9F8432A4A2B4BDFF8AC909F
:101F8000426200F50A558046036200F1B4041C3534
:101F90000026002702E08C34AC4210D02046FEF729
:101FA0003FFE0028F7D02046FEF718FE49460EF007
:101FB000E3FB88B98C34AC4206F10106EED108F59A
:101FC0000058D8F8A002801B0EF0C6F9014638462A
:101FD0000EF0CAFABDE8F8832046FEF7FFFD014681
:101FE00038460EF005F907462046FEF7F7FDD8F80B
:101FF00020100EF0C1FB70B92046FEF7EFFDD8F8B7
:1020000024100EF09BFB0028C5D02046FEF7E6FD0D
:10201000C8F82400BFE72046FEF7E0FDC8F820001E
:10202000EAE700BF00C0794400C079C400008CC258
:10203000006A7047406A7047F8B500F50A560746CF
:10204000002500F1B4041C3602E08C34B4420FD0F9
:102050002046FEF7E5FD0028F7D02046FEF75AFDA2
:10206000014628460EF0C4F88C34B4420546EFD140
:1020700007F50057D7F8A0020EF06EF90146284682
:102080000EF072FAF8BD00BF2DE9F04F074699B087
:10209000A948884607F5005600F002FCA64800F063
:1020A000FFFBA54800F0FCFB07F50A55D6F8A02277
:1020B0000D920023C6F8A8321C3507F1B40907F1C8
:1020C000B40A03E009F18C09A94510D04846FEF78F
:1020D000A7FD0028F6D04846D6F8A842FEF74AFDEC
:1020E00009F18C090444A945C6F8A842EED1D6F8F6
:1020F000A832119338687B6810930DF05DFF544649
:10210000CDE90E014FF0000903E00AF18C0A5545B4
:1021100010D05046FEF784FD0028F6D05046FEF75A
:10212000F9FC014648460EF063F80AF18C0A554561
:102130008146EED1D6F8A0020EF00EF901464846CF
:102140000EF012FA0DF038FFD7F80890CDE9120121
:1021500048460DF031FFD7F80CB0CDE914015846D0
:102160000DF02AFFCDE91601494658460EF03EF81B
:1021700072490EF045F90DF01FFF824638468B4636
:10218000FFF7F8FE0DF018FFDDE91623CDE9062371
:10219000DDE91423CDE90423DDE91223CDE902238F
:1021A000DDE90E23CDE90A01CDE900230D99109B4D
:1021B000119A6348CDE908AB00F072FB5E4800F06D
:1021C0006FFB604809210AF0CDFAD6F8A0125E48EC
:1021D00009F0F6F85D480A210AF0C4FA0023C6F8AF
:1021E000A832A146A24603E009F18C09A94510D006
:1021F0004846FEF715FD0028F6D04846D6F8A84216
:10220000FEF7B8FC09F18C090444A945C6F8A842B8
:10221000EED1D6F8A8124C4809F0D2F84A4809F095
:10222000D7F838680DF0C8FE0B460321024600912E
:10223000454809F0EDF8464801210AF093FA544662
:10224000414809F0C5F84FF0000AA14603E009F142
:102250008C09A94510D04846FEF7E2FC0028F6D0CC
:102260004846FEF757FC014650460DF0C1FF09F104
:102270008C09A9458246EED1D6F8A0020EF06CF882
:10228000014650460EF070F90DF096FE0325024609
:102290000B462D48009509F0BBF82E4804210AF0A2
:1022A00061FAB8680DF088FE009502460B46264894
:1022B00009F0AEF8284804210AF054FAF8680DF045
:1022C0007BFE009502460B461F4809F0A1F8214805
:1022D00004210AF047FAB968F8680DF087FF17493A
:1022E0000EF08EF80DF068FE002602460B461648EA
:1022F000009609F08DF8022118480AF033FA1248C6
:1023000009F066F80A2116480AF02CFA3846FFF759
:1023100031FE0DF051FE009502460B460A4809F0C9
:1023200077F8104801210AF01DFA074809F050F823
:102330000127B2461EE000BF4480010000007A443D
:10234000807C0100207D0100B487FF1F2C7D0100EF
:10235000387D01003C7D0100447D01004C7D010081
:10236000507D01005C7D010001373F2F04F18C049A
:1023700000F08C802046FEF753FC0028F4D0204665
:10238000FEF7BCF92046FEF7BDF92046FEF7BEF980
:102390002046FEF7BFF9082140480CF05DFA40489E
:1023A000394609F00DF8092F73DD02213D480CF084
:1023B00053FA2046FEF724FC0DF0FEFD5FFA88F983
:1023C00002460B463648CDF8009009F021F8364811
:1023D00001210CF041FA0025564620E00621334841
:1023E0000CF03AFA31462E4808F0EAFF0221304854
:1023F0000CF032FA29462046FEF758FB0DF0DCFDC2
:10240000CDF8009002460B46254809F001F8013549
:10241000254801210CF020FA062D07D00136092E9F
:10242000DCDC012123480CF017FAD7E71121224800
:102430000CF012FA00212046FEF7E4FB0DF0BCFD83
:10244000022502460B461648009508F0E1FF1221CE
:102450001A480CF001FA01212046FEF7D3FB0DF0DB
:10246000ABFD009502460B460D4808F0D1FF012157
:1024700013480CF0F1F90137094808F0A9FF3F2F84
:102480000AF1060A04F18C047FF474AF19B0BDE8B8
:10249000F08F012107480CF0DFF986E7607D01002D
:1024A0003888FF1F8C8C0100387D01006C7D010095
:1024B000047E0100147E0100747D0100887D01000E
:1024C0005C7D01002DE9F04F00F1B40583B0894631
:1024D00092469B462E46012704E001373F2F06F126
:1024E0008C067AD03046FEF79BFB0028F5D00023FF
:1024F0000A2249467A4808F083FF012179480CF006
:10250000ABF950460DF058FD0B46002102460091F4
:10251000734808F07DFF012172480CF09DF959467F
:102520006F4808F04DFF01216E480CF095F93946CF
:102530006B4808F045FF6B4801210CF08DF9002431
:102540004FF0020821463046FEF7B0FA0DF034FD98
:10255000CDF8008002460B46614808F059FF01346F
:10256000604801210CF078F9082CEBD100213046AD
:10257000FEF748FB0DF020FDCDF8008002460B462B
:10258000574808F045FF012156480CF065F9012134
:102590003046FEF737FB0DF00FFDCDF80080024608
:1025A0000B464F4808F034FF01214E480CF054F917
:1025B00002213046FEF726FB0DF0FEFCCDF8008030
:1025C00002460B46464808F023FF0137444808F00E
:1025D000FFFE3F2F06F18C0684D101264FF0000844
:1025E00004E001363F2E05F18C0575D02846FEF734
:1025F00017FB0028F5D000230A2249463A4808F084
:10260000FFFE384801210AF06DFD50460DF0D4FC64
:10261000CDF8008002460B46334808F0F9FE3148F9
:1026200001210AF05FFD59462F4808F0C9FE2D48E8
:1026300001210AF057FD31462B4808F0C1FE294818
:1026400001210AF04FFD0024022721462846FEF70B
:102650002DFA0DF0B1FC009702460B46224808F017
:10266000D7FE01341F4801210AF03CFD082CECD1B3
:1026700000212846FEF7C6FA0DF09EFC00970246A0
:102680000B46194808F0C4FE164801210AF02AFD3D
:1026900001212846FEF7B6FA0DF08EFC009702469F
:1026A0000B46114808F0B4FE0E4801210AF01AFD4D
:1026B00002212846FEF7A6FA0DF07EFC009702469E
:1026C0000B46094808F0A4FE0136074808F080FED2
:1026D0003F2E05F18C0589D103B0BDE8F08F00BF16
:1026E0003888FF1F9C7D0100C887FF1F014B1870B1
:1026F000704700BF2087FF1F024B1878B0FA80F0A8
:10270000400970472087FF1F0278002A00F0B78039
:1027100030B5034685B00D46252A38D158780028B3
:102720003DD0A0F12502D1B2552903F1010430D8E2
:10273000552A2ED8DFE802F09F2D2D2D2D2D2D2D81
:102740002D2D2D2D2D2D2D2D2D2D2D2D2D2D2D2DB9
:102750002D2D2D2D2D932D2D2D2D2D2D2D2D2D2D43
:102760002D2D2D2D2D2D2D882D2D2D7C2D2D2D2DEF
:102770002D2D2D2D2D7439392D5E2D2D392D2D39E1
:102780002D2D2D2D2D2D493F2D2D2D562D691878B0
:102790001C460CF009F96278631C002ABCD1394848
:1027A00005B0BDE8304008F013BE55F8041B3548AD
:1027B00008F006FEEFE755F8041B01290EBF32486A
:1027C000324801210CF048F8E5E755F8043B002BAE
:1027D000E1D0184603930EF033FF014603980CF046
:1027E0003BF8D8E755F8041B26480023102208F0D0
:1027F00007FED0E7073525F007050321F5E802239A
:102800002048009108F004FEC5E7073525F00705CC
:102810000021F5E802231B48009108F0F9FDBAE712
:1028200055F8041B17480023022208F0E9FDB2E71F
:10283000022117480CF010F855F8041B114800232A
:10284000102208F0DDFDA6E755F8043B012B0BBF75
:1028500010481148042105210BF0FEFF9BE70221DF
:102860000E480BF0F9FF55F8041B0648002302221E
:1028700008F0C6FD8FE725200CF096F88BE701489D
:1028800008F0A6BD3888FF1FA87D0100AC7D0100BF
:10289000A07D0100B07D0100B87D0100A47D010094
:1028A0000FB400B583B004A951F8040B0191FFF7F0
:1028B0002BFF03B05DF804EB04B0704770B5DFF890
:1028C00078C01E4BDCF800C082B00446CDF804C0CE
:1028D000DDF804C0C3F800C00D461646614600236B
:1028E0000A22174808F08CFD032116480BF0B4FFAC
:1028F000032C07D8DFE804F01B1602111248072149
:102900000BF0AAFF022111480BF0A6FF3146284622
:1029100002B0BDE87040FFF7F7BE05210C480BF090
:102920009BFFEFE704210B480BF096FFEAE7052138
:1029300009480BF091FFE5E73CB9FF1F9891FF1F95
:102940003888FF1F5C7B0100D07D0100047E010000
:10295000D87D0100C87D0100C07D01000FB400B525
:10296000064B187883B020B905AA04990192FFF7A5
:10297000A5FF03B05DF804EB04B070472087FF1F8C
:102980000FB4084B00B51B78012B83B005D805AAFE
:10299000049901920120FFF791FF03B05DF804EB69
:1029A00004B070472087FF1F0FB4084B00B51B7899
:1029B000032B83B005D805AA049901920320FFF7E1
:1029C0007DFF03B05DF804EB04B070472087FF1F64
:1029D00010B4074C0749084A00232370036510BC54
:1029E0004365836580F85C300B601360704700BFFF
:1029F000A491FF1FA091FF1F9C91FF1F2DE9F84F8D
:102A00009B4F9C4C9C4E3B78B4F866203280002B48
:102A100040F0C080B4F86030984D99482B80FFF7A3
:102A200009FB216B0DF08AFE08B100232B8094482E
:102A3000FFF7FEFAE16A0DF09FFE10B1002333802C
:102A40002B808F48FFF772FAE1680DF095FE08B110
:102A500000232B808A48FFF769FAE1680DF08CFEAD
:102A600008B100232B808648FFF75EFA21690DF03C
:102A700065FE002800F09180002333802B88002B16
:102A800000F086803B787E48002B30D1FFF7D2FAE9
:102A9000616B0DF053FE002840F02681794B784899
:102AA0001B68012B00F00881FFF740FA216A0646F7
:102AB000A0690DF09BFB014630460DF05DFE00283D
:102AC00066D028880DF048FC82466D48FFF72EFA44
:102AD000A7698146216A38460DF088FB8046B4F824
:102AE00064000DF035FC0646B4F860002FE0FFF7F7
:102AF000A1FA616B0DF022FE002840F02481614BA9
:102B00005F481B68012B00F0BF80FFF70FFA216AB6
:102B10000646A0690DF06AFB014630460DF02CFE1A
:102B2000002835D028880DF017FC82465448FFF75E
:102B3000FDF9A7698146216A38460DF057FB8046AA
:102B4000B4F864000DF004FC0646B4F862000DF021
:102B5000FFFB31460DF04AFB4146044648460DF066
:102B600045FB014620460DF04BFC414604463846E5
:102B70000DF03CFB014620460DF0F6FC31460DF011
:102B800037FB014650460DF031FB0DF03BFE28802F
:102B9000BDE8F88FB4F862303EE73948FFF7C4F972
:102BA000E1690DF0CBFD00287FF466AF3388002B80
:102BB0003FF464AF3248FFF73BFAA16B0DF0DCFD48
:102BC000002840F0EF802E48FFF7AEF921690DF0A4
:102BD000D3FD002843D02A48FFF7A6F9D4F8C41043
:102BE0008046E0690DF004FB014640460DF0A6FD6D
:102BF00000283FF443AF30880DF0AEFB83462048F9
:102C0000FFF792F98246B4F86600D4F81C800DF004
:102C10009FFB4146814650460DF0E8FA4946824600
:102C200000200DF0E3FA014650460DF0E9FBD4F820
:102C3000C410824640460DF0DBFA41460DF0D6FA4C
:102C4000014650460DF090FC49460DF0D1FA014680
:102C500058460DF0CBFA0DF0D5FD30800EE7084850
:102C6000FFF762F9E1690DF087FD0028B3D105E7B0
:102C70001492FF1F3893FF1FEC92FF1FEE92FF1F6D
:102C80006C94FF1FF891FF1FFFF750F9216A064669
:102C9000606A0DF0ABFA014630460DF06DFD00287C
:102CA0003FF476AF28880DF057FB82465348FFF774
:102CB0003DF9676A81463EE7FFF738F9216A064623
:102CC000606A0DF093FA014630460DF055FD00287C
:102CD0003FF45EAF28880DF03FFB82464748FFF780
:102CE00025F9676A8146F5E628880DF035FB8146AF
:102CF0004248FFF79FF98046B4F86000276B0DF05B
:102D000027FB3946064640460DF070FA31468046AC
:102D100000200DF06BFA014640460DF071FB39467C
:102D20008046606B0DF062FA014640460DF01CFCD7
:102D300031460DF05DFA014648460DF057FA0DF0A8
:102D400061FD2880AAE628880DF006FB81462B4805
:102D5000FFF770F98046B4F86200276B0DF0F8FABF
:102D60003946064640460DF041FA3146804600207D
:102D70000DF03CFA014640460DF042FB39468046D4
:102D8000606B0DF033FA014640460DF0EDFB314625
:102D90000DF02EFA014648460DF028FA0DF032FDEE
:102DA0002880ACE630880DF0D7FA83461348FFF749
:102DB0003FF98246B4F86600D4F838800DF0C8FABE
:102DC0004146814650460DF011FA014648460DF045
:102DD00017FB41468146E06A0DF008FA0146484675
:102DE0000DF0C2FB00210DF003FA014658460DF02C
:102DF000FDF90DF007FD3080E5E600BF6C94FF1F84
:102E0000DDF800C0521AACEB030C1CD0401ABCF128
:102E1000000F0CFB00F002EBD27109DB00EB61004C
:102E200000FB02F1002990FBF2F0184410DB704720
:102E3000A0EB610000FB02F1002990FBF2F01844C6
:102E4000F5DB013070470CEBDC7C03EB6C0070476A
:102E50000138704710B5044682B049B10846019167
:102E60000EF0EEFB236801995B6802462046984706
:102E7000204602B0BDE8104008F0AABA2DE9F041A2
:102E80004648474C474F484EFFF70AFD474B4848D6
:102E90005C60484CDC60484C1C61484C9C61484C70
:102EA0009C62484CDC61484CDC62484C1C63484CDA
:102EB000C3F8CC40C3F8D04000245C63454C9C630D
:102EC000454CDC634FF07C549C64444CDC6440F221
:102ED0000128434C1C65A3F80880424C5C624FF00B
:102EE0000C08414CC3F8548040F61C48C3F8C44059
:102EF000C3F868803D4C18624FF00A080022322166
:102F00004FF40575586118644FF0640E01201C667B
:102F1000C3F86C80364C1D8041F2040883F84420CD
:102F2000C3F8A41098655C66C3F85CE0314CC3F844
:102F30007080C3F88C10C3F8AC10FF214FF0020C66
:102F40002D4DC3F8C0409A67C3F88000C3F8B400A1
:102F5000C3F88420C3F8B010C3F8A82083F8C920B0
:102F600083F8CA205A2441F288304FF47A7144F62B
:102F70002062C3F89470C3F89860C3F8A050C3F8F7
:102F8000BCE0C3F87CC0C3F8B8C05C67C3F8880075
:102F9000C3F89010C3F89C20BDE8F081E07D0100EB
:102FA00020A107000000114400F0C8453893FF1F1E
:102FB000CDCC4C3E666686400000404033338340B3
:102FC000CDCCCC3DCDCC4C4000008242000020C195
:102FD00058028813000020420000A0409A997940CE
:102FE0000AD7233D333373409A99993E2C019600BA
:102FF00032002C0188130500D606D60670B5444D64
:10300000444C4548E66800232B70FEF78FFF0146CD
:1030100030460DF093FB08B104232B703E48FEF7B9
:1030200083FF21690DF08AFB18B12B7843F0100360
:103030002B703948FEF7FCFFE16A0DF09DFB18B1DB
:103040002B7843F040032B70002333486B70FEF75E
:10305000F1FF216B0DF072FB08B101236B700023AF
:103060002D48EB70FEF762FF06462B48FEF75CFF2B
:10307000014630460DF0BAF8216C0DF07DFB08B129
:103080000123EB70254D244800232B70FEF74EFFE3
:10309000A16A0646E0680DF0A9F8014630460DF039
:1030A0006BFB08B104232B701B48FEF73DFFA16AA0
:1030B000064620690DF09CF8014630460DF03EFBB7
:1030C00018B12B7843F010032B701348FEF7B0FFB4
:1030D000E16B0646E06A0DF089F8014630460DF0D6
:1030E0004BFB18B12B7843F040032B7000230A48A8
:1030F0006B70FEF79FFFE16B0646206B0DF078F8D2
:10310000014630460DF01AFB08B101236B7070BD0B
:10311000E892FF1F3893FF1F6C94FF1FE492FF1F7C
:103120002DE9F043A44C2368012B85B048D0022B35
:1031300079D0032B03D033B305B0BDE8F0839F4AA9
:103140009F4B4FF47A711160D3F8AC000DF004F985
:103150009B4B0546D3F8B0000DF0FEF829460DF064
:1031600045F898490DF04CF996490DF0FDF92946BE
:103170000DF03EF80DF020FB0146062008F020FE81
:103180002368002BD8D18E4B8F48D3F8AC10D3F8DE
:10319000B02003688D48521A002A02FB03F367DB54
:1031A000323380FB0320DA17C2EB6012002B11448C
:1031B000C0F2FF80062005B0BDE8F04308F000BE75
:1031C0007E4B1B680A33B3F57A7F4EDC18460393B7
:1031D0000DF0C2F87E490DF013F9039B0746774ABC
:1031E000774D1360D5F8AC000DF0B6F80646D5F86B
:1031F000B0000DF0B1F831460CF0F8FF39460DF093
:10320000FFF870490DF0B0F931460CF0F1FF0DF008
:10321000D3FA0146062008F0D3FD6E4B1B6893BB22
:103220002368022B85D1654A654B00211160D3F8D4
:10323000AC000DF091F8624B0546D3F8B0000DF0EC
:103240008BF829460CF0D2FF00210DF0D9F85D492A
:103250000DF08AF929460CF0CBFF0DF0ADFA0146CE
:10326000062008F0ADFD236863E700270023B6E7DA
:10327000323B80FB0320DA17C2EB6012002B1144B3
:1032800098DB013196E7022153484C4D4C4F0BF02F
:10329000E3FA524808F09CF8062151480BF0DCFA9A
:1032A00028680DF059F84A490DF0AAF80CF084FE90
:1032B000022602460B460096484808F0A9F80D2160
:1032C00048480BF0C9FAD7F8AC000DF045F8804635
:1032D00028680DF041F83E490DF092F88146D7F884
:1032E000B0000DF039F841460CF080FF0146484629
:1032F0000DF086F833490DF037F941460CF078FFB0
:103300000CF05AFE009602460B46344808F080F84E
:10331000314631480BF0A0FA304808F059F83146F0
:103320002D4809F01FFA304808F052F806212C48C1
:1033300009F018FA28680DF00FF825490DF060F82B
:103340000CF03AFE009602460B46274808F060F85B
:103350000D21244809F006FAD7F8AC000CF0FCFF68
:10336000804628680CF0F8FF19490DF049F8054629
:10337000D7F8B0000CF0F0FF41460CF037FF0146E3
:1033800028460DF03DF80F490DF0EEF841460CF0DF
:103390002FFF0CF011FE009602460B46124808F073
:1033A00037F80D48314609F0DDF90F4808F010F8FC
:1033B00036E70139FEE600BFE091FF1F2092FF1FB4
:1033C0003893FF1F0000C8424087FF1F1F85EB5145
:1033D000CDCCCC3D2887FF1F8C8C01003888FF1F87
:1033E000007E0100087E0100B487FF1F30B51C4835
:1033F0001C4C83B007F0ECFF194807F0E9FF1848B0
:1034000007F0E6FF0D2118480BF026FA174807F0E1
:10341000DFFF164807F0DCFF144807F0D9FF124819
:103420000D2109F09FF9D4F8A830012B22D0104DBE
:103430000B48297800230A2207F0E2FF00230B48FB
:1034400029780A2207F0DCFF2B78052B5ED8DFE80D
:1034500013F04802510224022D0236023F0200BF3F
:103460003888FF1F3893FF1F187E0100B487FF1FA5
:103470001493FF1F0921BF480BF0EEF90921BD4845
:1034800009F070F9BC48FEF74FFD21690DF056F9BF
:10349000002840F08382B848FEF748FDE1680DF04F
:1034A0006BF9002840F07182B348FEF73FFD0546F6
:1034B000B148FEF739FD014628460CF097FE216C15
:1034C0000DF05AF9002840F05782AB48FEF752FD44
:1034D000E16A0DF051F9002840F04582A648FEF758
:1034E00049FD216B0DF02AF9002840F03382A34BEF
:1034F000A1481B68012B00F01C82FEF715FD216915
:103500000DF03AF9002840F0FE819D4D9D480221C2
:103510000BF0A2F99B48022109F024F9122008F0CF
:10352000F7FD012800F08E81112008F0F1FD01283F
:1035300000F09681944B1B68012B00F09E810221C4
:103540009048924C0BF088F9914B9248196807F01B
:1035500037FF904807F03CFF04218F480BF07CF9BF
:103560000B2008F0D5FD002301460A22894807F008
:1035700047FF0C2008F0CCFD002301460A228548B5
:1035800007F03EFF142008F0C3FD002301460A2285
:10359000804807F035FF152008F0BAFD00230A2205
:1035A00001467C4807F02CFF06217C480BF054F9BB
:1035B0007B4807F00DFF0421774809F0D3F80B2072
:1035C00008F0A6FD002301460A22754807F018FFFF
:1035D0000C2008F09DFD002301460A22704807F0E8
:1035E0000FFF142008F094FD002301460A226C48C6
:1035F00007F006FF152008F08BFD002301460A2284
:10360000674807F0FDFE6548062109F0ABF823681E
:10361000D80700F1D980012162480BF01DF9012182
:10362000604809F09FF82368990740F1D98001218B
:103630005D480BF011F95C48012109F093F823680B
:103640005A0740F1D980012157480BF005F9564837
:10365000012109F087F823681B0740F1D980012177
:1036600051480BF0F9F85048012109F07BF804218A
:103670004E480BF0F1F8112008F04AFD00230146F6
:103680000A22444807F0BCFE102008F041FD002348
:1036900001460A223F4807F0B3FE122008F038FD29
:1036A000002301460A223B4807F0AAFE132008F037
:1036B0002FFD00230A220146364807F0A1FE04210F
:1036C0003A4809F04FF8112008F022FD0023014686
:1036D0000A22334807F094FE102008F019FD002359
:1036E00001460A222E4807F08BFE122008F010FD3A
:1036F000002301460A222A4807F082FE132008F020
:1037000007FD0A2201460023254807F079FE2448D8
:1037100007F05EFE182126480BF09EF8254B18880E
:103720000CF01AFE24490CF06BFE0CF045FC002452
:1037300002460B461748009407F06AFE1F211F48F7
:103740000BF08AF81E4B18880CF006FE1A490CF094
:1037500057FE0CF031FC00940B4602460D4807F072
:1037600057FE184802210BF077F82B78032B58D01E
:1037700003B030BD287E01006C94FF1FF891FF1F3D
:103780001493FF1F8C8C0100D091FF1F0893FF1F23
:10379000F491FF1F3888FF1F207F0100287F010060
:1037A000B487FF1F347F0100307F0100387F0100A4
:1037B000407F0100EE92FF1FCDCCCC3D5C7F01002D
:1037C000EC92FF1F7C7F0100012182480BF044F83E
:1037D0000121804808F0C6FF236899073FF527AF0D
:1037E00001217D480BF038F87B48012108F0BAFF31
:1037F00023685A073FF527AF012177480BF02CF8D3
:103800007548012108F0AEFF23681B073FF527AF7D
:10381000012171480BF020F86F48012108F0A2FF48
:1038200025E76E4B1B788BB31E216D480BF014F807
:103830006C481B2108F096FF6B4803B0BDE8304090
:1038400007F0C6BD0E2169480BF006F867480E2147
:1038500008F088FF112008F05BFC01287FF46AAEB5
:103860000A2163480AF0F8FF61480A2108F07AFF4C
:10387000604B1B68012B7FF462AE12215E480AF098
:10388000EBFF5D48122108F06DFF58E620215B48F0
:103890000AF0E2FF5A481D21CCE7072159480AF0F7
:1038A000DBFF5848072108F05DFF2FE60821564846
:1038B0000AF0D2FF5448082108F054FF26E60B21F5
:1038C00052480AF0C9FF51480B2108F04BFF1DE692
:1038D00007214F480AF0C0FF4D48072108F042FF7A
:1038E00014E606214B480AF0B7FF4A48062108F0C3
:1038F00039FF0BE6072148480AF0AEFF464807218A
:1039000008F030FF02E64548454DFEF70FFBE16841
:103910000CF014FF00283FF4F9AD2B78052B10D1E3
:103920000A2140480AF098FF3E480A2108F01AFF91
:10393000ECE5FEF7F9FA616A0CF01EFF002836D1BB
:10394000374D394808210AF087FF3748082108F029
:1039500009FFDBE50D2135480AF07EFF33480D21D4
:1039600008F000FFC3E50C2131480AF075FF30482C
:103970000C2108F0F7FEB1E511212E480AF06CFF8A
:103980002C48112108F0EEFE9FE50E212A480AF08E
:1039900063FF29480E2108F0E5FE85E50F21274841
:1039A0000AF05AFF25480F2108F0DCFE73E51621C6
:1039B00023481B4D0AF050FF0A211A480AF04CFF19
:1039C0001F48162108F0CEFE16480A2108F0CAFE4C
:1039D0009CE500BF307F0100347F01001492FF1F7F
:1039E000C47F0100E47F0100B487FF1FF07E010067
:1039F000007F0100D091FF1F0C7F0100807F01003C
:103A0000A47F0100D47E0100DC7E0100C87E01009D
:103A1000E87E0100B87E0100C07E01006C94FF1FAB
:103A20001493FF1FA07E0100AC7E0100787E010090
:103A3000687E0100547E0100447E0100347E010056
:103A4000887E01002DE9F04FBD4CD4F87CA0BAF17E
:103A5000010F8FB000F0CE81BAF1030F5AD0DFF81A
:103A6000E482B94FB94EA36F3168B948012B04BF46
:103A700001F10041316007F0C7F93B68002B40F0CD
:103A80008781B34807F08CF93B68C8F80000054609
:103A9000002B40F03681E36F012B00F0F680AD493A
:103AA00028460CF069FE30B9AB4928460CF046FEBA
:103AB000002800F07782DFF8A492A94FD9F80030EF
:103AC0000C930C983B68DFF89CA2C01A0CF040FCE9
:103AD00029460CF095FCA4490CF046FDA2490CF0D7
:103AE00043FDDAF800100CF083FBD9F800300B939B
:103AF0000B9BCAF800003B60D4F8B4000CF02CFC1F
:103B000029460CF07DFC0023C8F8000033600FB09C
:103B1000BDE8F08FDFF85492954DD9F80020DFF81A
:103B20002482D2F8840001230F212B6006F0F6FBDB
:103B30002B68854F012B3A6800F08C81002A40F0F9
:103B40004582D9F80030DFF82CA2D3F88400436B0B
:103B50001D69ADB2CAF8005006F0C4F840F6E4435F
:103B600003FB05F5B4F8A230B5FBF0F5E81A00B296
:103B70000CF0F2FB8049754E0546D4F894000CF029
:103B80003FFC014628460CF0EFFCDAF800303060CC
:103B9000632B00F30E82002333603B68002B3FF45D
:103BA00062AF022175480AF057FED9F80030D3F809
:103BB0008400DAF8003040F6E44B0BFB03F506F026
:103BC00091F8B5FBF0F00CF0C3FB0546B4F8A20089
:103BD0000CF0C2FB014628460CF008FB0CF0ECF997
:103BE000022502460B460095654807F011FC294660
:103BF00062480AF031FE30680CF0DEF900950246AA
:103C00000B465F4807F004FC29465E480AF024FE94
:103C100029465A480AF020FE2946584808F0A2FDD5
:103C2000D9F80020DAF80030D2F884000BFB03F951
:103C300006F058F8B9FBF0F00CF08AFB8146B4F8B6
:103C4000A2000CF089FB014648460CF0CFFA0CF0BC
:103C5000B3F9009502460B464B4807F0D9FB2946BD
:103C6000464808F07FFD30680CF0A6F90095024642
:103C70000B46454807F0CCFB2946424808F072FD48
:103C80003E48294608F06EFDEDE6394B1B68012BD6
:103C900000F01A82022B7FF42FAFD4F89C703846C4
:103CA0000CF05AFB29460CF049FD40B978420CF063
:103CB00053FB29460CF060FD002800F09A82DFF8E3
:103CC0009CA0DFF89C90DAF8003009930998D9F8A5
:103CD0000030244FC01A0CF03BFB29460CF090FB3F
:103CE00021490CF041FC20490CF03EFC39680CF0F5
:103CF0007FFADAF800300893089B3860C9F8003082
:103D0000FAE60CF059F9022502460B4600951C48CC
:103D100007F07EFB04211D480AF09EFDD8F8000044
:103D20000CF04AF9009502460B46174807F070FB65
:103D30001648042108F016FDD8F80050ABE600BF85
:103D40003893FF1F4492FF1FDC91FF1F4092FF1F1B
:103D50001893FF1F0000FA430000FAC33CB9FF1F8D
:103D60003892FF1F3C92FF1F00007A44CC91FF1F46
:103D70004487FF1F4892FF1FACC527378C8C01007A
:103D80003888FF1F3C800100B487FF1F408001007E
:103D9000BC4807F005F80CF00FF9022502460B4667
:103DA0000095B94807F034FB0321B8480AF054FDE8
:103DB000D4F89C10B44807F003FB0321B3480AF081
:103DC0004BFDB04806F0ECFF0CF0F6F8009502460B
:103DD0000B46AF4807F01CFBAC48032108F0C2FCBF
:103DE000D4F89C10AA4807F0EBFAA848032108F081
:103DF000B9FC46E6DFF89C82DFF89C92D4F89C5030
:103E0000D9F80030D8F80060D3F8847028460CF058
:103E1000A3FA31460CF0B0FC78B168420CF09CFA81
:103E2000014630460CF0A8FC38B19C4D38460F21B5
:103E3000C5F800A006F072FA7AE6984D02233846DB
:103E40000E212B6006F06AFA2B68954F012B3A6819
:103E50007FF474AE002A40F06581D9F80030DFF8B5
:103E600044A2D3F88400436B1D69ADB2CAF8005078
:103E700005F038FFB4F8A0308B4E40F6E44202FB68
:103E800005F5B5FBF0F5E81A00B20CF065FA8749C4
:103E90000546D4F898000CF0B3FA014628460CF019
:103EA00063FBD9F800303060D3F88400DAF80030D2
:103EB00040F6E44202FB03F505F014FFB4F8A0203D
:103EC000B5FBF0F31BB29B1A002BB4F8C220B8BFAD
:103ED0005B429342BCBF002333603B68002B3FF43E
:103EE000C2AD022172480AF0B7FCD9F80030D3F80D
:103EF0008400DAF8003040F6E44505FB03F3039351
:103F000005F0F0FEB4F8A010039BB3FBF0F31BB276
:103F1000591A5D4807F054FA022165480AF09CFCE2
:103F200030680CF049F84FF0020B02460B46CDF812
:103F300000B0554807F06CFA03215E480AF08CFC8B
:103F400059465B480AF088FC5946594808F00AFC73
:103F5000D9F80020DAF80030D2F8840003FB05F528
:103F600005F0C0FEB4F8A010B5FBF0F52DB2691A4B
:103F7000474807F025FA59464D4808F0F3FB3068EA
:103F80000CF01AF8CDF800B002460B46404807F096
:103F90003FFA4848032108F0E5FB4548594608F038
:103FA000E1FB60E5444B1B680D93444B0D9A1A608E
:103FB000A2E5D9F80030D3F8840005F093FEDAF8D2
:103FC000003064389842FFF4E6ADE6E52E48DFF8AD
:103FD000D4A007F0FDF90C2139480AF03DFC0C2172
:103FE00038480AF039FC2A4807F0F2F934480C2125
:103FF00008F0B8FB33480C2108F0B4FBD9F80020D6
:104000003B68D2F88400426B1569ADB2CAF8005023
:10401000002B3FF4A1AD05F065FE40F6E4460A2210
:10402000002306FB05F1B1FBF0F1174807F0E8F9B2
:1040300002211F480AF010FCB4F8A210124807F041
:10404000BFF9D9F80030DAF80010D3F8840001FB8A
:1040500006F605F047FE00230A22B6FBF0F10C48F5
:1040600007F0CEF91248022108F07CFB0848B4F8AA
:10407000A21007F0A5F9D9F80030DAF80050D3F80B
:10408000840069E51893FF1F3888FF1F607B0100DB
:10409000B487FF1F4492FF1FCC91FF1F4487FF1F6F
:1040A000DC91FF1F4892FF1F4092FF1FACC52737CE
:1040B0008C8C0100288001003CB9FF1F3892FF1F43
:1040C0002C80010018800100514928460CF054FB57
:1040D00030B9504928460CF031FB002800F08280AE
:1040E000DFF834A1DFF83491DAF80030069306984F
:1040F000D9F800304A4FC01A0CF02AF929460CF0C2
:104100007FF948490CF030FA46490CF02DFA39682D
:104110000CF06EF8DAF800300593059B3860C9F8AA
:104120000030E9E4404807F053F9404807F050F9FF
:10413000E36F012B4FF00B0162D03D480AF08CFB7E
:104140003B480B2108F00EFB0C213A48DFF8E8A0B1
:104150000AF082FB37480C2108F004FBD9F8002054
:104160003B68D2F88400426B1569ADB2CAF80050C2
:10417000002B3FF47DAE05F0B5FD40F6E4460A2283
:10418000002306FB05F1B1FBF0F1274807F038F9F1
:1041900001212A480AF060FBB4F8A010224807F079
:1041A0000FF9D9F80030DAF80010D3F8840001FBD9
:1041B00006F605F097FD00230A22B6FBF0F11B4836
:1041C00007F01EF91D48012108F0CCFA1748B4F891
:1041D000A01007F0F5F8D9F80030DAF80050D3F85D
:1041E000840045E60C4B1B6807930C4B079A1A603A
:1041F00082E4094B1B680A93084B0A9A1A607BE415
:104200000F480AF029FB0E480B2108F0ABFA9BE798
:104210000000FA430000FAC33CB9FF1F3892FF1FA9
:104220003C92FF1F00007A443888FF1FB487FF1FAD
:104230000C800100188001004892FF1F147E0100CD
:10424000008001002DE9F043DFF89C82D8F80030AF
:1042500085B0002B00F0A680A44CA54DD4F8843086
:10426000A44EA54F012B00F0CD80D7F80080E36D60
:10427000D4F8589009FB03F34FF47A7003FB00F075
:104280000CF06AF89D49814640460CF0B9F8494661
:104290000CF06AF99A490CF0B3F80CF08DFA632827
:1042A00028607ADD954948460CF05EF96423386051
:1042B0002B603368002B6DD0E36F012B00F0CA80B8
:1042C000032B00F0D780022B00F0E0808D4E8E484B
:1042D00002210AF0C1FA30680BF06EFE0224024699
:1042E0000B460094894807F093F8214688480AF065
:1042F000B3FA214684480AF0AFFA2968834807F0E8
:104300005FF8062183480AF0A7FA38687B490CF069
:1043100077F80BF051FE009402460B467B4807F0FD
:1043200077F803217C480AF097FA784807F050F8AC
:104330002146754808F016FA30680BF03DFE0094EF
:1043400002460B46754807F063F82146704808F0AE
:1043500009FA724807F03CF82968704807F030F80D
:104360006C48062108F0FEF9386864490CF048F8FA
:104370000BF022FE009402460B46684807F048F80E
:104380006548032108F0EEF9644805B0BDE8F04344
:1043900007F01EB805B0BDE8F0830028BCBF0023BD
:1043A0002B6086E75E48514C524EFDF745FE5D4955
:1043B000E76E0CF025F80CF025FA656F226FA16E00
:1043C00000953B4680B2FEF71BFD494D33682860DF
:1043D000002B64D1E36D484F03FB00F0A36D03FB9A
:1043E00000F000EB800040000BF0B6FF43490CF0FA
:1043F000BBF80123C8F80030D4F884303860012BB2
:104400007FF433AF4648FDF717FEE36E454903934B
:104410000BF0F6FF0CF0F6F9D4F874C0226FA16E21
:10442000039BCDF800C080B2FEF7EAFCE36DD4F840
:104430005890039303FB00F009FB00F000EB8000B1
:1044400040000BF089FF2D490CF08EF8039B38607B
:1044500080460FE7344B1B68012B3AD00A213348C2
:104460000AF0FAF931480A2108F07CF9E36F032BCE
:104470007FF429AF10212E480AF0EEF92C481021C4
:1044800008F070F9E36F022B7FF420AF0721294871
:104490000AF0E2F92748072108F064F916E702213B
:1044A00019480AF0D9F92968184806F089FF02214D
:1044B00015480AF0D1F91448022108F053F9296887
:1044C000164806F07DFF1048022108F04BF92868D5
:1044D00080E70A2118480AF0BFF917480A2108F0B6
:1044E00041F9E36FECE600BF2492FF1F3893FF1FF2
:1044F0004087FF1F2887FF1F3C92FF1FE4388E3E36
:104500000000C8424492FF1F8C8C01003888FF1FB6
:104510003C8001007C80010084800100B487FF1F83
:104520006C94FF1F00007A444487FF1F54800100F1
:1045300060800100748001004880010000B51120F6
:1045400083B007F0E5FD012804D0122007F0E0FD5C
:10455000012822D10121152007F0B8FD2D4B2E494D
:104560002E4A1B6808680193D2F8883003442C480F
:104570000221016001998B4208D8D2F890000BF01B
:10458000EBFE284B19680CF0D9F8D0B101210C20B2
:1045900003B05DF804EB07F099BD00210B2007F094
:1045A00095FD00210C2007F091FD0021152007F05A
:1045B0008DFD1D491A4B0120002208701A6003B0BE
:1045C00000BD01210B2007F081FD144A144992F827
:1045D000C8200323012A0B6016D0122007F098FD93
:1045E000012808BF104A4FF003034FF0110008BF25
:1045F000137007F08DFD012806D000210C2003B0B8
:104600005DF804EB07F062BD074B02221A7000212F
:10461000F4E700BF3CB9FF1FF892FF1F3893FF1F5C
:104620000C93FF1F4492FF1F1493FF1F30B5824D60
:10463000824C2B6821688B4289B01AD013F001029A
:1046400025D09A0736D558073FD5CA0770D58A07AF
:104650000B464AD47A4B1A68002A00F08780794BBF
:104660001B680593059B9A42C0F0A48029684A07FD
:104670003AD409B109B030BD1620019107F0A0FB72
:104680000199172009B0BDE8304007F099BB1146E9
:10469000162007F095FB2368296803F0FE032360CA
:1046A0008B0707D5480710D5CA0733D42368990765
:1046B0001BD4CFE70021172007F082FB236829686D
:1046C00003F0FD0323604B071FD40021052007F0F2
:1046D00077FB2368296803F0FB03CA07236019D41A
:1046E0008B071FD44A07C4D523685B07C2D4564B37
:1046F0001A68002A28D0534B1B680793079B9342E4
:1047000046D829680029B5D1B6E7C80702D4890779
:10471000EAD5CBE72368DB070AD5880702D44A0726
:10472000A8D5E1E72368980794D54807A2D5DCE728
:10473000464B1A68002A5BD0424B1B680393039BCD
:10474000934246D82968CBE7414B1B68002B68D1C0
:10475000FF21052007F034FB3A4B3E491A680692C8
:104760000968069A0A4438490A60C5E7384B1B684D
:10477000002B4BD1FF21172007F022FB314B35498D
:104780001A6804920968049A0A442D490A6067E786
:10479000314B0520D3F88C1007F012FB23682968F1
:1047A00043F004032360284B00221A6000297FF4A1
:1047B00061AF61E7284B1720D3F88C1007F000FB9E
:1047C00023681F49002243F002030A60236029681E
:1047D00088E7214B1620D3F88C1007F0F1FA2368F4
:1047E0001A49002243F001030A602360296877E731
:1047F000FF21162007F0E4FA124B16491A680292BC
:104800000968029A0A4411490A6096E7134806F0BB
:10481000DFFD0C2112480AF01FF8104806F0D8FD01
:10482000A8E70E4806F0D4FD0C210E480AF014F853
:104830000A4806F0CDFD8BE70C93FF1F0893FF1F7E
:104840000093FF1F3CB9FF1FFC92FF1F0493FF1F43
:104850002887FF1F6887FF1F3893FF1F3888FF1FB7
:1048600088800100988001002DE9F0476A4EDFF84A
:10487000AC8133686A4FD3F884006A4D0F2105F08C
:104880004DFD0023012222216748C8F800303A601C
:1048900009F0E2FF6448222107F064FFD8F80030F5
:1048A000132BD8BF40F6E44923DC3368B5F8A0A049
:1048B000D3F88400436B1C6905F014FAA4B20346D4
:1048C00001215A4809FB04F4B4FBF3F4A244A5F80F
:1048D000A0A009F0C1FF5548012107F043FF642063
:1048E00007F07EFCD8F800300133132BC8F80030F5
:1048F000DBDDB5F8A0304E494E48A1FB03215B1A21
:1049000001EB5301C1F30F11A5F8A01006F058FDFB
:104910001D21494809F0A0FF0221484809F09CFFE9
:10492000444806F055FDB5F8A010454806F048FD8E
:1049300041481D2107F016FF0221404807F012FFF1
:104940003F4806F045FD0023C8F8003033680E21CB
:10495000D3F8840005F0E2FC0223222132483B60B8
:1049600009F07AFF3048222107F0FCFED8F8003029
:10497000132B25DC40F6E4473368B5F8A290D3F852
:104980008400436B1C6905F0ADF9A4B20346012114
:10499000264807FB04F4B4FBF3F4A144A5F8A29065
:1049A00009F05AFF2148012107F0DCFE642007F0DE
:1049B00017FCD8F800300133132BC8F80030DBDDCA
:1049C000B5F8A2301A491B48A1FB03215B1A01EB81
:1049D0005301C1F30F11A5F8A21006F0F1FC1D213F
:1049E000184809F039FF0221144809F035FF114831
:1049F00006F0EEFCB5F8A210114806F0E1FC1148F3
:104A00001D2107F0AFFE0D48022107F0ABFEBDE807
:104A1000F0470B4806F0DCBCCC91FF1FFC91FF1F58
:104A20004487FF1F3893FF1FA8800100CC8001003E
:104A3000876118863888FF1FD08001008C8C0100A8
:104A4000B487FF1FF08001002DE9F843BA4CBB4D3D
:104A5000082340F25132E371686D22600BF07CFC58
:104A6000B74B1B680646002B40F03281A9690BF05A
:104A7000C7FCB4490BF0C4FC0BF0C4FEB24BE969AF
:104A80001F88B24B1FFA80F9C0F3072830461E88F2
:104A90000BF0B6FCAB490BF0B3FC0BF0B3FE0023FC
:104AA00069F3070368F30F2367F317433F0A67F3BC
:104AB0001F63A360002366F30703360A80B266F320
:104AC0000F2360F31743000A60F31F639A49A0485D
:104AD000E36005F043FF9F4A9D48136812882281D6
:104AE00003EB83039C4A082640F255315B00128891
:104AF0002160237390496281334100276373E6711B
:104B0000E78105F02BFF40F2563394482360E671AD
:104B1000FDF70EFA92490BF073FC0BF073FE207256
:104B20008E48FDF705FA8E490BF06AFC0BF06AFE21
:104B30008C4B8B49F040607218680BF015FD0BF040
:104B40003BFE60818548FDF715FA7E490BF058FC65
:104B50000BF032FE20738148FDF70CFA79490BF017
:104B60004FFC0BF029FE3041734960737848E781B0
:104B700005F0F4FE022007F033FB7B4A7B4B126802
:104B80001B687348A26040F25A3121606A49E360B1
:104B9000E67105F0E3FE764B67496D48E67140F239
:104BA0005E322260D3E90023A260E36005F0D6FE06
:104BB000022007F015FB6F4B5F496548E6714FF423
:104BC0005C722260D3E90023E360A26005F0C6FEB8
:104BD000694B1B68012B7DD0022007F001FB4FF0D1
:104BE0008173A360B5F85C30A381082640F2991365
:104BF00040F273370220E3812760E67107F0F0FA94
:104C000056482760E671FDF78FF95C490BF0F8FB19
:104C10000BF0F8FD20725148FDF786F957490BF06B
:104C2000EFFB0BF0EFFD20FA06F34C486372FDF743
:104C30007DF952490BF0E4FB0BF0E4FDA07247480C
:104C4000FDF774F94D490BF0DBFB0BF0DBFD20FAAF
:104C500006F34248E372FDF7EDF949490BF0C8FA53
:104C60000BF0D0FD20733D48FDF7E4F944490BF00B
:104C7000BFFA0BF0C7FD20FA06F338486373FDF75F
:104C8000D7F93F490BF0B4FA0BF0BCFDA0733348E1
:104C9000FDF7CEF93A490BF0ABFA0BF0B3FD26491C
:104CA00020FA06F32A48E37305F058FE022007F0C5
:104CB00097FAEA6DAB6D13FB02F3022123FA06F2B9
:104CC00040F27930E171237262722060BDE8F883AE
:104CD000696ACCE62148FDF727F9296D0BF088FABF
:104CE00007461E48FDF722F9014638460BF026FD1F
:104CF00000283FF471AF40F2C3331848E6712360D7
:104D0000FDF712F9EE6C31460BF018FD002839D092
:104D10001A4930460BF074FB0BF074FD030A237242
:104D200040F2014203236072034909486281E36053
:104D300005F014FE50E700BFBC91FF1F3893FF1F22
:104D4000F891FF1F00002041EE92FF1FEC92FF1F21
:104D500088B7FF1F4087FF1F5887FF1F6C94FF1FF6
:104D60000000C8424492FF1FE892FF1FE492FF1F19
:104D70005087FF1F4887FF1FD091FF1F00007A4414
:104D8000339388430948FDF7CFF809490BF038FB06
:104D90000BF038FD030A05482372FDF7C5F80449F6
:104DA0000BF02EFB0BF02EFDBAE700BF6C94FF1F3B
:104DB00000007A442DE9F04F83B009F0D3FCB14DE7
:104DC000286007F07BFD002800F3CA80AE4C2868FD
:104DD0002368042B00F0CC80092B31D1AB4E96F820
:104DE000CA30012B84BF002386F8CA3096F8C93038
:104DF000012B02D9002386F8C930322801F017822E
:104E0000712801F0C281312814D196F8C930B3FA63
:104E100083F301225B09226086F8C93078200123E0
:104E2000052B286000F0E281032B00F0EF81012BBD
:104E300000F05781732800F00E8303B0BDE8F08FB7
:104E4000022B40F02981A0F13103422BF2D801A2BC
:104E500052F823F001680000D3680000E968000000
:104E60005D6900004D670000C56A0000FD6A000032
:104E7000156B0000354E0000354E0000354E000029
:104E8000354E0000354E0000354E0000354E000016
:104E9000354E0000354E0000354E0000354E000006
:104EA000354E0000354E0000354E0000354E0000F6
:104EB000354E0000354E0000354E0000354E0000E6
:104EC000354E0000354E0000354E0000354E0000D6
:104ED000354E0000354E0000354E0000354E0000C6
:104EE000354E0000354E0000354E0000354E0000B6
:104EF000354E0000354E0000354E0000354E0000A6
:104F0000354E0000354E0000354E0000354E000095
:104F1000354E0000354E0000354E00009150000027
:104F2000354E0000354E0000354E0000354E000075
:104F3000354E0000354E0000354E0000354E000065
:104F4000354E0000354E0000354E0000354E000055
:104F5000354E00004F540000354E0000E76700005A
:104F6000494C07F0BFFC23682860042B7FF434AF62
:104F7000A0F13103402B3FF65DAF01A252F823F0C0
:104F8000BF660000C5660000CB660000E966000051
:104F9000EF66000007670000CB5100007566000057
:104FA0007B660000354E0000354E0000354E000097
:104FB000354E0000354E0000354E0000354E0000E5
:104FC000354E0000354E0000354E0000354E0000D5
:104FD000354E0000354E0000354E0000354E0000C5
:104FE000354E0000354E0000354E0000354E0000B5
:104FF000354E0000354E0000354E0000354E0000A5
:10500000354E0000354E0000354E0000354E000094
:10501000354E0000354E0000354E0000354E000084
:10502000354E0000354E0000354E0000354E000074
:10503000354E0000354E0000354E0000354E000064
:10504000354E0000354E0000354E0000354E000054
:10505000354E0000354E0000354E0000354E000044
:10506000354E0000354E0000354E0000354E000034
:10507000354E0000354E0000354E0000354E000024
:10508000B56600000092FF1FD491FF1F3893FF1FE9
:10509000FFF7EAFB23682868082B40F08580322858
:1050A00076D0712800F0D38131287FF4C3AE09F0A7
:1050B0009FFB002801F33482E04E07F0FFFB00283D
:1050C00002F3458696F84410B26CDD48022984BF8D
:1050D000002186F84410FCF72FFF6920012323608C
:1050E0002860A0F15203262B3FF6A4AE01A252F88D
:1050F00023F000BF4D6B0000354E0000354E000020
:10510000354E0000354E0000354E0000354E000093
:10511000354E0000354E0000354E0000354E000083
:10512000354E0000354E0000354E0000354E000073
:10513000FD5500000F7D00000D5D0000FF5C0000CC
:1051400043590000354E0000354E0000354E00003A
:1051500035590000354E000039810000354E000001
:10516000354E0000354E0000354E0000354E000033
:105170002D670000354E0000354E0000354E000012
:10518000354E0000354E0000354E00000B56000035
:1051900009F02EFB002801F3E18107F08FFB0028C6
:1051A00001F3C88123682868072B19D1342800F33C
:1051B0004B8130287FF73EAE3238022802F2BF879B
:1051C000DFE810F0F607E8070C089E4A1368B3FA08
:1051D00083F301215B0921601360642001232860AF
:1051E000062B00F0A180052B7FF41EAE352801F3BD
:1051F000298030287FF71EAE3238032802F2B687A6
:10520000DFE810F0490848092B086609A0F13003CF
:10521000422B3FF60FAE01A252F823F003790000B3
:10522000516B00008B6B0000B5740000F774000038
:105230003975000087750000D575000055760000AF
:105240009F760000354E0000354E0000354E0000C0
:10525000354E0000354E0000354E0000354E000042
:10526000354E0000354E0000354E0000354E000032
:10527000354E0000354E0000354E0000354E000022
:10528000354E0000354E0000354E0000354E000012
:10529000354E0000354E0000354E0000354E000002
:1052A000354E0000354E0000354E0000354E0000F2
:1052B000354E0000354E0000354E0000354E0000E2
:1052C000354E0000354E0000354E0000354E0000D2
:1052D000354E0000354E0000354E0000354E0000C2
:1052E00081790000BB790000F57900002F7A000079
:1052F000157D0000ED76000083770000D177000077
:10530000354E00002378000065780000354E00001F
:10531000354E0000354E0000354E0000354E000081
:10532000B3780000C1780000A0F13103402B3FF6B4
:1053300081AD01A252F823F09D690000E9690000E7
:10534000356A00007D6A00001368000027680000CD
:10535000636800000162000013620000354E000027
:10536000354E0000354E0000354E0000354E000031
:10537000354E0000354E0000354E0000354E000021
:10538000354E0000354E0000354E0000354E000011
:10539000354E0000354E0000354E0000354E000001
:1053A000354E0000354E0000354E0000354E0000F1
:1053B000354E0000354E0000354E0000354E0000E1
:1053C000354E0000354E0000354E0000354E0000D1
:1053D000354E0000354E0000354E0000354E0000C1
:1053E000354E0000354E0000354E0000354E0000B1
:1053F000354E0000354E00009F670000354E00001E
:10540000354E0000354E0000354E0000354E000090
:10541000354E0000354E0000354E0000354E000080
:10542000354E0000354E0000354E0000354E000070
:10543000354E0000354E00004F5400003893FF1FDA
:105440006C94FF1FE091FF1F71287FF4F3AC0022E2
:10545000732322602B602368002B7FF4EEAC6D4E2B
:105460006D486E4D05F0B4FF04216D4809F0F4F964
:10547000694805F0ADFF10216A4809F0EDF966486A
:1054800005F0A6FF1321684809F0E6F9296862488B
:1054900005F096FF604805F09BFF1421634809F072
:1054A000DBF95D4805F094FF1E21614809F0D4F94D
:1054B000594805F08DFF15215E4809F0CDF9564891
:1054C00005F086FF1E215C4809F0C6F9524805F038
:1054D0007FFF2021594809F0BFF94F4805F078FFB8
:1054E0001921574809F0B8F94B4805F071FF12210E
:1054F000544809F0B1F9484805F06AFF19215248AB
:1055000009F0AAF9444805F063FF0F214F4809F05C
:10551000A3F9414805F05CFF0D214D4809F09CF9C5
:105520003D4805F055FF4B4805F052FF04213C482B
:1055300007F018F9474805F04BFF1021394807F0EC
:1055400011F9444805F044FF3748132107F00AF9E0
:105550002968404805F034FF3E4805F039FF142122
:10556000324807F0FFF83B4805F032FF1E21304873
:1055700007F0F8F8374805F02BFF15212D4807F004
:10558000F1F8344805F024FF1E212B4807F0EAF813
:10559000304805F01DFF2021284807F0E3F82D488A
:1055A00005F016FF1921264807F0DCF8294805F018
:1055B0000FFF1221234807F0D5F8264805F008FF11
:1055C0001921214807F0CEF8224805F001FF0F21EC
:1055D0001E4807F0C7F81F4805F0FAFE0D211C48C9
:1055E00007F0C0F81B4805F0F3FE002201233260EB
:1055F000236003B0BDE8F08F09F0B4F809F0F8F8C3
:105600000028F9D12AE009F0ADF809F0F1F80028F6
:10561000F9D1FFE02887FF1F3888FF1F7087FF1F21
:1056200050850100588501006C85010080850100CE
:1056300098850100B8850100D0850100F085010042
:105640001486010030860100448601006086010056
:1056500070860100B487FF1F07F044F907F02EF9A8
:1056600005460028F8D1B948B94E05F0B1FEB74853
:1056700005F0AEFEB54805F0ABFEB44805F0A8FE57
:10568000B24805F0A5FE1F21B24809F0E5F8AF4881
:1056900005F09EFE1C21B04809F0DEF8B06AAF4963
:1056A0000AF0AEFE0AF088FC009502460B46A748B9
:1056B00005F0AEFE0221AA4809F0CEF8A34805F095
:1056C00087FE2321A74809F0C7F8306CA3490AF0E8
:1056D00097FE0AF071FC009502460B469B4805F0C8
:1056E00097FE02219E4809F0B7F8984805F070FE31
:1056F00019219D4809F0B0F8F06B0AF05DFC022713
:1057000002460B469148009705F082FE39469748BD
:1057100009F0A2F88D4805F05BFE1921944809F0C4
:105720009BF8B6F8C010894805F04AFE032191485D
:1057300009F092F8854805F04BFE8F4805F048FEC9
:105740008D4805F045FE8C4805F042FE8A4805F07C
:105750003FFE894805F03CFE1F217E4807F002F815
:10576000854805F035FE7C481C2106F0FBFFB06A39
:105770007A490AF045FE0AF01FFC009502460B46E6
:105780007D4805F045FE3946754806F0EBFF7A483E
:1057900005F01EFE7348232106F0E4FF306C6F49CC
:1057A0000AF02EFE0AF008FC009502460B467248ED
:1057B00005F02EFE39466A4806F0D4FF6E4805F023
:1057C00007FE6948192106F0CDFFF06B0AF0F4FBE3
:1057D00000970B460246684805F01AFE39466348B2
:1057E00006F0C0FF644805F0F3FD6148192106F09A
:1057F000B9FFB6F8C010604805F0E2FD5D4803212E
:1058000006F0B0FF5C4805F0E3FD072300F0B9BCEB
:1058100007F068F807F052F805460028F8D14B4821
:105820004B4E05F0D5FD494805F0D2FD474805F03F
:10583000CFFD464805F0CCFD444805F0C9FD1521D3
:105840004E4809F009F8414805F0C2FD3F4805F00F
:10585000BFFD2C214A4808F0FFFF3C4805F0B8FD89
:105860002521484808F0F8FF0A222B4696F8C9106F
:10587000364805F0C5FD354805F0AAFD1921424816
:1058800008F0EAFF3C4805F0A3FD3B4805F0A0FD09
:10589000394805F09DFD384805F09AFD364805F079
:1058A00097FD1521354806F05DFF334805F090FD62
:1058B000314805F08DFD2C21314806F053FF2E486C
:1058C00005F086FD2F48252106F04CFF2B4696F863
:1058D000C91029480A2205F093FD274805F078FDF4
:1058E0002948192106F03EFF96F8CA30002B42F0F5
:1058F00058820E21254808F0AFFF144805F068FDD6
:1059000022480E2106F02EFF1B4805F061FD1321F1
:105910001F4808F0A1FF0D4805F05AFD1C4813214F
:1059200006F020FF144805F053FD092300F029BCC0
:1059300008F018FF08F05CFF0028F9D12CE008F00F
:1059400011FF08F055FF0028F9D1C5E03888FF1F86
:105950003893FF1FF48301001484010000007A448F
:105960004C7D01003484010058840100C88301008B
:105970007484010090840100B487FF1F48860100F1
:1059800034810100648101008C810100A881010043
:10599000CC81010006F0A6FF06F090FF0546002826
:1059A000F8D14348434E05F013FD414805F010FD82
:1059B0003F4805F00DFD3E4805F00AFD3C4805F066
:1059C00007FD15213C4808F047FF394805F000FD68
:1059D00018213A4808F040FF0A222B4696F8441056
:1059E000334805F00DFD324805F0F2FC282134481B
:1059F00008F032FFB06C33490AF002FD0AF0DCFA1D
:105A0000009502460B462A4805F002FD02212E4869
:105A100008F022FF264805F0DBFC13212B4808F094
:105A20001BFF234805F0D4FC294805F0D1FC284889
:105A300005F0CEFC264805F0CBFC254805F0C8FC57
:105A4000234805F0C5FC15211B4806F08BFE2048B5
:105A500005F0BEFC1948182106F084FE2B460A22E8
:105A600096F844101A4805F0CBFC194805F0B0FC34
:105A70001348282106F076FEB06C12490AF0C0FCEB
:105A80000AF09AFA00950B460246114805F0C0FC50
:105A900002210D4806F066FE0D4805F099FC0B4802
:105AA000132106F05FFE0A4805F092FC082368E324
:105AB0003888FF1F3893FF1F18860100E08101001E
:105AC000FC81010000007A444C7D0100CC81010082
:105AD000B487FF1F06F006FF06F0F0FE054600281B
