:1000000000800020BD01000015BB0000D1BA000037
:10001000D1BA0000D1BA0000D1BA0000D1BA0000B4
:10002000D1BA0000D1BA0000D1BA000015BB00005F
:1000300015BB0000D1BA0000A1AE0000A5AE0000C3
:1000400015BB000015BB000015BB000015BB000070
:1000500015BB000015BB000015BB000015BB000060
:1000600015BB000015BB000015BB000015BB000050
:1000700015BB000015BB000015BB000015BB000040
:1000800015BB000015BB000015BB000015BB000030
:1000900015BB000015BB000015BB000015BB000020
:1000A00015BB000015BB000015BB000015BB000010
:1000B00015BB00009DAC0000A9AC0000ADAC000079
:1000C000B9AC0000BDAC0000C1AC000015BB000025
:1000D00015BB000015BB000015BB000015BB0000E0
:1000E00015BB000015BB000015BB000015BB0000D0
:1000F00015BB000089C9000015BB000009D3000032
:1001000015BB000079DA000015BB000015BB00002C
:1001100015BB000015BB000015BB000015BB00009F
:1001200015BB000015BB000015BB000015BB00008F
:1001300015BB000015BB000015BB000015BB00007F
:1001400015BB000015BB000015BB000015BB00006F
:1001500015BB000015BB000015BB000015BB00005F
:1001600015BB000099DD000015BB000015BB0000A9
:1001700015BB000015BB000015BB000015BB00003F
:1001800015BB000015BB000015BB000015BB00002F
:1001900015BB000015BB000015BB000015BB00001F
:1001A00015BB000015BB000015BB000015BB00000F
:1001B00015BB000015BB000015BB0000534B4CF2F3
:1001C000205210B5DA814DF62812DA8100BF00BF47
:1001D0000BF0A4FC4E4B4FF010621A634D4A9A6329
:1001E0004D4ADA634D4A136913F4807303D15361A6
:1001F0004FF4A85313614A4B9A78110703D59A78A4
:1002000042F008029A70474B47492A221A70474B1E
:10021000474A8B4204D252F8040B43F8040BF8E728
:10022000444B454900228B4202D243F8042BFAE7A3
:10023000424943484FF4DE720BF076FB414B424A91
:10024000802103F8011B9342FBD14FF0E0233C4A8D
:10025000C3F8082D3D4B8A221A70A3F5805324223F
:100260005A70A0221A709A799207FCD59A79D4060E
:10027000FCD4374B9A7902F00C02082AFAD10322F7
:100280001A7140225A719A799006FCD5304A9379B6
:100290005906FCD51E4B2F4959640221996420212F
:1002A0001170917901F00C010C29FAD12A4A5A6097
:1002B0004FF0E023294A5A6100229A6107221A610D
:1002C000274AC3F8202D62B60BF0DEFC134B5B69A6
:1002D000DA0705D523480BF0CBFC234B234ADA6120
:1002E000234B1B785B0609D51F4C204BE2699A42D1
:1002F00004D11C480BF0BCFC0023E3610BF014FCA0
:1003000011F020F90BF008FBFEE700BF00200540CC
:1003100000800440823F04000100002B00D0034015
:1003200000D0074000E007407491FF1F2087FF1FA7
:10033000309801008091FF1F20BFFF1F00000000C8
:100340000082FF1F00E400E05FE400E00050064090
:100350000040064000000301C0100500FF760100C8
:1003600000002020073BB66A00E00340A5C3945A72
:1003700000F00740FFFFFFFFFFFFFFFFFFFFFFFF52
:10038000FFFFFFFFFFFFFFFFFFFFFFFFFFFFFFFF7D
:10039000FFFFFFFFFFFFFFFFFFFFFFFFFFFFFFFF6D
:1003A000FFFFFFFFFFFFFFFFFFFFFFFFFFFFFFFF5D
:1003B000FFFFFFFFFFFFFFFFFFFFFFFFFFFFFFFF4D
:1003C000FFFFFFFFFFFFFFFFFFFFFFFFFFFFFFFF3D
:1003D000FFFFFFFFFFFFFFFFFFFFFFFFFFFFFFFF2D
:1003E000FFFFFFFFFFFFFFFFFFFFFFFFFFFFFFFF1D
:1003F000FFFFFFFFFFFFFFFFFFFFFFFFFFFFFFFF0D
:10040000FFFFFFFFFFFFFFFFFFFFFFFFDEF9FFFF23
:100410000548064B1B1AD90F01EBA301491002D066
:10042000034B03B1184770477491FF1F7491FF1F6E
:100430000000000008B5054B1BB105490548AFF3A6
:100440000080BDE80840FFF7E3BF00BF00000000E8
:100450008091FF1F289801002DE9F04F85B00746D5
:100460000E9E0393002EB4BFF31D3346DB10013301
:100470005B000293431C00934B1E8B4691460193F5
:100480004FF003083D7845EA090420460DF01CFAB8
:10049000DDE900010DF022FA3C70B9F1000F6CD1DA
:1004A00002F014F9002840D102983D700BF054FE80
:1004B00002F00CF9002833D1039C002501E001353E
:1004C00001340DF043FA98B1AE4211DD0DF052FA4D
:1004D000207002F0FBF80028F1D021784348002377
:1004E00010220AF047FF012141480EF071F9E6E7BA
:1004F000AE4209D002F0EAF800284FD1B8F1010865
:10050000C0D109E00DF036FA0DF020FA0028F9D13B
:1005100002F0DCF8002845D1284605B0BDE8F08F90
:10052000072134480EF054F9C6E7092132480EF08D
:100530004FF92146002310222C480AF01BFF2C48BB
:1005400001210EF045F9BBF1010F32DD009C07EBF4
:100550000B0A14F8011B2548002310220AF00AFF99
:10056000234801210EF034F95445F2D1B9F1000FBE
:1005700029D11E480AF0E6FE96E7BBF1000F32D003
:100580001E493A4607EB0B0A002012F8013B434094
:100590009245C85CF9D10DF097F981E713480AF04C
:1005A000D1FEABE711480AF0CDFE284605B0BDE804
:1005B000F08FB9F1000FDCD0BBF1010F18BF0021A3
:1005C0000BD107F1010A0D493846002310F8012B21
:1005D00053405045CB5CF9D1194600231022034803
:1005E0000AF0C8FEC5E75846D5E700BF3888FF1FA8
:1005F000947D0100047A0100F87901006C900100FB
:1006000010B518220446002110F0E0FE0E4BA36145
:10061000E36123626362A362E3620021182204F1B2
:10062000300010F0D3FE00210023084A084884F867
:100630008410E065A364E36423656365A2652266B4
:100640006366204610BD00BF0000A0400000484384
:100650000000C8C2F0B590F8843087B00446002589
:1006600004265B0001278DF80C302A4604AB009667
:10067000032103A88DF80D508DF80E70FFF7ECFEE6
:1006800094F884308DF80E60BB408DF80C30072351
:10069000009320238DF80D302A4604AB032103A8D4
:1006A000FFF7DAFE00962A4694F884508DF80E7013
:1006B000BD408DF80C509DF8135025679DF81450DF
:1006C00065679DF81550A5679DF81650E56704AB62
:1006D000032103A833248DF80D40FFF7BDFE07B0BA
:1006E000F0BD00BF90F87400704700BF90F8700034
:1006F000704700BF90F87800704700BF90F87C000A
:10070000704700BF00B590F8841087B004234900FB
:1007100000204FF0320C0093012204AB8DF80C1036
:100720008DF80E00032103A88DF80DC0FFF794FE8D
:1007300002200BF011FD07B000BD00BF2DE9F04F06
:10074000064691B096F8843002205B008DF80830A0
:100750000BF002FD96F8843030465B008DF80830CF
:10076000FFF778FFF16FB26F736F01910092B1489C
:10077000326F96F8841002F0DBF8032530233D2217
:100780008DF80A208DF80930012203AB2946009527
:1007900002A8FFF761FE31238DF80930012203AB77
:1007A0002946009502A801248DF80A50FFF754FE4F
:1007B00034238DF80930224603AB0095294602A860
:1007C0008DF80A40FFF748FE8DF8094012239A4C35
:1007D0008DF80A304FF01608CDF8008003AB0022E8
:1007E000032102A8FFF738FE0128074640F31A81CB
:1007F0000DF10B0103AA0128ACBF091801314FF01C
:10080000000912F8013B83EA0903914214F80390AE
:10081000F7D1CB469DF821A088485A46514602F0B0
:1008200087F8162F02D1CA4500F0008105200BF091
:1008300093FC013DD0D1162F96F884100AD0804841
:10084000CDF800B053463A4602F098F8002011B0B7
:10085000BDE8F08FCA45F2D19DF80C30B3EB410FE3
:10086000F4D19DF80D30012BF0D19DF80E30122BF4
:10087000ECD19DF810309DF80F0003EB00200FF035
:1008800027FD70490FF078FD716EF06404460FF09B
:100890002FFF00B17466316E20460FF00BFF00B1E0
:1008A0003466A6F10408DFF8A0A103AC06F1140930
:1008B0004546A379607903EB00200FF009FD51460E
:1008C0000FF05AFD45F8040FA96907460FF0F2FE34
:1008D00028B1B16E38460FF001FF00B1AF61296B4E
:1008E00038460FF005FF00B12F63A94504F102045B
:1008F000DFD1002058F8041F0FF036FCC145F9D1B4
:100900009DF81E209DF81D30B0644FF4807513FBD8
:100910000523981C0FF0DCFC4C490FF0E1FD01466B
:100920004B480FF0DDFD4B490FF01CFC4A490FF01E
:1009300023FD07460EF090F9044638460EF08CF978
:1009400046490EF0B3F94649074620460FF014FD1C
:1009500044490FF009FC4449044638460FF00CFDA9
:10096000014620460FF000FC01464FF07E500FF08C
:10097000B7FD3E490FF0F6FB9DF8203004469DF888
:100980001F00346510FB053009300FF0A1FC384919
:100990000FF0A6FD01462E480FF0A2FD2D490FF0E5
:1009A000E1FB2D490FF0E8FC07460EF055F905462E
:1009B00038460EF051F929490EF078F928490746D2
:1009C00028460FF0D9FC27490FF0CEFB26490546F3
:1009D00038460FF0D1FC014628460FF0C5FB014612
:1009E0004FF07E500FF07CFD20490FF0BBFBD6F896
:1009F0008030D6F8589070650546002B3AD10146F4
:100A000020460FF057FE8046002847D0274649462B
:100A100038460FF04FFE00B1B765B8F1000F32D085
:100A20002C4630E04FF0000BD946F3E696F88410E0
:100A300012E700BF0C7A01006C900100407A0100BF
:100A40008C7A01006B57053B2003C839001601471B
:100A50000AD7E33FE17A644000007A440000404056
:100A6000A40D8F395A80473A46A6DB333393884327
:100A7000002C01471333494656F8234020460FF017
:100A800019FE00B1B465F06D21460FF013FE00B100
:100A9000F465034801F04CFF0120D8E62F46B6E785
:100AA000647A0100052994BF50F8210000207047A6
:100AB0002DE9F0410B4E8046041F00F1140754F855
:100AC000045F314628460FF0F5FD30B1D8F86810C4
:100AD00028460FF00DFE00B12E46A742EFD130465A
:100AE000BDE8F08100002041F8B50026051F00F1A7
:100AF000140755F8044F314620460FF0F9FD00B9B0
:100B00003446BD422646F4D12046F8BD2DE9F84FC3
:100B1000D0F86880DFF858B082460026041F00F144
:100B200014074FF0000954F8045F414628460FF0BF
:100B3000DFFD58B1594628460FF0BCFD30B13046B4
:100B400029460FF011FB09F101090646A742EAD137
:100B5000CAF88890B9F1000F07D048460FF0B8FBEB
:100B6000014630460FF0BCFC06463046BDE8F88F23
:100B700000007042D0F88800704700BFD0F8803085
:100B800063B900B5036D416D83B01846CDE900131C
:100B90000FF090FD30B1019803B000BD133350F851
:100BA00023007047009803B000BD00BFD0F880302C
:100BB00063B900B5036D416D83B018460093019190
:100BC0000FF078FD30B1019803B000BD133350F839
:100BD00023007047009803B000BD00BF08B5D0F8EF
:100BE000803043B9416D006D0FF0BEFA4FF07C517B
:100BF0000FF0C2FB08BD133350F8230008BD00BF3F
:100C0000806C704701299ABF143150F821000020F0
:100C1000704700BF3E2998BF80F88410704700BF1E
:100C200090F86C00704700BFC0F88010704700BF9C
:100C300080F86C10704700BF8166704770B500F592
:100C40000A55064600F128041C3520468C34FFF76F
:100C5000D7FCAC42F9D106F1B405012428460021A5
:100C6000FFF7E6FF214628460134FFF7D3FF3F2C6C
:100C700005F18C05F2D10749316106F500530022D8
:100C8000726105480549B0610022F161304683F880
:100C9000A42270BD00007A44000048430000C8C28E
:100CA000F8B500F50057002300F50A56C7F8A8323A
:100CB00000F1B4041C3602E08C34B4420FD020465C
:100CC000FFF7AEFF0028F7D02046D7F8A852FFF76D
:100CD00051FF8C340544B442C7F8A852EFD1D7F87D
:100CE000A802F8BD2DE9F04F00F5005393B08046FF
:100CF000012A4FF00000C3F8AC02069100F0E48135
:100D000008F1B4094FF0010B0793029207E00BF1D1
:100D1000010BBBF13F0F09F18C0900F0F28048464E
:100D2000FFF77EFF0028F2D000273C460126D8F8C6
:100D3000085039464846FFF7B5FE29460FF0D8FC63
:100D400006FA07F32343DBB20137002818BF1C461D
:100D5000062FECD1029B0194012B00F0D580002CD2
:100D6000D5D04FEA4B0242F00105EDB233238DF8A6
:100D700025302846069BB34E03928DF824208DF82B
:100D800026300CF0A1FD02210DF125000CF0A6FD8E
:100D90008DF82450725D9DF82530059253409DF8E2
:100DA0002620F35C5340F05C0CF08EFD01F08EFCCD
:100DB000002840F05781039B8DF8243002200BF06F
:100DC000CBF901F083FC002840F036810AAB049394
:100DD0001F464FF0000A01E00AF1010A0CF0B6FDCF
:100DE000002800F0CE80BAF11E0F15D00CF0C2FD25
:100DF00007F8010B044601F069FC0028ECD0E1B2D1
:100E00000023102290480AF0B5FA01218F480DF016
:100E1000DFFCE1E70CF0AEFD0CF098FD0028F9D105
:100E200001F054FC002840F0B580029B012B00F03B
:100E3000B880039B8DF82430019B8DF8263028461E
:100E400032238DF825300CF03FFD0DF125000221F5
:100E50000CF044FD059A9DF825308DF82450534040
:100E60009DF82620F35C5340F05C0CF02DFD01F062
:100E70002DFC002840F0AE80039B8DF8243002202A
:100E80000BF06AF901F022FC002840F09E80049DDE
:100E9000002700E001370CF059FD00284ED01E2F2E
:100EA00015D00CF067FD05F8010B044601F00EFCAF
:100EB0000028EFD0E1B20023102263480AF05AFA6A
:100EC000012162480DF084FCE4E70CF053FD0CF0C6
:100ED0003DFD0028F9D101F0F9FB002834D1029B37
:100EE000012B37D0079A0199D2F8AC320BF1010BE4
:100EF0000B44BBF13F0FC2F8AC3209F18C097FF40F
:100F00000EAF13B0BDE8F08F59464F480AF012FA01
:100F100003214F480DF05CFC019C4B482146002307
:100F200002220AF027FA4B4803210DF051FC002C55
:100F30007FF417AF44480AF005FAE8E61E2FC6D042
:100F400001F0C4FB0028CAD03F480AF0FBF9029B1D
:100F5000012BC7D1049C251D14F8011B3A4800231E
:100F600010220AF007FA3C4801210DF031FCAC4296
:100F7000F2D1079A0199D2F8AC320B44C2F8AC32E4
:100F8000D8E7BAF11E0F3FF447AF01F09FFB0028EE
:100F90003FF44BAF2C480AF0D5F9029B012B7FF4AC
:100FA00048AF049F3C1D17F8011B2748002310225F
:100FB0000AF0E0F9284801210DF00AFCBC42F2D108
:100FC000032124480DF004FC33E7072123480DF0EA
:100FD000FFFB5CE7092122480DF0FAFB29460023BC
:100FE000102219480AF0C6F9184801210DF0F0FB4B
:100FF00009AD0DF1260715F8011F13480023102233
:101000000AF0B8F9114801210DF0E2FBBD42F2D11E
:101010009DF824309DF82520F35C0B4853409DF843
:101020002620F35C53401022F15C00230AF0A2F961
:1010300005480AF087F91FE7072108480DF0C8FBAB
:10104000C4E600BF6C9101003888FF1F947D010049
:10105000DC7A0100E07A0100E47A0100047A010000
:10106000F879010009211C480DF0B2FB0023102281
:1010700029461A480AF07EF9194801210DF0A8FB0B
:1010800009AF0DF1260A17F8011F1448002310229A
:101090000AF070F9124801210DF09AFB5745F2D180
:1010A0009DF824309DF82520F35C0C4853409DF8B2
:1010B0002620F35C53401022F15C00230AF05AF919
:1010C00006480AF03FF976E60448029201930AF0D6
:1010D00039F9029A019B13E6F87901003888FF1F5D
:1010E000947D01002DE9F04F87B04FF0000B019087
:1010F0000123ADF808B08DF80A304FF00308002541
:1011000028460CF0E1FB02210DF109000CF0E6FB92
:101110008DF8085001F0DAFA002840F0E180022052
:101120008DF808500BF018F801F0D0FA002840F0C4
:10113000D28003AF3E46002400E001340CF006FCF0
:10114000002800F0BC80042C15D00CF013FC06F82D
:10115000010B054601F0BAFA0028EED0E9B20023EF
:1011600010229D480AF006F901219C480DF030FB41
:10117000E3E70CF0FFFB0CF0E9FB04460028F8D194
:1011800001F0A4FA002840F0E0809DF80C30802B9C
:1011900040F0CE809DF80D30002B40F0C9809DF8C6
:1011A0000E50012D40F0C4808D4801F0C1FB019B21
:1011B00003F1B40604E001353F2D06F18C0697D00B
:1011C0003046FFF72DFD0028F5D165F07F02DFF8EE
:1011D000149200904FF46C5101208DF80A20ADF864
:1011E00008100CF071FB02210DF109000CF076FBE8
:1011F00099F801209DF809104FF001084A408DF838
:1012000008809DF80A1019F802204A4019F80200D7
:101210000CF05AFB01F05AFA002840F09F8003209E
:101220008DF808B00AF098FF01F050FA08B190E08C
:1012300001340CF08BFB00287DD00A2C16D00CF06A
:1012400099FB07F8010B804601F040FA0028EFD027
:101250005FFA88F1002310225F480AF08BF8012121
:101260005E480DF0B5FAE3E70CF084FB0CF06EFB82
:101270000028F9D101F02AFA002840F0A9809DF851
:101280000C30812B7FF434AF9DF80D303B2B7FF475
:101290002FAF9DF80E308035AB427FF429AF30463A
:1012A0000121FFF7C5FC019B4F4803F50052D2F81E
:1012B000A0320133C2F8A03201F03AFB18E7042C47
:1012C0003FF459AF01F002FA60BBB8F101082FD02A
:1012D0009DF8085014E7072144480DF079FA28E7F3
:1012E000092143480DF074FA0023102229463A4898
:1012F0000AF040F8394801210DF06AFA02AC0DF10C
:101300000A0614F8011F3448002310220AF032F8AC
:10131000324801210DF05CFAA642F2D12E480AF0C3
:1013200011F8FCE62C480AF00DF8B8F10108CFD10D
:1013300007B0BDE8F08F0A2C98D001F0C7F900285B
:1013400042D1022C7FF7D4AE99E7234809F0FAFF87
:101350001BE7072125480DF03BFA6AE709212448DD
:101360000DF036FA4146009B1B4810220AF002F8A5
:1013700041461A480DF02CFA0DF108080DF10A0A41
:1013800018F8011F14480023102209F0F3FF134836
:1013900001210DF01DFAD045F2D19DF808309DF8DD
:1013A000092019F803300C4853409DF80A2019F819
:1013B00003305340102219F80310002309F0DAFF1C
:1013C000054809F0BFFF2AE7034809F0BBFFB8E76B
:1013D000014809F0B7FF52E73888FF1F947D0100EC
:1013E000E87A01006C910100F47A0100047A0100AE
:1013F000F87901002DE9F04300F5005985B000238C
:101400000122C9F8A032ADF804308DF8062000F1B1
:10141000B408022700214046FFF70AFC38468DF841
:1014200004700CF051FA02210DF105000CF056FA8F
:101430003D468DF8047001F049F9002865D114206B
:101440008DF804500AF088FE01F040F9002857D1C9
:101450000DF10706002400E001340CF077FA70B3B8
:10146000082C15D00CF086FA06F8010F054601F09D
:101470002DF90028F0D0E9B200231022384809F0F5
:1014800079FF012137480DF0A3F9E5E70CF072FA76
:101490000CF05CFA0028F9D101F018F900285AD1B3
:1014A0009DF80830BB4216D0052002370AF054FEE2
:1014B0007E2F08F18C08ADD105B0BDE8F083082C73
:1014C000E6D001F003F9002841D1042CECDD9DF8B1
:1014D0000830BB42E8D19DF80930002BE4D19DF8DB
:1014E0000A100129E0D19DF80C30002BDCD04046D9
:1014F000FFF79EFBD9F8A0320133C9F8A032D3E739
:10150000072119480DF064F9A2E7092117480DF0E9
:101510005FF9002310223946114809F02BFF1148CA
:1015200001210DF055F901AC0DF1060614F8011F6B
:101530000B480023102209F01DFF0A4801210DF07D
:1015400047F9A642F2D1064809F0FCFE77E70448C5
:1015500009F0F8FEB9E7024809F0F4FEA0E700BF81
:101560003888FF1F947D0100047A0100F87901009A
:101570002DE9F04700F50A5584B0804600F1B40427
:101580001C3500F500570026204600218C34FFF75B
:101590004FFBAC42C7F8A062F6D15C4F4FF0020996
:1015A0004FF07F0A43F67E42A5237F20ADF804204A
:1015B0008DF806300CF088F902210DF105000CF0D1
:1015C0008DF997F87F309DF805208DF804A05340E1
:1015D0009DF80620FB5C5340F85C0CF075F901F0B7
:1015E00075F800285BD17E2364208DF804300AF062
:1015F000B3FD01F06BF8002840F083800DF1070681
:10160000002400E001340CF0A1F958B3082C15D0E7
:101610000CF0B0F906F8010F054601F057F8002864
:10162000F0D0E9B200231022394809F0A3FE0121CD
:1016300038480DF0CDF8E5E70CF09CF90CF086F990
:101640000028F9D101F042F890B99DF808307F2BBD
:1016500015D0B9F1010F1FD14046FFF743FD04B08B
:10166000BDE8F087082CE9D001F030F80028ECD074
:10167000274809F067FE9DF808307F2BE9D19DF8D7
:1016800009303C2BE5D19DF80A30A52BE1D19DF81E
:101690000B30572BDDD1DFE74FF0010982E709213D
:1016A0001D480DF095F8002310227F21184809F0FD
:1016B00061FE184801210DF08BF801AC0DF1060513
:1016C00014F8011F12480023102209F053FE11489C
:1016D00001210DF07DF8A542F2D19DF804309DF86E
:1016E0000520FB5C0A4853409DF80620FB5C5340F4
:1016F0001022F95C002309F03DFE054809F022FEA6
:1017000071E7072105480DF063F877E76C91010058
:101710003888FF1F947D0100F8790100047A0100E8
:101720002DE9F04385B042F27F02FF23C04EADF8B1
:10173000042081468DF806304FF003087F2545F0E0
:10174000010420460CF0C0F802210DF105000CF058
:10175000C5F88DF804409DF80520335D53409DF891
:101760000620F35C5340F05C0CF0AEF800F0AEFFE6
:10177000002840F0F98102208DF804500AF0ECFCBA
:1017800000F0A4FF002840F0EA8102AF002400E04E
:1017900001340CF0DBF8002800F05F81042C15D038
:1017A0000CF0E8F807F8010B054600F08FFF002861
:1017B000EED0E9B2002310229E4809F0DBFD0121A2
:1017C0009D480DF005F8E3E70CF0D4F80CF0BEF8F6
:1017D0000028F9D100F07AFF002840F039827F25F7
:1017E00000238DF804508DF806304FF0030845F0C3
:1017F000010420460CF068F802210DF105000CF000
:101800006DF88DF804409DF80520335D53409DF838
:101810000620F35C5340F05C0CF056F800F056FFE5
:10182000002840F0D38102208DF804500AF094FC87
:1018300000F04CFF002840F08D8102AF002400E052
:1018400001340CF083F8002800F0F880042C15D047
:101850000CF090F807F8010B054600F037FF002860
:10186000EED0E9B200231022724809F083FD012175
:1018700071480CF0ADFFE3E70CF07CF80CF066F873
:101880000028F9D100F022FF002840F0ED8142F25B
:101890007F13ADF80430FF238DF806304FF00308B6
:1018A0007F2545F0010420460CF00EF802210DF1D1
:1018B00005000CF013F88DF804409DF80520335D09
:1018C00053409DF80620F35C5340F05C0BF0FCFFA6
:1018D00000F0FCFE002840F00B8102208DF804503F
:1018E0000AF03AFC00F0F2FE002840F0FC8002AF63
:1018F000002400E001340CF029F8002800F08A8070
:10190000042C15D00CF036F807F8010B054600F052
:10191000DDFE0028EED0E9B200231022454809F090
:1019200029FD012144480CF053FFE3E70CF022F8B5
:101930000CF00CF80028F9D100F0C8FE002840F0A7
:101940008F817F2500238DF804508DF806304FF0ED
:10195000030845F0010420460BF0B6FF02210DF10B
:1019600005000BF0BBFF8DF804409DF80520335DAA
:1019700053409DF80620F35C5340F05C0BF0A4FF4D
:1019800000F0A4FE00287CD102208DF804500AF05B
:10199000E3FB00F09BFE00286ED102AF002400E0C4
:1019A00001340BF0D3FF40B3042C15D00BF0E2FF51
:1019B00007F8010B054600F089FE0028F0D0E9B2D7
:1019C000002310221B4809F0D5FC01211A480CF015
:1019D000FFFEE5E70BF0CEFF0BF0B8FF0028F9D1D2
:1019E00000F074FE002840F0378109F50053002212
:1019F00083F8A42205B0BDE8F083042CECD000F0FD
:101A000065FE002840F02081B8F10108EDD09DF876
:101A100004509EE7042C8BD000F058FE002840F0C4
:101A20000781B8F101088CD09DF8045039E700BF58
:101A30006C9101003888FF1F947D0100042C3FF455
:101A40001DAF00F043FE002840F0F680B8F1010819
:101A50003FF41DAF9DF80450C9E6042C3FF4B6AE28
:101A600000F034FE002840F0EB80B8F101083FF4AC
:101A7000B6AE9DF8045062E607217D480CF0A8FE42
:101A80008BE709217B480CF0A3FE2146002310229E
:101A9000794809F06FFC794801210CF099FE01ACFE
:101AA0000DF1060714F8011F73480023102209F0F6
:101AB00061FC724801210CF08BFEA742F2D19DF827
:101AC00004309DF80520F35C6B4853409DF80620D8
:101AD000F35C53401022F15C002309F04BFC664894
:101AE00009F030FC50E7072161480CF071FEFEE67A
:101AF000092160480CF06CFE2146002310225E484C
:101B000009F038FC5D4801210CF062FE01AC0DF1DA
:101B1000060714F8011F58480023102209F02AFC78
:101B2000564801210CF054FEBC42F2D19DF804301D
:101B30009DF80520F35C504853409DF80620F35C67
:101B400053401022F15C002309F014FC4A4809F0CC
:101B5000F9FBC2E6072146480CF03AFE6DE6072184
:101B600043480CF035FE10E6092142480CF030FEE7
:101B7000214600231022404809F0FCFB3F48012188
:101B80000CF026FE01AC0DF1060714F8011F3A48CF
:101B90000023102209F0EEFB384801210CF018FE5A
:101BA000A742F2D19DF804309DF80520F35C32483D
:101BB00053409DF80620F35C53401022F15C002353
:101BC00009F0D8FB2C4809F0BDFBD4E509212948D0
:101BD0000CF0FEFD214600231022274809F0CAFB25
:101BE000264801210CF0F4FD01AC0DF1060714F8B4
:101BF000011F21480023102209F0BCFB1F480121CE
:101C00000CF0E6FDA742F2D19DF804309DF80520C6
:101C1000F35C194853409DF80620F35C53401022B2
:101C2000F15C002309F0A6FB134809F08BFBFAE5F1
:101C3000114809F087FBF4E60F4809F083FB05E73C
:101C40000D4809F07FFB10E70B4809F07BFBDBE652
:101C5000094809F077FBC2E5074809F073FBC4E6C1
:101C6000054809F06FFB6CE6034809F06BFB0EE6D4
:101C7000047A0100F87901003888FF1F947D010083
:101C800038B500F50A5500F1B4041C3502E08C3477
:101C9000AC420AD02046FEF7C3FF0028F7D020460A
:101CA0008C34FEF72FFDAC42F4D138BD2DE9F0475E
:101CB000854A864B002100F1B40500F50A5782B031
:101CC00082460160426203621C372C4602E08C347B
:101CD000BC420AD02046FEF7A3FF0028F7D02046DA
:101CE0008C34FEF70FFDBC42F4D1C8200AF034FA60
:101CF00001262C4604E001363F2E04F18C046AD004
:101D00002046FEF78DFF0028F5D0714800F010FE48
:101D10003146704800F00CFE2046FEF70FFD2046CD
:101D2000FEF76EFF0EF004F902460B466A4800F01B
:101D3000FFFD2046FEF7BCFE0EF0FAF88046204676
:101D40008946FEF7D1FE0EF0F3F80B460246CDE9C8
:101D50000023624842464B4600F0EAFD002120463F
:101D6000FEF750FF0EF0E4F8804689462046012138
:101D7000FEF748FF0EF0DCF80B460246CDE90023E3
:101D8000574842464B4600F0D3FD2046FEF738FF49
:101D90000146DAF800000EF0E7F9CAF80000204624
:101DA000FEF7ECFEDAF818100EF084FC002879D16A
:101DB0002046FEF7FBFEDAF81C100EF099FC002816
:101DC00099D02046FEF7F2FE01363F2ECAF81C00DD
:101DD00004F18C0494D1DAF804000EF079FA01468B
:101DE000DAF800000EF07CFBDAF81410CAF80000F4
:101DF00004460EF07DFC08B1CAF81440DAF8101061
:101E000020460EF057FC08B1CAF810400B200AF02B
:101E10003BF90AF5005494F8A432002848D1002B6D
:101E20004ED0012384F8A4320023CAF80C302C468B
:101E300002E08C34BC4215D02046FEF7F1FE0028AB
:101E4000F7D02046FEF750FEDAF80C100EF050FCEA
:101E50000028EED02046FEF747FE8C34BC42CAF87C
:101E60000C00E9D11F4BCAF8083002E08C35BD42A6
:101E700015D02846FEF7D4FE0028F7D02846FEF7F6
:101E800017FEDAF808100EF015FC0028EED02846F0
:101E9000FEF70EFE8C35BD42CAF80800E9D102B04B
:101EA000BDE8F0872046FEF769FECAF818007FE714
:101EB0000BB90023B6E70C4800F04CFD0023B1E756
:101EC0000A4800F05BFDACE700C0794400C079C46B
:101ED000C47F0100087B0100447B0100587B0100A6
:101EE000847B01000000A040D87B0100A07B0100A2
:101EF00000F50050D0F8AC02704700BF8068704712
:101F0000C06870470068704741607047F8B500F5D9
:101F10000A550F46164600F1B4041C3502E08C3415
:101F2000AC420FD02046FEF77BFE0028F7D02046BB
:101F30003946FEF779FE204631468C34FEF77CFEAA
:101F4000AC42EFD1F8BD00BF2DE9F8432A4A2B4B34
:101F5000DFF8AC90426200F50A558046036200F15A
:101F6000B4041C350026002702E08C34AC4210D0AB
:101F70002046FEF755FE0028F7D02046FEF72EFE3D
:101F800049460EF0B5FB88B98C34AC4206F1010627
:101F9000EED108F50058D8F8A002801B0EF098F991
:101FA000014638460EF09CFABDE8F8832046FEF75D
:101FB00015FE014638460EF0D7F807462046FEF7D4
:101FC0000DFED8F820100EF093FB70B92046FEF7F6
:101FD00005FED8F824100EF06DFB0028C5D0204671
:101FE000FEF7FCFDC8F82400BFE72046FEF7F6FD2B
:101FF000C8F82000EAE700BF00C0794400C079C4F7
:1020000000008CC2006A7047406A7047F8B500F55E
:102010000A560746002500F1B4041C3602E08C3451
:10202000B4420FD02046FEF7FBFD0028F7D0204633
:10203000FEF76CFD014628460EF096F88C34B4424B
:102040000546EFD107F50057D7F8A0020EF040F98A
:10205000014628460EF044FAF8BD00BF2DE9F04FC6
:10206000074699B0A948884607F5005600F002FCDB
:10207000A64800F0FFFBA54800F0FCFB07F50A5559
:10208000D6F8A0220D920023C6F8A8321C3507F11D
:10209000B40907F1B40A03E009F18C09A94510D08D
:1020A0004846FEF7BDFD0028F6D04846D6F8A842BF
:1020B000FEF760FD09F18C090444A945C6F8A84261
:1020C000EED1D6F8A832119338687B6810930DF0E2
:1020D0002FFF5446CDE90E014FF0000903E00AF14D
:1020E0008C0A554510D05046FEF79AFD0028F6D0D0
:1020F0005046FEF70BFD014648460EF035F80AF152
:102100008C0A55458146EED1D6F8A0020EF0E0F8D3
:10211000014648460EF0E4F90DF00AFFD7F80890A2
:10212000CDE9120148460DF003FFD7F80CB0CDE918
:10213000140158460DF0FCFECDE9160149465846FB
:102140000EF010F872490EF017F90DF0F1FE82460C
:1021500038468B46FFF7F8FE0DF0EAFEDDE9162360
:10216000CDE90623DDE91423CDE90423DDE91223BB
:10217000CDE90223DDE90E23CDE90A01CDE90023F3
:102180000D99109B119A6348CDE908AB00F072FBE2
:102190005E4800F06FFB604809210AF09FFAD6F80C
:1021A000A0125E4809F0C6F85D480A210AF096FAC6
:1021B0000023C6F8A832A146A24603E009F18C0923
:1021C000A94510D04846FEF72BFD0028F6D048461A
:1021D000D6F8A842FEF7CEFC09F18C090444A945C3
:1021E000C6F8A842EED1D6F8A8124C4809F0A2F8D9
:1021F0004A4809F0A7F838680DF09AFE0B4603210B
:1022000002460091454809F0BFF8464801210AF00E
:1022100065FA5446414809F095F84FF0000AA14686
:1022200003E009F18C09A94510D04846FEF7F8FCF7
:102230000028F6D04846FEF769FC014650460DF0EE
:1022400093FF09F18C09A9458246EED1D6F8A00288
:102250000EF03EF8014650460EF042F90DF068FED1
:10226000032502460B462D48009509F08DF82E48AF
:1022700004210AF033FAB8680DF05AFE00950246C0
:102280000B46264809F080F8284804210AF026FA6F
:10229000F8680DF04DFE009502460B461F4809F008
:1022A00073F8214804210AF019FAB968F8680DF0AA
:1022B00059FF17490EF060F80DF03AFE002602466D
:1022C0000B461648009609F05FF8022118480AF0FC
:1022D00005FA124809F036F80A2116480AF0FEF904
:1022E0003846FFF731FE0DF023FE009502460B46FF
:1022F0000A4809F049F8104801210AF0EFF90748A7
:1023000009F020F80127B2461EE000BFC47F01009B
:1023100000007A44007C0100A07C0100B487FF1F0C
:10232000AC7C0100B87C0100BC7C0100C47C0100D5
:10233000CC7C0100D07C0100DC7C010001373F2F08
:1023400004F18C0400F08C802046FEF769FC002824
:10235000F4D02046FEF7C6F92046FEF7C7F920461E
:10236000FEF7C8F92046FEF7C9F9082140480CF0ED
:102370002FFA4048394608F0DDFF092F73DD0221AE
:102380003D480CF025FA2046FEF73AFC0DF0D0FD52
:102390005FFA88F902460B463648CDF8009008F0FF
:1023A000F3FF364801210CF013FA0025564620E0D1
:1023B000062133480CF00CFA31462E4808F0BAFFDB
:1023C000022130480CF004FA29462046FEF76AFB49
:1023D0000DF0AEFDCDF8009002460B46254808F002
:1023E000D3FF0135254801210CF0F2F9062D07D065
:1023F0000136092EDCDC012123480CF0E9F9D7E78E
:10240000112122480CF0E4F900212046FEF7FAFBE6
:102410000DF08EFD022502460B461648009508F089
:10242000B3FF12211A480CF0D3F901212046FEF720
:10243000E9FB0DF07DFD009502460B460D4808F0C6
:10244000A3FF012113480CF0C3F90137094808F034
:1024500079FF3F2F0AF1060A04F18C047FF474AF70
:1024600019B0BDE8F08F012107480CF0B1F986E7FB
:10247000E07C01003888FF1FFC8B0100B87C010064
:10248000EC7C0100847D0100947D0100F47C01005E
:10249000087D0100DC7C01002DE9F04F00F1B4055E
:1024A00083B0894692469B462E46012704E00137B9
:1024B0003F2F06F18C067AD03046FEF7B1FB00289C
:1024C000F5D000230A2249467A4808F053FF01213B
:1024D00079480CF07DF950460DF02AFD0B4600219D
:1024E00002460091734808F04FFF012172480CF03A
:1024F0006FF959466F4808F01DFF01216E480CF036
:1025000067F939466B4808F015FF6B4801210CF05C
:102510005FF900244FF0020821463046FEF7C2FA68
:102520000DF006FDCDF8008002460B46614808F02C
:102530002BFF0134604801210CF04AF9082CEBD143
:1025400000213046FEF75EFB0DF0F2FCCDF8008076
:1025500002460B46574808F017FF012156480CF079
:1025600037F901213046FEF74DFB0DF0E1FCCDF8C7
:10257000008002460B464F4808F006FF01214E48F6
:102580000CF026F902213046FEF73CFB0DF0D0FCA2
:10259000CDF8008002460B46464808F0F5FE0137AC
:1025A000444808F0CFFE3F2F06F18C0684D1012667
:1025B0004FF0000804E001363F2E05F18C0575D080
:1025C0002846FEF72DFB0028F5D000230A224946B5
:1025D0003A4808F0CFFE384801210AF03FFD504646
:1025E0000DF0A6FCCDF8008002460B46334808F0FB
:1025F000CBFE314801210AF031FD59462F4808F041
:1026000099FE2D4801210AF029FD31462B4808F09A
:1026100091FE294801210AF021FD002402272146CC
:102620002846FEF73FFA0DF083FC009702460B4662
:10263000224808F0A9FE01341F4801210AF00EFDCE
:10264000082CECD100212846FEF7DCFA0DF070FCD6
:10265000009702460B46194808F096FE16480121DD
:102660000AF0FCFC01212846FEF7CCFA0DF060FCD4
:10267000009702460B46114808F086FE0E480121DD
:102680000AF0ECFC02212846FEF7BCFA0DF050FCE3
:10269000009702460B46094808F076FE01360748C7
:1026A00008F050FE3F2E05F18C0589D103B0BDE83E
:1026B000F08F00BF3888FF1F1C7D0100C887FF1FF7
:1026C000014B1870704700BF2087FF1F024B18781E
:1026D000B0FA80F0400970472087FF1F0278002A77
:1026E00000F0B78030B5034685B00D46252A38D1B5
:1026F000587800283DD0A0F12502D1B2552903F128
:10270000010430D8552A2ED8DFE802F09F2D2D2D58
:102710002D2D2D2D2D2D2D2D2D2D2D2D2D2D2D2DE9
:102720002D2D2D2D2D2D2D2D2D932D2D2D2D2D2D73
:102730002D2D2D2D2D2D2D2D2D2D2D882D2D2D7C1F
:102740002D2D2D2D2D2D2D2D2D7439392D5E2D2D29
:10275000392D2D392D2D2D2D2D2D493F2D2D2D563A
:102760002D6918781C460CF0DBF86278631C002A8F
:10277000BCD1394805B0BDE8304008F0E3BD55F89C
:10278000041B354808F0D6FDEFE755F8041B012976
:102790000EBF3248324801210CF01AF8E5E755F82F
:1027A000043B002BE1D0184603930EF009FF0146CD
:1027B00003980CF00DF8D8E755F8041B26480023C1
:1027C000102208F0D7FDD0E7073525F007050321D3
:1027D000F5E802232048009108F0D6FDC5E707354B
:1027E00025F007050021F5E802231B48009108F0B9
:1027F000CBFDBAE755F8041B17480023022208F066
:10280000B9FDB2E7022117480BF0E2FF55F8041BAF
:1028100011480023102208F0ADFDA6E755F8043B4F
:10282000012B0BBF10481148042105210BF0D0FFEC
:102830009BE702210E480BF0CBFF55F8041B06481E
:102840000023022208F096FD8FE725200CF068F89F
:102850008BE7014808F076BD3888FF1F287D01000E
:102860002C7D0100207D0100307D0100387D0100BC
:10287000247D01000FB400B583B004A951F8040B06
:102880000191FFF72BFF03B05DF804EB04B0704734
:1028900070B5DFF878C01E4BDCF800C082B004468B
:1028A000CDF804C0DDF804C0C3F800C00D461646DC
:1028B000614600230A22174808F05CFD03211648F0
:1028C0000BF086FF032C07D8DFE804F01B1602117B
:1028D000124807210BF07CFF022111480BF078FF12
:1028E0003146284602B0BDE87040FFF7F7BE05212B
:1028F0000C480BF06DFFEFE704210B480BF068FF6D
:10290000EAE7052109480BF063FFE5E73CB9FF1F43
:102910009891FF1F3888FF1FDC7A0100507D01006D
:10292000847D0100587D0100487D0100407D01004B
:102930000FB400B5064B187883B020B905AA0499E6
:102940000192FFF7A5FF03B05DF804EB04B07047F8
:102950002087FF1F0FB4084B00B51B78012B83B0F5
:1029600005D805AA049901920120FFF791FF03B051
:102970005DF804EB04B070472087FF1F0FB4084BCD
:1029800000B51B78032B83B005D805AA04990192E2
:102990000320FFF77DFF03B05DF804EB04B0704740
:1029A0002087FF1F10B4074C0749084A00232370F3
:1029B000036510BC4365836580F85C300B60136071
:1029C000704700BFA491FF1FA091FF1F9C91FF1FA4
:1029D0002DE9F84F9B4F9C4C9C4E3B78B4F86620F9
:1029E0003280002B40F0C080B4F86030984D994898
:1029F0002B80FFF709FB216B0DF05CFE08B1002373
:102A00002B809448FFF7FEFAE16A0DF071FE10B1D9
:102A1000002333802B808F48FFF772FAE1680DF0B6
:102A200067FE08B100232B808A48FFF769FAE16846
:102A30000DF05EFE08B100232B808648FFF75EFA9A
:102A400021690DF037FE002800F0918000233380CB
:102A50002B88002B00F086803B787E48002B30D1FD
:102A6000FFF7D2FA616B0DF025FE002840F02681B9
:102A7000794B78481B68012B00F00881FFF740FA7A
:102A8000216A0646A0690DF06DFB014630460DF047
:102A90002FFE002866D028880DF01AFC82466D486B
:102AA000FFF72EFAA7698146216A38460DF05AFBD6
:102AB0008046B4F864000DF007FC0646B4F86000E8
:102AC0002FE0FFF7A1FA616B0DF0F4FD002840F054
:102AD0002481614B5F481B68012B00F0BF80FFF72A
:102AE0000FFA216A0646A0690DF03CFB014630460C
:102AF0000DF0FEFD002835D028880DF0E9FB824658
:102B00005448FFF7FDF9A7698146216A38460DF060
:102B100029FB8046B4F864000DF0D6FB0646B4F8F5
:102B200062000DF0D1FB31460DF01CFB414604461E
:102B300048460DF017FB014620460DF01DFC4146AE
:102B4000044638460DF00EFB014620460DF0C8FC49
:102B500031460DF009FB014650460DF003FB0DF028
:102B60000DFE2880BDE8F88FB4F862303EE73948A2
:102B7000FFF7C4F9E1690DF09DFD00287FF466AF11
:102B80003388002B3FF464AF3248FFF73BFAA16B68
:102B90000DF0AEFD002840F0EF802E48FFF7AEF9B3
:102BA00021690DF0A5FD002843D02A48FFF7A6F9BA
:102BB000D4F8C4108046E0690DF0D6FA01464046CC
:102BC0000DF078FD00283FF443AF30880DF080FB16
:102BD00083462048FFF792F98246B4F86600D4F89D
:102BE0001C800DF071FB4146814650460DF0BAFA4B
:102BF0004946824600200DF0B5FA014650460DF0D8
:102C0000BBFBD4F8C410824640460DF0ADFA4146F5
:102C10000DF0A8FA014650460DF062FC49460DF051
:102C2000A3FA014658460DF09DFA0DF0A7FD30803D
:102C30000EE70848FFF762F9E1690DF059FD002839
:102C4000B3D105E71492FF1F3893FF1FEC92FF1FCB
:102C5000EE92FF1F6C94FF1FF891FF1FFFF750F9D2
:102C6000216A0646606A0DF07DFA014630460DF095
:102C70003FFD00283FF476AF28880DF029FB8246FF
:102C80005348FFF73DF9676A81463EE7FFF738F999
:102C9000216A0646606A0DF065FA014630460DF07D
:102CA00027FD00283FF45EAF28880DF011FB824617
:102CB0004748FFF725F9676A8146F5E628880DF051
:102CC00007FB81464248FFF79FF98046B4F8600051
:102CD000276B0DF0F9FA3946064640460DF042FAE8
:102CE0003146804600200DF03DFA014640460DF089
:102CF00043FB39468046606B0DF034FA014640468E
:102D00000DF0EEFB31460DF02FFA014648460DF06E
:102D100029FA0DF033FD2880AAE628880DF0D8FAAC
:102D200081462B48FFF770F98046B4F86200276BA4
:102D30000DF0CAFA3946064640460DF013FA314600
:102D4000804600200DF00EFA014640460DF014FBBF
:102D500039468046606B0DF005FA014640460DF09D
:102D6000BFFB31460DF000FA014648460DF0FAF976
:102D70000DF004FD2880ACE630880DF0A9FA8346FA
:102D80001348FFF73FF98246B4F86600D4F838805C
:102D90000DF09AFA4146814650460DF0E3F901469E
:102DA00048460DF0E9FA41468146E06A0DF0DAF94D
:102DB000014648460DF094FB00210DF0D5F901467F
:102DC00058460DF0CFF90DF0D9FC3080E5E600BF94
:102DD0006C94FF1FDDF800C0521AACEB030C1CD042
:102DE000401ABCF1000F0CFB00F002EBD27109DBC2
:102DF00000EB610000FB02F1002990FBF2F01844A7
:102E000010DB7047A0EB610000FB02F1002990FB92
:102E1000F2F01844F5DB013070470CEBDC7C03EB7F
:102E20006C0070470138704710B5044682B049B154
:102E3000084601910EF0C4FB236801995B680246C5
:102E400020469847204602B0BDE8104008F07ABA04
:102E50002DE9F0414648474C474F484EFFF70AFDE1
:102E6000474B48485C60484CDC60484C1C61484C0F
:102E70009C61484C9C62484CDC61484CDC62484C8C
:102E80001C63484CC3F8CC40C3F8D04000245C63BA
:102E9000454C9C63454CDC634FF07C549C64444C33
:102EA000DC6440F20128434C1C65A3F80880424CC6
:102EB0005C624FF00C08414CC3F8548040F61C484B
:102EC000C3F8C440C3F868803D4C18624FF00A084C
:102ED000002232214FF40575586118644FF0640EDA
:102EE00001201C66C3F86C80364C1D8041F204083A
:102EF00083F84420C3F8A41098655C66C3F85CE0CE
:102F0000314CC3F87080C3F88C10C3F8AC10FF21AB
:102F10004FF0020C2D4DC3F8C0409A67C3F88000F3
:102F2000C3F8B400C3F88420C3F8B010C3F8A820D5
:102F300083F8C92083F8CA205A2441F288304FF41C
:102F40007A7144F62062C3F89470C3F89860C3F8AD
:102F5000A050C3F8BCE0C3F87CC0C3F8B8C05C673D
:102F6000C3F88800C3F89010C3F89C20BDE8F08136
:102F7000607D010020A107000000114400F0C84559
:102F80003893FF1FCDCC4C3E666686400000404023
:102F900033338340CDCCCC3DCDCC4C40000082427D
:102FA000000020C158028813000020420000A04009
:102FB0009A9979400AD7233D333373409A99993EC1
:102FC0002C01960032002C0188130500D606D60687
:102FD00070B5444D444C4548E66800232B70FEF71D
:102FE0008FFF014630460DF065FB08B104232B70BE
:102FF0003E48FEF783FF21690DF05CFB18B12B788A
:1030000043F010032B703948FEF7FCFFE16A0DF026
:103010006FFB18B12B7843F040032B70002333482B
:103020006B70FEF7F1FF216B0DF044FB08B101233B
:103030006B7000232D48EB70FEF762FF06462B48AD
:10304000FEF75CFF014630460DF08CF8216C0DF068
:103050004FFB08B10123EB70254D244800232B7052
:10306000FEF74EFFA16A0646E0680DF07BF80146C8
:1030700030460DF03DFB08B104232B701B48FEF7D2
:103080003DFFA16A064620690DF06EF80146304604
:103090000DF010FB18B12B7843F010032B70134880
:1030A000FEF7B0FFE16B0646E06A0DF05BF8014603
:1030B00030460DF01DFB18B12B7843F040032B7008
:1030C00000230A486B70FEF79FFFE16B0646206BFA
:1030D0000DF04AF8014630460DF0ECFA08B1012334
:1030E0006B7070BDE892FF1F3893FF1F6C94FF1F39
:1030F000E492FF1F2DE9F043A44C2368012B85B017
:1031000048D0022B79D0032B03D033B305B0BDE8F0
:10311000F0839F4A9F4B4FF47A711160D3F8AC0053
:103120000DF0D6F89B4B0546D3F8B0000DF0D0F863
:1031300029460DF017F898490DF01EF996490DF043
:10314000CFF929460DF010F80DF0F2FA01460620ED
:1031500008F0F2FD2368002BD8D18E4B8F48D3F8AE
:10316000AC10D3F8B02003688D48521A002A02FB35
:1031700003F367DB323380FB0320DA17C2EB601204
:10318000002B1144C0F2FF80062005B0BDE8F043DB
:1031900008F0D2BD7E4B1B680A33B3F57A7F4EDC54
:1031A000184603930DF094F87E490DF0E5F8039B63
:1031B0000746774A774D1360D5F8AC000DF088F8D4
:1031C0000646D5F8B0000DF083F831460CF0CAFF82
:1031D00039460DF0D1F870490DF082F931460CF006
:1031E000C3FF0DF0A5FA0146062008F0A5FD6E4BC1
:1031F0001B6893BB2368022B85D1654A654B002170
:103200001160D3F8AC000DF063F8624B0546D3F8BB
:10321000B0000DF05DF829460CF0A4FF00210DF080
:10322000ABF85D490DF05CF929460CF09DFF0DF0FF
:103230007FFA0146062008F07FFD236863E7002738
:103240000023B6E7323B80FB0320DA17C2EB6012A3
:10325000002B114498DB013196E7022153484C4D75
:103260004C4F0BF0B5FA524808F06CF80621514863
:103270000BF0AEFA28680DF02BF84A490DF07CF8F7
:103280000CF056FE022602460B460096484808F00F
:103290007BF80D2148480BF09BFAD7F8AC000DF0F5
:1032A00017F8804628680DF013F83E490DF064F8D1
:1032B0008146D7F8B0000DF00BF841460CF052FFF4
:1032C000014648460DF058F833490DF009F94146DA
:1032D0000CF04AFF0CF02CFE009602460B463448D8
:1032E00008F052F8314631480BF072FA304808F0D5
:1032F00029F831462D4809F0F1F9304808F022F854
:1033000006212C4809F0EAF928680CF0E1FF25496C
:103310000DF032F80CF00CFE009602460B462748E2
:1033200008F032F80D21244809F0D8F9D7F8AC009C
:103330000CF0CEFF804628680CF0CAFF19490DF04A
:103340001BF80546D7F8B0000CF0C2FF41460CF060
:1033500009FF014628460DF00FF80F490DF0C0F89F
:1033600041460CF001FF0CF0E3FD009602460B46CF
:10337000124808F009F80D48314609F0AFF90F4836
:1033800007F0E0FF36E70139FEE600BFE091FF1FDE
:103390002092FF1F3893FF1F0000C8424087FF1F85
:1033A0001F85EB51CDCCCC3D2887FF1FFC8B010046
:1033B0003888FF1F807D0100887D0100B487FF1FD2
:1033C00030B51C481C4C83B007F0BCFF194807F00F
:1033D000B9FF184807F0B6FF0D2118480BF0F8F9AF
:1033E000174807F0AFFF164807F0ACFF144807F086
:1033F000A9FF12480D2109F071F9D4F8A830012B6A
:1034000022D0104D0B48297800230A2207F0B2FF82
:1034100000230B4829780A2207F0ACFF2B78052BF4
:103420005ED8DFE813F04802510224022D02360272
:103430003F0200BF3888FF1F3893FF1F987D0100AF
:10344000B487FF1F1493FF1F0921BF480BF0C0F979
:103450000921BD4809F042F9BC48FEF74FFD21693A
:103460000DF028F9002840F08382B848FEF748FDA7
:10347000E1680DF03DF9002840F07182B348FEF795
:103480003FFD0546B148FEF739FD014628460CF0E0
:1034900069FE216C0DF02CF9002840F05782AB48F2
:1034A000FEF752FDE16A0DF023F9002840F0458255
:1034B000A648FEF749FD216B0DF0FCF8002840F00E
:1034C0003382A34BA1481B68012B00F01C82FEF73E
:1034D00015FD21690DF00CF9002840F0FE819D4D8D
:1034E0009D4802210BF074F99B48022109F0F6F87F
:1034F000122008F0C9FD012800F08E81112008F08B
:10350000C3FD012800F09681944B1B68012B00F04D
:103510009E8102219048924C0BF05AF9914B9248AF
:10352000196807F007FF904807F00CFF04218F4847
:103530000BF04EF90B2008F0A7FD002301460A22EC
:10354000894807F017FF0C2008F09EFD0023014674
:103550000A22854807F00EFF142008F095FD00238D
:1035600001460A22804807F005FF152008F08CFD6F
:1035700000230A2201467C4807F0FCFE06217C4815
:103580000BF026F97B4807F0DDFE0421774809F0AF
:10359000A5F80B2008F078FD002301460A227548A3
:1035A00007F0E8FE0C2008F06FFD002301460A2218
:1035B000704807F0DFFE142008F066FD0023014686
:1035C0000A226C4807F0D6FE152008F05DFD0023A6
:1035D00001460A22674807F0CDFE6548062109F03A
:1035E0007DF82368D80700F1D980012162480BF0EB
:1035F000EFF80121604809F071F82368990740F15C
:10360000D98001215D480BF0E3F85C48012109F005
:1036100065F823685A0740F1D980012157480BF01B
:10362000D7F85648012109F059F823681B0740F1E3
:10363000D980012151480BF0CBF85048012109F005
:103640004DF804214E480BF0C3F8112008F01CFD82
:10365000002301460A22444807F08CFE102008F09F
:1036600013FD002301460A223F4807F083FE122083
:1036700008F00AFD002301460A223B4807F07AFEC3
:10368000132008F001FD00230A220146364807F006
:1036900071FE04213A4809F021F8112008F0F4FCE9
:1036A000002301460A22334807F064FE102008F088
:1036B000EBFC002301460A222E4807F05BFE122095
:1036C00008F0E2FC002301460A222A4807F052FED5
:1036D000132008F0D9FC0A2201460023254807F0F0
:1036E00049FE244807F02EFE182126480BF070F8FA
:1036F000254B18880CF0ECFD24490CF03DFE0CF035
:1037000017FC002402460B461748009407F03CFEC5
:103710001F211F480BF05CF81E4B18880CF0D8FDD9
:103720001A490CF029FE0CF003FC00940B460246EB
:103730000D4807F029FE184802210BF049F82B78B4
:10374000032B58D003B030BDA87D01006C94FF1F3F
:10375000F891FF1F1493FF1FFC8B0100D091FF1FF6
:103760000893FF1FF491FF1F3888FF1FA07E010000
:10377000A87E0100B487FF1FB47E0100B07E010067
:10378000B87E0100C07E0100EE92FF1FCDCCCC3D83
:10379000DC7E0100EC92FF1FFC7E010001218248CB
:1037A0000BF016F80121804808F098FF236899076C
:1037B0003FF527AF01217D480BF00AF87B48012136
:1037C00008F08CFF23685A073FF527AF012177489F
:1037D0000AF0FEFF7548012108F080FF23681B07EF
:1037E0003FF527AF012171480AF0F2FF6F48012130
:1037F00008F074FF25E76E4B1B788BB31E216D48D4
:103800000AF0E6FF6C481B2108F068FF6B4803B024
:10381000BDE8304007F096BD0E2169480AF0D8FF98
:1038200067480E2108F05AFF112008F02DFC0128EE
:103830007FF46AAE0A2163480AF0CAFF61480A2190
:1038400008F04CFF604B1B68012B7FF462AE122125
:103850005E480AF0BDFF5D48122108F03FFF58E6C0
:1038600020215B480AF0B4FF5A481D21CCE707210C
:1038700059480AF0ADFF5848072108F02FFF2FE6FE
:10388000082156480AF0A4FF5448082108F026FFF2
:1038900026E60B2152480AF09BFF51480B2108F005
:1038A0001DFF1DE607214F480AF092FF4D480721F2
:1038B00008F014FF14E606214B480AF089FF4A4835
:1038C000062108F00BFF0BE6072148480AF080FFAD
:1038D0004648072108F002FF02E64548454DFEF73D
:1038E0000FFBE1680CF0E6FE00283FF4F9AD2B7801
:1038F000052B10D10A2140480AF06AFF3E480A21F0
:1039000008F0ECFEECE5FEF7F9FA616A0CF0F0FE67
:10391000002836D1374D394808210AF059FF374879
:10392000082108F0DBFEDBE50D2135480AF050FFE9
:1039300033480D2108F0D2FEC3E50C2131480AF0CE
:1039400047FF30480C2108F0C9FEB1E511212E488F
:103950000AF03EFF2C48112108F0C0FE9FE50E2121
:103960002A480AF035FF29480E2108F0B7FE85E500
:103970000F2127480AF02CFF25480F2108F0AEFE42
:1039800073E5162123481B4D0AF022FF0A211A482D
:103990000AF01EFF1F48162108F0A0FE16480A2153
:1039A00008F09CFE9CE500BFB07E0100B47E0100E3
:1039B0001492FF1F447F0100647F0100B487FF1F42
:1039C000707E0100807E0100D091FF1F8C7E01007F
:1039D000007F0100247F0100547E01005C7E010015
:1039E000487E0100687E0100387E0100407E0100B3
:1039F0006C94FF1F1493FF1F207E01002C7E01009A
:103A0000F87D0100E87D0100D47D0100C47D010046
:103A1000B47D0100087E01002DE9F04FBD4CD4F8C3
:103A20007CA0BAF1010F8FB000F0CE81BAF1030F84
:103A30005AD0DFF8E482B94FB94EA36F3168B94864
:103A4000012B04BF01F10041316007F097F93B6899
:103A5000002B40F08781B34807F05CF93B68C8F859
:103A600000000546002B40F03681E36F012B00F08B
:103A7000F680AD4928460CF03BFE30B9AB492846EC
:103A80000CF018FE002800F07782DFF8A492A94F0E
:103A9000D9F800300C930C983B68DFF89CA2C01A50
:103AA0000CF012FC29460CF067FCA4490CF018FD40
:103AB000A2490CF015FDDAF800100CF055FBD9F80E
:103AC00000300B930B9BCAF800003B60D4F8B400A5
:103AD0000CF0FEFB29460CF04FFC0023C8F8000058
:103AE00033600FB0BDE8F08FDFF85492954DD9F8F0
:103AF0000020DFF82482D2F8840001230F212B60FC
:103B000006F0C6FB2B68854F012B3A6800F08C81CC
:103B1000002A40F04582D9F80030DFF82CA2D3F813
:103B20008400436B1D69ADB2CAF8005006F094F8EA
:103B300040F6E44303FB05F5B4F8A230B5FBF0F51D
:103B4000E81A00B20CF0C4FB8049754E0546D4F863
:103B500094000CF011FC014628460CF0C1FCDAF888
:103B600000303060632B00F30E82002333603B682B
:103B7000002B3FF462AF022175480AF029FED9F804
:103B80000030D3F88400DAF8003040F6E44B0BFB49
:103B900003F506F061F8B5FBF0F00CF095FB054677
:103BA000B4F8A2000CF094FB014628460CF0DAFAB7
:103BB0000CF0BEF9022502460B460095654807F059
:103BC000E3FB294662480AF003FE30680CF0B0F9C6
:103BD000009502460B465F4807F0D6FB29465E4833
:103BE0000AF0F6FD29465A480AF0F2FD29465848DF
:103BF00008F074FDD9F80020DAF80030D2F884001B
:103C00000BFB03F906F028F8B9FBF0F00CF05CFBB5
:103C10008146B4F8A2000CF05BFB014648460CF06C
:103C2000A1FA0CF085F9009502460B464B4807F0C7
:103C3000ABFB2946464808F051FD30680CF078F996
:103C4000009502460B46454807F09EFB2946424830
:103C500008F044FD3E48294608F040FDEDE6394BAA
:103C60001B68012B00F01A82022B7FF42FAFD4F8CF
:103C70009C7038460CF02CFB29460CF01BFD40B91B
:103C800078420CF025FB29460CF032FD002800F0AC
:103C90009A82DFF89CA0DFF89C90DAF80030099354
:103CA0000998D9F80030244FC01A0CF00DFB2946B2
:103CB0000CF062FB21490CF013FC20490CF010FCC5
:103CC00039680CF051FADAF800300893089B386034
:103CD000C9F80030FAE60CF02BF9022502460B4633
:103CE00000951C4807F050FB04211D480AF070FDA8
:103CF000D8F800000CF01CF9009502460B46174856
:103D000007F042FB1648042108F0E8FCD8F8005000
:103D1000ABE600BF3893FF1F4492FF1FDC91FF1FEB
:103D20004092FF1F1893FF1F0000FA430000FAC3E0
:103D30003CB9FF1F3892FF1F3C92FF1F00007A44DE
:103D4000CC91FF1F4487FF1F4892FF1FACC5273748
:103D5000FC8B01003888FF1FBC7F0100B487FF1F68
:103D6000C07F0100BC4806F0D5FF0CF0E1F8022549
:103D700002460B460095B94807F006FB0321B848F8
:103D80000AF026FDD4F89C10B44807F0D3FA0321BA
:103D9000B3480AF01DFDB04806F0BCFF0CF0C8F8AF
:103DA000009502460B46AF4807F0EEFAAC480321F7
:103DB00008F094FCD4F89C10AA4807F0BBFAA84875
:103DC000032108F08BFC46E6DFF89C82DFF89C922A
:103DD000D4F89C50D9F80030D8F80060D3F884703B
:103DE00028460CF075FA31460CF082FC78B1684236
:103DF0000CF06EFA014630460CF07AFC38B19C4D5E
:103E000038460F21C5F800A006F042FA7AE6984D30
:103E1000022338460E212B6006F03AFA2B68954FA4
:103E2000012B3A687FF474AE002A40F06581D9F81E
:103E30000030DFF844A2D3F88400436B1D69ADB2B3
:103E4000CAF8005005F008FFB4F8A0308B4E40F6D9
:103E5000E44202FB05F5B5FBF0F5E81A00B20CF000
:103E600037FA87490546D4F898000CF085FA0146E0
:103E700028460CF035FBD9F800303060D3F88400C8
:103E8000DAF8003040F6E44202FB03F505F0E4FE08
:103E9000B4F8A020B5FBF0F31BB29B1A002BB4F8CA
:103EA000C220B8BF5B429342BCBF002333603B6873
:103EB000002B3FF4C2AD022172480AF089FCD9F808
:103EC0000030D3F88400DAF8003040F6E44505FB12
:103ED00003F3039305F0C0FEB4F8A010039BB3FBFB
:103EE000F0F31BB2591A5D4807F024FA0221654825
:103EF0000AF06EFC30680CF01BF84FF0020B024623
:103F00000B46CDF800B0554807F03EFA03215E4855
:103F10000AF05EFC59465B480AF05AFC594659487B
:103F200008F0DCFBD9F80020DAF80030D2F8840081
:103F300003FB05F505F090FEB4F8A010B5FBF0F515
:103F40002DB2691A474807F0F5F959464D4808F06F
:103F5000C5FB30680BF0ECFFCDF800B002460B4615
:103F6000404807F011FA4848032108F0B7FB4548DC
:103F7000594608F0B3FB60E5444B1B680D93444B76
:103F80000D9A1A60A2E5D9F80030D3F8840005F044
:103F900063FEDAF8003064389842FFF4E6ADE6E5F7
:103FA0002E48DFF8D4A007F0CDF90C2139480AF0EB
:103FB0000FFC0C2138480AF00BFC2A4807F0C2F924
:103FC00034480C2108F08AFB33480C2108F086FBAA
:103FD000D9F800203B68D2F88400426B1569ADB275
:103FE000CAF80050002B3FF4A1AD05F035FE40F6B5
:103FF000E4460A22002306FB05F1B1FBF0F1174865
:1040000007F0B8F902211F480AF0E2FBB4F8A21049
:10401000124807F08FF9D9F80030DAF80010D3F819
:10402000840001FB06F605F017FE00230A22B6FB0A
:10403000F0F10C4807F09EF91248022108F04EFBFF
:104040000848B4F8A21007F075F9D9F80030DAF88A
:104050000050D3F8840069E51893FF1F3888FF1FCC
:10406000E07A0100B487FF1F4492FF1FCC91FF1F2D
:104070004487FF1FDC91FF1F4892FF1F4092FF1FE4
:10408000ACC52737FC8B0100A87F01003CB9FF1F9E
:104090003892FF1FAC7F0100987F010051492846EC
:1040A0000CF026FB30B9504928460CF003FB0028E1
:1040B00000F08280DFF834A1DFF83491DAF80030C4
:1040C00006930698D9F800304A4FC01A0CF0FCF855
:1040D00029460CF051F948490CF002FA46490CF017
:1040E000FFF939680CF040F8DAF800300593059BC9
:1040F0003860C9F80030E9E4404807F023F9404847
:1041000007F020F9E36F012B4FF00B0162D03D481F
:104110000AF05EFB3B480B2108F0E0FA0C213A481C
:10412000DFF8E8A00AF054FB37480C2108F0D6FA73
:10413000D9F800203B68D2F88400426B1569ADB213
:10414000CAF80050002B3FF47DAE05F085FD40F627
:10415000E4460A22002306FB05F1B1FBF0F12748F3
:1041600007F008F901212A480AF032FBB4F8A01040
:10417000224807F0DFF8D9F80030DAF80010D3F859
:10418000840001FB06F605F067FD00230A22B6FB5A
:10419000F0F11B4807F0EEF81D48012108F09EFAE7
:1041A0001748B4F8A01007F0C5F8D9F80030DAF8CD
:1041B0000050D3F8840045E60C4B1B6807930C4B6A
:1041C000079A1A6082E4094B1B680A93084B0A9A03
:1041D0001A607BE40F480AF0FBFA0E480B2108F046
:1041E0007DFA9BE70000FA430000FAC33CB9FF1FC9
:1041F0003892FF1F3C92FF1F00007A443888FF1F4F
:10420000B487FF1F8C7F0100987F01004892FF1F39
:10421000947D0100807F01002DE9F043DFF89C824E
:10422000D8F8003085B0002B00F0A680A44CA54D36
:10423000D4F88430A44EA54F012B00F0CD80D7F8E0
:104240000080E36DD4F8589009FB03F34FF47A70C3
:1042500003FB00F00CF03CF89D49814640460CF011
:104260008BF849460CF03CF99A490CF085F80CF0B3
:104270005FFA632828607ADD954948460CF030F9EA
:10428000642338602B603368002B6DD0E36F012B03
:1042900000F0CA80032B00F0D780022B00F0E080F2
:1042A0008D4E8E4802210AF093FA30680BF040FEE2
:1042B000022402460B460094894807F065F821461F
:1042C00088480AF085FA214684480AF081FA29686C
:1042D000834807F02FF8062183480AF079FA3868F6
:1042E0007B490CF049F80BF023FE009402460B4684
:1042F0007B4807F049F803217C480AF069FA7848BE
:1043000007F020F82146754808F0E8F930680BF00E
:104310000FFE009402460B46754807F035F821461B
:10432000704808F0DBF9724807F00CF8296870480B
:1043300007F000F86C48062108F0D0F938686449A5
:104340000CF01AF80BF0F4FD009402460B46684896
:1043500007F01AF86548032108F0C0F9644805B071
:10436000BDE8F04306F0EEBF05B0BDE8F0830028DD
:10437000BCBF00232B6086E75E48514C524EFDF7D0
:1043800045FE5D49E76E0BF0F7FF0CF0F7F9656F3E
:10439000226FA16E00953B4680B2FEF71BFD494D92
:1043A00033682860002B64D1E36D484F03FB00F0B5
:1043B000A36D03FB00F000EB800040000BF088FFD2
:1043C00043490CF08DF80123C8F80030D4F884304C
:1043D0003860012B7FF433AF4648FDF717FEE36EDC
:1043E000454903930BF0C8FF0CF0C8F9D4F874C02A
:1043F000226FA16E039BCDF800C080B2FEF7EAFCED
:10440000E36DD4F85890039303FB00F009FB00F030
:1044100000EB800040000BF05BFF2D490CF060F8D2
:10442000039B386080460FE7344B1B68012B3AD062
:104430000A2133480AF0CCF931480A2108F04EF934
:10444000E36F032B7FF429AF10212E480AF0C0F947
:104450002C48102108F042F9E36F022B7FF420AFC3
:10446000072129480AF0B4F92748072108F036F94E
:1044700016E7022119480AF0ABF92968184806F036
:1044800059FF022115480AF0A3F91448022108F047
:1044900025F92968164806F04DFF1048022108F05A
:1044A0001DF9286880E70A2118480AF091F9174891
:1044B0000A2108F013F9E36FECE600BF2492FF1F16
:1044C0003893FF1F4087FF1F2887FF1F3C92FF1F65
:1044D000E4388E3E0000C8424492FF1FFC8B01006E
:1044E0003888FF1FBC7F0100FC7F010004800100B1
:1044F000B487FF1F6C94FF1F00007A444487FF1F9E
:10450000D47F0100E07F0100F47F0100C87F01003B
:1045100000B5112083B007F0B7FD012804D01220A8
:1045200007F0B2FD012822D10121152007F08AFDF4
:104530002D4B2E492E4A1B6808680193D2F888300B
:1045400003442C480221016001998B4208D8D2F81B
:1045500090000BF0BDFE284B19680CF0ABF8D0B101
:1045600001210C2003B05DF804EB07F06BBD0021C6
:104570000B2007F067FD00210C2007F063FD0021F0
:10458000152007F05FFD1D491A4B0120002208701D
:104590001A6003B000BD01210B2007F053FD144A3F
:1045A000144992F8C8200323012A0B6016D0122068
:1045B00007F06AFD012808BF104A4FF003034FF0CF
:1045C000110008BF137007F05FFD012806D000211D
:1045D0000C2003B05DF804EB07F034BD074B02225A
:1045E0001A700021F4E700BF3CB9FF1FF892FF1FCB
:1045F0003893FF1F0C93FF1F4492FF1F1493FF1F5C
:1046000010B56D4A6D4C116823688B4284B034D06C
:1046100013F0010039D098070ED401F0FD011160AC
:1046200059070BD51168C80767D5990703F004002F
:104630004CD4A0B904B010BD58073ED400210520C9
:1046400007F07AFB5C4A2168136803F0FB031360F0
:10465000CB0750D48B0701F0040037D468B1116840
:104660004B07E7D4564B1B68002B56D055490968B9
:1046700003910399994262D821680029DAD1162062
:1046800004B0BDE8104007F057BB0146162007F004
:1046900053FB494A2368106813F0020F00F0FE0133
:1046A000116020D05807C9D513F00100BAD1464B8C
:1046B00041F0020111601860D2E7CB071DD5424BD3
:1046C00041F00201002011601860C9E711683E4BFB
:1046D00041F002014FF0000C1160C3F800C0002847
:1046E000BED104B010BD00F0FC0010605807A5D585
:1046F000D907B4D596E70B4694E7344B1B68002BDB
:104700003FD03049096801910199994229D821681F
:104710008B0701F00400A1D5D8E72D4B1B68002BB7
:104720003ED1FF21052007F007FB264929480B68E9
:104730000293029B0068224A0344136097E7264BCA
:104740000520D3F88C1007F0F7FA1B4A216813688C
:1047500043F0040313601A4B0020186000298ED028
:1047600068E71D4B1620D3F88C1007F0E5FA124AC3
:1047700016481368002143F00103016013602168AB
:1047800068E7FF21162007F0D7FA0E4911480B6899
:104790000093009B00680D4A03441360064AB1E78A
:1047A0000E4806F0CFFD0C210D480AF011F80B4819
:1047B00006F0C8FDB5E700BF0893FF1F0C93FF1F6D
:1047C000FC92FF1F3CB9FF1F0093FF1F0493FF1FC4
:1047D0002887FF1F6887FF1F3893FF1F3888FF1F38
:1047E000088001002DE9F0476A4EDFF8AC8133689C
:1047F0006A4FD3F884006A4D0F2105F049FD00236C
:10480000012222216748C8F800303A6009F0E0FF31
:104810006448222107F062FFD8F80030132BD8BF7C
:1048200040F6E44923DC3368B5F8A0A0D3F884004F
:10483000436B1C6905F010FAA4B2034601215A48E3
:1048400009FB04F4B4FBF3F4A244A5F8A0A009F01A
:10485000BFFF5548012107F041FF642007F07CFCB1
:10486000D8F800300133132BC8F80030DBDDB5F881
:10487000A0304E494E48A1FB03215B1A01EB5301C6
:10488000C1F30F11A5F8A01006F054FD1D214948F1
:1048900009F09EFF0221484809F09AFF444806F0BB
:1048A00051FDB5F8A010454806F044FD41481D21D2
:1048B00007F014FF0221404807F010FF3F4806F0C0
:1048C00041FD0023C8F8003033680E21D3F884007E
:1048D00005F0DEFC0223222132483B6009F078FF1C
:1048E0003048222107F0FAFED8F80030132B25DCDF
:1048F00040F6E4473368B5F8A290D3F88400436BE0
:104900001C6905F0A9F9A4B203460121264807FB5A
:1049100004F4B4FBF3F4A144A5F8A29009F058FF05
:104920002148012107F0DAFE642007F015FCD8F8D1
:1049300000300133132BC8F80030DBDDB5F8A230AE
:104940001A491B48A1FB03215B1A01EB5301C1F378
:104950000F11A5F8A21006F0EDFC1D21184809F072
:1049600037FF0221144809F033FF114806F0EAFC32
:10497000B5F8A210114806F0DDFC11481D2107F022
:10498000ADFE0D48022107F0A9FEBDE8F0470B4837
:1049900006F0D8BCCC91FF1FFC91FF1F4487FF1F7E
:1049A0003893FF1F188001003C8001008761188642
:1049B0003888FF1F40800100FC8B0100B487FF1F77
:1049C000608001002DE9F843BA4CBB4D082340F24A
:1049D0005132E371686D22600BF07AFCB74B1B68B3
:1049E0000646002B40F03281A9690BF0C5FCB449A2
:1049F0000BF0C2FC0BF0C2FEB24BE9691F88B24B50
:104A00001FFA80F9C0F3072830461E880BF0B4FC6B
:104A1000AB490BF0B1FC0BF0B1FE002369F30703C7
:104A200068F30F2367F317433F0A67F31F63A3601D
:104A3000002366F30703360A80B266F30F2360F3A0
:104A40001743000A60F31F639A49A048E36005F02A
:104A50003FFF9F4A9D4813681288228103EB83031E
:104A60009C4A082640F255315B001288216023736E
:104A700090496281334100276373E671E78105F055
:104A800027FF40F2563394482360E671FDF73AFA67
:104A900092490BF071FC0BF071FE20728E48FDF70D
:104AA00031FA8E490BF068FC0BF068FE8C4B8B4999
:104AB000F040607218680BF013FD0BF039FE608156
:104AC0008548FDF741FA7E490BF056FC0BF030FEAD
:104AD00020738148FDF738FA79490BF04DFC0BF053
:104AE00027FE3041734960737848E78105F0F0FE96
:104AF000022007F031FB7B4A7B4B12681B6873482E
:104B0000A26040F25A3121606A49E360E67105F023
:104B1000DFFE764B67496D48E67140F25E322260F7
:104B2000D3E90023A260E36005F0D2FE022007F083
:104B300013FB6F4B5F496548E6714FF45C7222606E
:104B4000D3E90023E360A26005F0C2FE694B1B6855
:104B5000012B7DD0022007F0FFFA4FF08173A36094
:104B6000B5F85C30A381082640F2991340F2733700
:104B70000220E3812760E67107F0EEFA56482760CD
:104B8000E671FDF7BBF95C490BF0F6FB0BF0F6FDA7
:104B900020725148FDF7B2F957490BF0EDFB0BF0CD
:104BA000EDFD20FA06F34C486372FDF7A9F952496E
:104BB0000BF0E2FB0BF0E2FDA0724748FDF7A0F915
:104BC0004D490BF0D9FB0BF0D9FD20FA06F3424812
:104BD000E372FDF719FA49490BF0C6FA0BF0CEFD66
:104BE00020733D48FDF710FA44490BF0BDFA0BF075
:104BF000C5FD20FA06F338486373FDF703FA3F4911
:104C00000BF0B2FA0BF0BAFDA0733348FDF7FAF9D6
:104C10003A490BF0A9FA0BF0B1FD264920FA06F348
:104C20002A48E37305F054FE022007F095FAEA6D76
:104C3000AB6D13FB02F3022123FA06F240F2793046
:104C4000E171237262722060BDE8F883696ACCE684
:104C50002148FDF753F9296D0BF086FA07461E48E7
:104C6000FDF74EF9014638460BF024FD00283FF4CD
:104C700071AF40F2C3331848E6712360FDF73EF987
:104C8000EE6C31460BF016FD002839D01A4930463B
:104C90000BF072FB0BF072FD030A237240F201422B
:104CA00003236072034909486281E36005F010FE46
:104CB00050E700BFBC91FF1F3893FF1FF891FF1F03
:104CC00000002041EE92FF1FEC92FF1F88B7FF1FEC
:104CD0004087FF1F5887FF1F6C94FF1F0000C842CA
:104CE0004492FF1FE892FF1FE492FF1F5087FF1FAF
:104CF0004887FF1FD091FF1F00007A4433938843F9
:104D00000948FDF7FBF809490BF036FB0BF036FDBF
:104D1000030A05482372FDF7F1F804490BF02CFB58
:104D20000BF02CFDBAE700BF6C94FF1F00007A4423
:104D30002DE9F04F83B009F0D1FCB14D286007F0A8
:104D400079FD002800F3CA80AE4C28682368042B44
:104D500000F0CC80092B31D1AB4E96F8CA30012B34
:104D600084BF002386F8CA3096F8C930012B02D9D7
:104D7000002386F8C930322801F01782712801F02B
:104D8000C281312814D196F8C930B3FA83F30122D5
:104D90005B09226086F8C93078200123052B286042
:104DA00000F0E281032B00F0EF81012B00F057812E
:104DB000732800F00E8303B0BDE8F08F022B40F0A3
:104DC0002981A0F13103422BF2D801A252F823F03D
:104DD0007D6700004F68000065680000D96800002A
:104DE000C9660000416A0000796A0000916A00000B
:104DF000B14D0000B14D0000B14D0000B14D0000BB
:104E0000B14D0000B14D0000B14D0000B14D0000AA
:104E1000B14D0000B14D0000B14D0000B14D00009A
:104E2000B14D0000B14D0000B14D0000B14D00008A
:104E3000B14D0000B14D0000B14D0000B14D00007A
:104E4000B14D0000B14D0000B14D0000B14D00006A
:104E5000B14D0000B14D0000B14D0000B14D00005A
:104E6000B14D0000B14D0000B14D0000B14D00004A
:104E7000B14D0000B14D0000B14D0000B14D00003A
:104E8000B14D0000B14D0000B14D0000B14D00002A
:104E9000B14D0000B14D00000D500000B14D0000BB
:104EA000B14D0000B14D0000B14D0000B14D00000A
:104EB000B14D0000B14D0000B14D0000B14D0000FA
:104EC000B14D0000B14D0000B14D0000B14D0000EA
:104ED000CB530000B14D000063670000494C07F060
:104EE000BDFC23682860042B7FF434AFA0F13103AC
:104EF000402B3FF65DAF01A252F823F03B66000065
:104F00004166000047660000656600006B660000B1
:104F10008366000047510000F1650000F76500005E
:104F2000B14D0000B14D0000B14D0000B14D000089
:104F3000B14D0000B14D0000B14D0000B14D000079
:104F4000B14D0000B14D0000B14D0000B14D000069
:104F5000B14D0000B14D0000B14D0000B14D000059
:104F6000B14D0000B14D0000B14D0000B14D000049
:104F7000B14D0000B14D0000B14D0000B14D000039
:104F8000B14D0000B14D0000B14D0000B14D000029
:104F9000B14D0000B14D0000B14D0000B14D000019
:104FA000B14D0000B14D0000B14D0000B14D000009
:104FB000B14D0000B14D0000B14D0000B14D0000F9
:104FC000B14D0000B14D0000B14D0000B14D0000E9
:104FD000B14D0000B14D0000B14D0000B14D0000D9
:104FE000B14D0000B14D0000B14D0000B14D0000C9
:104FF000B14D0000B14D0000B14D00003166000020
:105000000092FF1FD491FF1F3893FF1FFFF7EAFBA9
:1050100023682868082B40F08580322876D07128D4
:1050200000F0D38131287FF4C3AE09F09DFB002846
:1050300001F33482E04E07F0FDFB002802F34586C1
:1050400096F84410B26CDD48022984BF002186F82E
:105050004410FCF75BFF6920012323602860A0F166
:105060005203262B3FF6A4AE01A252F823F000BF54
:10507000C96A0000B14D0000B14D0000B14D000003
:10508000B14D0000B14D0000B14D0000B14D000028
:10509000B14D0000B14D0000B14D0000B14D000018
:1050A000B14D0000B14D0000B14D00007955000038
:1050B0008B7C0000895C00007B5C0000BF58000016
:1050C000B14D0000B14D0000B14D0000B1580000DD
:1050D000B14D0000B5800000B14D0000B14D0000A1
:1050E000B14D0000B14D0000B14D0000A9660000B7
:1050F000B14D0000B14D0000B14D0000B14D0000B8
:10510000B14D0000B14D00008755000009F02CFBA7
:10511000002801F3E18107F08DFB002801F3C8812D
:1051200023682868072B19D1342800F34B813028D5
:105130007FF73EAE3238022802F2BF87DFE810F078
:10514000F607E8070C089E4A1368B3FA83F30121B7
:105150005B0921601360642001232860062B00F0A6
:10516000A180052B7FF41EAE352801F3298030285D
:105170007FF71EAE3238032802F2B687DFE810F060
:10518000490848092B086609A0F13003422B3FF675
:105190000FAE01A252F823F07F780000CD6A000024
:1051A000076B00003174000073740000B5740000D8
:1051B0000375000051750000D17500001B760000DA
:1051C000B14D0000B14D0000B14D0000B14D0000E7
:1051D000B14D0000B14D0000B14D0000B14D0000D7
:1051E000B14D0000B14D0000B14D0000B14D0000C7
:1051F000B14D0000B14D0000B14D0000B14D0000B7
:10520000B14D0000B14D0000B14D0000B14D0000A6
:10521000B14D0000B14D0000B14D0000B14D000096
:10522000B14D0000B14D0000B14D0000B14D000086
:10523000B14D0000B14D0000B14D0000B14D000076
:10524000B14D0000B14D0000B14D0000B14D000066
:10525000B14D0000B14D0000B14D0000FD780000DF
:105260003779000071790000AB790000917C000073
:1052700069760000FF7600004D770000B14D000018
:105280009F770000E1770000B14D0000B14D0000B4
:10529000B14D0000B14D0000B14D00002F7800006D
:1052A0003D780000A0F13103402B3FF681AD01A213
:1052B00052F823F01969000065690000B169000027
:1052C000F96900008F670000A3670000DF67000036
:1052D0007D6100008F610000B14D0000B14D000004
:1052E000B14D0000B14D0000B14D0000B14D0000C6
:1052F000B14D0000B14D0000B14D0000B14D0000B6
:10530000B14D0000B14D0000B14D0000B14D0000A5
:10531000B14D0000B14D0000B14D0000B14D000095
:10532000B14D0000B14D0000B14D0000B14D000085
:10533000B14D0000B14D0000B14D0000B14D000075
:10534000B14D0000B14D0000B14D0000B14D000065
:10535000B14D0000B14D0000B14D0000B14D000055
:10536000B14D0000B14D0000B14D0000B14D000045
:10537000B14D00001B670000B14D0000B14D0000B1
:10538000B14D0000B14D0000B14D0000B14D000025
:10539000B14D0000B14D0000B14D0000B14D000015
:1053A000B14D0000B14D0000B14D0000B14D000005
:1053B000B14D0000CB5300003893FF1F6C94FF1FCA
:1053C000E091FF1F71287FF4F3AC00227323226069
:1053D0002B602368002B7FF4EEAC6D4E6D486E4D54
:1053E00005F0B0FF04216D4809F0F2F9694805F0B5
:1053F000A9FF10216A4809F0EBF9664805F0A2FF01
:105400001321684809F0E4F92968624805F092FF21
:10541000604805F097FF1421634809F0D9F95D4809
:1054200005F090FF1E21614809F0D2F9594805F0B6
:1054300089FF15215E4809F0CBF9564805F082FF37
:105440001E215C4809F0C4F9524805F07BFF202179
:10545000594809F0BDF94F4805F074FF1921574824
:1054600009F0B6F94B4805F06DFF1221544809F0D8
:10547000AFF9484805F066FF1921524809F0A8F92C
:10548000444805F05FFF0F214F4809F0A1F941485A
:1054900005F058FF0D214D4809F09AF93D4805F0F7
:1054A00051FF4B4805F04EFF04213C4807F016F928
:1054B000474805F047FF1021394807F00FF94448E5
:1054C00005F040FF3748132107F008F929684048E4
:1054D00005F030FF3E4805F035FF1421324807F053
:1054E000FDF83B4805F02EFF1E21304807F0F6F886
:1054F000374805F027FF15212D4807F0EFF834480D
:1055000005F020FF1E212B4807F0E8F8304805F091
:1055100019FF2021284807F0E1F82D4805F012FF77
:105520001921264807F0DAF8294805F00BFF122167
:10553000234807F0D3F8264805F004FF1921214835
:1055400007F0CCF8224805F0FDFE0F211E4807F0B9
:10555000C5F81F4805F0F6FE0D211C4807F0BEF8FF
:105560001B4805F0EFFE002201233260236003B0E8
:10557000BDE8F08F09F0B2F809F0F6F80028F9D18B
:105580002AE009F0ABF809F0EFF80028F9D1FFE0C4
:105590002887FF1F3888FF1F7087FF1FC084010006
:1055A000C8840100DC840100F0840100088501004A
:1055B0002885010040850100608501008485010087
:1055C000A0850100B4850100D0850100E0850100BF
:1055D000B487FF1F07F042F907F02CF905460028B1
:1055E000F8D1B948B94E05F0ADFEB74805F0AAFEAE
:1055F000B54805F0A7FEB44805F0A4FEB24805F092
:10560000A1FE1F21B24809F0E3F8AF4805F09AFE69
:105610001C21B04809F0DCF8B06AAF490AF0ACFED2
:105620000AF086FC009502460B46A74805F0ACFE42
:105630000221AA4809F0CCF8A34805F083FE2321F3
:10564000A74809F0C5F8306CA3490AF095FE0AF0A6
:105650006FFC009502460B469B4805F095FE022123
:105660009E4809F0B5F8984805F06CFE19219D4850
:1056700009F0AEF8F06B0AF05BFC022702460B461D
:105680009148009705F080FE3946974809F0A0F848
:105690008D4805F057FE1921944809F099F8B6F89D
:1056A000C010894805F046FE0321914809F090F8A2
:1056B000854805F047FE8F4805F044FE8D4805F00B
:1056C00041FE8C4805F03EFE8A4805F03BFE8948C5
:1056D00005F038FE1F217E4807F000F8854805F0E8
:1056E00031FE7C481C2106F0F9FFB06A7A490AF0C5
:1056F00043FE0AF01DFC009502460B467D4805F06E
:1057000043FE3946754806F0E9FF7A4805F01AFE6F
:105710007348232106F0E2FF306C6F490AF02CFE3B
:105720000AF006FC009502460B46724805F02CFE76
:1057300039466A4806F0D2FF6E4805F003FE694814
:10574000192106F0CBFFF06B0AF0F2FB00970B4635
:105750000246684805F018FE3946634806F0BEFF69
:10576000644805F0EFFD6148192106F0B7FFB6F86F
:10577000C010604805F0DEFD5D48032106F0AEFF75
:105780005C4805F0DFFD072300F0B9BC07F066F8C0
:1057900007F050F805460028F8D14B484B4E05F06D
:1057A000D1FD494805F0CEFD474805F0CBFD464800
:1057B00005F0C8FD444805F0C5FD15214E4809F027
:1057C00007F8414805F0BEFD3F4805F0BBFD2C2120
:1057D0004A4808F0FDFF3C4805F0B4FD2521484843
:1057E00008F0F6FF0A222B4696F8C910364805F055
:1057F000C1FD354805F0A6FD1921424808F0E8FF33
:105800003C4805F09FFD3B4805F09CFD394805F0FC
:1058100099FD384805F096FD364805F093FD1521B1
:10582000354806F05BFF334805F08CFD314805F044
:1058300089FD2C21314806F051FF2E4805F082FDEC
:105840002F48252106F04AFF2B4696F8C910294813
:105850000A2205F08FFD274805F074FD294819211B
:1058600006F03CFF96F8CA30002B42F058820E2119
:10587000254808F0ADFF144805F064FD22480E21CC
:1058800006F02CFF1B4805F05DFD13211F4808F0B2
:105890009FFF0D4805F056FD1C48132106F01EFF22
:1058A000144805F04FFD092300F029BC08F016FF4D
:1058B00008F05AFF0028F9D12CE008F00FFF08F09B
:1058C00053FF0028F9D1C5E03888FF1F3893FF1F28
:1058D000648301008483010000007A44CC7C0100D1
:1058E000A4830100C883010038830100E483010020
:1058F00000840100B487FF1FB8850100A480010067
:10590000D4800100FC800100188101003C8101006D
:1059100006F0A4FF06F08EFF05460028F8D14348A4
:10592000434E05F00FFD414805F00CFD3F4805F0E2
:1059300009FD3E4805F006FD3C4805F003FD152134
:105940003C4808F045FF394805F0FCFC18213A486E
:1059500008F03EFF0A222B4696F84410334805F023
:1059600009FD324805F0EEFC2821344808F030FFEC
:10597000B06C33490AF000FD0AF0DAFA00950246ED
:105980000B462A4805F000FD02212E4808F020FFB2
:10599000264805F0D7FC13212B4808F019FF2348AF
:1059A00005F0D0FC294805F0CDFC284805F0CAFCDC
:1059B000264805F0C7FC254805F0C4FC234805F03F
:1059C000C1FC15211B4806F089FE204805F0BAFCF1
:1059D0001948182106F082FE2B460A2296F8441038
:1059E0001A4805F0C7FC194805F0ACFC13482821FB
:1059F00006F074FEB06C12490AF0BEFC0AF098FA88
:105A000000950B460246114805F0BEFC02210D48E8
:105A100006F064FE0D4805F095FC0B48132106F0D6
:105A20005DFE0A4805F08EFC082368E33888FF1FF6
:105A30003893FF1F88850100508101006C810100AF
:105A400000007A44CC7C01003C810100B487FF1F38
:105A500006F004FF06F0EEFE05460028F8D18D485A
:105A60008D4E05F06FFC8B4805F06CFC894805F005
:105A700069FC884805F066FC864805F063FC112146
:105A8000864808F0A5FE834805F05CFC2821844880
:105A900008F09EFEB06983490AF06EFC0AF048FAED
:105AA000009502460B467B4805F06EFC02217E48BD
:105AB00008F08EFE774805F045FC16217B4808F07B
:105AC00087FE306A77490AF057FC0AF031FA0095F0
:105AD00002460B466F4805F057FC0221724808F059
