:1000000000800020BD0100006DB8000025B8000090
:1000100025B8000025B8000025B8000025B800006C
:1000200025B8000025B8000025B800006DB8000014
:100030006DB8000025B80000B1E30000B5E3000092
:100040006DB800006DB800006DB800006DB800001C
:100050006DB800006DB800006DB800006DB800000C
:100060006DB800006DB800006DB800006DB80000FC
:100070006DB800006DB800006DB800006DB80000EC
:100080006DB800006DB800006DB800006DB80000DC
:100090006DB800006DB800006DB800006DB80000CC
:1000A0006DB800006DB800006DB800006DB80000BC
:1000B0006DB80000A1B30000ADB30000B1B3000003
:1000C000BDB30000C1B30000C5B300006DB80000AF
:1000D0006DB800006DB800006DB800006DB800008C
:1000E0006DB800006DB800006DB800006DB800007C
:1000F0006DB800001DC500006DB8000075CC000093
:100100006DB80000F9D100006DB800006DB80000B6
:100110006DB800006DB800006DB800006DB800004B
:100120006DB800006DB800006DB800006DB800003B
:100130006DB800006DB800006DB800006DB800002B
:100140006DB800006DB800006DB800006DB800001B
:100150006DB800006DB800006DB800006DB800000B
:100160006DB8000089D400006DB800006DB80000C3
:100170006DB800006DB800006DB800006DB80000EB
:100180006DB800006DB800006DB800006DB80000DB
:100190006DB800006DB800006DB800006DB80000CB
:1001A0006DB800006DB800006DB800006DB80000BB
:1001B0006DB800006DB800006DB80000564B4CF2F1
:1001C000205210B51A804DF628121A8000BF00BFC9
:1001D0000BF050FB514B4FF010621A60504A9A607E
:1001E000504ADA60504A136813F4807304D14F49BF
:1001F0000B604FF4A85313604D4B1A78110703D5C9
:100200001A7842F008021A704A4B4B492A221A7097
:100210004A4A4B4B8B4204D252F8040F43F8040B6A
:10022000F8E7484B484900228B4202D243F8042B9E
:10023000FAE74649464A002352F8230041F82300D2
:1002400001336F2BF8D1434B434A802103F8011B44
:100250009342FBD1414B3D4A1A60414B8A221A70AE
:10026000A3F5805324225A70A0221A709A7992071B
:10027000FCD59A79D406FCD43A4A937903F00C035E
:10028000082B384BF9D103221A7140225A719A79FE
:100290009006FCD5334A9179324B4906FBD5324A58
:1002A000324911600221516020221A709A7902F0BD
:1002B0000C020C2AFAD12E4B2E4A1A602E4B2F4AD2
:1002C0001A6000225A60072243F8042C2C4AC3F813
:1002D0000C2D62B60BF084FD144B1B68DA0705D5B4
:1002E00028480BF061FB284B284A1A60284B1B78E2
:1002F0005B0609D5244C254B22689A4204D121483B
:100300000BF052FB0023236010F0C0FF0BF0B8FA93
:100310000EF0D0FBFEE700BF0E2005403080044009
:10032000823F04000100002B10D0034014D0034092
:1003300002D0074000E007406892FF1FCC71010027
:100340002087FF1F6892FF1F10BDFF1F0082FF1F45
:100350000000000000E400E05FE400E008ED00E0E1
:100360000050064000400640448004400000030165
:1003700004800440C010050014E000E0FF76010096
:1003800000002020620F36611CE00340A5C3945A90
:1003900000F00740FFFFFFFFFFFFFFFFFFFFFFFF32
:1003A000FFFFFFFFFFFFFFFFFFFFFFFFFFFFFFFF5D
:1003B000FFFFFFFFFFFFFFFFFFFFFFFFFFFFFFFF4D
:1003C000FFFFFFFFFFFFFFFFFFFFFFFFFFFFFFFF3D
:1003D000FFFFFFFFFFFFFFFFFFFFFFFFFFFFFFFF2D
:1003E000FFFFFFFFFFFFFFFFFFFFFFFFFFFFFFFF1D
:1003F000FFFFFFFFFFFFFFFFFFFFFFFFFFFFFFFF0D
:10040000FFFFFFFFFFFFFFFFFFFFFFFFDEF9FFFF23
:1004100010B5054C237833B9044B13B10448AFF33E
:1004200000800123237010BD6892FF1F00000000B0
:10043000C8710100084B10B51BB108490848AFF35B
:1004400000800848036803B910BD074B002BFBD0A0
:10045000BDE81040184700BF000000006C92FF1F6D
:10046000C87101006892FF1F00000000F0B400F1A5
:1004700014060F4F00243146031F00F12C0243F8ED
:10048000044FB34241F8047F4FF0000542F8044F97
:10049000F5D1084B084985640022C56405654565AA
:1004A000456683650366C16580F88420F0BC7047AB
:1004B0000000A040000048430000C8C200230360C1
:1004C00043608360C3600361436183640365436584
:1004D000836570472DE9F04190F8844084B0002393
:1004E00064008DF80530E4B2012380468DF80440A5
:1004F0008DF80630032720460CF0D2FD02210DF1C5
:1005000005000CF0D7FD8DF8044002F06DFD30B30E
:100510000921C9480DF026FE002310222146C748B4
:100520000EF040F90121C6480DF01CFE00231022F8
:100530009DF80510C1480EF035F90121C0480DF0B5
:1005400011FE002310229DF80610BC480EF02AF977
:100550000121BB480DF006FEB8480EF013F9022049
:100560008DF804400BF0EEFB02F03EFD002840F059
:10057000778102AE00240CF0D1FD002800F0268126
:10058000042C40F0158101E00CF0D8FD0CF0C6FD04
:100590000028F9D102F028FD10B1A8480EF0F2F8B9
:1005A00098F884406400E4B2202204238DF80440CB
:1005B0008DF805208DF80630032720460CF070FDDD
:1005C00002210DF105000CF075FD8DF8044002F0DC
:1005D0000BFD30B3092198480DF0C4FD0023102213
:1005E000214696480EF0DEF8012195480DF0BAFD3F
:1005F000002310229DF8051090480EF0D3F8012139
:100600008F480DF0AFFD002310229DF806108B4897
:100610000EF0C8F801218A480DF0A4FD87480EF0BD
:10062000B1F802208DF804400BF08CFB02F0DCFCEA
:10063000002840F00B8102AE00240CF06FFD002872
:1006400000F0A980072C40F0988001E00CF076FDC6
:100650000CF064FD0028F9D102F0C6FC10B1774817
:100660000EF090F898F884409DF80B209DF80C301F
:100670009DF80D00C8F870206400E4B29DF80E10DB
:10068000C8F87430332201238DF80440C8F878008C
:10069000C8F87C108DF805208DF806300327204619
:1006A0000CF0FEFC02210DF105000CF003FD8DF8AD
:1006B000044002F099FC30B309215F480DF052FD6F
:1006C0000023102221465D480EF06CF801215C48A1
:1006D0000DF048FD002310229DF8051057480EF03C
:1006E00061F8012156480DF03DFD002310229DF8D0
:1006F000061052480EF056F8012151480DF032FD17
:100700004E480EF03FF802208DF804400BF01AFB23
:1007100002F06AFC002840F09E8002AE00240CF03B
:10072000FDFCF8B1042C0FD101E00CF007FD0CF03A
:10073000F5FC0028F9D102F057FC10B13F480EF04B
:1007400021F804B0BDE8F0810CF0F8FC054606F88D
:10075000010B02F049FC00285AD101340CF0DEFCF8
:100760000028DFD1042CE2D002F03EFC00285ED14C
:10077000013FE6D09DF8044091E70CF0DFFC054610
:1007800006F8010B02F030FC60BB01340CF0C6FC33
:1007900000287FF457AF072C3FF45AAF02F024FC37
:1007A00000284FD1013F3FF45DAF9DF8044004E7BE
:1007B0000CF0C4FC054606F8010B02F015FCE0B98C
:1007C00001340CF0ABFC00287FF4DAAE042C3FF4CB
:1007D000DDAE02F009FC30BB013F3FF4E1AE9DF815
:1007E000044088E6E9B20023102214480DF0DAFF35
:1007F000012113480DF0B6FCC7E7E9B2002310222F
:100800000E480DF0CFFF01210D480DF0ABFCD7E7EE
:10081000E9B20023102209480DF0C4FF0121084865
:100820000DF0A0FC99E705480DF0ACFFD4E70348B4
:100830000DF0A8FF9CE700BF585401000888FF1F77
:10084000785A010009480DF09DFFABE707210848E1
:100850000DF088FCEFE6072105480DF083FC5CE70E
:10086000072103480DF07EFC83E600BF0888FF1FC8
:100870006454010090F87400704700BF90F8700055
:10088000704700BF90F87800704700BF90F87C0078
:10089000704700BF2DE9F04390F8848085B04FEA9F
:1008A00048085FFA88F8322200238DF804808DF81A
:1008B00005208DF8063003250DF1060748F00109E3
:1008C00048460CF0EDFB01AE0DF1050002210CF0E5
:1008D000F1FB8DF804904A4633460020504008242E
:1008E00010F0800F4FEA400018BF80F00700013C75
:1008F000C0B2F5D1BB4202D013F8012FEEE70CF0E5
:10090000CFFB02F071FB00284AD102208DF8048051
:100910000BF018FA02F068FB002840F081800DF11E
:10092000080800240CF0FAFB08B3042C12D101E0F3
:100930000CF004FC0CF0F2FB0028F9D102F054FB9F
:1009400010B13A480DF01EFF02200BF0FBF905B084
:10095000BDE8F0830CF0F2FB08F8010B064602F04C
:1009600043FB70B901340CF0D9FB0028DDD1042C15
:10097000E0D002F039FB78B9013DE5D09DF8048064
:100980009CE7F1B20023102228480DF00BFF012153
:1009900027480DF0E7FBE5E724480DF0F3FEEBE711
:1009A000092124480DF0DEFB2346102249461F484A
:1009B0000DF0F8FE01211E480DF0D4FB2346102255
:1009C0009DF8051019480DF0EDFE012118480DF0B5
:1009D000C9FB102223469DF8061014480DF0E2FED4
:1009E000012113480DF0BEFB21460DF1070216F858
:1009F000014B6140C9B2082311F0800F4FEA410159
:100A000018BF81F00701013BC9B2F5D1B242EED166
:100A1000102206480DF0C6FE04480DF0B3FE74E740
:100A2000072105480DF09EFB79E700BF0888FF1FEE
:100A3000785A010058540100645401002DE9F04F28
:100A4000074691B097F8843002205B008DF808309B
:100A50000BF078F997F8843038465B008DF8083051
:100A6000FFF738FDB86FFC6F7B6F3A6F97F8841013
:100A70008DE81100C94802F0BDFB30223D238DF8FE
:100A800009208DF80A3003260DF10A059DF808901B
:100A900049F0010840460CF003FB0DF1090002216A
:100AA0000CF008FB8DF80880424602AB0020504055
:100AB000082410F0800F4FEA400018BF80F00700B4
:100AC000013CC0B2F5D1AB4202D013F8012FEEE7E2
:100AD0000CF0E6FA02F088FA002840F07D8202204D
:100AE0008DF808900BF02EF902F07EFA002840F005
:100AF000B9820DF10C0AD14600240CF00FFB00283E
:100B000043D0032C34D101E00CF018FB0CF006FBB1
:100B10000028F9D102F068FA10B1A1480DF032FEB8
:100B2000312303268DF809308DF80A609DF808906E
:100B300049F0010840460CF0B3FA0DF1090002211A
:100B40000CF0B8FA8DF80880424602AB0020504005
:100B5000082410F0800F4FEA400018BF80F0070013
:100B6000013CC0B2F5D19D4228D013F8012FEEE729
:100B70000CF0E4FA09F8010B804602F035FA68B986
:100B800001340CF0CBFA0028BBD1032CBED002F00C
:100B90002BFA78B9013E7FF479AFC1E75FFA88F1AB
:100BA000002310227E480DF0FDFD01217D480DF04F
:100BB000D9FAE5E77A480DF0E5FDEBE70CF070FABD
:100BC00002F012FA002840F0C68102208DF8089049
:100BD0000BF0B8F802F008FA002840F03E820DF160
:100BE0000C0900240CF09AFA002844D0032C35D1CB
:100BF00001E00CF0A3FA0CF091FA0028F9D102F010
:100C0000F3F910B166480DF0BDFD342201238DF8D3
:100C100009208DF80A3003269DF8089049F0010854
:100C200040460CF03DFA0DF1090002210CF042FAA9
:100C30008DF80880424602AB00205040082410F096
:100C4000800F4FEA400018BF80F00700013CC0B29F
:100C5000F5D1AB4228D013F8012FEEE70CF06EFA75
:100C600009F8010B804602F0BFF968B901340CF0B5
:100C700055FA0028BAD1032CBDD002F0B5F978B9E5
:100C8000013E7FF453AFC0E75FFA88F100231022E2
:100C900043480DF087FD012142480DF063FAE5E776
:100CA0003F480DF06FFDEBE70CF0FAF902F09CF90C
:100CB000002840F00F8102208DF808900BF042F8D8
:100CC00002F092F9002840F0D7810DF10C090024C0
:100CD0000CF024FA002800F08580032C73D101E089
:100CE0000CF02CFA0CF01AFA0028F9D102F07CF979
:100CF00010B12B480DF046FD012212238DF809207A
:100D00008DF80A304FF003089DF8084020460CF09B
:100D1000C7F902210DF109000CF0CCF98DF808405B
:100D200002F062F930B309211F480DF01BFA0023CD
:100D3000102221461A480DF035FD012119480DF009
:100D400011FA002310229DF8091015480DF02AFD14
:100D5000012114480DF006FA002310229DF80A1014
:100D60000F480DF01FFD01210E480DF0FBF90C4856
:100D70000DF008FD06208DF808400AF0E3FF02F0B0
:100D800033F9002840F0738103AD00260CF0C6F95A
:100D9000002840D0162E30D10AE000BF6C5401006C
:100DA0000888FF1F785A0100585401000CF0C6F95A
:100DB0000CF0B4F90028F9D102F016F91626002833
:100DC0007DD1152035E00CF0B9F909F8010B80460A
:100DD00002F00AF900285BD101340CF09FF90028D9
:100DE0007FF47BAF032C3FF47DAF02F0FDF80028C9
:100DF0006CD1013E7FF410AF7EE70CF09FF905F84F
:100E0000010B044602F0F0F800284DD101360CF039
:100E100085F90028BED1162ECAD002F0E5F80028C8
:100E20004DD1B8F101087FF46FAF701E002840F378
:100E30003582002303AA1C4612F8011B08254C40EA
:100E400014F0800F4FEA440418BF84F00704013DFA
:100E5000E4B2F5D101338342EEDB9DF8218089486D
:100E60004146224602F0C6F9162EC146A34602D1DB
:100E7000A04500F0138197F884108348CDF800B0A6
:100E80004B46324602F0E4F9002011B0BDE8F08F85
:100E90005FFA88F1002310227C480DF083FC0121C9
:100EA0007B480DF05FF997E7E1B200231022774805
:100EB0000DF078FC012176480DF054F9A6E773484F
:100EC0000DF060FC162EACD11520B2E76F480DF086
:100ED00059FC8EE709216F480DF044F92346102292
:100EE00041466A480DF05EFC012169480DF03AF96F
:100EF000234610229DF8091064480DF053FC01218F
:100F000063480DF02FF9102223469DF80A105F4820
:100F10000DF048FC01215E480DF024F921460DF149
:100F20000B0002AA12F8014B6140C9B2082311F06C
:100F3000800F4FEA410118BF81F00701013BC9B2A0
:100F4000F5D19042EED1102250480DF02BFC4F48C5
:100F50000DF018FCAFE609214E480DF003F92346C9
:100F60001022414649480DF01DFC012148480DF072
:100F7000F9F8234610229DF8091044480DF012FCA0
:100F8000012143480DF0EEF8102223469DF80A1087
:100F90003E480DF007FC01213D480DF0E3F82146E5
:100FA0000DF10B0002AA12F8014B6140C9B20823EF
:100FB00011F0800F4FEA410118BF81F00701013B9A
:100FC000C9B2F5D19042EED1102230480DF0EAFBC3
:100FD0002E480DF0D7FBF8E509212E480DF0C2F898
:100FE00023461022414629480DF0DCFB0121284808
:100FF0000DF0B8F8234610229DF8091023480DF093
:10100000D1FB012122480DF0ADF8102223469DF8B6
:101010000A101E480DF0C6FB01211D480DF0A2F874
:1010200021460DF10B0002AA12F8014B6140C9B232
:10103000082311F0800F4FEA410118BF81F007012A
:10104000013BC9B2F5D19042EED110220F480DF00C
:10105000A9FB0E480DF096FB41E507210E480DF067
:1010600081F8BCE507210C480DF07CF841E507212B
:1010700009480DF077F887E6072107480DF072F868
:1010800023E600BFA0540100EC5401000888FF1FB4
:10109000785A010058540100645401009DF80C3046
:1010A00097F88420B3EB420F7FF4EEAE9DF80D303D
:1010B000012B7FF4E9AE9DF80E30122B7FF4E4AEE5
:1010C0009DF810309DF80F0003EB00200FF062FE3A
:1010D0008B490FF0B3FE796EF864044610F06AF89D
:1010E00000B17C66396E204610F046F800B13C66CF
:1010F0003D1FAB4607F1180807F130064FF0000915
:101100009AF806309AF8050003EB00200FF042FE33
:101110007C490FF093FE4BF8040FD8F800100446FA
:1011200010F02AF809F101090AF1020A30B1B96E8A
:10113000204610F035F808B1C8F800403168204664
:1011400010F038F808F1040800B13460B9F1060F66
:1011500006F10406D4D10020B86407F1140455F850
:10116000041F0FF063FDAC42F9D19DF81D209DF8DE
:101170001E30B86403EB022002300FF00BFE624910
:101180000FF010FF014661480FF00CFF60490FF0AF
:101190004BFD60490FF052FE05460DF0BDFE0446C2
:1011A00028460DF0B9FE5C490DF028FF5B49054665
:1011B00020460FF043FE5A490FF038FD59490446C6
:1011C00028460FF03BFE014620460FF02FFD01465A
:1011D0004FF07E500FF0E6FE53490FF025FD9DF8CD
:1011E0001F209DF82030386503EB022009300FF0F6
:1011F000D1FD4E490FF0D6FE014644480FF0D2FE15
:1012000043490FF011FD43490FF018FE05460DF05C
:1012100083FE044628460DF07FFE3F490DF0EEFEAA
:101220003E49054620460FF009FE3D490FF0FEFC01
:101230003C49044628460FF001FE014620460FF0C7
:10124000F5FC01464FF07E500FF0ACFE36490FF032
:10125000EBFCD7F8808078650446B8F1000F3BD1ED
:101260003D6D29462E460FF0A5FF68B32946B86D9F
:101270000FF0A0FFE0B1BD65B8F1000F17D008F185
:10128000130657F82640F96D20460FF093FF00B182
:10129000FC65274801F0AEFF0120F6E59DF821909E
:1012A000244849464246C34601F0A4FFE3E53E6DAB
:1012B000314620460FF07EFFC8B1F96D20460FF091
:1012C00079FF0028E4D1E4E7B96D20460FF054FF20
:1012D0000028EDD02546CEE708F11306B96D57F882
:1012E000265028460FF048FF0028C4D1C9E73146F0
:1012F000F86D0FF041FF0028CBD03446C8E700BF9F
:101300006B57053B2003C839001601470AD7E33F56
:10131000E17A644000007A4400004040A40D8F3917
:101320005A80473A46A6DB3333938843002C014763
:10133000C4540100A0540100052994BF50F82100B5
:10134000002070472DE9F0410B4E8046041F00F14C
:10135000140754F8045F314628460FF00DFF30B1F2
:10136000D8F8681028460FF025FF00B12E46BC4281
:10137000EFD13046BDE8F08100002041F8B50026ED
:10138000041F00F1140754F8045F314628460FF09B
:1013900011FF00B12E46BC42F5D13046F8BD00BF6A
:1013A0002DE9F047876E82464FF00009041F00F1D7
:1013B00014064FF0000854F8045F394628460FF031
:1013C000F9FE0D4950B128460FF0D6FE30B148461F
:1013D00029460FF02BFC08F101088146B442EAD1FE
:1013E000CAF8888040460FF0D5FC014648460FF009
:1013F000D9FDBDE8F08700BF00007042D0F888003A
:10140000704700BF38B5D0F8803043B9456D046DE2
:10141000294620460FF0B0FE30B1204638BD1333C8
:1014200050F82340204638BD2C46204638BD00BF2A
:1014300038B5D0F8803043B9446D056D2146284653
:101440000FF09AFE30B1204638BD133350F82340D8
:10145000204638BD2C46204638BD00BF08B5D0F820
:1014600080301BB1133350F8230008BD416D006D6F
:101470000FF0DCFB4FF07C510FF0E0FC08BD00BF2B
:10148000806C704701299ABF143150F82100002068
:10149000704700BF3E2998BF80F88410704700BF96
:1014A00090F86C00704700BFC0F88010704700BF14
:1014B00080F86C10704700BF8166704770B500F50A
:1014C0000A5506461C3500F1280420468C34FEF7E8
:1014D000CDFFAC42F9D106F1B40501242846002124
:1014E000FFF7E6FF214628460134FFF7D3FF3F2CE4
:1014F00005F18C05F2D142F2A42400250548064AE4
:10150000064B3555002130617161B261F36130469F
:1015100070BD00BF00007A44000048430000C8C20C
:1015200038B500F50A551C3500F1B40402E08C34DE
:10153000AC420AD02046FFF7B3FF0028F7D0204680
:101540008C34FEF7BBFFAC42F4D138BD2DE9F0413D
:1015500042F2A82300F50A56374600228046C250C0
:101560001C36283700F1B40402E08C34B4420DD0AC
:101570002046FFF795FF0028F7D020463D68FFF78B
:101580003DFF8C342844B4423860F1D142F2A823A4
:1015900058F80300BDE8F0812DE9F04F93B0814683
:1015A00042F2AC231046019201284FF0000206914E
:1015B00049F8032000F0038209F50A532C330793FE
:1015C00009F1B40A4FF0010B5046FFF769FFC0B1B3
:1015D00000263446012531465046D9F80870FFF7F9
:1015E000ABFE014638460FF0C7FD18B105FA06F309
:1015F0001C43E4B20136062EEDD1019B012B0AD02B
:10160000F4B90BF1010BBBF13F0F0AF18C0ADBD1EE
:1016100013B0BDE8F08F5946BD480DF003F9032122
:10162000BC480CF09FFD214600230222B8480DF073
:10163000B9F80321B8480CF095FD002C00F0188192
:101640004FEA4B03DBB21946029343F001039DF8C6
:10165000182003931D46184633238DF826208DF855
:1016600025308DF824100BF01BFD0DF12500022113
:101670000BF020FD09AA05928DF824502A4609ABEB
:101680000DF1260600205040082510F0800F4FEA8B
:10169000400018BF80F00700013DC0B2F5D19E4266
:1016A00002D013F8012FEEE70BF0FAFC01F09CFCDE
:1016B000002840F0EC809DF808308DF8243002209E
:1016C0000AF040FB01F090FC002840F06E810AAB6C
:1016D00004931F4600250BF021FD002844D01E2D49
:1016E00035D101E00BF02AFD0BF018FD0028F9D1EF
:1016F00001F07AFC00283DD1019B012B40D0039DD5
:101700009DF808208DF82420322328468DF82530B6
:101710008DF826400BF0C4FC0DF1250002210BF0E2
:10172000C9FC8DF8245009AB2A46002050400825FA
:1017300010F0800F4FEA400018BF80F00700013D15
:10174000C0B2F5D19E423BD013F8012FEEE70BF06B
:10175000F5FC07F8010B804601F046FC20BB013583
:101760000BF0DCFC0028BAD11E2DBDD001F03CFCF2
:101770000028C1D066480DF005F8019B012BBED1B1
:10178000049D0BAF15F8011B6148002310220DF0DA
:1017900009F8012161480CF0E5FCAF42F2D10321C8
:1017A0005D480CF0DFFCAAE75FFA88F10023102205
:1017B00057480CF0F7FF012159480CF0D3FCCEE755
:1017C0000BF06EFC01F010FC002840F0AD809DF89D
:1017D00008308DF8243002200AF0B4FA01F004FC3D
:1017E000002840F0E780049E00250BF097FC00B332
:1017F0001E2D11D101E00BF0A1FC0BF08FFC002895
:10180000F9D101F0F1FBD0B9019B012B1DD0079A52
:1018100013681C441460F4E60BF090FC06F8010B0E
:10182000074601F0E1FB38BB01350BF077FC0028DF
:10183000DED11E2DE1D001F0D7FB0028E4D03448E2
:101840000CF0A0FF019B012BE1D1049E0BAD16F81B
:10185000011B2F48002310220CF0A4FF01212F4868
:101860000CF080FCAE42F2D1079A13682344136057
:1018700027480CF087FFC4E6F9B200231022244861
:101880000CF090FF012126480CF06CFCCCE70921FC
:1018900024480CF067FC2B46102203991C480CF0DE
:1018A00081FF01211E480CF05DFC2B4610229DF8A3
:1018B000251017480CF076FF012119480CF052FC56
:1018C00010222B469DF8261011480CF06BFF0121C9
:1018D00013480CF047FC29460DF1270009AA12F81D
:1018E000013B5940C9B2082311F0800F4FEA410172
:1018F00018BF81F00701013BC9B2F5D19042EED18A
:10190000102203480CF04EFF01480CF03BFFD2E6DA
:101910000888FF1F3C550100405501004455010057
:10192000785A010058540100092127480CF01AFC8C
:101930002B461022039925480CF034FF012124483E
:101940000CF010FC2B4610229DF825101F480CF0BF
:1019500029FF01211E480CF005FC10222B469DF8A2
:1019600026101A480CF01EFF012119480CF0FAFB52
:10197000059829460DF1270210F8013B5940C9B2DC
:10198000082311F0800F4FEA410118BF81F00701D1
:10199000013BC9B2F5D18242EED110220B480CF0C6
:1019A00001FF0A480CF0EEFE11E7072109480CF090
:1019B000D9FB8CE6072107480CF0D4FB13E703485A
:1019C0000CF0E0FEF8E500BF585401000888FF1F46
:1019D000785A0100645401002DE9F04F824685B029
:1019E0004FF0000901238DF800908DF801908DF8DB
:1019F00002304FF00308002420460BF051FB022177
:101A00000DF101000BF056FB8DF8004001F0ECFAEF
:101A100030B30921B5480CF0A5FB00231022214664
:101A2000B3480CF0BFFE0121B2480CF09BFB002331
:101A300010229DF80110AE480CF0B4FE0121AD4813
:101A40000CF090FB002310229DF80210A8480CF027
:101A5000A9FE0121A7480CF085FBA5480CF092FED9
:101A600002208DF800400AF06DF901F0BDFA00285F
:101A700040F0898001AF3E4600240BF04FFB002868
:101A800067D0042C58D101E00BF058FB0BF046FB5B
:101A90000028F9D101F0A8FA10B195480CF072FEB7
:101AA0009DF80430802B40F01E819DF80530002BFE
:101AB00040F019819DF80640012C40F014818E48B9
:101AC00001F098FB0AF1B406254604E001353F2DEC
:101AD00006F18C0686D03046FFF7E2FC83460028EC
:101AE000F4D13B2265F07F0301208DF801208DF8B1
:101AF00002308DF800B00BF0D3FA0DF10100022195
:101B00000BF0D8FA01228DF80020E84658466B46C3
:101B10000DF102026040C0B2082410F0800F4FEABD
:101B2000400018BF80F00700013CC0B2F5D19342DD
:101B30002ED013F8014FEDE70BF000FB06F8010B78
:101B4000054601F051FA98B901340BF0E7FA002884
:101B500097D1042C9AD001F047FA10B164480CF0E8
:101B600011FEB8F1010800F0BE809DF8004043E787
:101B7000E9B2002310225E480CF014FE01215D48FA
:101B80000CF0F0FAE0E707215C480CF0EBFA71E7A3
:101B90000BF086FA01F028FA00285AD103208DF8BC
:101BA00000900AF0CFF801F01FFA002840F096806C
:101BB00000240BF0B3FAB0B30A2C27D101E00BF0EC
:101BC000BDFA0BF0ABFA0028F9D101F00DFA0028AC
:101BD0007FD19DF80430812B7FF404AF9DF8053050
:101BE0003B2B7FF4FFAE9DF806308035AB427FF48F
:101BF000F9AE30460121FFF75BFC0AF50A53404875
:101C00001A6A01321A6201F0F5FAEBE60BF096FA65
:101C100007F8010B804601F0E7F970B901340BF0C9
:101C20007DFA0028C8D10A2CCBD001F0DDF90028BC
:101C300050D1022C7FF7D6AECBE75FFA88F10023B4
:101C400010222B480CF0AEFD01212A480CF08AFA34
:101C5000E4E7092125480CF085FA234610220121EA
:101C600023480CF09FFD012122480CF07BFA23460B
:101C700010229DF801101E480CF094FD01211D4812
:101C80000CF070FA102223469DF8021018480CF050
:101C900089FD012117480CF065FA21460DF1030278
:101CA00018F8014B6140C9B2082311F0800F4FEAC8
:101CB000410118BF81F00701013BC9B2F5D142458E
:101CC000EED110220A480CF06DFD09480CF05AFDC7
:101CD00064E70A2406480CF055FDAAE707210748E7
:101CE0000CF040FA64E705B0BDE8F08F58540100ED
:101CF0000888FF1F785A010048550100645401000C
:101D0000545501002DE9F04742F2A02284B000238F
:101D10000127835082468DF804308DF8053000F19C
:101D2000B4088DF806704FEA47095FFA89F400217C
:101D30004046FFF7BDFB20468DF804400BF0B0F99C
:101D400002210DF105000BF0B5F98DF8044001F00A
:101D50004BF930B3092149480CF004FA0023102252
:101D6000214647480CF01EFD012146480CF0FAF9C7
:101D7000002310229DF8051041480CF013FD0121AD
:101D800040480CF0EFF9002310229DF806103C4863
:101D90000CF008FD01213B480CF0E4F938480CF048
:101DA000F1FC14208DF8044009F0CCFF01F01CF97F
:101DB00000285DD102AE00240BF0B0F940B3082C2E
:101DC00019D101E00BF0BAF90BF0A8F90028F9D10C
:101DD00001F00AF9002846D19DF808304B4522D081
:101DE0000137052009F0AEFF3F2F08F18C089AD18A
:101DF00004B0BDE8F0870BF0A1F9054606F8010B29
:101E000001F0F2F820BB01340BF088F90028D6D19C
:101E1000082CD9D001F0E8F830BB042CE0DD9DF8A7
:101E200008304B45DCD19DF80930002BD8D19DF806
:101E30000A100129D4D19DF80C30002BD0D0404697
:101E4000FFF736FB0AF50A531A6A01321A62C7E72E
:101E5000E9B2002310220A480CF0A4FC0121094831
:101E60000CF080F9CFE7082405480CF08BFCD4E790
:101E7000072105480CF076F99CE700BF5854010093
:101E80000888FF1F785A0100645401002DE9F047CB
:101E900000F50A56354684B080461C36203500F1E0
:101EA000B4040027204600218C34FFF701FBB44224
:101EB0002F60F7D102270DF106064FF07F093C2273
:101EC000A5237E217F208DF805208DF806308DF822
:101ED000041001AD0BF0E4F80DF1050002210BF048
:101EE000E9F88DF804902B467F220020504008240A
:101EF00010F0800F4FEA400018BF80F00700013C4F
:101F0000C0B2F5D1B34202D013F8012FEEE70BF0C7
:101F1000C7F801F069F800285AD17E2364208DF8B3
:101F2000043009F00FFF01F05FF8002840F09080C6
:101F30000DF1080A00240BF0F1F820B3082C15D19C
:101F400001E00BF0FBF80BF0E9F80028F9D101F003
:101F50004BF8F0B99DF808307F2B21D0013FAED16E
:101F60004046FFF739FD04B0BDE8F0870BF0E6F816
:101F700005460AF8010B01F037F8F0B901340BF00F
:101F8000CDF80028DAD1082CDDD001F02DF800289A
:101F9000E0D032480CF0F6FB9DF808307F2BDDD105
:101FA0009DF809303C2BD9D19DF80A30A52BD5D10D
:101FB0009DF80B30572BD1D1D2E7E9B20023102284
:101FC00026480CF0EFFB012125480CF0CBF8D5E7B3
:101FD000092124480CF0C6F8234610227F211F480F
:101FE0000CF0E0FB01211E480CF0BCF82346102247
:101FF0009DF8051019480CF0D5FB012118480CF08C
:10200000B1F8102223469DF8061014480CF0CAFBC4
:10201000012113480CF0A6F821460DF1070215F82E
:10202000014B6140C9B2082311F0800F4FEA410112
:1020300018BF81F00701013BC9B2F5D1AA42EED128
:10204000102206480CF0AEFB04480CF09BFB64E742
:10205000072105480CF086F86AE700BF0888FF1FD3
:10206000785A010058540100645401002DE9F043EE
:1020700085B04FF07F082022FF2381468DF8048031
:102080008DF805208DF8063003260DF1060548F081
:10209000010738460BF004F80DF1050002210BF0A2
:1020A00009F88DF804703A4601AB0020504008242E
:1020B00010F0800F4FEA400018BF80F00700013C8D
:1020C000C0B2F5D1AB4202D013F8012FEEE70AF00F
:1020D000E7FF00F089FF002840F0768202208DF8AB
:1020E000048009F02FFE00F07FFF002840F0B2824C
:1020F0000DF1080800240BF011F8002843D0042C3F
:1021000034D101E00BF01AF80BF008F80028F9D1EF
:1021100000F06AFF10B1C1480CF034FB4FF07F08AB
:1021200000238DF804808DF80630032648F001075F
:1021300038460AF0B5FF0DF1050002210AF0BAFF9A
:102140008DF804703A4601AB00205040082410F08E
:10215000800F4FEA400018BF80F00700013CC0B27A
:10216000F5D1AB4228D013F8012FEEE70AF0E6FFD5
:1021700008F8010B074600F037FF70B901340AF088
:10218000CDFF0028BBD1042CBED000F02DFF78B9C4
:10219000013EC3D09DF8048079E7F9B200231022F4
:1021A0009E480CF0FFFA01219D480BF0DBFFE5E7AC
:1021B0009A480CF0E7FAEBE70AF072FF00F014FF20
:1021C000002840F0C08102208DF8048009F0BAFD9B
:1021D00000F00AFF002840F038820DF108080024C2
:1021E0000AF09CFF002846D0042C37D101E00AF009
:1021F000A5FF0AF093FF0028F9D100F0F5FE10B119
:1022000086480CF0BFFA4FF07F082122FF238DF89B
:1022100004808DF805208DF80630032648F001076C
:1022200038460AF03DFF0DF1050002210AF042FF99
:102230008DF804703A4601AB00205040082410F09D
:10224000800F4FEA400018BF80F00700013CC0B289
:10225000F5D19D4228D013F8012FEEE70AF06EFF6A
:1022600008F8010B074600F0BFFE70B901340AF010
:1022700055FF0028B8D1042CBBD000F0B5FE78B9CA
:10228000013EC0D09DF8048050E7F9B2002310222F
:1022900062480CF087FA012161480BF063FFE5E723
:1022A0005E480CF06FFAEBE70AF0FAFE00F09CFED5
:1022B000002840F0078102208DF8048009F042FDDB
:1022C00000F092FE002840F0CF810DF108080024B4
:1022D0000AF024FF002843D0042C34D101E00AF096
:1022E0002DFF0AF01BFF0028F9D100F07DFE10B190
:1022F0004A480CF047FA4FF07F0800238DF804801D
:102300008DF80630032648F0010738460AF0C8FE6B
:102310000DF1050002210AF0CDFE8DF804703A4659
:1023200001AB00205040082410F0800F4FEA40001D
:1023300018BF80F00700013CC0B2F5D19D4228D003
:1023400013F8012FEEE70AF0F9FE08F8010B074633
:1023500000F04AFE70B901340AF0E0FE0028BBD15B
:10236000042CBED000F040FE78B9013EC3D09DF8E9
:10237000048053E7F9B20023102228480CF012FA27
:10238000012127480BF0EEFEE5E724480CF0FAF9AE
:10239000EBE70AF085FE00F027FE002851D102206D
:1023A0008DF8048009F0CEFC00F01EFE002840F0FD
:1023B00056810DF1080800240AF0B0FE18B3042C71
:1023C00014D101E00AF0BAFE0AF0A8FE0028F9D103
:1023D00000F00AFE10B111480CF0D4F942F2A42327
:1023E000002209F8032005B0BDE8F0830AF0A6FE3C
:1023F00008F8010B074600F0F7FD98B901340AF020
:102400008DFE0028DBD1042CDED000F0EDFDA0B95C
:10241000013EE3D09DF8048075E700BF0888FF1FE8
:10242000785A0100F9B20023102292480CF0BAF950
:10243000012191480BF096FEE0E78E480CF0A2F9DE
:10244000E6E709218D480BF08DFE23461022394620
:1024500088480CF0A7F9012187480BF083FE23463A
:1024600010229DF8051083480CF09CF90121824848
:102470000BF078FE102223469DF806107D480CF0E4
:1024800091F901217C480BF06DFE21460DF107000A
:1024900001AA12F8014B6140C9B2082311F0800F64
:1024A0004FEA410118BF81F00701013BC9B2F5D1E4
:1024B0009042EED110226F480CF074F96D480CF088
:1024C00061F96CE709216D480BF04CFE23461022A0
:1024D000394668480CF066F9012167480BF042FE66
:1024E000234610229DF8051062480CF05BF901218B
:1024F00061480BF037FE102223469DF806105D4818
:102500000CF050F901215C480BF02CFE21460DF136
:10251000070001AA12F8014B6140C9B2082311F06B
:10252000800F4FEA410118BF81F00701013BC9B29A
:10253000F5D19042EED110224E480CF033F94D48BF
:102540000CF020F9B7E609214C480BF00BFE2346AE
:102550001022394647480CF025F9012146480BF076
:1025600001FE234610229DF8051042480CF01AF98E
:10257000012141480BF0F6FD102223469DF806107C
:102580003C480CF00FF901213B480BF0EBFD2146D4
:102590000DF1070001AA12F8014B6140C9B20823EE
:1025A00011F0800F4FEA410118BF81F00701013B94
:1025B000C9B2F5D19042EED110222E480CF0F2F8BB
:1025C0002C480CF0DFF8FEE509212C480BF0CAFD81
:1025D00023461022394627480CF0E4F8012126480A
:1025E0000BF0C0FD234610229DF8051021480CF089
:1025F000D9F8012120480BF0B5FD102223469DF8A3
:1026000006101C480CF0CEF801211B480BF0AAFD67
:1026100021460DF1070001AA12F8014B6140C9B231
:10262000082311F0800F4FEA410118BF81F0070124
:10263000013BC9B2F5D19042EED110220D480CF009
:10264000B1F80C480CF09EF848E507210C480BF057
:1026500089FDC2E507210A480BF084FD48E5072102
:1026600007480BF07FFDA4E6072105480BF07AFD33
:102670002BE600BF0888FF1F785A0100585401005C
:102680006454010038B500F50A551C3500F1B40456
:1026900002E08C34AC420AD02046FEF701FF00284D
:1026A000F7D020468C34FEF7F5F8AC42F4D138BDB3
:1026B0002DE9F04F00218C4A8C4B016000F1B405EC
:1026C00000F50A5783B08246426203622C461C37EB
:1026D00002E08C34BC420AD02046FEF7E1FE00281E
:1026E000F7D020468C34FEF7D5F8BC42F4D1C82090
:1026F00009F028FB2C46012604E001363F2E04F1A8
:102700008C046ED02046FEF7CBFE0028F5D078482A
:1027100000F070FD3146774800F06CFD2046FEF772
:102720008DF92046FEF7ACFE0DF0DEFE02460B46AC
:10273000714800F05FFD2046FEF704FE804620460B
:10274000FEF71CFE834640460DF0CEFE80465846FE
:1027500089460DF0C9FE42464B46CDE90001674867
:1027600000F048FD00212046FEF78CFE0121804646
:102770002046FEF787FE834640460DF0B5FE8046B4
:10278000584689460DF0B0FE42464B46CDE9000161
:102790005B4800F02FFD2046FEF772FE0146DAF896
:1027A00000000EF043FACAF800002046FEF72AFEA9
:1027B000DAF818100EF0E0FC00287BD12046FEF776
:1027C00037FEDAF81C100EF0F5FC002895D02046F4
:1027D000FEF72EFE01363F2ECAF81C0004F18C04D1
:1027E00090D1DAF804000EF0D5FA0146DAF80000CC
:1027F0000EF0D8FBDAF81410CAF8000004460EF008
:10280000D9FC08B1CAF81440DAF8101020460EF0CE
:10281000B3FC08B1CAF810400B2009F05DFA42F28F
:10282000A4231AF8033000284AD1002B58D042F2D2
:10283000A42301220AF803200023CAF80C302C46F6
:1028400002E08C34BC4215D02046FEF729FE002859
:10285000F7D02046FEF792FDDAF80C100EF0AAFC35
:102860000028EED02046FEF789FD8C34BC42CAF821
:102870000C00E9D1234BCAF8083002E08C35BD4288
:1028800015D02846FEF70CFE0028F7D02846FEF7A4
:1028900059FDDAF808100EF06FFC0028EED028463B
:1028A000FEF750FD8C35BD42CAF80800E9D103B0EF
:1028B000BDE8F08F2046FEF7A5FDCAF818007DE7B9
:1028C0002BB942F2A42300220AF80320B4E70E48F1
:1028D00000F0A8FC42F2A42300220AF80320ABE790
:1028E0000A4800F0B5FCA2E700C0794400C079C4F2
:1028F000A85C010068550100A4550100B85501000D
:10290000E45501000000A0403856010000560100C7
:1029100042F2AC23C058704780687047C068704767
:102920000068704741607047F8B500F50A550F46DA
:1029300016461C3500F1B40402E08C34AC420FD0D2
:102940002046FEF7ADFD0028F7D020463946FEF7B9
:10295000ABFD204631468C34FEF7AEFDAC42EFD1E4
:10296000F8BD00BF2DE9F041274A284B426200F52F
:102970000A5507464FF0000803621C3500F1B40405
:10298000002602E08C34A54210D02046FEF788FDD8
:102990000028F7D02046FEF761FD1D490EF00AFC25
:1029A00080B98C34A54206F10106EED142F2A02393
:1029B000F858801B0EF0EEF9014640460EF0F2FA90
:1029C000BDE8F0812046FEF749FD014640460EF085
:1029D0002DF980462046FEF741FD396A0EF0EAFBEC
:1029E00060B92046FEF73AFD796A0EF0C5FB002873
:1029F000C8D02046FEF732FD7862C3E72046FEF7D6
:102A00002DFD3862EDE700BF00C0794400C079C4F5
:102A100000008CC2006A7047406A7047F8B500F544
:102A20000A55074600261C3500F1B40402E08C3438
:102A3000AC420FD02046FEF733FD0028F7D02046E9
:102A4000FEF7AEFC014630460EF0F0F88C34AC4296
:102A50000646EFD142F2A023F8580EF09BF901464A
:102A600030460EF09FFAF8BD2DE9F04F91B00446C4
:102A7000B8480F9100F066FBB64800F063FB42F2E5
:102A8000A026B44800F05EFB2046A559FEF75EFD87
:102A900081462068D4F804B00DF026FDCDE90C0184
:102AA0002046FFF7BBFF82462046A768D4F80C807B
:102AB000FFF758FF0DF018FDCDE90A0139464046F1
:102AC0000EF0B2F8A4490EF0B9F90DF00DFDCDE904
:102AD000080140460DF008FDCDE9060138460DF02D
:102AE00003FDCDE9040150460DF0FEFCDDE90C23A9
:102AF000CDE90201CDE9002329465B464A469748C5
:102B000000F020FB934800F01DFB0921944809F0D8
:102B100001FCA15993480BF085FE0A21924809F067
:102B2000F9FB2046FEF712FD01468E480BF07AFEB7
:102B30008C480BF027FE20680DF0D6FC03260246D9
:102B40000B46009687480BF077FE0121874809F075
:102B5000E1FB84480BF016FE2046FFF75FFF0DF007
:102B6000C3FC009602460B467E480BF065FE04212E
:102B70007F4809F0CFFBA0680DF0B6FC0096024636
:102B80000B4678480BF058FE04217A4809F0C2FB46
:102B9000E0680DF0A9FC009602460B4671480BF068
:102BA0004BFE0421724809F0B5FBA168E0680EF005
:102BB0003BF869490EF042F90DF096FC00270246F9
:102BC0000B46009767480BF037FE02216A4809F070
:102BD000A1FB64480BF0D6FD0A21684809F09AFB76
:102BE0002046FFF7BFFE0DF07FFC009602460B4625
:102BF0005C480BF021FE0121614809F08BFB59482C
:102C00000BF0C0FDBA46B4344FF00108DDF83CB01B
:102C100007E008F10108B8F13F0F04F18C0400F05F
:102C200091802046FEF73CFC0028F2D02046FDF7BC
:102C300021FE2046FDF722FE2046FDF723FE20461A
:102C4000FDF724FE08214F480BF08CFA41464E4810
:102C50000BF0E8FDB8F1090F77DD02214B480BF0CE
:102C600081FA2046FEF70CFC0DF03EFC5FFA8BF972
:102C700002460B46CDF8009043480BF0DDFD0121E4
:102C80003A480BF06FFA5646002520E006214048EE
:102C90000BF068FA31463C480BF0C4FD02213D4878
:102CA0000BF060FA29462046FEF746FB0DF01CFCAF
:102CB000CDF8009002460B4633480BF0BDFD0135C0
:102CC00001212A480BF04EFA062D09D03E46092E66
:102CD00006F10107DADC01212F480BF043FAD5E7B2
:102CE00011212E480BF03EFA00212046FEF7CAFBC8
:102CF0000DF0FAFB022502460B46009522480BF028
:102D00009BFD122126480BF02DFA01212046FEF7EB
:102D1000B9FB0DF0E9FB009502460B461A480BF093
:102D20008BFD012116480BF01DFA08F10108164829
:102D30000BF028FDB8F13F0F0AF1060A04F18C04EC
:102D40007FF46FAF11B0BDE8F08F012112480BF096
:102D500009FA82E7A85C010000007A44E05801000B
:102D600080590100C887FF1F8C5901009859010044
:102D70009C590100A4590100AC590100B05901004F
:102D8000BC590100C05901000888FF1FEC68010010
:102D9000CC590100685A0100785A0100D459010049
:102DA000E85901002DE9F04F85B000F1B4058A46DD
:102DB00003929B462E464FF0010806E008F10108F9
:102DC000B8F13F0F06F18C067BD03046FEF768FB6A
:102DD0000028F3D000230A2251467D480BF0E2FC84
:102DE00001217C480BF0BEF903980DF07DFB002318
:102DF0000246009376480B460BF01EFD01217548F4
:102E00000BF0B0F9594672480BF00CFD01217148E6
:102E10000BF0A8F941466E480BF004FD01216D4806
:102E20000BF0A0F900244FF0020921463046FEF7CE
:102E300083FA0DF059FBCDF8009002460B4664482A
:102E40000BF0FAFC0134012162480BF08BF9082CDD
:102E50004FF00207E9D100213046FEF713FB0DF0D9
:102E600043FB009702460B4659480BF0E5FC012155
:102E700058480BF077F901213046FEF703FB0DF0BF
:102E800033FB009702460B4651480BF0D5FC01215D
:102E900050480BF067F939463046FEF7F3FA0DF06B
:102EA00023FB009702460B4649480BF0C5FC08F18E
:102EB000010847480BF066FCB8F13F0F06F18C069D
:102EC00083D101274FF0000904E001373F2F05F1BE
:102ED0008C0579D02846FEF7E3FA0028F5D00023C8
:102EE0000A2251463C480BF05DFC0121394809F0AB
:102EF000BDFD03980DF0F8FACDF8009002460B46A0
:102F000035480BF099FC0121324809F0AFFD5946D4
:102F100031480BF087FC01212E4809F0A7FD394606
:102F20002D480BF07FFC01212A4809F09FFD002469
:102F30004FF0020821462846FEF7FEF90DF0D4FABC
:102F4000CDF8008002460B4623480BF075FC013497
:102F50000121204809F08AFD082C4FF00206E9D132
:102F600000212846FEF78EFA0DF0BEFA00960246C2
:102F70000B4619480BF060FC0121164809F076FD5C
:102F800001212846FEF77EFA0DF0AEFA00960246C1
:102F90000B4611480BF050FC01210E4809F066FD6C
:102FA00031462846FEF76EFA0DF09EFA009602466C
:102FB0000B4609480BF040FC013707480BF0E2FBD9
:102FC0003F2F05F18C0585D105B0BDE8F08F00BF1E
:102FD0000888FF1FFC590100DC87FF1F014B187098
:102FE000704700BF2087FF1F024B1878B0FA80F0AF
:102FF000400970472087FF1F0278002A00F0908068
:1030000070B5034682B00D46252A2AD158785C1C3B
:1030100008B325282FD0732831D0642824D06928FC
:1030200022D066284FD07A2859D0782835D0582811
:103030002FD062283ED0422838D06C2814D0632884
:1030400012D0742857D054285FD00BF00FF9627853
:10305000631C002AD8D1344802B0BDE870400BF0A0
:1030600091BB18781C46F0E72B1D29682E481D4699
:103070000BF0D8FBEBE710460BF0F8F8E7E72E680B
:1030800030460EF0FDFE0146304604350BF06AF87E
:10309000DDE7022125480BF065F82E1D296822483E
:1030A0000023102235460BF07DFBD0E7022120489B
:1030B0000BF058F82E1D29681B48002302223546C4
:1030C0000BF070FBC3E7073525F007050321D5E9B1
:1030D00000231548009108350BF0AEFBB7E7073524
:1030E00025F007050021D5E900230F480091083598
:1030F0000BF0A2FBABE7296801290EBF0D480E4873
:10310000012104350BF02EF8A1E72B68012B07BF36
:1031100004210A480A48052104350BF023F896E7F4
:1031200001480BF02FBB00BF0888FF1F005A0100A9
:10313000045A0100085A01000C5A0100105A0100FB
:10314000185A01000FB400B583B004A951F8040B5C
:103150000191FFF751FF03B05DF804EB04B0704735
:1031600070B51B4B1B4C1B6882B00D460193019B35
:103170002360194604460023164617480A220BF01E
:1031800011FB032115480AF0EDFF032C07D8DFE8F7
:1031900004F01A151002052111480AF0E3FF02217C
:1031A00010480AF0DFFF31462846FFF725FF02B03E
:1031B00070BD07210C480AF0D5FFF0E704210B4849
:1031C0000AF0D0FFEBE7052109480AF0CBFFE6E75C
:1031D00010BAFF1F8492FF1F0888FF1F3C55010093
:1031E000385A0100685A0100305A0100285A01007B
:1031F000205A01000FB400B5094B187883B020B1F4
:1032000003B05DF804EB04B0704705AB1A460499AF
:103210000193FFF7A5FF03B05DF804EB04B070471E
:103220002087FF1F0FB4094B00B51B78012B83B01B
:1032300004D903B05DF804EB04B0704705AB1A463F
:10324000049901930120FFF78BFFF2E72087FF1F0E
:103250000FB40B4B00B51B78032B83B004D903B01C
:103260005DF804EB04B0704705AB1A46049901936E
:103270000320FFF775FF03B05DF804EB04B070475F
:103280002087FF1F30B4074D074C084900232B70DF
:10329000236003654365836580F85C300B6030BC58
:1032A000704700BF9092FF1F8C92FF1F8892FF1FF4
:1032B0000A4A0B49D06D936D03FB00F34FF47A700B
:1032C00000FB03F0642310B50B600DF063FD0549AE
:1032D000054C0DF067FE206010BD00BF9893FF1FE6
:1032E0004087FF1FE4388E3E5893FF1F10B5074CF0
:1032F00020460BF047FA064B204619680BF092FA6D
:1033000003210448BDE810400AF02CBF0888FF1FC5
:103310000C95FF1F405A010038B5044608460D467B
:103320000EF0AEFD2368024629465B6820469847AA
:10333000054620460BF026FA284438BD2DE9F8430F
:103340004C484D4C4D4E4E4F4E4DFFF7FBFE4E4BF5
:103350004E4A5A6014224E494E481A70DC604E4A5A
:103360001E6100244D4E9F61DD624D4F4D4D9962AF
:10337000D8614FF07C514C481A635C630C224B4C73
:103380009E63DF634A4E1D6596274A4D9964D86453
:10339000022101205A655C6200223224C3F8C46015
:1033A000A3F8627064264FF496771D625D611D6418
:1033B0004FF41675597059721872986583F8442045
:1033C000C3F8A440A3F86440DE65A3F86670A3F8D0
:1033D0006070A3F8CC50D967C3F8B8104FF47A7175
:1033E00040F61C49A3F8D0504FF00A089A67C3F87A
:1033F0008000C3F88420C3F88C40C3F8AC4041F28D
:10340000040CC3F8A820C3F8B4004FF05A0EC3F858
:10341000BC60294F83F8C92083F8CA20274EC3F81F
:10342000901041F2883240F2D66144F62065FF24C4
:103430000520C3F86890C3F86C80C3F870C0C3F867
:1034400074E0C3F89470C3F89860C3F89C50C3F854
:10345000B040A3F8C200A3F8CE20A3F8D220C3F84E
:103460008820A3F8C020A3F8A010A3F8A210BDE8FC
:10347000F88300BF445A0100666686400000404061
:1034800033338340000082429893FF1F20A107003E
:10349000CDCCCC3DCDCC4C40000020C10000204222
:1034A0000000A0400AD7233D9A99794033337340F6
:1034B0009A99993ECDCC4C3E0000114400F0C8458D
:1034C00070B5464C464D4748E66800232B70FFF721
:1034D00025FA014630460DF04FFE08B104232B704B
:1034E0004048FFF719FA21690DF046FE18B12B7814
:1034F00043F010032B703B48FFF78CFAE16A0DF0A4
:1035000059FE18B12B7843F040032B700023354847
:103510006B70FFF781FA216B314E0DF02DFE08B173
:103520000123737000232F48EB70FFF7F7F905466E
:103530002C482B4EFFF7F0F9014628460DF074FB9E
:10354000216C0DF037FE08B10123F370264D25489C
:1035500000232B70FFF7E2F9A16A0646E0680DF040
:1035600063FB014630460DF025FE08B104232B70A5
:103570001C48FFF7D1F9A16A064620690DF056FBF9
:10358000014630460DF0F8FD18B12B7843F01003DA
:103590002B701448FFF73EFAE16B0646E06A0DF027
:1035A00043FB014630460DF005FE18B12B7843F081
:1035B00040032B7000230B486B70FFF72DFAE16B73
:1035C0000546206B084C0DF031FB014628460DF0F6
:1035D000D3FD08B10123637070BD00BF9893FF1F36
:1035E0009493FF1FB895FF1F0895FF1F2DE9F04327
:1035F000A14C2368012B83B02FD0022B5ED0032B6C
:103600007ED03BBB9D4B9E4AD3F8AC10D3F8B03074
:1036100012685B1A632B0EDD9A4803FB02F380FBF2
:103620000302DB17C3EB62131944062003B0BDE8A5
:10363000F04308F0CBB9944803FB022380FB03025C
:10364000DB17C3EB22121144062003B0BDE8F043A0
:1036500008F0BCB903B0BDE8F0838C4E33680A3380
:10366000B3F57A7F6EDC184633600DF093FB884922
:103670000DF0E4FB8046814DD5F8AC000DF08AFBDF
:103680000746D5F8B0000DF085FB39460DF0CCFAB1
:1036900041460DF0D3FB7F490DF084FC39460DF017
:1036A000C5FA0DF0A7FD0146062008F08FF97A4B08
:1036B0001B68002B4BD12368022BA0D1734B6F4E9C
:1036C00000221A60D6F8AC000DF064FB0546D6F86F
:1036D000B0000DF05FFB29460DF0A6FA00210DF0B9
:1036E000ADFB6C490DF05EFC29460DF09FFA0DF024
:1036F00081FD0146062008F069F92368032B80D17B
:10370000624B5E4E4FF47A721A60D6F8AC000DF040
:1037100041FB0546D6F8B0000DF03CFB29460DF004
:1037200083FA5C490DF08AFB5A490DF03BFC2946AF
:103730000DF07CFA0DF05EFD0146062008F046F91A
:1037400023685EE700234FF00008336093E702210F
:1037500052480AF007FD52480BF014F80621514870
:103760000AF000FD30680DF015FB49490DF066FBCD
:103770000CF0BAFE022702460B46009748480BF0B1
:103780005BF80D2148480AF0EDFCD5F8AC000DF0CF
:1037900001FB804630680DF0FDFA3D490DF04EFB0F
:1037A0008146D5F8B0000DF0F5FA41460DF03CFA2F
:1037B000014648460DF042FB36490DF0F3FB414609
:1037C0000DF034FA0CF090FE009702460B46344898
:1037D0000BF032F8394631480AF0C4FC30480AF0A0
:1037E000D1FF39462D4808F095FD30480AF0CAFF50
:1037F00006212C4808F08EFD30680DF0CBFA2449E4
:103800000DF01CFB0CF070FE009702460B4627489B
:103810000BF012F80D21244808F07CFDD5F8AC001F
:103820000DF0B8FA804630680DF0B4FA18490DF082
:1038300005FB0646D5F8B0000DF0ACFA41460DF098
:10384000F3F9014630460DF0F9FA12490DF0AAFBE2
:1038500041460DF0EBF90CF047FE009702460B468F
:1038600012480AF0E9FF39460C4808F053FD0F48AA
:103870000AF088FF1FE700BFF094FF1F9893FF1F17
:103880004087FF1F1F85EB51CBF08D28AC92FF1FA7
:10389000CDCCCC3D0000C8424887FF1FEC6801003A
:1038A0000888FF1F645A01006C5A0100C887FF1F77
:1038B00030B51C481C4C83B00AF064FF19480AF06C
:1038C00061FF18480AF05EFF0D2118480AF04AFC13
:1038D00017480AF057FF16480AF054FF14480AF038
:1038E00051FF0D21114808F015FDD4F8A830012B27
:1038F00022D0104D0B48297800230A220AF052FFEB
:10390000002329780A480A220AF04CFF2B78052B5D
:1039100000F29080DFE813F0390242024B025402B9
:103920005D0266020888FF1F9893FF1F7C5A010002
:10393000C887FF1F0495FF1F0921C7480AF012FC22
:103940000921C54808F0E6FCC448FEF7E5FF2169F7
:103950000DF012FC38B10F21C1480AF003FC0F2111
:10396000BF4808F0D7FCBD48FEF7D8FFE1680DF06E
:1039700021FC38B10E21BB480AF0F4FB0E21B948F6
:1039800008F0C8FCB548FEF7C9FF0546B348FEF786
:10399000C3FF014628460DF047F9216C0DF00AFCE3
:1039A00038B11121B0480AF0DDFB1121AE4808F012
:1039B000B1FCAA48FEF7D6FFE16A0DF0FBFB38B177
:1039C0000C21AA480AF0CEFB0C21A84808F0A2FC62
:1039D000A248FEF7C7FF216B0DF0CEFB38B10D21D9
:1039E000A3480AF0BFFB0D21A14808F093FCA14BAE
:1039F0009A481B68012B00F02982FEF78DFF216990
:103A00009D4D0DF0D7FB002800F0BD819348FEF7D7
:103A100085FFE968994D0DF0AFFB58B12B78052B68
:103A200000F02E82082196480AF09CFB0821944859
:103A300008F070FC022193480AF094FB022191489F
:103A400008F068FC122008F047F9012800F0DA813C
:103A5000112008F041F9012800F0E2818A4B1B682F
:103A6000012B00F0EA8102218648884C0AF07AFB9B
:103A7000874B884819680AF0D5FE86480AF082FE0E
:103A8000042185480AF06EFB0B2008F025F900237D
:103A900001460A227F480AF085FE0C2008F01CF936
:103AA000002301460A227B480AF07CFE142008F01D
:103AB00013F9002301460A2276480AF073FE152006
:103AC00008F00AF900230A22014672480AF06AFE49
:103AD000062172480AF046FB71480AF053FE0421A1
:103AE0006D4808F017FC0B2008F0F6F8002301469B
:103AF0000A226B480AF056FE0C2008F0EDF800236D
:103B000001460A2266480AF04DFE142008F0E4F847
:103B1000002301460A2262480AF044FE152008F0FC
:103B2000DBF8002301460A225D480AF03BFE06212D
:103B30005A4808F0EFFB2368DB074FF0010140F122
:103B4000E18058480AF00EFB0121564808F0E2FBDC
:103B5000236898074FF0010140F1E18051480AF0D5
:103B600001FB01214F4808F0D5FB23685A074FF0AD
:103B7000010140F1E1804B480AF0F4FA0121494883
:103B800008F0C8FB23681B074FF0010140F1E180FA
:103B900044480AF0E7FA0121424808F0BBFB04213F
:103BA00041480AF0DFFA112008F096F80023014698
:103BB0000A2238480AF0F6FD102008F08DF800239C
:103BC00001460A2233480AF0EDFD122008F084F87D
:103BD000002301460A222F480AF0E4FD132008F0D2
:103BE0007BF800230A2201462A480AF0DBFD042163
:103BF0002D4808F08FFB112008F06EF800230146D5
:103C00000A2227480AF0CEFD102008F065F80023AC
:103C100001460A2222480AF0C5FD122008F05CF88D
:103C2000002301460A221E480AF0BCFD132008F0BA
:103C300053F80A220023014619480AF0B3FD184838
:103C40000AF0A0FD182119480AF08CFA184B1888C0
:103C50000DF0A0F82EE000BF8C5A0100B895FF1FB0
:103C6000985A0100A85A0100B85A0100CC5A010024
:103C7000DC5A01003893FF1F9893FF1F0495FF1F24
:103C8000105B0100EC6801002095FF1F6C94FF1F82
:103C9000F494FF1F0888FF1F845B01008C5B010008
:103CA000C887FF1F945B01009C5B0100A45B0100BF
:103CB0009C92FF1F77490DF0C1F80CF015FC002411
:103CC00002460B46009474480AF0B6FD1F21734863
:103CD0000AF048FA724B18880DF05CF86D490DF047
:103CE000ADF80CF001FC00940B4602466A480AF05D
:103CF000A3FD02216B480AF035FA2B78032B30D054
:103D000003B030BD68480AF02DFA0121664808F07A
:103D100001FB236898074FF001013FF51FAF624890
:103D20000AF020FA0121604808F0F4FA23685A07E3
:103D30004FF001013FF51FAF5B480AF013FA012174
:103D4000594808F0E7FA23681B074FF001013FF5D7
:103D50001FAF55480AF006FA0121534808F0DAFA75
:103D60001DE7524B1B78002B45D01E2150480AF00E
:103D7000F9F950481B2108F0CDFA4F4803B0BDE8CF
:103D800030400AF0FFBC4D4D54E606214C480AF085
:103D9000E9F906214A4808F0BDFA4BE607214948EF
:103DA0000AF0E0F90721474808F0B4FA42E6072193
:103DB00045480AF0D7F90721434808F0ABFA39E63D
:103DC000082142480AF0CEF90821404808F0A2FA3A
:103DD00030E60B213E480AF0C5F90B213C4808F0BB
:103DE00099FA27E607213B480AF0BCF90721394830
:103DF00008F090FA1EE6202137480AF0B3F91D2199
:103E00003648B8E70E2136480AF0ACF90E2134489E
:103E100008F080FA112007F05FFF01287FF41EAE42
:103E20000A2130480AF09EF90A212E4808F072FA59
:103E30002D4B1B68012B7FF416AE12212B480AF084
:103E400091F91221294808F065FA0CE6FEF764FDA5
:103E5000616A0DF0AFF988B116212548174D0AF0B7
:103E600081F90A2123480AF07DF91621204808F03B
:103E700051FA0A211F4808F04DFADBE50F4DD1E554
:103E80000A211C480AF06EF90A211A4808F042FA81
:103E9000D0E500BFCDCCCC3D0888FF1FC05B010042
:103EA0001095FF1FE05B0100985B0100A892FF1FC7
:103EB000285C0100485C0100C887FF1F0495FF1FB4
:103EC0001C5B0100245B0100385B0100405B0100CA
:103ED0002C5B01004C5B0100E45B0100085C01000D
:103EE000545B0100645B01002095FF1F705B0100C3
:103EF000EC5A0100045B01002DE9F04F7C4CE56FAA
:103F0000012D8DB000F0D181032D00F01181DFF87B
:103F10001882784F784EA36F7848012B09BF31681B
:103F2000316801F10041316007F09CFA3B68002BD9
:103F300040F0AB807148DFF8F09107F069FA3B6818
:103F4000C8F800000546002B43D1E36F684A012BF7
:103F500060D06B4928460DF02DF9C0B96949284653
:103F60000DF00AF998B9684A684B12680B920B9ADF
:103F70001A60D4F8B4000CF00DFF29460CF05EFF77
:103F80000023C8F8000033600DB0BDE8F08FDFF803
:103F900078A15E4FDAF800300A930A983B68DFF8A0
:103FA0008C91C01A0CF0F2FE29460CF047FF5849DC
:103FB0000CF0F8FF56490CF0F5FFD9F800100CF0A2
:103FC00035FEDAF800300993099BC9F800003B6020
:103FD000CFE70CF089FA022502460B4600954D48C2
:103FE0000AF02AFC04214C480AF0BCF8D9F8000079
:103FF0000CF07AFA009502460B4648480AF01CFC81
:104000000421454808F086F9E36FD9F80050384A92
:10401000012B9ED1424B1B68012B00F09382022B97
:10402000A7D1D2F89C7038460CF0B4FE29460DF0AA
:10403000A3F840B978420CF0ADFE29460DF0BAF86D
:10404000002800F0B282DFF8C0A0304FDAF800306C
:10405000079307983B68DFF8D490C01A0CF096FEDF
:1040600029460CF0EBFE2A490CF09CFF28490CF085
:1040700099FFD9F800100CF0D9FDDAF8003006935A
:10408000069BC9F800003B6073E71C4807F0C0F9C5
:104090000CF02AFA022502460B4600951D480AF04C
:1040A000CBFB03211F480AF05DF8D4F89C10194897
:1040B0000AF0B8FB03211B480AF054F80F4807F038
:1040C000A7F90CF011FA009502460B4613480AF0C6
:1040D000B3FB0321134808F01DF9D4F89C100F48D6
:1040E0000AF0A0FB03210F4808F014F922E700BFF3
:1040F0009893FF1F4495FF1F6C93FF1F7093FF1F42
:104100000000FA430000FAC310BAFF1F1495FF1F06
:1041100000007A440888FF1FA45C0100C887FF1FC5
:104120005C87FF1F405501004C93FF1F5893FF1FF2
:10413000DFF85493CA4ED9F80030DFF85083D3F833
:1041400054010F210123336006F0F2FB3368C54FA1
:10415000012B3B6800F0D280002B40F09981D9F808
:104160000030C14DD3F85401036C19688EB22E6033
:1041700006F0FEF8B4F8A22040F6E44303FB06F193
:10418000B1FBF0F0801A00B20CF004FEB749B84E53
:104190008246D4F894000CF051FE014650460CF0D3
:1041A00001FF2B683060632BDFF8BCA200F34B816A
:1041B000002333603B68002B3FF4ADAE0221AD48D5
:1041C00009F0D0FFD9F800202B68D2F8540140F64E
:1041D000E44B0BFB03FA06F0CBF8BAFBF0F00CF063
:1041E000D5FD8246B4F8A2000CF0D4FD014650463D
:1041F0000CF01AFD0CF078F94FF0020A02460B465B
:10420000CDF800A09C480AF017FB5146994809F0E8
:10421000A9FF30680CF068F9CDF800A002460B4603
:1042200095480AF009FB5146944809F09BFF514616
:10423000904809F097FF51468E4808F06BF8D9F87E
:1042400000202B68D2F854010BFB03FB06F090F81A
:10425000BBFBF0F00CF09AFD0546B4F8A2000CF0A0
:1042600099FD014628460CF0DFFC0CF03DF9CDF835
:1042700000A002460B4682480AF0DEFA51467D480D
:1042800008F048F830680CF02FF9CDF800A002468D
:104290000B467B480AF0D0FA5146784808F03AF8C5
:1042A0005146744808F036F835E6DFF8E081D4F876
:1042B0009C70D8F80060DFF8D09138460CF06AFDA9
:1042C00031460CF077FF48B178420CF063FD0146AF
:1042D00030460CF06FFF002840F06E81D9F80020C6
:1042E0005F4ED2F854015F4F02230E21336006F077
:1042F0001FFB3368012B3B687FF42EAF002B40F08F
:104300006581D9F80030584DD3F85401036C196811
:104310001FFA81FBC5F800B006F02AF8B4F8A03007
:10432000534E40F6E44A0AFB0BFBBBFBF0F0C01A0D
:1043300000B20CF02FFD4D498346D4F898000CF0E4
:104340007DFD014658460CF02DFED9F800202B6863
:104350003060D2F854010AFB03FA06F009F8B4F809
:10436000A030BAFBF0F00FFA80FAC3EB0A03002B7F
:10437000B4F8C220B8BF5B429342BCBF0023336095
:104380003B68002B3FF4C7AD02213A4809F0EAFE32
:10439000D9F800202B68D2F8540140F6E44A0AFB11
:1043A00003FB05F0E5FFB4F8A010BBFBF0F003B28F
:1043B000591A31480AF036FA02212E4809F0D2FE85
:1043C00030680CF091F84FF0020B02460B46CDF826
:1043D00000B029480AF030FA03212A4809F0C2FE49
:1043E0005946244809F0BEFE5946224807F092FF7C
:1043F000D9F800202B68D2F854010AFB03FA05F023
:10440000B7FFB4F8A010BAFBF0F00FFA80FAC1EBD6
:104410000A011B480AF006FA5946164807F07AFFC7
:1044200030680CF061F8CDF800B002460B46144835
:104430000AF002FA0321134807F06CFF59460D48B1
:1044400007F068FF67E5D9F80030D3F8540105F0AC
:104450008FFFDAF8003064389842FFF4A9AEA9E67D
:104460005C87FF1F4495FF1F9093FF1FACC5273744
:104470006C93FF1FEC6801000888FF1FA05C01001F
:10448000C887FF1F8C5C01001895FF1F4C93FF1F0E
:104490008148824DDFF834A20AF074F90C2180487B
:1044A00009F060FE0C217F4809F05CFE7E480AF0AE
:1044B00069F90C217A4807F02DFF0C21794807F0A3
:1044C00029FFD9F800203B68D2F85401026C11682A
:1044D0008EB22E60002B3FF44BAE05F049FF40F644
:1044E000E44B0A2200230BFB06F1B1FBF0F16A4812
:1044F0000AF058F902216D4809F034FEB4F8A21010
:1045000065480AF08FF9DAF800302968D3F85401C9
:104510000BFB01FB05F02CFF0023BBFBF0F10A2293
:1045200061480AF03FF90221604807F0F3FEB4F851
:10453000A2105D480AF076F9DAF800302E68D3F858
:10454000540115E65A4928460CF034FE58B9594929
:1045500028460CF011FE30B9574A584B12680592A4
:10456000059A1A6005E5DFF850A1544FDAF80030DB
:10457000049304983B68DFF86091C01A0CF006FCC5
:1045800029460CF05BFC4E490CF00CFD4C490CF03C
:1045900009FDD9F800100CF049FBDAF8003003935C
:1045A000039BC9F800003B60E3E4434A434B1268B5
:1045B0000892089A1A60DCE4D9F80030414ED3F82A
:1045C000540135600F2106F0B3F9BFE532480AF017
:1045D000D9F835480AF0D6F8E36F012B4FF00B01FC
:1045E00052D0394809F0BEFD0B21374807F092FE42
:1045F0000C212C48294D354E09F0B4FD0C212948D9
:1046000007F088FED9F800203B68D2F85401026C0C
:1046100011681FFA81FBC5F800B0002B3FF47CAE97
:1046200005F0A6FE40F6E44A0A2200230AFB0BF13D
:10463000B1FBF0F118480AF0B5F80121244809F05F
:1046400091FDB4F8A01014480AF0ECF8336829681A
:10465000D3F854010AFB01FA05F08AFE0023BAFBE5
:10466000F0F10A2210480AF09DF80121184807F0DD
:1046700051FEB4F8A0100C480AF0D4F83368D5F80D
:1046800000B0D3F8540147E6124809F06BFD0B2146
:10469000104807F03FFEABE70888FF1F9093FF1F0D
:1046A000905C01007C5C0100C887FF1FEC68010082
:1046B0000000FA430000FAC310BAFF1F1495FF1F51
:1046C00000007A445C87FF1F705C01001895FF1F93
:1046D000785A0100645C01005893FF1F2DE9F047F0
:1046E000B64D2B6882B0002B00F0B180B44CB54FB2
:1046F000D4F88430DFF81483B34EB14D012B00F0B1
:10470000E080D5F85CA0D6F80090AD6D05FB0AF509
:104710004FF47A7000FB05F00CF03CFBAB49DFF87E
:10472000A4A2054648460CF089FB29460CF03AFC49
:10473000A7490CF083FB0CF05DFD632838607ADD3F
:104740002846A2490CF02EFC6423CAF80030D8F8A1
:1047500000303060002B77D0E36F994D012B00F0D3
:10476000E080032B00F01681022B00F00A81994DA6
:104770009948022109F0F6FC28680BF0B5FE0224E6
:1047800002460B46009495480AF056F82146944894
:1047900009F0E8FC2146904809F0E4FC39688F48AC
:1047A0000AF040F806218F4809F0DCFC30688749A0
:1047B0000CF044FB0BF098FE009402460B46874831
:1047C0000AF03AF80321884809F0CCFC834809F044
:1047D000D9FF2146804807F09DFD28680BF084FE34
:1047E000009402460B4681480AF026F821467C4890
:1047F00007F090FD7D4809F0C5FF39687B480AF055
:1048000011F80621774807F085FD30686F490CF0F4
:1048100015FB0BF069FE009402460B4673480AF044
:104820000BF80321704807F075FD704802B0BDE831
:10483000F04709F0A7BF0028BCBF0023CAF800302A
:10484000D8F80030002B87D102B0BDE8F087684867
:104850005B4CFEF7E3F86749A76EE66E0CF0EEFAE4
:104860000CF0EEFC226F636FD21B9B1B80B29A424E
:10487000A0EB070064DC03FB00F393FBF2F31E44A0
:10488000DFF888814F4FD8F800303E60002B5ED1B2
:104890003346E06DA26D4C4E00FB03F002FB00F0CE
:1048A00000EB800040000CF075FA48490CF07AFBF0
:1048B00001232B60D4F884303060012B404D7FF40D
:1048C00020AF4B48FEF7AAF84A49D5F868A0D5F8BA
:1048D0006C900CF0B3FA0CF0B3FC2A6F6B6FA56D03
:1048E000CAEB0202C9EB030380B29A42CAEB000092
:1048F000D4F85CA0C6BF03FB00000132584390FB14
:10490000F2F0484400FB0AF005FB00F000EB8000E9
:1049100040000CF03FFA2D490CF044FB814630601A
:10492000F4E6354B1B68012B4FF00A013CD03348AD
:1049300009F018FC0A21314807F0ECFCEB6F10E796
:1049400003FB0000531C90FBF3F0064498E70221A0
:10495000214809F007FC3968204809F063FF02216B
:104960001D4809F0FFFB02211B4807F0D3FC396802
:104970001E4809F057FF0221174807F0CBFC3B689F
:1049800087E707211E4809F0EDFB07211C4807F0C7
:10499000C1FCECE610211B4809F0E4FB102119488A
:1049A00007F0B8FCE36FDFE6174809F0DBFB0A21EC
:1049B000154807F0AFFCEB6FD3E600BFB092FF1FC6
:1049C0009893FF1F4087FF1F5893FF1FE4388E3EC8
:1049D0000000C8424C93FF1FEC6801000888FF1FCD
:1049E000A05C0100E05C0100E85C0100C887FF1FDB
:1049F000B895FF1F00007A445C87FF1FB85C010078
:104A0000D85C0100C45C0100AC5C01004887FF1F5A
:104A100030B5112083B007F05FF9012818D01220BB
:104A200007F05AF9012813D000210B2007F04EF9A6
:104A300000210C2007F04AF90021152007F046F963
:104A40002649274B0120002208701A6003B030BDB0
:104A50000121152007F03AF9224A234C234B126812
:104A6000D4F8881001921B68019A1D4D0B449342A3
:104A70004FF00201296005D901210C2007F026F929
:104A800003B030BDD4F890000CF084F9184B1968CD
:104A90000CF072FB0028EFD101210B2007F016F972
:104AA00094F8C8300324012B2C600DD0122007F09D
:104AB00013F9012808BF094B4FF0110008BF1C7003
:104AC00007F00AF9012802D1044B02221A700021D2
:104AD0000C2007F0FBF803B030BD00BF0495FF1FAA
:104AE0004095FF1F10BAFF1F9893FF1F4C95FF1FA3
:104AF0004C93FF1FF0B56D4E6D4D34682B689C4292
:104B000087B03AD014F0010156D014F002014AD017
:104B100014F004013ED0E3070FD52B68DF070CD457
:104B2000644F3A68002A00F09E80634B1B68019333
:104B3000019B934200F289803468A0070DD52B6851
:104B400099070AD45D4F3A68002A3ED05A4B1B6839
:104B50000393039B93425AD8346862070DD52B68A0
:104B60005B070BD4564F3A68002A3FD0524B1B6864
:104B70000593059B934258D834680CB107B0F0BD3B
:104B80002146162006F022FF2146172006F01EFFC0
:104B900007B0F0BD052006F019FF2B68346803F05C
:104BA000FB032B60B7E7172006F010FF2B68346873
:104BB00003F0FD032B60ABE7162006F007FF2B6820
:104BC000346803F0FE032B609FE73E4B1B68002B0D
:104BD00056D1FF21172006F0F9FE374B3A4A1968E3
:104BE0000291029912680A443A60B0E7354B1B689B
:104BF000002B50D1FF21052006F0E8FE2E4B324A53
:104C000019680491049912680A443A60AFE72F4B7F
:104C10001720D3F88C1006F0D9FE2B68346843F0C7
:104C2000020300222B603A6097E7284B0520D3F857
:104C30008C1006F0CBFE2B68346843F0040300228E
:104C40002B603A60002C99D19AE7204B1620D3F8BC
:104C50008C1006F0BBFE2B68346843F00103002281
:104C60002B603A6069E7FF21162006F0AFFE124B79
:104C7000154A19680091009912680A443A6055E78C
:104C8000134809F07FFD0C21124809F06BFA104817
:104C900009F078FD9DE70E4809F074FD0C210E48DF
:104CA00009F060FA0A4809F06DFDA3E74095FF1F7F
:104CB0006C94FF1FE494FF1F10BAFF1FE894FF1FBE
:104CC000EC94FF1F4887FF1F7087FF1F9893FF1FFB
:104CD0000888FF1FEC5C0100FC5C01002DE9F04737
:104CE0006B4EDFF8D4813368DFF8D091D3F85401EC
:104CF000684D0F2105F01CFE002301222221664889
:104D0000C8F80030C9F8002009F02CFA22216248C6
:104D100007F000FBD8F80030132B24DC40F6E44702
:104D20003368B5F8A0A0D3F85401036C1C6805F0F3
:104D30001FFBA4B2012107FB04F4B4FBF0F45748B5
:104D40005444A5F8A04009F00DFA0121534807F09A
:104D5000E1FA642006F0F6FFD8F800300133132B97
:104D6000C8F80030DCDDB5F8A0304D4A4D48A2FB54
:104D700003129B1A02EB5303C3F30F131946A5F852
:104D8000A03009F04FFD1D21474809F0EBF9022141
:104D9000464809F0E7F9434809F0F4FCB5F8A010DB
:104DA000434809F03FFD1D213F4807F0B3FA0221B7
:104DB0003E4807F0AFFA3E4809F0E4FC32680023B1
:104DC000D2F85401C8F800300E2105F0B1FD0223DD
:104DD00022213148C9F8003009F0C4F922212E48B7
:104DE00007F098FAD8F80030132B24DC40F6E4479B
:104DF0003368B5F8A290D3F85401036C1C6805F031
:104E0000B7FAA4B2012107FB04F4B4FBF0F4234881
:104E10004C44A5F8A24009F0A5F901211F4807F06C
:104E200079FA642006F08EFFD8F800300133132B96
:104E3000C8F80030DCDDB5F8A230194A1948A2FBE9
:104E400003129B1A02EB5303C3F30F131946A5F881
:104E5000A23009F0E7FC1D21164809F083F9022170
:104E6000124809F07FF90F4809F08CFCB5F8A21040
:104E70000F4809F0D7FC1D210E4807F04BFA0B48EC
:104E8000022107F047FA0A48BDE8F04709F07ABC6A
:104E90001895FF1F9893FF1F0C5D0100505D0100E6
:104EA000876118860888FF1F305D0100EC680100EB
:104EB000C887FF1F545D01004893FF1F5C87FF1FD9
:104EC0002DE9F843C04BC14CC14E1B68706D40F2D8
:104ED000513108222160E271002B40F06F810BF00C
:104EE00059FFB16905460BF0A9FFBA49B84F0BF05D
:104EF000A5FF0CF0A5F980B203126372B64AB74B56
:104F000012881B882072A37228461B121512E372A6
:104F10002273F16965730BF091FFAE49AB4D0BF055
:104F20008DFF0CF08DF983B21A122946AC48A37399
:104F3000E27306F0D5F8AB4AAB4B12681988A17240
:104F4000D3B2237203EB83035B00237302EB820370
:104F500043F3D7134FEA212E12124FF008084FF0F7
:104F60000009294663739E4884F80BE040F25533EC
:104F70006272236084F8078084F80E9084F80F90A2
:104F800006F0AEF840F256339848236084F8078064
:104F9000FDF7C6FC96490BF051FF0CF051F9207259
:104FA0009248FDF7BDFC92490BF048FF0CF048F920
:104FB000904A8F49C0F30723637210680BF0F2FF29
:104FC0000CF018F940FA08F3A0728848E372FDF774
:104FD000C9FC80490BF032FF0CF00CF920738348B8
:104FE000FDF7C0FC7B490BF029FF0CF003F940F3FF
:104FF0000720294660737A4884F80E9084F80F9051
:1050000006F06EF8022006F09DFE7B4A7B4B11787D
:105010002172517890786172D178A0721A7898785C
:10502000E172597822736173DA78A07340F25A33CF
:1050300029466B48E273236084F8078006F050F835
:105040006F4B67481A7822725A7862729A78A27205
:10505000DA78E2721A7922735A7962739A79DB7973
:10506000E373294640F25E33A273236084F807801D
:1050700006F036F8022006F065FE624B58481A78B2
:1050800022725A7862729A78A272DA78E2721A7987
:1050900022735A7962739A79DB79E37329464FF464
:1050A0005C73236084F80780A27306F019F8564BEE
:1050B0001B68012B00F0AE80022006F043FEF36D6A
:1050C0002373022500221B12284640F2733808275A
:1050D00063732272012362729922A273E372E373F3
:1050E000A572C4F80080E77106F02CFE3F48C4F8B2
:1050F0000080E771FDF710FC44490BF09FFE0CF0B7
:105100009FF820723948FDF707FC40490BF096FEE6
:105110000CF096F8C0F3072334486372FDF7FEFBEA
:105120003A490BF08BFE0CF08BF8A0722F48FDF77C
:10513000F5FB36490BF082FE0CF082F8C0F3072332
:105140002A48E372FDF768FC31490BF06FFD0CF063
:1051500077F820732548FDF75FFC2D490BF066FDBD
:105160000CF06EF8C0F3072320486373FDF752FC80
:1051700027490BF05BFD0CF063F8A0731B48FDF7AB
:1051800049FC23490BF052FD0CF05AF80F49C0F3CB
:1051900007231348E37305F0A3FF284606F0D2FD6A
:1051A000B26DF36DE57112FB03F3C3F3072140F217
:1051B0007932237261722260BDE8F8830BF0EAFD58
:1051C000716A05468FE600BF3893FF1F3095FF1FB9
:1051D0009893FF1F000020411095FF1F9C92FF1F16
:1051E00068B8FF1F4087FF1F4487FF1FB895FF1F48
:1051F0000000C8424C93FF1F9493FF1F0895FF1FA8
:105200002C87FF1F6087FF1F2095FF1F00007A4437
:10521000339388432648FDF77FFB396D0BF006FD7D
:1052200081462348FDF77AFB014648460BF0A4FF70
:1052300000283FF441AF40F2C3331D4885F8078092
:105240002B60FDF769FBFF6C39460BF095FFC8B189
:10525000184938460BF0F2FD0BF0F2FF80B240FA2D
:1052600008F368722B7200230127042503221249D8
:105270001248A772E57222736373A373E37305F098
:105280002FFF19E70A48FDF747FB0A490BF0D6FD47
:105290000BF0D6FFC0F3072305482B72FDF73CFB4C
:1052A00004490BF0CBFD0BF0CBFF6872DBE700BFCE
:1052B000B895FF1F00007A443095FF1F68B8FF1FA4
:1052C0002DE9F04F83B008F0E7FE384D286007F075
:1052D000A3F8002840F36881354F07F0ADF83B682C
:1052E0002860042B00F06681092B00F07C83022BE0
:1052F0004CD1A0F13103422B52D8DFE813F09E0DC0
:105300006B0D190D310D4E0D5B00700C7F0C5100B3
:105310005100510051005100510051005100510005
:1053200051005100510051005100510051005100F5
:1053300051005100510051005100510051005100E5
:1053400051005100510051005100510051005100D5
:1053500051005100510051005100510051005100C5
:1053600051004300510051005100510051005100C3
:105370005100510051005100510051005100810075
:105380005100960CFFF7AAFC3B682868082B2AD12D
:10539000322800F00984712832D0312801F0F081E0
:1053A000732831D003B0BDE8F08F00BF9892FF1F83
:1053B0005095FF1F01233B6008F0AAFE002805DD81
:1053C000C148C24C09F072FBA4F8C20007F024F8EF
:1053D000002805DDBE48BD4C09F068FBA4F8C200FA
:1053E00063203B682860072B40F09681332802F049
:1053F000798640F37383342802F0FE857128CFD17B
:10540000002273233A602B603B68002BCAD1B14E57
:10541000AD48B14C09F0B6F90421B04808F0A2FE3D
:10542000A94809F0AFF91021AD4808F09BFEA64845
:1054300009F0A8F91321AB4808F094FE2168A248AE
:1054400009F0F0F9A04809F09DF91421A64808F0E8
:1054500089FE9D4809F096F91E21A44808F082FEB5
:10546000994809F08FF91521A14808F07BFE96486C
:1054700009F088F91E219F4808F074FE924809F04F
:1054800081F920219C4808F06DFE8F4809F07AF9D7
:1054900019219A4808F066FE8B4809F073F9122129
:1054A000974808F05FFE884809F06CF91921954883
:1054B00008F058FE844809F065F90F21924808F079
:1054C00051FE814809F05EF90D21904808F04AFE2E
:1054D0007D4809F057F97E4809F054F904217F48C6
:1054E00006F018FF7A4809F04DF910217C4806F0C3
:1054F00011FF774809F046F913217A4806F00AFFB0
:105500002168734809F08EF9714809F03BF91421BC
:10551000754806F0FFFE6E4809F034F91E21734805
:1055200006F0F8FE6A4809F02DF91521704806F0DA
:10553000F1FE674809F026F91E216E4806F0EAFEE2
:10554000634809F01FF920216B4806F0E3FE60482C
:1055500009F018F91921694806F0DCFE5C4809F0E9
:1055600011F91221664806F0D5FE594809F00AF9EA
:105570001921644806F0CEFE554809F003F90F21C1
:10558000614806F0C7FE524809F0FCF80D215F485B
:1055900006F0C0FE4E4809F0F5F800220123326003
:1055A0003B6003B0BDE8F08F594F28683B68042B7F
:1055B0007FF49AAEA0F13103402B3FF6F1AE01A289
:1055C00052F823F0CD690000176A00005B69000003
:1055D000516A0000E5690000016A0000136A0000DA
:1055E0001B6A00001F6A0000A1530000A1530000C5
:1055F000A1530000A1530000A1530000A1530000DB
:10560000A1530000A1530000A1530000A1530000CA
:10561000A1530000A1530000A1530000A1530000BA
:10562000A1530000A1530000A1530000A1530000AA
:10563000A1530000A1530000A1530000A15300009A
:10564000A1530000A1530000A1530000A15300008A
:10565000A1530000A1530000A1530000A15300007A
:10566000A1530000A1530000A1530000A15300006A
:10567000A1530000A1530000A1530000A15300005A
:10568000A1530000A1530000A1530000A15300004A
:10569000A1530000A1530000A1530000A15300003A
:1056A000A1530000A1530000A1530000A15300002A
:1056B000A1530000A1530000A1530000A15300001A
:1056C000A1530000015400000888FF1F9893FF1F9A
:1056D000C887FF1F4887FF1F2487FF1FB461010091
:1056E000BC610100D0610100E4610100FC610100C6
:1056F0001C62010034620100546201007862010002
:1057000094620100A8620100C4620100D462010039
:105710005095FF1F3B682868062B40F08D80A0F154
:105720003103402B3FF63CAE01A252F823F000BFFC
:10573000AB6A0000FB6A00004B6B0000956B000039
:105740003B6C0000596C0000C96C0000556A0000F9
:10575000676A0000A1530000A1530000A15300009C
:10576000A1530000A1530000A1530000A153000069
:10577000A1530000A1530000A1530000A153000059
:10578000A1530000A1530000A1530000A153000049
:10579000A1530000A1530000A1530000A153000039
:1057A000A1530000A1530000A1530000A153000029
:1057B000A1530000A1530000A1530000A153000019
:1057C000A1530000A1530000A1530000A153000009
:1057D000A1530000A1530000A1530000A1530000F9
:1057E000A1530000A1530000A1530000A1530000E9
:1057F000F16D0000A1530000A1530000A15300006F
:10580000A1530000A1530000A1530000A1530000C8
:10581000A1530000A1530000A1530000A1530000B8
:10582000A1530000A1530000A1530000A1530000A8
:10583000015400003B682868052B15D1332802F07D
:10584000738440F37881352802F0B684C2F28B84E9
:1058500071287FF4A5ADCE49002373220B603B6015
:105860002A60D1E53B682868032B40F0B680A0F1A0
:105870003003422B3FF694AD01A252F823F000BF53
:105880008D59000079790000C77900001578000073
:1058900057780000DD7800002B790000417C000083
:1058A0007B7C0000C57C0000A1530000A1530000D8
:1058B000A1530000A1530000A1530000A153000018
:1058C000A1530000A1530000A1530000A153000008
:1058D000A1530000A1530000A1530000A1530000F8
:1058E000A1530000A1530000A1530000A1530000E8
:1058F000A1530000A1530000A1530000A1530000D8
:10590000A1530000A1530000A1530000A1530000C7
:10591000A1530000A1530000A1530000A1530000B7
:10592000A1530000A1530000A1530000A1530000A7
:10593000A1530000A1530000A1530000A153000097
:10594000A1530000137D0000536E00006777000034
:10595000A1770000DB770000157A0000B37A000021
:10596000017B0000A1530000537B0000957B0000E9
:10597000A1530000A1530000A1530000A153000057
:10598000A153000001540000FD7B000008F0C0FBA3
:1059900000280DDD7F48804C09F088F80126034679
:1059A000014662227D48A3653E602A60FCF7BAFF8B
:1059B00006F032FD002842F318837948764C09F04E
:1059C00075F801260346014662227448A3653E60CD
:1059D0002A60FCF7A7FF3B682868012B27D07328B3
:1059E0007FF4E0AC10E56C4C6B4A94F8CA30012BA4
:1059F00084BF002384F8CA3094F8C930012B02D93F
:105A0000002382F8C930322800F0D68671283FF48E
:105A1000F7AC31287FF4C4AC94F8C930B3FA83F3FF
:105A20005B090122782084F8C9303A602860A0F12F
:105A30005203262B3FF6B4AC01A252F823F000BF6C
:105A40006D7D0000A1530000A1530000A153000090
:105A5000A1530000A1530000A1530000A153000076
:105A6000A1530000A1530000A1530000A153000066
:105A7000A1530000A1530000A1530000155C0000D9
:105A800027850000095E0000FB5D000097620000B2
:105A9000A1530000A1530000A1530000315C00009D
:105AA000A15300002D850000A1530000A153000068
:105AB000A1530000A1530000A15300004D7D000040
:105AC000A1530000A1530000A1530000A153000006
:105AD000A1530000A1530000235C0000312802F014
