:1000000000800020BD01000045B90000FDB80000DF
:10001000FDB80000FDB80000FDB80000FDB800000C
:10002000FDB80000FDB80000FDB8000045B90000B3
:1000300045B90000FDB8000029E700002DE70000E9
:1000400045B9000045B9000045B9000045B90000B8
:1000500045B9000045B9000045B9000045B90000A8
:1000600045B9000045B9000045B9000045B9000098
:1000700045B9000045B9000045B9000045B9000088
:1000800045B9000045B9000045B9000045B9000078
:1000900045B9000045B9000045B9000045B9000068
:1000A00045B9000045B9000045B9000045B9000058
:1000B00045B90000BDB20000C9B20000CDB20000D9
:1000C000D9B20000DDB20000E1B2000045B9000085
:1000D00045B9000045B9000045B9000045B9000028
:1000E00045B9000045B9000045B9000045B9000018
:1000F00045B9000015C7000045B9000055D0000003
:1001000045B9000069D7000045B9000045B90000B5
:1001100045B9000045B9000045B9000045B90000E7
:1001200045B9000045B9000045B9000045B90000D7
:1001300045B9000045B9000045B9000045B90000C7
:1001400045B9000045B9000045B9000045B90000B7
:1001500045B9000045B9000045B9000045B90000A7
:1001600045B900005DDA000045B9000045B900005E
:1001700045B9000045B9000045B9000045B9000087
:1001800045B9000045B9000045B9000045B9000077
:1001900045B9000045B9000045B9000045B9000067
:1001A00045B9000045B9000045B9000045B9000057
:1001B00045B9000045B9000045B90000564B4CF266
:1001C000205210B51A804DF628121A8000BF00BFC9
:1001D0000BF0BCFB514B4FF010621A60504A9A6012
:1001E000504ADA60504A136813F4807304D14F49BF
:1001F0000B604FF4A85313604D4B1A78110703D5C9
:100200001A7842F008021A704A4B4B492A221A7097
:100210004A4A4B4B8B4204D252F8040F43F8040B6A
:10022000F8E7484B484900228B4202D243F8042B9E
:10023000FAE74649464A002352F8230041F82300D2
:1002400001336F2BF8D1434B434A802103F8011B44
:100250009342FBD1414B3D4A1A60414B8A221A70AE
:10026000A3F5805324225A70A0221A709A7992071B
:10027000FCD59A79D406FCD43A4A937903F00C035E
:10028000082B384BF9D103221A7140225A719A79FE
:100290009006FCD5334A9179324B4906FBD5324A58
:1002A000324911600221516020221A709A7902F0BD
:1002B0000C020C2AFAD12E4B2E4A1A602E4B2F4AD2
:1002C0001A6000225A60072243F8042C2C4AC3F813
:1002D0000C2D62B60BF0F0FD144B1B68DA0705D548
:1002E00028480BF0CDFB284B284A1A60284B1B7876
:1002F0005B0609D5244C254B22689A4204D121483B
:100300000BF0BEFB0023236011F09CFA0BF024FBE2
:100310000EF0A8FDFEE700BF0E200540308004402F
:10032000823F04000100002B10D0034014D0034092
:1003300002D0074000E00740A892FF1F5874010058
:100340002087FF1FA892FF1F70BDFF1F0082FF1FA5
:100350000000000000E400E05FE400E008ED00E0E1
:100360000050064000400640448004400000030165
:1003700004800440C010050014E000E0FF76010096
:1003800000002020DA3719611CE00340A5C3945A0D
:1003900000F00740FFFFFFFFFFFFFFFFFFFFFFFF32
:1003A000FFFFFFFFFFFFFFFFFFFFFFFFFFFFFFFF5D
:1003B000FFFFFFFFFFFFFFFFFFFFFFFFFFFFFFFF4D
:1003C000FFFFFFFFFFFFFFFFFFFFFFFFFFFFFFFF3D
:1003D000FFFFFFFFFFFFFFFFFFFFFFFFFFFFFFFF2D
:1003E000FFFFFFFFFFFFFFFFFFFFFFFFFFFFFFFF1D
:1003F000FFFFFFFFFFFFFFFFFFFFFFFFFFFFFFFF0D
:10040000FFFFFFFFFFFFFFFFFFFFFFFFDEF9FFFF23
:1004100010B5054C237833B9044B13B10448AFF33E
:1004200000800123237010BDA892FF1F0000000070
:1004300054740100084B10B51BB108490848AFF3CC
:1004400000800848036803B910BD074B002BFBD0A0
:10045000BDE81040184700BF00000000AC92FF1F2D
:1004600054740100A892FF1F00000000F0B400F1D6
:1004700014060F4F00243146031F00F12C0243F8ED
:10048000044FB34241F8047F4FF0000542F8044F97
:10049000F5D1084B084985640022C56405654565AA
:1004A000456683650366C16580F88420F0BC7047AB
:1004B0000000A040000048430000C8C200230360C1
:1004C00043608360C3600361436183640365436584
:1004D000836570472DE9F04190F8844084B0002393
:1004E00064008DF80530E4B2012380468DF80440A5
:1004F0008DF80630032720460DF066F802210DF135
:1005000005000DF06BF88DF8044002F06DFD30B37E
:100510000921C9480DF0E2FF002310222146C748F7
:100520000EF018FB0121C6480DF0D8FF0023102261
:100530009DF80510C1480EF00DFB0121C0480DF0DB
:10054000CDFF002310229DF80610BC480EF002FBE0
:100550000121BB480DF0C2FFB8480EF0E7FA0220B7
:100560008DF804400BF05AFC02F03EFD002840F0EC
:10057000778102AE00240DF06BF8002800F0268190
:10058000042C40F0158101E00DF076F80DF060F8D4
:100590000028F9D102F028FD10B1A8480EF0C6FAE3
:1005A00098F884406400E4B2202204238DF80440CB
:1005B0008DF805208DF80630032720460DF004F84D
:1005C00002210DF105000DF009F88DF8044002F04C
:1005D0000BFD30B3092198480DF080FF0023102255
:1005E000214696480EF0B6FA012195480DF076FFA7
:1005F000002310229DF8051090480EF0ABFA01215F
:100600008F480DF06BFF002310229DF806108B48D9
:100610000EF0A0FA01218A480DF060FF87480EF025
:1006200085FA02208DF804400BF0F8FB02F0DCFCA8
:10063000002840F00B8102AE00240DF009F80028DC
:1006400000F0A980072C40F0988001E00DF014F82C
:100650000CF0FEFF0028F9D102F0C6FC10B177487B
:100660000EF064FA98F884409DF80B209DF80C3049
:100670009DF80D00C8F870206400E4B29DF80E10DB
:10068000C8F87430332201238DF80440C8F878008C
:10069000C8F87C108DF805208DF806300327204619
:1006A0000CF092FF02210DF105000CF097FF8DF880
:1006B000044002F099FC30B309215F480DF00EFFB1
:1006C0000023102221465D480EF044FA01215C48C7
:1006D0000DF004FF002310229DF8051057480EF07E
:1006E00039FA012156480DF0F9FE002310229DF839
:1006F000061052480EF02EFA012151480DF0EEFE80
:100700004E480EF013FA02208DF804400BF086FBE1
:1007100002F06AFC002840F09E8002AE00240CF03B
:1007200097FFF8B1042C0FD101E00CF0A5FF0CF0FD
:100730008FFF0028F9D102F057FC10B13F480EF0AE
:10074000F5F904B0BDE8F0810CF096FF054606F817
:10075000010B02F049FC00285AD101340CF078FF5B
:100760000028DFD1042CE2D002F03EFC00285ED14C
:10077000013FE6D09DF8044091E70CF07DFF05466F
:1007800006F8010B02F030FC60BB01340CF060FF96
:1007900000287FF457AF072C3FF45AAF02F024FC37
:1007A00000284FD1013F3FF45DAF9DF8044004E7BE
:1007B0000CF062FF054606F8010B02F015FCE0B9EB
:1007C00001340CF045FF00287FF4DAAE042C3FF42E
:1007D000DDAE02F009FC30BB013F3FF4E1AE9DF815
:1007E000044088E6E9B20023102214480EF0B2F962
:1007F000012113480DF072FEC7E7E9B20023102271
:100800000E480EF0A7F901210D480DF067FED7E75D
:10081000E9B20023102209480EF09CF90121084892
:100820000DF05CFE99E705480EF080F9D4E7034827
:100830000EF07CF99CE700BFC05601004488FF1F02
:10084000E05C010009480EF071F9ABE707210848A8
:100850000DF044FEEFE6072105480DF03FFE5CE792
:10086000072103480DF03AFE83E600BF4488FF1FCE
:10087000CC56010090F87400704700BF90F87000EB
:10088000704700BF90F87800704700BF90F87C0078
:10089000704700BF2DE9F04390F8848085B04FEA9F
:1008A00048085FFA88F8322200238DF804808DF81A
:1008B00005208DF8063003250DF1060748F00109E3
:1008C00048460CF081FE01AE0DF1050002210CF04E
:1008D00085FE8DF804904A46334600205040082497
:1008E00010F0800F4FEA400018BF80F00700013C75
:1008F000C0B2F5D1BB4202D013F8012FEEE70CF0E5
:1009000063FE02F071FB00284AD102208DF80480BA
:100910000BF084FA02F068FB002840F081800DF1B2
:10092000080800240CF094FE08B3042C12D101E056
:100930000CF0A2FE0CF08CFE0028F9D102F054FB62
:1009400010B13A480EF0F2F802200BF067FA05B049
:10095000BDE8F0830CF090FE08F8010B064602F0AB
:1009600043FB70B901340CF073FE0028DDD1042C78
:10097000E0D002F039FB78B9013DE5D09DF8048064
:100980009CE7F1B20023102228480EF0E3F8012181
:1009900027480DF0A3FDE5E724480EF0C7F8EBE784
:1009A000092124480DF09AFD2346102249461F488C
:1009B0000EF0D0F801211E480DF090FD23461022C4
:1009C0009DF8051019480EF0C5F8012118480DF0E2
:1009D00085FD102223469DF8061014480EF0BAF843
:1009E000012113480DF07AFD21460DF1070216F89A
:1009F000014B6140C9B2082311F0800F4FEA410159
:100A000018BF81F00701013BC9B2F5D1B242EED166
:100A1000102206480EF09EF804480EF087F874E79E
:100A2000072105480DF05AFD79E700BF4488FF1FF4
:100A3000E05C0100C0560100CC5601002DE9F04FEA
:100A4000074691B097F8843002205B008DF808309B
:100A50000BF0E4F997F8843038465B008DF80830E5
:100A6000FFF738FDB86FFC6F7B6F3A6F97F8841013
:100A70008DE81100C94802F0BDFB30223D238DF8FE
:100A800009208DF80A3003260DF10A059DF808901B
:100A900049F0010840460CF097FD0DF109000221D4
:100AA0000CF09CFD8DF80880424602AB00205040BF
:100AB000082410F0800F4FEA400018BF80F00700B4
:100AC000013CC0B2F5D1AB4202D013F8012FEEE7E2
:100AD0000CF07AFD02F088FA002840F07D820220B6
:100AE0008DF808900BF09AF902F07EFA002840F099
:100AF000B9820DF10C0AD14600240CF0A9FD0028A2
:100B000043D0032C34D101E00CF0B6FD0CF0A0FD75
:100B10000028F9D102F068FA10B1A1480EF006F8E9
:100B2000312303268DF809308DF80A609DF808906E
:100B300049F0010840460CF047FD0DF10900022183
:100B40000CF04CFD8DF80880424602AB002050406E
:100B5000082410F0800F4FEA400018BF80F0070013
:100B6000013CC0B2F5D19D4228D013F8012FEEE729
:100B70000CF082FD09F8010B804602F035FA68B9E5
:100B800001340CF065FD0028BBD1032CBED002F06F
:100B90002BFA78B9013E7FF479AFC1E75FFA88F1AB
:100BA000002310227E480DF0D5FF01217D480DF075
:100BB00095FCE5E77A480DF0B9FFEBE70CF004FD92
:100BC00002F012FA002840F0C68102208DF8089049
:100BD0000BF024F902F008FA002840F03E820DF1F3
:100BE0000C0900240CF034FD002844D0032C35D12E
:100BF00001E00CF041FD0CF02BFD0028F9D102F0D2
:100C0000F3F910B166480DF091FF342201238DF8FD
:100C100009208DF80A3003269DF8089049F0010854
:100C200040460CF0D1FC0DF1090002210CF0D6FC7D
:100C30008DF80880424602AB00205040082410F096
:100C4000800F4FEA400018BF80F00700013CC0B29F
:100C5000F5D1AB4228D013F8012FEEE70CF00CFDD4
:100C600009F8010B804602F0BFF968B901340CF0B5
:100C7000EFFC0028BAD1032CBDD002F0B5F978B949
:100C8000013E7FF453AFC0E75FFA88F100231022E2
:100C900043480DF05FFF012142480DF01FFCE5E7DE
:100CA0003F480DF043FFEBE70CF08EFC02F09CF99F
:100CB000002840F00F8102208DF808900BF0AEF86C
:100CC00002F092F9002840F0D7810DF10C090024C0
:100CD0000CF0BEFC002800F08580032C73D101E0ED
:100CE0000CF0CAFC0CF0B4FC0028F9D102F07CF93D
:100CF00010B12B480DF01AFF012212238DF80920A4
:100D00008DF80A304FF003089DF8084020460CF09B
:100D10005BFC02210DF109000CF060FC8DF808402D
:100D200002F062F930B309211F480DF0D7FB002310
:100D3000102221461A480DF00DFF012119480DF02F
:100D4000CDFB002310229DF8091015480DF002FF7D
:100D5000012114480DF0C2FB002310229DF80A1057
:100D60000F480DF0F7FE01210E480DF0B7FB0C48BF
:100D70000DF0DCFE06208DF808400BF04FF802F075
:100D800033F9002840F0738103AD00260CF060FCBD
:100D9000002840D0162E30D10AE000BFD456010002
:100DA0004488FF1FE05C0100C05601000CF064FCA9
:100DB0000CF04EFC0028F9D102F016F91626002896
:100DC0007DD1152035E00CF057FC09F8010B804669
:100DD00002F00AF900285BD101340CF039FC00283C
:100DE0007FF47BAF032C3FF47DAF02F0FDF80028C9
:100DF0006CD1013E7FF410AF7EE70CF03DFC05F8AE
:100E0000010B044602F0F0F800284DD101360CF039
:100E10001FFC0028BED1162ECAD002F0E5F800282B
:100E20004DD1B8F101087FF46FAF701E002840F378
:100E30003582002303AA1C4612F8011B08254C40EA
:100E400014F0800F4FEA440418BF84F00704013DFA
:100E5000E4B2F5D101338342EEDB9DF8218089486D
:100E60004146224602F0C6F9162EC146A34602D1DB
:100E7000A04500F0138197F884108348CDF800B0A6
:100E80004B46324602F0E4F9002011B0BDE8F08F85
:100E90005FFA88F1002310227C480DF05BFE0121EF
:100EA0007B480DF01BFB97E7E1B200231022774847
:100EB0000DF050FE012176480DF010FBA6E77348B7
:100EC0000DF034FE162EACD11520B2E76F480DF0B0
:100ED0002DFE8EE709216F480DF000FB23461022FE
:100EE00041466A480DF036FE012169480DF0F6FAD8
:100EF000234610229DF8091064480DF02BFE0121B5
:100F000063480DF0EBFA102223469DF80A105F4863
:100F10000DF020FE01215E480DF0E0FA21460DF1B2
:100F20000B0002AA12F8014B6140C9B2082311F06C
:100F3000800F4FEA410118BF81F00701013BC9B2A0
:100F4000F5D19042EED1102250480DF003FE4F48EB
:100F50000DF0ECFDAFE609214E480DF0BFFA234637
:100F60001022414649480DF0F5FD012148480DF099
:100F7000B5FA234610229DF8091044480DF0EAFD09
:100F8000012143480DF0AAFA102223469DF80A10C9
:100F90003E480DF0DFFD01213D480DF09FFA21464E
:100FA0000DF10B0002AA12F8014B6140C9B20823EF
:100FB00011F0800F4FEA410118BF81F00701013B9A
:100FC000C9B2F5D19042EED1102230480DF0C2FDE9
:100FD0002E480DF0ABFDF8E509212E480DF07EFA04
:100FE00023461022414629480DF0B4FD012128482E
:100FF0000DF074FA234610229DF8091023480DF0D5
:10100000A9FD012122480DF069FA102223469DF81E
:101010000A101E480DF09EFD01211D480DF05EFADC
:1010200021460DF10B0002AA12F8014B6140C9B232
:10103000082311F0800F4FEA410118BF81F007012A
:10104000013BC9B2F5D19042EED110220F480DF00C
:1010500081FD0E480DF06AFD41E507210E480DF0B7
:101060003DFABCE507210C480DF038FA41E50721AF
:1010700009480DF033FA87E6072107480DF02EFAEC
:1010800023E600BF08570100545701004488FF1FA2
:10109000E05C0100C0560100CC5601009DF80C3008
:1010A00097F88420B3EB420F7FF4EEAE9DF80D303D
:1010B000012B7FF4E9AE9DF80E30122B7FF4E4AEE5
:1010C0009DF810309DF80F0003EB00200FF0B2FFE9
:1010D0008B4910F003F8796EF864044610F0BAF901
:1010E00000B17C66396E204610F096F900B13C667E
:1010F0003D1FAB4607F1180807F130064FF0000915
:101100009AF806309AF8050003EB00200FF092FFE2
:101110007C490FF0E3FF4BF8040FD8F800100446A9
:1011200010F07AF909F101090AF1020A30B1B96E39
:10113000204610F085F908B1C8F800403168204613
:1011400010F088F908F1040800B13460B9F1060F15
:1011500006F10406D4D10020B86407F1140455F850
:10116000041F0FF0B3FEAC42F9D19DF81D209DF88D
:101170001E30B86403EB022002300FF05BFF6249BF
:1011800010F060F80146614810F05CF860490FF01B
:101190009BFE60490FF0A2FF05460EF00DF80446D5
:1011A00028460EF009F85C490EF078F85B490546D0
:1011B00020460FF093FF5A490FF088FE5949044624
:1011C00028460FF08BFF014620460FF07FFE0146B8
:1011D0004FF07E5010F036F853490FF075FE9DF831
:1011E0001F209DF82030386503EB022009300FF0F6
:1011F00021FF4E4910F026F80146444810F022F82D
:1012000043490FF061FE43490FF068FF05460DF0BA
:10121000D3FF044628460DF0CFFF3F490EF03EF8BD
:101220003E49054620460FF059FF3D490FF04EFE5E
:101230003C49044628460FF051FF014620460FF076
:1012400045FE01464FF07E500FF0FCFF36490FF08F
:101250003BFED7F8808078650446B8F1000F3BD19B
:101260003D6D29462E4610F0F5F868B32946B86D55
:1012700010F0F0F8E0B1BD65B8F1000F17D008F13B
:10128000130657F82640F96D204610F0E3F800B138
:10129000FC65274801F0AEFF0120F6E59DF821909E
:1012A000244849464246C34601F0A4FFE3E53E6DAB
:1012B0003146204610F0CEF8C8B1F96D204610F046
:1012C000C9F80028E4D1E4E7B96D204610F0A4F88D
:1012D0000028EDD02546CEE708F11306B96D57F882
:1012E0002650284610F098F80028C4D1C9E73146A6
:1012F000F86D10F091F80028CBD03446C8E700BF55
:101300006B57053B2003C839001601470AD7E33F56
:10131000E17A644000007A4400004040A40D8F3917
:101320005A80473A46A6DB3333938843002C014763
:101330002C57010008570100052994BF50F82100DF
:10134000002070472DE9F0410B4E8046041F00F14C
:10135000140754F8045F3146284610F05DF830B1A8
:10136000D8F86810284610F075F800B12E46BC4237
:10137000EFD13046BDE8F08100002041F8B50026ED
:10138000041F00F1140754F8045F3146284610F09A
:1013900061F800B12E46BC42F5D13046F8BD00BF21
:1013A0002DE9F047876E82464FF00009041F00F1D7
:1013B00014064FF0000854F8045F3946284610F030
:1013C00049F80D4950B1284610F026F830B148468A
:1013D00029460FF07BFD08F101088146B442EAD1AD
:1013E000CAF8888040460FF025FE014648460FF0B7
:1013F00029FFBDE8F08700BF00007042D0F88800E8
:10140000704700BF38B5D0F8803043B9456D046DE2
:101410002946204610F000F830B1204638BD13337D
:1014200050F82340204638BD2C46204638BD00BF2A
:1014300038B5D0F8803043B9446D056D2146284653
:101440000FF0EAFF30B1204638BD133350F8234087
:10145000204638BD2C46204638BD00BF08B5D0F820
:1014600080301BB1133350F8230008BD416D006D6F
:101470000FF02CFD4FF07C510FF030FE08BD00BF87
:10148000806C704701299ABF143150F82100002068
:10149000704700BF3E2998BF80F88410704700BF96
:1014A00090F86C00704700BFC0F88010704700BF14
:1014B00080F86C10704700BF8166704770B500F50A
:1014C0000A5506461C3500F1280420468C34FEF7E8
:1014D000CDFFAC42F9D106F1B40501242846002124
:1014E000FFF7E6FF214628460134FFF7D3FF3F2CE4
:1014F00005F18C05F2D142F2A42400250548064AE4
:10150000064B3555002130617161B261F36130469F
:1015100070BD00BF00007A44000048430000C8C20C
:1015200038B500F50A551C3500F1B40402E08C34DE
:10153000AC420AD02046FFF7B3FF0028F7D0204680
:101540008C34FEF7BBFFAC42F4D138BD2DE9F0413D
:1015500042F2A82300F50A56374600228046C250C0
:101560001C36283700F1B40402E08C34B4420DD0AC
:101570002046FFF795FF0028F7D020463D68FFF78B
:101580003DFF8C342844B4423860F1D142F2A823A4
:1015900058F80300BDE8F0812DE9F04F93B0814683
:1015A00042F2AC231046019201284FF0000206914E
:1015B00049F8032000F0038209F50A532C330793FE
:1015C00009F1B40A4FF0010B5046FFF769FFC0B1B3
:1015D00000263446012531465046D9F80870FFF7F9
:1015E000ABFE014638460FF017FF18B105FA06F3B7
:1015F0001C43E4B20136062EEDD1019B012B0AD02B
:10160000F4B90BF1010BBBF13F0F0AF18C0ADBD1EE
:1016100013B0BDE8F08F5946BD480DF0DBFA032149
:10162000BC480CF05BFF214600230222B8480DF0B5
:1016300091FA0321B8480CF051FF002C00F01881FA
:101640004FEA4B03DBB21946029343F001039DF8C6
:10165000182003931D46184633238DF826208DF855
:1016600025308DF824100BF0AFFF0DF1250002217D
:101670000BF0B4FF09AA05928DF824502A4609AB55
:101680000DF1260600205040082510F0800F4FEA8B
:10169000400018BF80F00700013DC0B2F5D19E4266
:1016A00002D013F8012FEEE70BF08EFF01F09CFC47
:1016B000002840F0EC809DF808308DF8243002209E
:1016C0000AF0ACFB01F090FC002840F06E810AAB00
:1016D00004931F4600250BF0BBFF002844D01E2DAD
:1016E00035D101E00BF0C8FF0BF0B2FF0028F9D1B3
:1016F00001F07AFC00283DD1019B012B40D0039DD5
:101700009DF808208DF82420322328468DF82530B6
:101710008DF826400BF058FF0DF1250002210BF04B
:101720005DFF8DF8245009AB2A4600205040082563
:1017300010F0800F4FEA400018BF80F00700013D15
:10174000C0B2F5D19E423BD013F8012FEEE70BF06B
:1017500093FF07F8010B804601F046FC20BB0135E2
:101760000BF076FF0028BAD11E2DBDD001F03CFC55
:101770000028C1D066480DF0D9F9019B012BBED1DC
:10178000049D0BAF15F8011B6148002310220DF0DA
:10179000E1F9012161480CF0A1FEAF42F2D1032131
:1017A0005D480CF09BFEAAE75FFA88F10023102247
:1017B00057480DF0CFF9012159480CF08FFECEE7C4
:1017C0000BF002FF01F010FC002840F0AD809DF806
:1017D00008308DF8243002200AF020FB01F004FCD0
:1017E000002840F0E780049E00250BF031FF00B395
:1017F0001E2D11D101E00BF03FFF0BF029FF002857
:10180000F9D101F0F1FBD0B9019B012B1DD0079A52
:1018100013681C441460F4E60BF02EFF06F8010B6D
:10182000074601F0E1FB38BB01350BF011FF002842
:10183000DED11E2DE1D001F0D7FB0028E4D03448E2
:101840000DF074F9019B012BE1D1049E0BAD16F84C
:10185000011B2F48002310220DF07CF901212F4895
:101860000CF03CFEAE42F2D1079A13682344136099
:1018700027480DF05BF9C4E6F9B200231022244892
:101880000DF068F9012126480CF028FECCE709216B
:1018900024480CF023FE2B46102203991C480DF01F
:1018A00059F901211E480CF019FE2B4610229DF813
:1018B000251017480DF04EF9012119480CF00EFEC5
:1018C00010222B469DF8261011480DF043F90121F6
:1018D00013480CF003FE29460DF1270009AA12F85F
:1018E000013B5940C9B2082311F0800F4FEA410172
:1018F00018BF81F00701013BC9B2F5D19042EED18A
:10190000102203480DF026F901480DF00FF9D2E638
:101910004488FF1FA4570100A8570100AC570100DD
:10192000E05C0100C0560100092127480CF0D6FDFB
:101930002B461022039925480DF00CF9012124486B
:101940000CF0CCFD2B4610229DF825101F480DF001
:1019500001F901211E480CF0C1FD10222B469DF813
:1019600026101A480DF0F6F8012119480CF0B6FDC2
:10197000059829460DF1270210F8013B5940C9B2DC
:10198000082311F0800F4FEA410118BF81F00701D1
:10199000013BC9B2F5D18242EED110220B480DF0C5
:1019A000D9F80A480DF0C2F811E7072109480CF0F0
:1019B00095FD8CE6072107480CF090FD13E70348DE
:1019C0000DF0B4F8F8E500BFC05601004488FF1FD1
:1019D000E05C0100CC5601002DE9F04F824685B055
:1019E0004FF0000901238DF800908DF801908DF8DB
:1019F00002304FF00308002420460BF0E5FD0221E1
:101A00000DF101000BF0EAFD8DF8004001F0ECFA59
:101A100030B30921B5480CF061FD002310222146A6
:101A2000B3480DF097F80121B2480CF057FD0023A0
:101A300010229DF80110AE480DF08CF80121AD4840
:101A40000CF04CFD002310229DF80210A8480DF068
:101A500081F80121A7480CF041FDA5480DF066F87A
:101A600002208DF800400AF0D9F901F0BDFA0028F3
:101A700040F0898001AF3E4600240BF0E9FD0028CC
:101A800067D0042C58D101E00BF0F6FD0BF0E0FD1F
:101A90000028F9D101F0A8FA10B195480DF046F8E8
:101AA0009DF80430802B40F01E819DF80530002BFE
:101AB00040F019819DF80640012C40F014818E48B9
:101AC00001F098FB0AF1B406254604E001353F2DEC
:101AD00006F18C0686D03046FFF7E2FC83460028EC
:101AE000F4D13B2265F07F0301208DF801208DF8B1
:101AF00002308DF800B00BF067FD0DF101000221FE
:101B00000BF06CFD01228DF80020E84658466B462C
:101B10000DF102026040C0B2082410F0800F4FEABD
:101B2000400018BF80F00700013CC0B2F5D19342DD
:101B30002ED013F8014FEDE70BF09EFD06F8010BD8
:101B4000054601F051FA98B901340BF081FD0028E7
:101B500097D1042C9AD001F047FA10B164480CF0E8
:101B6000E5FFB8F1010800F0BE809DF8004043E7B2
:101B7000E9B2002310225E480CF0ECFF01215D4821
:101B80000CF0ACFCE0E707215C480CF0A7FC71E727
:101B90000BF01AFD01F028FA00285AD103208DF825
:101BA00000900AF03BF901F01FFA002840F09680FF
:101BB00000240BF04DFDB0B30A2C27D101E00BF04F
:101BC0005BFD0BF045FD0028F9D101F00DFA00286E
:101BD0007FD19DF80430812B7FF404AF9DF8053050
:101BE0003B2B7FF4FFAE9DF806308035AB427FF48F
:101BF000F9AE30460121FFF75BFC0AF50A53404875
:101C00001A6A01321A6201F0F5FAEBE60BF034FDC4
:101C100007F8010B804601F0E7F970B901340BF0C9
:101C200017FD0028C8D10A2CCBD001F0DDF900281F
:101C300050D1022C7FF7D6AECBE75FFA88F10023B4
:101C400010222B480CF086FF01212A480CF046FC9C
:101C5000E4E7092125480CF041FC2346102201212C
:101C600023480CF077FF012122480CF037FC234673
:101C700010229DF801101E480CF06CFF01211D4838
:101C80000CF02CFC102223469DF8021018480CF092
:101C900061FF012117480CF021FC21460DF10302E0
:101CA00018F8014B6140C9B2082311F0800F4FEAC8
:101CB000410118BF81F00701013BC9B2F5D142458E
:101CC000EED110220A480CF045FF09480CF02EFF17
:101CD00064E70A2406480CF029FFAAE70721074811
:101CE0000CF0FCFB64E705B0BDE8F08FC0560100C6
:101CF0004488FF1FE05C0100B0570100CC56010092
:101D0000BC5701002DE9F04742F2A02284B0002325
:101D10000127835082468DF804308DF8053000F19C
:101D2000B4088DF806704FEA47095FFA89F400217C
:101D30004046FFF7BDFB20468DF804400BF044FC05
:101D400002210DF105000BF049FC8DF8044001F073
:101D50004BF930B3092149480CF0C0FB0023102295
:101D6000214647480CF0F6FE012146480CF0B6FB30
:101D7000002310229DF8051041480CF0EBFE0121D4
:101D800040480CF0ABFB002310229DF806103C48A5
:101D90000CF0E0FE01213B480CF0A0FB38480CF0B1
:101DA000C5FE14208DF804400AF038F801F01CF943
:101DB00000285DD102AE00240BF04AFC40B3082C91
:101DC00019D101E00BF058FC0BF042FC0028F9D1CE
:101DD00001F00AF9002846D19DF808304B4522D081
:101DE000013705200AF01AF83F2F08F18C089AD124
:101DF00004B0BDE8F0870BF03FFC054606F8010B88
:101E000001F0F2F820BB01340BF022FC0028D6D1FF
:101E1000082CD9D001F0E8F830BB042CE0DD9DF8A7
:101E200008304B45DCD19DF80930002BD8D19DF806
:101E30000A100129D4D19DF80C30002BD0D0404697
:101E4000FFF736FB0AF50A531A6A01321A62C7E72E
:101E5000E9B2002310220A480CF07CFE0121094857
:101E60000CF03CFBCFE7082405480CF05FFED4E7FC
:101E7000072105480CF032FB9CE700BFC05601006B
:101E80004488FF1FE05C0100CC5601002DE9F047BB
:101E900000F50A56354684B080461C36203500F1E0
:101EA000B4040027204600218C34FFF701FBB44224
:101EB0002F60F7D102270DF106064FF07F093C2273
:101EC000A5237E217F208DF805208DF806308DF822
:101ED000041001AD0BF078FB0DF1050002210BF0B1
:101EE0007DFB8DF804902B467F2200205040082473
:101EF00010F0800F4FEA400018BF80F00700013C4F
:101F0000C0B2F5D1B34202D013F8012FEEE70BF0C7
:101F10005BFB01F069F800285AD17E2364208DF81C
:101F2000043009F07BFF01F05FF8002840F090805A
:101F30000DF1080A00240BF08BFB20B3082C15D1FF
:101F400001E00BF099FB0BF083FB0028F9D101F0C5
:101F50004BF8F0B99DF808307F2B21D0013FAED16E
:101F60004046FFF739FD04B0BDE8F0870BF084FB75
:101F700005460AF8010B01F037F8F0B901340BF00F
:101F800067FB0028DAD1082CDDD001F02DF80028FD
:101F9000E0D032480CF0CAFD9DF808307F2BDDD12F
:101FA0009DF809303C2BD9D19DF80A30A52BD5D10D
:101FB0009DF80B30572BD1D1D2E7E9B20023102284
:101FC00026480CF0C7FD012125480CF087FAD5E71B
:101FD000092124480CF082FA234610227F211F4851
:101FE0000CF0B8FD01211E480CF078FA23461022AF
:101FF0009DF8051019480CF0ADFD012118480CF0B2
:102000006DFA102223469DF8061014480CF0A2FD2C
:10201000012113480CF062FA21460DF1070215F870
:10202000014B6140C9B2082311F0800F4FEA410112
:1020300018BF81F00701013BC9B2F5D1AA42EED128
:10204000102206480CF086FD04480CF06FFD64E792
:10205000072105480CF042FA6AE700BF4488FF1FD9
:10206000E05C0100C0560100CC5601002DE9F043B0
:1020700085B04FF07F082022FF2381468DF8048031
:102080008DF805208DF8063003260DF1060548F081
:10209000010738460BF098FA0DF1050002210BF00C
:1020A0009DFA8DF804703A4601AB00205040082498
:1020B00010F0800F4FEA400018BF80F00700013C8D
:1020C000C0B2F5D1AB4202D013F8012FEEE70BF00E
:1020D0007BFA00F089FF002840F0768202208DF81C
:1020E000048009F09BFE00F07FFF002840F0B282E0
:1020F0000DF1080800240BF0ABFA002843D0042CA3
:1021000034D101E00BF0B8FA0BF0A2FA0028F9D1B3
:1021100000F06AFF10B1C1480CF008FD4FF07F08D5
:1021200000238DF804808DF80630032648F001075F
:1021300038460BF049FA0DF1050002210BF04EFA7A
:102140008DF804703A4601AB00205040082410F08E
:10215000800F4FEA400018BF80F00700013CC0B27A
:10216000F5D1AB4228D013F8012FEEE70BF084FA3B
:1021700008F8010B074600F037FF70B901340BF087
:1021800067FA0028BBD1042CBED000F02DFF78B92F
:10219000013EC3D09DF8048079E7F9B200231022F4
:1021A0009E480CF0D7FC01219D480CF097F9E5E71B
:1021B0009A480CF0BBFCEBE70BF006FA00F014FFBA
:1021C000002840F0C08102208DF8048009F026FE2E
:1021D00000F00AFF002840F038820DF108080024C2
:1021E0000BF036FA002846D0042C37D101E00BF072
:1021F00043FA0BF02DFA0028F9D100F0F5FE10B1EA
:1022000086480CF093FC4FF07F082122FF238DF8C5
:1022100004808DF805208DF80630032648F001076C
:1022200038460BF0D1F90DF1050002210BF0D6F97B
:102230008DF804703A4601AB00205040082410F09D
:10224000800F4FEA400018BF80F00700013CC0B289
:10225000F5D19D4228D013F8012FEEE70BF00CFAD0
:1022600008F8010B074600F0BFFE70B901340BF00F
:10227000EFF90028B8D1042CBBD000F0B5FE78B936
:10228000013EC0D09DF8048050E7F9B2002310222F
:1022900062480CF05FFC012161480CF01FF9E5E792
:1022A0005E480CF043FCEBE70BF08EF900F09CFE6F
:1022B000002840F0078102208DF8048009F0AEFD6F
:1022C00000F092FE002840F0CF810DF108080024B4
:1022D0000BF0BEF9002843D0042C34D101E00BF000
:1022E000CBF90BF0B5F90028F9D100F07DFE10B163
:1022F0004A480CF01BFC4FF07F0800238DF8048047
:102300008DF80630032648F0010738460BF05CF9DB
:102310000DF1050002210BF061F98DF804703A46C9
:1023200001AB00205040082410F0800F4FEA40001D
:1023300018BF80F00700013CC0B2F5D19D4228D003
:1023400013F8012FEEE70BF097F908F8010B074699
:1023500000F04AFE70B901340BF07AF90028BBD1C5
:10236000042CBED000F040FE78B9013EC3D09DF8E9
:10237000048053E7F9B20023102228480CF0EAFB4E
:10238000012127480CF0AAF8E5E724480CF0CEFB21
:10239000EBE70BF019F900F027FE002851D10220DD
:1023A0008DF8048009F03AFD00F01EFE002840F090
:1023B00056810DF1080800240BF04AF918B3042CDB
:1023C00014D101E00BF058F90BF042F90028F9D1D3
:1023D00000F00AFE10B111480CF0A8FB42F2A42351
:1023E000002209F8032005B0BDE8F0830BF044F9A2
:1023F00008F8010B074600F0F7FD98B901340BF01F
:1024000027F90028DBD1042CDED000F0EDFDA0B9C7
:10241000013EE3D09DF8048075E700BF4488FF1FAC
:10242000E05C0100F9B20023102292480CF092FB0C
:10243000012191480CF052F8E0E78E480CF076FB51
:10244000E6E709218D480CF049F823461022394669
:1024500088480CF07FFB012187480CF03FF82346A9
:1024600010229DF8051083480CF074FB012182486E
:102470000CF034F8102223469DF806107D480CF02D
:1024800069FB01217C480CF029F821460DF1070079
:1024900001AA12F8014B6140C9B2082311F0800F64
:1024A0004FEA410118BF81F00701013BC9B2F5D1E4
:1024B0009042EED110226F480CF04CFB6D480CF0AE
:1024C00035FB6CE709216D480CF008F82346102213
:1024D000394668480CF03EFB012167480BF0FEFFCF
:1024E000234610229DF8051062480CF033FB0121B1
:1024F00061480BF0F3FF102223469DF806105D485B
:102500000CF028FB01215C480BF0E8FF21460DF19F
:10251000070001AA12F8014B6140C9B2082311F06B
:10252000800F4FEA410118BF81F00701013BC9B29A
:10253000F5D19042EED110224E480CF00BFB4D48E5
:102540000CF0F4FAB7E609214C480BF0C7FF23461C
:102550001022394647480CF0FDFA012146480BF09D
:10256000BDFF234610229DF8051042480CF0F2FAF8
:10257000012141480BF0B2FF102223469DF80610BE
:102580003C480CF0E7FA01213B480BF0A7FF21463D
:102590000DF1070001AA12F8014B6140C9B20823EE
:1025A00011F0800F4FEA410118BF81F00701013B94
:1025B000C9B2F5D19042EED110222E480CF0CAFAE1
:1025C0002C480CF0B3FAFEE509212C480BF086FFED
:1025D00023461022394627480CF0BCFA0121264830
:1025E0000BF07CFF234610229DF8051021480CF0CB
:1025F000B1FA012120480BF071FF102223469DF80B
:1026000006101C480CF0A6FA01211B480BF066FFCF
:1026100021460DF1070001AA12F8014B6140C9B231
:10262000082311F0800F4FEA410118BF81F0070124
:10263000013BC9B2F5D19042EED110220D480CF009
:1026400089FA0C480CF072FA48E507210C480BF0A7
:1026500045FFC2E507210A480BF040FF48E5072186
:1026600007480BF03BFFA4E6072105480BF036FFB7
:102670002BE600BF4488FF1FE05C0100C05601004C
:10268000CC56010038B500F50A551C3500F1B404EC
:1026900002E08C34AC420AD02046FEF701FF00284D
:1026A000F7D020468C34FEF7F5F8AC42F4D138BDB3
:1026B0002DE9F04F00218C4A8C4B016000F1B405EC
:1026C00000F50A5783B08246426203622C461C37EB
:1026D00002E08C34BC420AD02046FEF7E1FE00281E
:1026E000F7D020468C34FEF7D5F8BC42F4D1C82090
:1026F00009F094FB2C46012604E001363F2E04F13C
:102700008C046ED02046FEF7CBFE0028F5D078482A
:1027100000F070FD3146774800F06CFD2046FEF772
:102720008DF92046FEF7ACFE0EF02EF802460B4661
:10273000714800F05FFD2046FEF704FE804620460B
:10274000FEF71CFE834640460EF01EF880465846B3
:1027500089460EF019F842464B46CDE9000167481C
:1027600000F048FD00212046FEF78CFE0121804646
:102770002046FEF787FE834640460EF005F8804669
:10278000584689460EF000F842464B46CDE9000116
:102790005B4800F02FFD2046FEF772FE0146DAF896
:1027A00000000EF093FBCAF800002046FEF72AFE58
:1027B000DAF818100EF030FE00287BD12046FEF724
:1027C00037FEDAF81C100EF045FE002895D02046A2
:1027D000FEF72EFE01363F2ECAF81C0004F18C04D1
:1027E00090D1DAF804000EF025FC0146DAF800007A
:1027F0000EF028FDDAF81410CAF8000004460EF0B6
:1028000029FE08B1CAF81440DAF8101020460EF07C
:1028100003FE08B1CAF810400B2009F0C9FA42F2D1
:10282000A4231AF8033000284AD1002B58D042F2D2
:10283000A42301220AF803200023CAF80C302C46F6
:1028400002E08C34BC4215D02046FEF729FE002859
:10285000F7D02046FEF792FDDAF80C100EF0FAFDE4
:102860000028EED02046FEF789FD8C34BC42CAF821
:102870000C00E9D1234BCAF8083002E08C35BD4288
:1028800015D02846FEF70CFE0028F7D02846FEF7A4
:1028900059FDDAF808100EF0BFFD0028EED02846EA
:1028A000FEF750FD8C35BD42CAF80800E9D103B0EF
:1028B000BDE8F08F2046FEF7A5FDCAF818007DE7B9
:1028C0002BB942F2A42300220AF80320B4E70E48F1
:1028D00000F0A8FC42F2A42300220AF80320ABE790
:1028E0000A4800F0B5FCA2E700C0794400C079C4F2
:1028F000105F0100D05701000C5801002058010062
:102900004C5801000000A040A05801006858010088
:1029100042F2AC23C058704780687047C068704767
:102920000068704741607047F8B500F50A550F46DA
:1029300016461C3500F1B40402E08C34AC420FD0D2
:102940002046FEF7ADFD0028F7D020463946FEF7B9
:10295000ABFD204631468C34FEF7AEFDAC42EFD1E4
:10296000F8BD00BF2DE9F041274A284B426200F52F
:102970000A5507464FF0000803621C3500F1B40405
:10298000002602E08C34A54210D02046FEF788FDD8
:102990000028F7D02046FEF761FD1D490EF05AFDD4
:1029A00080B98C34A54206F10106EED142F2A02393
:1029B000F858801B0EF03EFB014640460EF042FCEC
:1029C000BDE8F0812046FEF749FD014640460EF085
:1029D0007DFA80462046FEF741FD396A0EF03AFD49
:1029E00060B92046FEF73AFD796A0EF015FD002821
:1029F000C8D02046FEF732FD7862C3E72046FEF7D6
:102A00002DFD3862EDE700BF00C0794400C079C4F5
:102A100000008CC2006A7047406A7047F8B500F544
:102A20000A55074600261C3500F1B40402E08C3438
:102A3000AC420FD02046FEF733FD0028F7D02046E9
:102A4000FEF7AEFC014630460EF040FA8C34AC4244
:102A50000646EFD142F2A023F8580EF0EBFA0146F9
:102A600030460EF0EFFBF8BD2DE9F04F91B0044673
:102A7000B8480F9100F066FBB64800F063FB42F2E5
:102A8000A026B44800F05EFB2046A559FEF75EFD87
:102A900081462068D4F804B00DF076FECDE90C0133
:102AA0002046FFF7BBFF82462046A768D4F80C807B
:102AB000FFF758FF0DF068FECDE90A0139464046A0
:102AC0000EF002FAA4490EF009FB0DF05DFECDE90F
:102AD000080140460DF058FECDE9060138460DF0DC
:102AE00053FECDE9040150460DF04EFEDDE90C2306
:102AF000CDE90201CDE9002329465B464A469748C5
:102B000000F020FB934800F01DFB0921944809F0D8
:102B1000ADFCA15993480CF05DF80A21924809F0E8
:102B2000A5FC2046FEF712FD01468E480CF052F837
:102B30008C480BF0FBFF20680DF026FE03260246B2
:102B40000B46009687480CF04FF80121874809F0A2
:102B50008DFC84480BF0EAFF2046FFF75FFF0DF085
:102B600013FE009602460B467E480CF03DF8042109
:102B70007F4809F07BFCA0680DF006FE0096024637
:102B80000B4678480CF030F804217A4809F06EFCC6
:102B9000E0680DF0F9FD009602460B4671480CF016
:102BA00023F80421724809F061FCA168E0680EF086
:102BB0008BF969490EF092FA0DF0E6FD0027024606
:102BC0000B46009767480CF00FF802216A4809F09D
:102BD0004DFC64480BF0AAFF0A21684809F046FC46
:102BE0002046FFF7BFFE0DF0CFFD009602460B46D4
:102BF0005C480BF0F9FF0121614809F037FC5948A6
:102C00000BF094FFBA46B4344FF00108DDF83CB045
:102C100007E008F10108B8F13F0F04F18C0400F05F
:102C200091802046FEF73CFC0028F2D02046FDF7BC
:102C300021FE2046FDF722FE2046FDF723FE20461A
:102C4000FDF724FE08214F480BF048FC41464E4852
:102C50000BF0C0FFB8F1090F77DD02214B480BF0F4
:102C60003DFC2046FEF70CFC0DF08EFD5FFA8BF963
:102C700002460B46CDF8009043480BF0B5FF01210A
:102C80003A480BF02BFC5646002520E00621404830
:102C90000BF024FC31463C480BF09CFF02213D48E0
:102CA0000BF01CFC29462046FEF746FB0DF06CFDA0
:102CB000CDF8009002460B4633480BF095FF0135E6
:102CC00001212A480BF00AFC062D09D03E46092EA8
:102CD00006F10107DADC01212F480BF0FFFBD5E7F5
:102CE00011212E480BF0FAFB00212046FEF7CAFB0B
:102CF0000DF04AFD022502460B46009522480BF0D6
:102D000073FF122126480BF0E9FB01212046FEF754
:102D1000B9FB0DF039FD009502460B461A480BF041
:102D200063FF012116480BF0D9FB08F10108164892
:102D30000BF0FCFEB8F13F0F0AF1060A04F18C0417
:102D40007FF46FAF11B0BDE8F08F012112480BF096
:102D5000C5FB82E7105F010000007A44485B010078
:102D6000E85B01000488FF1FF45B0100005C0100C8
:102D7000045C01000C5C0100145C0100185C0100A3
:102D8000245C0100285C01004488FF1F606B010087
:102D9000345C0100D05C0100E05C01003C5C01009F
:102DA000505C01002DE9F04F85B000F1B4058A4672
:102DB00003929B462E464FF0010806E008F10108F9
:102DC000B8F13F0F06F18C067BD03046FEF768FB6A
:102DD0000028F3D000230A2251467D480BF0BAFEAA
:102DE00001217C480BF07AFB03980DF0CDFC002309
:102DF0000246009376480B460BF0F6FE012175481B
:102E00000BF06CFB594672480BF0E4FE012171484F
:102E10000BF064FB41466E480BF0DCFE01216D486F
:102E20000BF05CFB00244FF0020921463046FEF710
:102E300083FA0DF0A9FCCDF8009002460B466448D9
:102E40000BF0D2FE0134012162480BF047FB082C45
:102E50004FF00207E9D100213046FEF713FB0DF0D9
:102E600093FC009702460B4659480BF0BDFE01212A
:102E700058480BF033FB01213046FEF703FB0DF001
:102E800083FC009702460B4651480BF0ADFE012132
:102E900050480BF023FB39463046FEF7F3FA0DF0AD
:102EA00073FC009702460B4649480BF09DFE08F163
:102EB000010847480BF03AFEB8F13F0F06F18C06C7
:102EC00083D101274FF0000904E001373F2F05F1BE
:102ED0008C0579D02846FEF7E3FA0028F5D00023C8
:102EE0000A2251463C480BF035FE0121394809F0D1
:102EF0005DFF03980DF048FCCDF8009002460B46AC
:102F000035480BF071FE0121324809F04FFF594658
:102F100031480BF05FFE01212E4809F047FF39468A
:102F20002D480BF057FE01212A4809F03FFF0024ED
:102F30004FF0020821462846FEF7FEF90DF024FC6A
:102F4000CDF8008002460B4623480BF04DFE0134BD
:102F50000121204809F02AFF082C4FF00206E9D190
:102F600000212846FEF78EFA0DF00EFC0096024670
:102F70000B4619480BF038FE0121164809F016FFE0
:102F800001212846FEF77EFA0DF0FEFB0096024670
:102F90000B4611480BF028FE01210E4809F006FFF0
:102FA00031462846FEF76EFA0DF0EEFB009602461B
:102FB0000B4609480BF018FE013707480BF0B6FD29
:102FC0003F2F05F18C0585D105B0BDE8F08F00BF1E
:102FD0004488FF1F645C01001888FF1F014B1870B4
:102FE000704700BF2087FF1F024B1878B0FA80F0AF
:102FF000400970472087FF1F0278002A00F0908068
:1030000070B5034682B00D46252A2AD158785C1C3B
:1030100008B325282FD0732831D0642824D06928FC
:1030200022D066284FD07A2859D0782835D0582811
:103030002FD062283ED0422838D06C2814D0632884
:1030400012D0742857D054285FD00BF0CBFA627896
:10305000631C002AD8D1344802B0BDE870400BF0A0
:1030600065BD18781C46F0E72B1D29682E481D46C3
:103070000BF0B0FDEBE710460BF0B4FAE7E72E6873
:1030800030460FF0BDF90146304604350BF026FA04
:10309000DDE7022125480BF021FA2E1D2968224880
:1030A0000023102235460BF055FDD0E702212048C1
:1030B0000BF014FA2E1D29681B4800230222354606
:1030C0000BF048FDC3E7073525F007050321D5E9D7
:1030D00000231548009108350BF086FDB7E707354A
:1030E00025F007050021D5E900230F480091083598
:1030F0000BF07AFDABE7296801290EBF0D480E4899
:10310000012104350BF0EAF9A1E72B68012B07BF79
:1031100004210A480A48052104350BF0DFF996E737
:1031200001480BF003BD00BF4488FF1F685C01002D
:103130006C5C0100705C0100745C0100785C010053
:10314000805C01000FB400B583B004A951F8040BF2
:103150000191FFF751FF03B05DF804EB04B0704735
:1031600070B51B4B1B4C1B6882B00D460193019B35
:103170002360194604460023164617480A220BF01E
:10318000E9FC032115480BF0A9F9032C07D8DFE867
:1031900004F01A151002052111480BF09FF90221C5
:1031A00010480BF09BF931462846FFF725FF02B087
:1031B00070BD07210C480BF091F9F0E704210B4892
:1031C0000BF08CF9EBE7052109480BF087F9E6E7EE
:1031D00058BAFF1FC492FF1F4488FF1FA457010065
:1031E000A05C0100D05C0100985C0100905C0100D3
:1031F000885C01000FB400B5094B187883B020B18A
:1032000003B05DF804EB04B0704705AB1A460499AF
:103210000193FFF7A5FF03B05DF804EB04B070471E
:103220002087FF1F0FB4094B00B51B78012B83B01B
:1032300004D903B05DF804EB04B0704705AB1A463F
:10324000049901930120FFF78BFFF2E72087FF1F0E
:103250000FB40B4B00B51B78032B83B004D903B01C
:103260005DF804EB04B0704705AB1A46049901936E
:103270000320FFF775FF03B05DF804EB04B070475F
:103280002087FF1F30B4074D074C084900232B70DF
:10329000236003654365836580F85C300B6030BC58
:1032A000704700BFD092FF1FCC92FF1FC892FF1F34
:1032B0000A4A0B49D06D936D03FB00F34FF47A700B
:1032C00000FB03F0642310B50B600DF0B3FE05495D
:1032D000054C0DF0B7FF206010BD00BFE093FF1F4D
:1032E0004087FF1FE4388E3EA093FF1F10B4019C5F
:1032F000521AA4EB030412D0401A002C04FB00F075
:1033000002EBD27111DB00EB610101FB02F000283E
:1033100091FBF2F10B4414DB184610BC704704EB30
:10332000D47003EB600010BC7047A0EB610000FBA1
:1033300002F1002990FBF2F01844EEDB013010BCE2
:103340007047581E10BC704710B5074C20460BF054
:10335000EDFB064B204619680BF03CFC03210448AA
:10336000BDE810400BF0BAB84488FF1F5495FF1F0A
:10337000A85C010038B5044608460D460FF040F839
:103380002368024629465B68204698470546204642
:103390000BF0CCFB284438BD2DE9F8434C484D4C8C
:1033A0004D4E4E4F4E4DFFF7CDFE4E4B4E4A5A609E
:1033B00014224E494E481A70DC604E4A1E610024A9
:1033C0004D4E9F61DD624D4F4D4D9962D8614FF07A
:1033D0007C514C481A635C630C224B4C9E63DF6348
:1033E0004A4E1D6596274A4D9964D86402210120F2
:1033F0005A655C6200223224C3F8C460A3F862708C
:1034000064264FF496771D625D611D644FF4167556
:10341000597059721872986583F84420C3F8A44013
:10342000A3F86440DE65A3F86670A3F86070A3F8A3
:10343000CC50D967C3F8B8104FF47A7140F61C49E4
:10344000A3F8D0504FF00A089A67C3F88000C3F879
:103450008420C3F88C40C3F8AC4041F2040CC3F89C
:10346000A820C3F8B4004FF05A0EC3F8BC60294F2F
:1034700083F8C92083F8CA20274EC3F8901041F280
:10348000883240F2D66144F62065FF240520C3F857
:103490006890C3F86C80C3F870C0C3F874E0C3F8D8
:1034A0009470C3F89860C3F89C50C3F8B040A3F878
:1034B000C200A3F8CE20A3F8D220C3F88820A3F836
:1034C000C020A3F8A010A3F8A210BDE8F88300BFA5
:1034D000AC5C0100666686400000404033338340A8
:1034E00000008242E093FF1F20A10700CDCCCC3D1D
:1034F000CDCC4C40000020C1000020420000A04084
:103500000AD7233D9A997940333373409A99993E6B
:10351000CDCC4C3E0000114400F0C84570B5464C7F
:10352000464D4748E66800232B70FFF7F7F9014640
:1035300030460DF071FF08B104232B704048FFF7AF
:10354000EBF921690DF068FF18B12B7843F01003F7
:103550002B703B48FFF75EFAE16A0DF07BFF18B174
:103560002B7843F040032B70002335486B70FFF736
:1035700053FA216B314E0DF04FFF08B101237370E8
:1035800000232F48EB70FFF7C9F905462C482B4E56
:10359000FFF7C2F9014628460DF096FC216C0DF0AC
:1035A00059FF08B10123F370264D254800232B70E5
:1035B000FFF7B4F9A16A0646E0680DF085FC014604
:1035C00030460DF047FF08B104232B701C48FFF76D
:1035D000A3F9A16A064620690DF078FC0146304641
:1035E0000DF01AFF18B12B7843F010032B7014481C
:1035F000FFF710FAE16B0646E06A0DF065FC014644
:1036000030460DF027FF18B12B7843F040032B70A4
:1036100000230B486B70FFF7FFF9E16B0546206B49
:10362000084C0DF053FC014628460DF0F5FE08B19C
:103630000123637070BD00BFE093FF1FDC93FF1F89
:103640000096FF1F5095FF1F2DE9F043A94C2368FA
:10365000012B83B025D0022B54D0032B74D0EBB9AF
:10366000A54BA648D3F8AC20D3F8B0100368891A4C
:10367000002903FB01F3A249C0F28880323381FBA9
:103680000301D817C0EB6111002B1144C0F29480E4
:10369000062003B0BDE8F04308F004BA03B0BDE86B
:1036A000F083984E33680A33B3F57A7F7FDC18468F
:1036B00033600DF0BFFC94490DF010FD80468E4D37
:1036C000D5F8AC000DF0B6FC0746D5F8B0000DF00B
:1036D000B1FC39460DF0F8FB41460DF0FFFC8B497B
:1036E0000DF0B0FD39460DF0F1FB0DF0D3FE0146B3
:1036F000062008F0D7F9864B1B68002B63D123689E
:10370000022BAAD17F4B7C4E00221A60D6F8AC0067
:103710000DF090FC0546D6F8B0000DF08BFC294664
:103720000DF0D2FB00210DF0D9FC78490DF08AFD97
:1037300029460DF0CBFB0DF0ADFE0146062008F04A
:10374000B1F92368032B8AD16E4B6B4E4FF47A721A
:103750001A60D6F8AC000DF06DFC0546D6F8B00046
:103760000DF068FC29460DF0AFFB68490DF0B6FC82
:1037700066490DF067FD29460DF0A8FB0DF08AFEA5
:103780000146062008F08EF9236868E7323B81FB8A
:103790000310D917C1EB6011002B0A44C0F2A780B7
:1037A000511C062003B0BDE8F04308F07BB90023AC
:1037B0004FF00008336082E70139062003B0BDE80E
:1037C000F04308F06FB9022152480AF087FE5248D0
:1037D0000BF0ACF9062151480AF080FE30680DF07C
:1037E00029FC49490DF07AFC0CF0CEFF0227024675
:1037F0000B46009748480BF0F7F90D2148480AF0AE
:103800006DFED5F8AC000DF015FC804630680DF06B
:1038100011FC3D490DF062FC8146D5F8B0000DF079
:1038200009FC41460DF050FB014648460DF056FCA0
:1038300036490DF007FD41460DF048FB0CF0A4FFA2
:10384000009702460B4634480BF0CEF93946314812
:103850000AF044FE30480BF069F939462D4808F06B
:1038600005FE30480BF062F906212C4808F0FEFDF9
:1038700030680DF0DFFB24490DF030FC0CF084FFC4
:10388000009702460B4627480BF0AEF90D2124485D
:1038900008F0ECFDD5F8AC000DF0CCFB80463068AC
:1038A0000DF0C8FB18490DF019FC0646D5F8B0001C
:1038B0000DF0C0FB41460DF007FB014630460DF010
:1038C0000DFC12490DF0BEFC41460DF0FFFA0CF064
:1038D0005BFF009702460B4612480BF085F939460C
:1038E0000C4808F0C3FD0F480BF020F907E711461C
:1038F000CEE600BF3895FF1FE093FF1F4087FF1FF4
:103900001F85EB51EC92FF1FCDCCCC3D0000C8428F
:103910004887FF1F606B01004488FF1FCC5C0100DB
:10392000D45C01000488FF1F30B51C481C4C83B0D8
:103930000BF0FCF819480BF0F9F818480BF0F6F802
:103940000D2118480AF0CAFD17480BF0EFF8164889
:103950000BF0ECF814480BF0E9F80D21114808F0D1
:1039600085FDD4F8A830012B22D0104D0B482978C2
:1039700000230A220BF0EEF8002329780A480A22D5
:103980000BF0E8F82B78052B00F29080DFE813F0BD
:10399000390242024B0254025D0266024488FF1F54
:1039A000E093FF1FE45C01000488FF1F4C95FF1F9C
:1039B0000921C7480AF092FD0921C54808F056FDC3
:1039C000C448FEF7A9FF21690DF026FD38B10F218B
:1039D000C1480AF083FD0F21BF4808F047FDBD48EC
:1039E000FEF79CFFE1680DF035FD38B10E21BB48B4
:1039F0000AF074FD0E21B94808F038FDB548FEF70D
:103A00008DFF0546B348FEF787FF014628460DF0B7
:103A10005BFA216C0DF01EFD38B11121B0480AF09F
:103A20005DFD1121AE4808F021FDAA48FEF79AFF7E
:103A3000E16A0DF00FFD38B10C21AA480AF04EFDE5
:103A40000C21A84808F012FDA248FEF78BFF216B5D
:103A50000DF0E2FC38B10D21A3480AF03FFD0D2125
:103A6000A14808F003FDA14B9A481B68012B00F008
:103A70002982FEF751FF21699D4D0DF0EBFC0028D6
:103A800000F0BD819348FEF749FFE968994D0DF0BC
:103A9000C3FC58B12B78052B00F02E8208219648E4
:103AA0000AF01CFD0821944808F0E0FC022193482C
:103AB0000AF014FD0221914808F0D8FC122008F009
:103AC00077F9012800F0DA81112008F071F9012856
:103AD00000F0E2818A4B1B68012B00F0EA81022191
:103AE0008648884C0AF0FAFC874B884819680BF026
:103AF00071F886480BF01AF8042185480AF0EEFCAC
:103B00000B2008F055F9002301460A227F480BF0EC
:103B100021F80C2008F04CF9002301460A227B48CA
:103B20000BF018F8142008F043F9002301460A228C
:103B300076480BF00FF8152008F03AF900230A2216
:103B4000014672480BF006F8062172480AF0C6FCDE
:103B500071480AF0EBFF04216D4808F087FC0B2048
:103B600008F026F9002301460A226B480AF0F2FF0A
:103B70000C2008F01DF9002301460A2266480AF0CD
:103B8000E9FF142008F014F9002301460A226248D4
:103B90000AF0E0FF152008F00BF9002301460A2285
:103BA0005D480AF0D7FF06215A4808F05FFC2368F9
:103BB000DB074FF0010140F1E18058480AF08EFC2C
:103BC0000121564808F052FC236898074FF0010184
:103BD00040F1E18051480AF081FC01214F4808F092
:103BE00045FC23685A074FF0010140F1E1804B4842
:103BF0000AF074FC0121494808F038FC23681B07CF
:103C00004FF0010140F1E18044480AF067FC0121D6
:103C1000424808F02BFC042141480AF05FFC1120C7
:103C200008F0C6F8002301460A2238480AF092FF3D
:103C3000102008F0BDF8002301460A2233480AF09C
:103C400089FF122008F0B4F8002301460A222F4809
:103C50000AF080FF132008F0ABF800230A22014687
:103C60002A480AF077FF04212D4808F0FFFB1120B5
:103C700008F09EF8002301460A2227480AF06AFF4E
:103C8000102008F095F8002301460A2222480AF085
:103C900061FF122008F08CF8002301460A221E481A
:103CA0000AF058FF132008F083F80A220023014687
:103CB00019480AF04FFF18480AF038FF1821194830
:103CC0000AF00CFC184B18880DF0B4F92EE000BF78
:103CD000F45C01000096FF1F005D0100105D010013
:103CE000205D0100345D0100445D01008093FF1FF1
:103CF000E093FF1F4C95FF1F785D0100606B010092
:103D00006895FF1FB494FF1F3C95FF1F4488FF1F59
:103D1000EC5D0100F45D01000488FF1FFC5D010003
:103D2000045E01000C5E0100DC92FF1F77490DF07C
:103D3000D5F90CF029FD002402460B460094744886
:103D40000AF052FF1F2173480AF0C8FB724B188813
:103D50000DF070F96D490DF0C1F90CF015FD0094EE
:103D60000B4602466A480AF03FFF02216B480AF000
:103D7000B5FB2B78032B30D003B030BD68480AF078
:103D8000ADFB0121664808F071FB236898074FF0EE
:103D900001013FF51FAF62480AF0A0FB0121604816
:103DA00008F064FB23685A074FF001013FF51FAF8D
:103DB0005B480AF093FB0121594808F057FB236840
:103DC0001B074FF001013FF51FAF55480AF086FB76
:103DD0000121534808F04AFB1DE7524B1B78002B8A
:103DE00045D01E2150480AF079FB50481B2108F0AD
:103DF0003DFB4F4803B0BDE830400AF097BE4D4D43
:103E000054E606214C480AF069FB06214A4808F0AE
:103E10002DFB4BE6072149480AF060FB0721474884
:103E200008F024FB42E6072145480AF057FB07212A
:103E3000434808F01BFB39E6082142480AF04EFBD4
:103E40000821404808F012FB30E60B213E480AF0FA
:103E500045FB0B213C4808F009FB27E607213B48BE
:103E60000AF03CFB0721394808F000FB1EE6202140
:103E700037480AF033FB1D213648B8E70E21364893
:103E80000AF02CFB0E21344808F0F0FA112007F05C
:103E90008FFF01287FF41EAE0A2130480AF01EFB76
:103EA0000A212E4808F0E2FA2D4B1B68012B7FF403
:103EB00016AE12212B480AF011FB1221294808F0F6
:103EC000D5FA0CE6FEF728FD616A0DF0C3FA88B159
:103ED00016212548174D0AF001FB0A2123480AF054
:103EE000FDFA1621204808F0C1FA0A211F4808F0FF
:103EF000BDFADBE50F4DD1E50A211C480AF0EEFAC8
:103F00000A211A4808F0B2FAD0E500BFCDCCCC3D6A
:103F10004488FF1F285E01005895FF1F485E01007E
:103F2000005E0100E892FF1F905E0100B05E01009C
:103F30000488FF1F4C95FF1F845D01008C5D01000C
:103F4000A05D0100A85D0100945D0100B45D010069
:103F50004C5E0100705E0100BC5D0100CC5D0100A3
:103F60006895FF1FD85D0100545D01006C5D010084
:103F70002DE9F04F7C4CE56F012D8DB000F0D18123
:103F8000032D00F01181DFF81882784F784EA36F6F
:103F90007848012B09BF3168316801F10041316077
:103FA00007F0EEF93B68002B40F0AB807148DFF87A
:103FB000F09107F0BBF93B68C8F800000546002BFC
:103FC00043D1E36F684A012B60D06B4928460DF05E
:103FD00041FAC0B9694928460DF01EFA98B9684AF5
:103FE000684B12680B920B9A1A60D4F8B4000DF06B
:103FF00021F829460DF072F80023C8F8000033605C
:104000000DB0BDE8F08FDFF878A15E4FDAF8003030
:104010000A930A983B68DFF88C91C01A0DF006F8F5
:1040200029460DF05BF858490DF00CF956490DF092
:1040300009F9D9F800100CF049FFDAF800300993BB
:10404000099BC9F800003B60CFE70CF09DFB0225FF
:1040500002460B4600954D480AF0C6FD04214C4827
:104060000AF03CFAD9F800000CF08EFB00950246ED
:104070000B4648480AF0B8FD0421454808F0F6F917
:10408000E36FD9F80050384A012B9ED1424B1B6890
:10409000012B00F09382022BA7D1D2F89C703846F6
:1040A0000CF0C8FF29460DF0B7F940B978420CF082
:1040B000C1FF29460DF0CEF9002800F0B282DFF8EA
:1040C000C0A0304FDAF80030079307983B68DFF85C
:1040D000D490C01A0CF0AAFF29460CF0FFFF2A4921
:1040E0000DF0B0F828490DF0ADF8D9F800100CF03B
:1040F000EDFEDAF800300693069BC9F800003B603D
:1041000073E71C4807F012F90CF03EFB022502464B
:104110000B4600951D480AF067FD03211F480AF071
:10412000DDF9D4F89C1019480AF054FD03211B480E
:104130000AF0D4F90F4807F0F9F80CF025FB0095C8
:1041400002460B4613480AF04FFD0321134808F0BE
:104150008DF9D4F89C100F480AF03CFD03210F485C
:1041600008F084F922E700BFE093FF1F8C95FF1F42
:10417000B493FF1FB893FF1F0000FA430000FAC377
:1041800058BAFF1F5C95FF1F00007A444488FF1F48
:104190000C5F01000488FF1F5C87FF1FA857010008
:1041A0009493FF1FA093FF1FDFF85493CA4ED9F8D2
:1041B0000030DFF85083D3F884000F2101233360EF
:1041C00006F04AFB3368C54F012B3B6800F0D280F4
:1041D000002B40F09981D9F80030C14DD3F884000C
:1041E000436B19698EB22E6006F0C4F8B4F8A220B1
:1041F00040F6E44303FB06F1B1FBF0F0801A00B295
:104200000CF018FFB749B84E8246D4F894000CF071
:1042100065FF014650460DF015F82B683060632BA2
:10422000DFF8BCA200F34B81002333603B68002B16
:104230003FF4ADAE0221AD480AF050F9D9F80020A4
:104240002B68D2F8840040F6E44B0BFB03FA06F02F
:1042500091F8BAFBF0F00CF0E9FE8246B4F8A20047
:104260000CF0E8FE014650460CF02EFE0CF08CFAE5
:104270004FF0020A02460B46CDF800A09C480AF017
:10428000B3FC514699480AF029F930680CF07CFAE1
:10429000CDF800A002460B4695480AF0A5FC514611
:1042A00094480AF01BF9514690480AF017F9514614
:1042B0008E4808F0DBF8D9F800202B68D2F884008B
:1042C0000BFB03FB06F056F8BBFBF0F00CF0AEFE68
:1042D0000546B4F8A2000CF0ADFE014628460CF0ED
:1042E000F3FD0CF051FACDF800A002460B468248CF
:1042F0000AF07AFC51467D4808F0B8F830680CF0B6
:1043000043FACDF800A002460B467B480AF06CFC4D
:104310005146784808F0AAF85146744808F0A6F8C3
:1043200035E6DFF8E081D4F89C70D8F80060DFF85B
:10433000D09138460CF07EFE31460DF08BF848B136
:1043400078420CF077FE014630460DF083F80028E5
:1043500040F06E81D9F800205F4ED2F884005F4FA4
:1043600002230E21336006F077FA3368012B3B6895
:104370007FF42EAF002B40F06581D9F80030584D06
:10438000D3F88400436B19691FFA81FBC5F800B0AC
:1043900005F0F0FFB4F8A030534E40F6E44A0AFBB3
:1043A0000BFBBBFBF0F0C01A00B20CF043FE4D4912
:1043B0008346D4F898000CF091FE014658460CF064
:1043C00041FFD9F800202B683060D2F884000AFB46
:1043D00003FA05F0CFFFB4F8A030BAFBF0F00FFA03
:1043E00080FAC3EB0A03002BB4F8C220B8BF5B42CB
:1043F0009342BCBF002333603B68002B3FF4C7AD42
:1044000002213A480AF06AF8D9F800202B68D2F85D
:10441000840040F6E44A0AFB03FB05F0ABFFB4F866
:10442000A010BBFBF0F003B2591A31480AF0D2FBDE
:1044300002212E480AF052F830680CF0A5F94FF02E
:10444000020B02460B46CDF800B029480AF0CCFB1F
:1044500003212A480AF042F8594624480AF03EF857
:104460005946224808F002F8D9F800202B68D2F803
:1044700084000AFB03FA05F07DFFB4F8A010BAFB34
:10448000F0F00FFA80FAC1EB0A011B480AF0A2FB18
:104490005946164807F0EAFF30680CF075F9CDF878
:1044A00000B002460B4614480AF09EFB0321134855
:1044B00007F0DCFF59460D4807F0D8FF67E5D9F84B
:1044C0000030D3F8840005F055FFDAF80030643886
:1044D0009842FFF4A9AEA9E65C87FF1F8C95FF1FE9
:1044E000D893FF1FACC52737B493FF1F606B010043
:1044F0004488FF1F085F01000488FF1FF45E01006D
:104500006095FF1F9493FF1F8148824DDFF834A20E
:104510000AF00CFB0C21804809F0E0FF0C217F48D9
:1045200009F0DCFF7E480AF001FB0C217A4807F015
:104530009DFF0C21794807F099FFD9F800203B68CE
:10454000D2F88400426B11698EB22E60002B3FF4CA
:104550004BAE05F00FFF40F6E44B0A2200230BFBA5
:1045600006F1B1FBF0F16A480AF0F4FA02216D4855
:1045700009F0B4FFB4F8A21065480AF02BFBDAF892
:1045800000302968D3F884000BFB01FB05F0F2FE34
:104590000023BBFBF0F10A2261480AF0DBFA02219A
:1045A000604807F063FFB4F8A2105D480AF012FB00
:1045B000DAF800302E68D3F8840015E65A49284608
:1045C0000CF048FF58B9594928460CF025FF30B97E
:1045D000574A584B12680592059A1A6005E5DFF8AC
:1045E00050A1544FDAF80030049304983B68DFF888
:1045F0006091C01A0CF01AFD29460CF06FFD4E496F
:104600000CF020FE4C490CF01DFED9F800100CF007
:104610005DFCDAF800300393039BC9F800003B60AF
:10462000E3E4434A434B12680892089A1A60DCE4B8
:10463000D9F80030414ED3F8840035600F2106F0E0
:104640000BF9BFE532480AF071FA35480AF06EFA04
:10465000E36F012B4FF00B0152D0394809F03EFFB8
:104660000B21374807F002FF0C212C48294D354E0D
:1046700009F034FF0C21294807F0F8FED9F8002092
:104680003B68D2F88400426B11691FFA81FBC5F8C0
:1046900000B0002B3FF47CAE05F06CFE40F6E44A1F
:1046A0000A2200230AFB0BF1B1FBF0F118480AF0D3
:1046B00051FA0121244809F011FFB4F8A010144860
:1046C0000AF088FA33682968D3F884000AFB01FAF3
:1046D00005F050FE0023BAFBF0F10A2210480AF060
:1046E00039FA0121184807F0C1FEB4F8A0100C48AF
:1046F0000AF070FA3368D5F800B0D3F8840047E6C2
:10470000124809F0EBFE0B21104807F0AFFEABE7B3
:104710004488FF1FD893FF1FF85E0100E45E01008C
:104720000488FF1F606B01000000FA430000FAC319
:1047300058BAFF1F5C95FF1F00007A445C87FF1F7B
:10474000D85E01006095FF1FE05C0100CC5E0100B7
:10475000A093FF1F2DE9F04FAC4D2B6883B0002BC9
:1047600000F0B180AA4CAB4FD4F88430DFF8EC8273
:10477000A94EA74D012B00F0DB80D5F85CA0D6F840
:104780000090AD6D05FB0AF54FF47A7000FB05F063
:104790000CF050FCA149DFF87CA2054648460CF01D
:1047A0009DFC29460CF04EFD9D490CF097FC0CF049
:1047B00071FE632838607ADD284698490CF042FD86
:1047C0006423CAF80030D8F800303060002B77D06E
:1047D000E36F8F4D012B00F0D380032B00F0F980A5
:1047E000022B00F000818F4D8F48022109F076FEE8
:1047F00028680BF0C9FF022402460B4600948B4840
:104800000AF0F2F921468A4809F068FE21468648F6
:1048100009F064FE396885480AF0DCF9062185480C
:1048200009F05CFE30687D490CF058FC0BF0ACFFE1
:10483000009402460B467D480AF0D6F903217E48D3
:1048400009F04CFE79480AF071F92146764807F0E4
:104850000DFE28680BF098FF009402460B4677483F
:104860000AF0C2F92146724807F000FE73480AF0C8
:104870005DF9396871480AF0ADF906216D4807F015
:10488000F5FD306865490CF029FC0BF07DFF0094C4
:1048900002460B4669480AF0A7F90321664807F06B
:1048A000E5FD664803B0BDE8F04F0AF03FB90028C7
:1048B000BCBF0023CAF80030D8F80030002B87D1E5
:1048C00003B0BDE8F08F5E48514CDFF89081FEF7F1
:1048D000A5F85C49276FD4F86C90A66E0CF0FEFB2F
:1048E0000CF0FEFD636F00933A464B4680B23146B2
:1048F000FEF7FCFC474FD8F800303860002B4ED153
:10490000E26DA36D444E02FB00F003FB00F000EBF0
:10491000800040000CF08EFB40490CF093FC01231A
:104920002B60D4F884303060012B394D7FF425AFF3
:104930004348FEF773F84349D5F870A0D5F868905E
:10494000D5F86CB00CF0CAFB0CF0CAFD6B6F00938D
:10495000524649465B4680B2FEF7C8FCD5F85CA0DB
:10496000AD6D0AFB00F005FB00F000EB800040009D
:104970000CF060FB29490CF065FC8146306001E7D2
:10498000314B1B68012B4FF00A0135D02F4809F03D
:10499000A5FD0A212D4807F069FDEB6F1DE70221F7
:1049A000214809F09BFD396820480AF013F90221DB
:1049B0001D4809F093FD02211B4807F057FD396897
:1049C0001E480AF007F91848022107F04FFD386821
:1049D00096E710211E4809F081FD10211C4807F0C0
:1049E00045FDE36FFCE607211A4809F077FD072132
:1049F000184807F03BFDF6E6174809F06FFD0A215D
:104A0000154807F033FDEB6FE7E600BFF892FF1F94
:104A1000E093FF1F4087FF1FA093FF1FE4388E3EE7
:104A20000000C8429493FF1F606B01004488FF1F81
:104A3000085F0100485F0100505F01000488FF1F0C
:104A40000096FF1F00007A445C87FF1F205F010073
:104A50002C5F0100405F0100145F01004887FF1FC9
:104A600030B5112083B007F0A3F9012818D0122027
:104A700007F09EF9012813D000210B2007F092F9CE
:104A800000210C2007F08EF90021152007F08AF98B
:104A90002649274B0120002208701A6003B030BD60
:104AA0000121152007F07EF9224A234C234B12687E
:104AB000D4F8881001921B68019A1D4D0B44934253
:104AC0004FF00201296005D901210C2007F06AF995
:104AD00003B030BDD4F890000CF0ACFA184B196854
:104AE0000CF09AFC0028EFD101210B2007F05AF9B5
:104AF00094F8C8300324012B2C600DD0122007F04D
:104B000057F9012808BF094B4FF0110008BF1C706E
:104B100007F04EF9012802D1044B02221A7000213D
:104B20000C2007F03FF903B030BD00BF4C95FF1FCC
:104B30008895FF1F58BAFF1FE093FF1F9495FF1F32
:104B40009493FF1FF0B56D4E6D4D34682B689C42F9
:104B500087B03AD014F0010156D014F002014AD0C7
:104B600014F004013ED0E3070FD52B68DF070CD407
:104B7000644F3A68002A00F09E80634B1B680193E3
:104B8000019B934200F289803468A0070DD52B6801
:104B900099070AD45D4F3A68002A3ED05A4B1B68E9
:104BA0000393039B93425AD8346862070DD52B6850
:104BB0005B070BD4564F3A68002A3FD0524B1B6814
:104BC0000593059B934258D834680CB107B0F0BDEB
:104BD0002146162006F066FF2146172006F062FFE8
:104BE00007B0F0BD052006F05DFF2B68346803F0C8
:104BF000FB032B60B7E7172006F054FF2B683468DF
:104C000003F0FD032B60ABE7162006F04BFF2B688B
:104C1000346803F0FE032B609FE73E4B1B68002BBC
:104C200056D1FF21172006F03DFF374B3A4A19684D
:104C30000291029912680A443A60B0E7354B1B684A
:104C4000002B50D1FF21052006F02CFF2E4B324ABD
:104C500019680491049912680A443A60AFE72F4B2F
:104C60001720D3F88C1006F01DFF2B68346843F032
:104C7000020300222B603A6097E7284B0520D3F807
:104C80008C1006F00FFF2B68346843F004030022F9
:104C90002B603A60002C99D19AE7204B1620D3F86C
:104CA0008C1006F0FFFE2B68346843F001030022ED
:104CB0002B603A6069E7FF21162006F0F3FE124BE5
:104CC000154A19680091009912680A443A6055E73C
:104CD000134809F02BFF0C21124809F0FFFB104884
:104CE00009F024FF9DE70E4809F020FF0C210E4833
:104CF00009F0F4FB0A4809F019FFA3E78895FF1FA4
:104D0000B494FF1F2C95FF1F58BAFF1F3095FF1F4B
:104D10003495FF1F4887FF1F7087FF1FE093FF1F19
:104D20004488FF1F545F0100645F01002DE9F047D4
:104D30006B4EDFF8D4813368DFF8D091D3F884006C
:104D4000684D0F2105F088FD0023012222216648CD
:104D5000C8F80030C9F8002009F0C0FB22216248E1
:104D600007F084FBD8F80030132B24DC40F6E4472E
:104D70003368B5F8A0A0D3F88400436B1C6905F034
:104D8000F9FAA4B2012107FB04F4B4FBF0F457488C
:104D90005444A5F8A04009F0A1FB0121534807F0B5
:104DA00065FB642007F03AF8D8F800300133132B84
:104DB000C8F80030DCDDB5F8A0304D4A4D48A2FB04
:104DC00003129B1A02EB5303C3F30F131946A5F802
:104DD000A03009F0FFFE1D21474809F07FFB0221AA
:104DE000464809F07BFB434809F0A0FEB5F8A01047
:104DF000434809F0EFFE1D213F4807F037FB022131
:104E00003E4807F033FB3E4809F090FE326800232D
:104E1000D2F88400C8F800300E2105F01DFD0223F1
:104E200022213148C9F8003009F058FB22212E48D0
:104E300007F01CFBD8F80030132B24DC40F6E447C5
:104E40003368B5F8A290D3F88400436B1C6905F071
:104E500091FAA4B2012107FB04F4B4FBF0F4234857
:104E60004C44A5F8A24009F039FB01211F4807F086
:104E7000FDFA642006F0D2FFD8F800300133132B7E
:104E8000C8F80030DCDDB5F8A230194A1948A2FB99
:104E900003129B1A02EB5303C3F30F131946A5F831
:104EA000A23009F097FE1D21164809F017FB0221D8
:104EB000124809F013FB0F4809F038FEB5F8A210AC
:104EC0000F4809F087FE1D210E4807F0CFFA0B4866
:104ED000022107F0CBFA0A48BDE8F04709F026BEE8
:104EE0006095FF1FE093FF1F745F0100B85F010032
:104EF000876118864488FF1F985F0100606B01007E
:104F00000488FF1FBC5F01009093FF1F5C87FF1F99
:104F10002DE9F843C04BC14CC14E1B68706D40F287
:104F2000513108222160E271002B40F06F810CF0BA
:104F300081F8B16905460CF0D1F8BA49B84F0CF0C8
:104F4000CDF80CF0CDFA80B203126372B64AB74BBB
:104F500012881B882072A37228461B121512E37256
:104F60002273F16965730CF0B9F8AE49AB4D0CF0E2
:104F7000B5F80CF0B5FA83B21A122946AC48A373FF
:104F8000E27306F03BF8AB4AAB4B12681988A1728A
:104F9000D3B2237203EB83035B00237302EB820320
:104FA00043F3D7134FEA212E12124FF008084FF0A7
:104FB0000009294663739E4884F80BE040F255339C
:104FC0006272236084F8078084F80E9084F80F9052
:104FD00006F014F840F256339848236084F80780AE
:104FE000FDF79EFC96490CF079F80CF079FA2072E6
:104FF0009248FDF795FC92490CF070F80CF070FAAD
:10500000904A8F49C0F30723637210680CF01AF9B5
:105010000CF040FA40FA08F3A0728848E372FDF7FA
:10502000A1FC80490CF05AF80CF034FA2073834844
:10503000FDF798FC7B490CF051F80CF02BFA40F38B
:105040000720294660737A4884F80E9084F80F9000
:1050500005F0D4FF022006F0E1FE7B4A7B4B11787D
:105060002172517890786172D178A0721A7898780C
:10507000E172597822736173DA78A07340F25A337F
:1050800029466B48E273236084F8078005F0B6FF79
:105090006F4B67481A7822725A7862729A78A272B5
:1050A000DA78E2721A7922735A7962739A79DB7923
:1050B000E373294640F25E33A273236084F80780CD
:1050C00005F09CFF022006F0A9FE624B58481A78B2
:1050D00022725A7862729A78A272DA78E2721A7937
:1050E00022735A7962739A79DB79E37329464FF414
:1050F0005C73236084F80780A27305F07FFF564B32
:105100001B68012B00F0AE80022006F087FEF36DD5
:105110002373022500221B12284640F27338082709
:1051200063732272012362729922A273E372E373A2
:10513000A572C4F80080E77106F070FE3F48C4F81D
:105140000080E771FDF7E8FB44490BF0C7FF0CF066
:10515000C7F920723948FDF7DFFB40490BF0BEFF6D
:105160000CF0BEF9C0F3072334486372FDF7D6FB99
:105170003A490BF0B3FF0CF0B3F9A0722F48FDF7DA
:10518000CDFB36490BF0AAFF0CF0AAF9C0F30723B8
:105190002A48E372FDF740FC31490BF097FE0CF012
:1051A0009FF920732548FDF737FC2D490BF08EFE43
:1051B0000CF096F9C0F3072320486373FDF72AFC2F
:1051C00027490BF083FE0CF08BF9A0731B48FDF709
:1051D00021FC23490BF07AFE0CF082F90F49C0F351
:1051E00007231348E37305F009FF284606F016FE6F
:1051F000B26DF36DE57112FB03F3C3F3072140F2C7
:105200007932237261722260BDE8F8830BF012FFDD
:10521000716A05468FE600BF8093FF1F7895FF1FD8
:10522000E093FF1F000020415895FF1FDC92FF1FF5
:10523000B0B8FF1F4087FF1F4487FF1F0096FF1F66
:105240000000C8429493FF1FDC93FF1F5095FF1F7F
:105250002C87FF1F6087FF1F6895FF1F00007A449F
:10526000339388432648FDF757FB396D0BF02EFE2C
:1052700081462348FDF752FB014648460CF0CCF826
:1052800000283FF441AF40F2C3331D4885F8078042
:105290002B60FDF741FBFF6C39460CF0BDF8C8B13F
:1052A000184938460BF01AFF0CF01AF980B240FA90
:1052B00008F368722B720023012704250322124988
:1052C0001248A772E57222736373A373E37305F048
:1052D00095FE19E70A48FDF71FFB0A490BF0FEFE91
:1052E0000CF0FEF8C0F3072305482B72FDF714FB02
:1052F00004490BF0F3FE0CF0F3F86872DBE700BF33
:105300000096FF1F00007A447895FF1FB0B8FF1F7A
:105310002DE9F04F354F364D83B009F079F83B68F1
:105320002860042B00F06A83092B00F0EC82022B2A
:105330004CD1A0F13103422B52D8DFE813F0960D87
:10534000630D110D290D460D5B00680C770C5100A3
:1053500051005100510051005100510051005100C5
:1053600051005100510051005100510051005100B5
:1053700051005100510051005100510051005100A5
:105380005100510051005100510051005100510095
:105390005100510051005100510051005100510085
:1053A0005100430051005100510051005100510083
:1053B0005100510051005100510051005100810035
:1053C00051008E0CFFF7B2FC3B682868082B2AD1ED
:1053D000322800F00184712832D0312801F0E881B0
:1053E000732831D003B0BDE8F08F00BF9895FF1F40
:1053F000D892FF1F01233B6009F046F8002805DD25
:10540000CD48CE4C09F02AFDA4F8C20007F0E2F81E
:10541000002805DDCA48C94C09F020FDA4F8C200E7
:1054200063203B682860072B40F0E080332802F0BF
:10543000718640F36D83342802F0F6857128CFD150
:10544000002273233A602B603B68002BCAD1BD4E0B
:10545000B948BD4C09F06AFB0421BC4809F03EF88C
:10546000B54809F063FB1021B94809F037F8B24894
:1054700009F05CFB1321B74809F030F82168AE4809
:1054800009F0A8FBAC4809F051FB1421B24809F01F
:1054900025F8A94809F04AFB1E21B04809F01EF87A
:1054A000A54809F043FB1521AD4809F017F8A248BB
:1054B00009F03CFB1E21AB4809F010F89E4809F0AA
:1054C00035FB2021A84809F009F89B4809F02EFB7C
:1054D0001921A64809F002F8974809F027FB122184
:1054E000A34808F0FBFF944809F020FB1921A148CC
:1054F00008F0F4FF904809F019FB0F219E4808F0CE
:10550000EDFF8D4809F012FB0D219C4808F0E6FFE5
:10551000894809F00BFB8A4809F008FB04218B48F5
:1055200006F0A4FF864809F001FB1021884806F028
:105530009DFF834809F0FAFA1321864806F096FF8A
:1055400021687F4809F046FB7D4809F0EFFA1421F5
:10555000814806F08BFF7A4809F0E8FA1E217F485F
:1055600006F084FF764809F0E1FA15217C4806F040
:105570007DFF734809F0DAFA1E217A4806F076FFBB
:105580006F4809F0D3FA2021774806F06FFF6C4886
:1055900009F0CCFA1921754806F068FF684809F04F
:1055A000C5FA1221724806F061FF654809F0BEFA9B
:1055B0001921704806F05AFF614809F0B7FA0F2127
:1055C0006D4806F053FF5E4809F0B0FA0D216B48B4
:1055D00006F04CFF5A4809F0A9FA00220123326074
:1055E0003B6003B0BDE8F08F3B682868062B40F0B5
:1055F0008D80A0F13103402B3FF6F2AE01A252F8AC
:1056000023F000BFDB6A00002B6B00007B6B000007
:10561000C56B00006B6C0000896C0000F96C000029
:10562000856A0000976A0000E1530000E153000022
:10563000E1530000E1530000E1530000E15300009A
:10564000E1530000E1530000E1530000E15300008A
:10565000E1530000E1530000E1530000E15300007A
:10566000E1530000E1530000E1530000E15300006A
:10567000E1530000E1530000E1530000E15300005A
:10568000E1530000E1530000E1530000E15300004A
:10569000E1530000E1530000E1530000E15300003A
:1056A000E1530000E1530000E1530000E15300002A
:1056B000E1530000E1530000E1530000E15300001A
:1056C000E1530000216E0000E1530000E1530000AF
:1056D000E1530000E1530000E1530000E1530000FA
:1056E000E1530000E1530000E1530000E1530000EA
:1056F000E1530000E1530000E1530000E1530000DA
:10570000E1530000415400003B682868052B3BD161
:10571000332802F0218540F32882352802F0648581
:10572000C2F2398571287FF45BAE154900237322DC
:105730000B603B602A6087E64488FF1FE093FF1FF1
:105740000488FF1F4887FF1F2487FF1F1C64010078
:1057500024640100386401004C64010064640100A9
:10576000846401009C640100BC640100E0640100E9
:10577000FC640100106501002C6501003C6501001E
:105780003895FF1F3B682868032B40F0B680A0F1D6
:105790003003422B3FF624AE01A252F823F000BFA3
:1057A000AD580000A9790000F779000045780000A5
:1057B000877800000D7900005B790000717C0000A3
:1057C000AB7C0000F57C0000E1530000E1530000D9
:1057D000E1530000E1530000E1530000E1530000F9
:1057E000E1530000E1530000E1530000E1530000E9
:1057F000E1530000E1530000E1530000E1530000D9
:10580000E1530000E1530000E1530000E1530000C8
:10581000E1530000E1530000E1530000E1530000B8
:10582000E1530000E1530000E1530000E1530000A8
:10583000E1530000E1530000E1530000E153000098
:10584000E1530000E1530000E1530000E153000088
:10585000E1530000E1530000E1530000E153000078
:10586000E1530000437D0000836E00009777000045
:10587000D17700000B780000457A0000E37A000041
:10588000317B0000E1530000837B0000C57B0000FA
:10589000E1530000E1530000E1530000E153000038
:1058A000E1530000415400002D7C000008F0ECFDA5
:1058B00000280DDDC348C44C09F0D0FA0126034688
:1058C00001466222C148A3653E602A60FDF72AF8BE
:1058D00006F080FE002842F3A083BD48BA4C09F0D0
:1058E000BDFA0126034601466222B848A3653E6020
:1058F0002A60FDF717F83B682868012B27D073282A
:105900007FF470ADA0E5B04CAF4A94F8CA30012BDB
:1059100084BF002384F8CA3094F8C930012B02D91F
:10592000002382F8C930322800F05E8771283FF4E6
:1059300087AD31287FF454AD94F8C930B3FA83F3BE
:105940005B090122782084F8C9303A602860A0F110
:105950005203262B3FF644AD01A252F823F000BFBC
:105960009D7D0000E1530000E1530000E153000081
:10597000E1530000E1530000E1530000E153000057
:10598000E1530000E1530000E1530000E153000047
:10599000E1530000E1530000E1530000455C0000CA
:1059A00057850000395E00002B5E0000C7620000D2
:1059B000E1530000E1530000E1530000615C00008E
:1059C000E15300005D850000E1530000E153000059
:1059D000E1530000E1530000E15300007D7D000031
:1059E000E1530000E1530000E1530000E1530000E7
:1059F000E1530000E1530000535C0000A0F13103CB
:105A0000402B3FF6EDAC01A252F823F0FD690000F7
:105A1000476A00008B690000816A0000156A000077
:105A2000316A0000436A00004B6A00004F6A0000C0
:105A3000E1530000E1530000E1530000E153000096
:105A4000E1530000E1530000E1530000E153000086
:105A5000E1530000E1530000E1530000E153000076
:105A6000E1530000E1530000E1530000E153000066
:105A7000E1530000E1530000E1530000E153000056
:105A8000E1530000E1530000E1530000E153000046
:105A9000E1530000E1530000E1530000E153000036
:105AA000E1530000E1530000E1530000E153000026
:105AB000E1530000E1530000E1530000E153000016
:105AC000E1530000E1530000E1530000E153000006
:105AD000E1530000E1530000E1530000E1530000F6
