:1000000000800020BD01000041B80000F9B70000E9
:10001000F9B70000F9B70000F9B70000F9B7000020
:10002000F9B70000F9B70000F9B7000041B80000C7
:1000300041B80000F9B7000085E3000089E3000043
:1000400041B8000041B8000041B8000041B80000CC
:1000500041B8000041B8000041B8000041B80000BC
:1000600041B8000041B8000041B8000041B80000AC
:1000700041B8000041B8000041B8000041B800009C
:1000800041B8000041B8000041B8000041B800008C
:1000900041B8000041B8000041B8000041B800007C
:1000A00041B8000041B8000041B8000041B800006C
:1000B00041B8000075B3000081B3000085B30000B3
:1000C00091B3000095B3000099B3000041B800005F
:1000D00041B8000041B8000041B8000041B800003C
:1000E00041B8000041B8000041B8000041B800002C
:1000F00041B80000F1C4000041B8000049CC000044
:1001000041B80000CDD1000041B8000041B8000066
:1001100041B8000041B8000041B8000041B80000FB
:1001200041B8000041B8000041B8000041B80000EB
:1001300041B8000041B8000041B8000041B80000DB
:1001400041B8000041B8000041B8000041B80000CB
:1001500041B8000041B8000041B8000041B80000BB
:1001600041B800005DD4000041B8000041B8000073
:1001700041B8000041B8000041B8000041B800009B
:1001800041B8000041B8000041B8000041B800008B
:1001900041B8000041B8000041B8000041B800007B
:1001A00041B8000041B8000041B8000041B800006B
:1001B00041B8000041B8000041B80000564B4CF275
:1001C000205210B51A804DF628121A8000BF00BFC9
:1001D0000BF03AFB514B4FF010621A60504A9A6094
:1001E000504ADA60504A136813F4807304D14F49BF
:1001F0000B604FF4A85313604D4B1A78110703D5C9
:100200001A7842F008021A704A4B4B492A221A7097
:100210004A4A4B4B8B4204D252F8040F43F8040B6A
:10022000F8E7484B484900228B4202D243F8042B9E
:10023000FAE74649464A002352F8230041F82300D2
:1002400001336F2BF8D1434B434A802103F8011B44
:100250009342FBD1414B3D4A1A60414B8A221A70AE
:10026000A3F5805324225A70A0221A709A7992071B
:10027000FCD59A79D406FCD43A4A937903F00C035E
:10028000082B384BF9D103221A7140225A719A79FE
:100290009006FCD5334A9179324B4906FBD5324A58
:1002A000324911600221516020221A709A7902F0BD
:1002B0000C020C2AFAD12E4B2E4A1A602E4B2F4AD2
:1002C0001A6000225A60072243F8042C2C4AC3F813
:1002D0000C2D62B60BF06EFD144B1B68DA0705D5CA
:1002E00028480BF04BFB284B284A1A60284B1B78F8
:1002F0005B0609D5244C254B22689A4204D121483B
:100300000BF03CFB0023236010F0A8FF0BF0A2FAD7
:100310000EF0B8FBFEE700BF0E2005403080044021
:10032000823F04000100002B10D0034014D0034092
:1003300002D0074000E007406892FF1F947101005F
:100340002087FF1F6892FF1F18BDFF1F0082FF1F3D
:100350000000000000E400E05FE400E008ED00E0E1
:100360000050064000400640448004400000030165
:1003700004800440C010050014E000E0FF76010096
:100380000000202097F235611CE00340A5C3945A79
:1003900000F00740FFFFFFFFFFFFFFFFFFFFFFFF32
:1003A000FFFFFFFFFFFFFFFFFFFFFFFFFFFFFFFF5D
:1003B000FFFFFFFFFFFFFFFFFFFFFFFFFFFFFFFF4D
:1003C000FFFFFFFFFFFFFFFFFFFFFFFFFFFFFFFF3D
:1003D000FFFFFFFFFFFFFFFFFFFFFFFFFFFFFFFF2D
:1003E000FFFFFFFFFFFFFFFFFFFFFFFFFFFFFFFF1D
:1003F000FFFFFFFFFFFFFFFFFFFFFFFFFFFFFFFF0D
:10040000FFFFFFFFFFFFFFFFFFFFFFFFDEF9FFFF23
:1004100010B5054C237833B9044B13B10448AFF33E
:1004200000800123237010BD6892FF1F00000000B0
:1004300090710100084B10B51BB108490848AFF393
:1004400000800848036803B910BD074B002BFBD0A0
:10045000BDE81040184700BF000000006C92FF1F6D
:10046000907101006892FF1F00000000F0B400F1DD
:1004700014060F4F00243146031F00F12C0243F8ED
:10048000044FB34241F8047F4FF0000542F8044F97
:10049000F5D1084B084985640022C56405654565AA
:1004A000456683650366C16580F88420F0BC7047AB
:1004B0000000A040000048430000C8C200230360C1
:1004C00043608360C3600361436183640365436584
:1004D000836570472DE9F04190F8844084B0002393
:1004E00064008DF80530E4B2012380468DF80440A5
:1004F0008DF80630032720460CF0BCFD02210DF1DB
:1005000005000CF0C1FD8DF8044002F06DFD30B324
:100510000921C9480DF010FE002310222146C748CA
:100520000EF02AF90121C6480DF006FE0023102224
:100530009DF80510C1480EF01FF90121C0480DF0CB
:10054000FBFD002310229DF80610BC480EF014F9A4
:100550000121BB480DF0F0FDB8480EF0FDF8022077
:100560008DF804400BF0D8FB02F03EFD002840F06F
:10057000778102AE00240CF0BBFD002800F026813C
:10058000042C40F0158101E00CF0C2FD0CF0B0FD30
:100590000028F9D102F028FD10B1A8480EF0DCF8CF
:1005A00098F884406400E4B2202204238DF80440CB
:1005B0008DF805208DF80630032720460CF05AFDF3
:1005C00002210DF105000CF05FFD8DF8044002F0F2
:1005D0000BFD30B3092198480DF0AEFD0023102229
:1005E000214696480EF0C8F8012195480DF0A4FD6B
:1005F000002310229DF8051090480EF0BDF801214F
:100600008F480DF099FD002310229DF806108B48AD
:100610000EF0B2F801218A480DF08EFD87480EF0E9
:100620009BF802208DF804400BF076FB02F0DCFC16
:10063000002840F00B8102AE00240CF059FD002888
:1006400000F0A980072C40F0988001E00CF060FDDC
:100650000CF04EFD0028F9D102F0C6FC10B177482D
:100660000EF07AF898F884409DF80B209DF80C3035
:100670009DF80D00C8F870206400E4B29DF80E10DB
:10068000C8F87430332201238DF80440C8F878008C
:10069000C8F87C108DF805208DF806300327204619
:1006A0000CF0E8FC02210DF105000CF0EDFC8DF8DA
:1006B000044002F099FC30B309215F480DF03CFD85
:1006C0000023102221465D480EF056F801215C48B7
:1006D0000DF032FD002310229DF8051057480EF052
:1006E0004BF8012156480DF027FD002310229DF8FC
:1006F000061052480EF040F8012151480DF01CFD43
:100700004E480EF029F802208DF804400BF004FB4F
:1007100002F06AFC002840F09E8002AE00240CF03B
:10072000E7FCF8B1042C0FD101E00CF0F1FC0CF067
:10073000DFFC0028F9D102F057FC10B13F480EF061
:100740000BF804B0BDE8F0810CF0E2FC054606F8B9
:10075000010B02F049FC00285AD101340CF0C8FC0E
:100760000028DFD1042CE2D002F03EFC00285ED14C
:10077000013FE6D09DF8044091E70CF0C9FC054626
:1007800006F8010B02F030FC60BB01340CF0B0FC49
:1007900000287FF457AF072C3FF45AAF02F024FC37
:1007A00000284FD1013F3FF45DAF9DF8044004E7BE
:1007B0000CF0AEFC054606F8010B02F015FCE0B9A2
:1007C00001340CF095FC00287FF4DAAE042C3FF4E1
:1007D000DDAE02F009FC30BB013F3FF4E1AE9DF815
:1007E000044088E6E9B20023102214480DF0C4FF4B
:1007F000012113480DF0A0FCC7E7E9B20023102245
:100800000E480DF0B9FF01210D480DF095FCD7E71A
:10081000E9B20023102209480DF0AEFF012108487B
:100820000DF08AFC99E705480DF096FFD4E70348E0
:100830000DF092FF9CE700BF185401000888FF1FCD
:10084000385A010009480DF087FFABE70721084837
:100850000DF072FCEFE6072105480DF06DFC5CE73A
:10086000072103480DF068FC83E600BF0888FF1FDE
:100870002454010090F87400704700BF90F8700095
:10088000704700BF90F87800704700BF90F87C0078
:10089000704700BF2DE9F04390F8848085B04FEA9F
:1008A00048085FFA88F8322200238DF804808DF81A
:1008B00005208DF8063003250DF1060748F00109E3
:1008C00048460CF0D7FB01AE0DF1050002210CF0FB
:1008D000DBFB8DF804904A46334600205040082444
:1008E00010F0800F4FEA400018BF80F00700013C75
:1008F000C0B2F5D1BB4202D013F8012FEEE70CF0E5
:10090000B9FB02F071FB00284AD102208DF8048067
:100910000BF002FA02F068FB002840F081800DF134
:10092000080800240CF0E4FB08B3042C12D101E009
:100930000CF0EEFB0CF0DCFB0028F9D102F054FBCC
:1009400010B13A480DF008FF02200BF0E5F905B0B0
:10095000BDE8F0830CF0DCFB08F8010B064602F062
:1009600043FB70B901340CF0C3FB0028DDD1042C2B
:10097000E0D002F039FB78B9013DE5D09DF8048064
:100980009CE7F1B20023102228480DF0F5FE01216A
:1009900027480DF0D1FBE5E724480DF0DDFEEBE73D
:1009A000092124480DF0C8FB2346102249461F4860
:1009B0000DF0E2FE01211E480DF0BEFB2346102281
:1009C0009DF8051019480DF0D7FE012118480DF0CB
:1009D000B3FB102223469DF8061014480DF0CCFE00
:1009E000012113480DF0A8FB21460DF1070216F86E
:1009F000014B6140C9B2082311F0800F4FEA410159
:100A000018BF81F00701013BC9B2F5D1B242EED166
:100A1000102206480DF0B0FE04480DF09DFE74E76C
:100A2000072105480DF088FB79E700BF0888FF1F04
:100A3000385A010018540100245401002DE9F04FE8
:100A4000074691B097F8843002205B008DF808309B
:100A50000BF062F997F8843038465B008DF8083067
:100A6000FFF738FDB86FFC6F7B6F3A6F97F8841013
:100A70008DE81100C94802F0BDFB30223D238DF8FE
:100A800009208DF80A3003260DF10A059DF808901B
:100A900049F0010840460CF0EDFA0DF10900022181
:100AA0000CF0F2FA8DF80880424602AB002050406C
:100AB000082410F0800F4FEA400018BF80F00700B4
:100AC000013CC0B2F5D1AB4202D013F8012FEEE7E2
:100AD0000CF0D0FA02F088FA002840F07D82022063
:100AE0008DF808900BF018F902F07EFA002840F01B
:100AF000B9820DF10C0AD14600240CF0F9FA002855
:100B000043D0032C34D101E00CF002FB0CF0F0FADE
:100B10000028F9D102F068FA10B1A1480DF01CFECE
:100B2000312303268DF809308DF80A609DF808906E
:100B300049F0010840460CF09DFA0DF10900022130
:100B40000CF0A2FA8DF80880424602AB002050401B
:100B5000082410F0800F4FEA400018BF80F0070013
:100B6000013CC0B2F5D19D4228D013F8012FEEE729
:100B70000CF0CEFA09F8010B804602F035FA68B99C
:100B800001340CF0B5FA0028BBD1032CBED002F022
:100B90002BFA78B9013E7FF479AFC1E75FFA88F1AB
:100BA000002310227E480DF0E7FD01217D480DF065
:100BB000C3FAE5E77A480DF0CFFDEBE70CF05AFAFF
:100BC00002F012FA002840F0C68102208DF8089049
:100BD0000BF0A2F802F008FA002840F03E820DF176
:100BE0000C0900240CF084FA002844D0032C35D1E1
:100BF00001E00CF08DFA0CF07BFA0028F9D102F03C
:100C0000F3F910B166480DF0A7FD342201238DF8E9
:100C100009208DF80A3003269DF8089049F0010854
:100C200040460CF027FA0DF1090002210CF02CFAD5
:100C30008DF80880424602AB00205040082410F096
:100C4000800F4FEA400018BF80F00700013CC0B29F
:100C5000F5D1AB4228D013F8012FEEE70CF058FA8B
:100C600009F8010B804602F0BFF968B901340CF0B5
:100C70003FFA0028BAD1032CBDD002F0B5F978B9FB
:100C8000013E7FF453AFC0E75FFA88F100231022E2
:100C900043480DF071FD012142480DF04DFAE5E7A2
:100CA0003F480DF059FDEBE70CF0E4F902F09CF938
:100CB000002840F00F8102208DF808900BF02CF8EE
:100CC00002F092F9002840F0D7810DF10C090024C0
:100CD0000CF00EFA002800F08580032C73D101E09F
:100CE0000CF016FA0CF004FA0028F9D102F07CF9A5
:100CF00010B12B480DF030FD012212238DF8092090
:100D00008DF80A304FF003089DF8084020460CF09B
:100D1000B1F902210DF109000CF0B6F98DF8084087
:100D200002F062F930B309211F480DF005FA0023E3
:100D3000102221461A480DF01FFD012119480DF01F
:100D4000FBF9002310229DF8091015480DF014FD41
:100D5000012114480DF0F0F9002310229DF80A102B
:100D60000F480DF009FD01210E480DF0E5F90C4882
:100D70000DF0F2FC06208DF808400AF0CDFF02F0DD
:100D800033F9002840F0738103AD00260CF0B0F970
:100D9000002840D0162E30D10AE000BF2C540100AC
:100DA0000888FF1F385A0100185401000CF0B0F9F0
:100DB0000CF09EF90028F9D102F016F91626002849
:100DC0007DD1152035E00CF0A3F909F8010B804620
:100DD00002F00AF900285BD101340CF089F90028EF
:100DE0007FF47BAF032C3FF47DAF02F0FDF80028C9
:100DF0006CD1013E7FF410AF7EE70CF089F905F865
:100E0000010B044602F0F0F800284DD101360CF039
:100E10006FF90028BED1162ECAD002F0E5F80028DE
:100E20004DD1B8F101087FF46FAF701E002840F378
:100E30003582002303AA1C4612F8011B08254C40EA
:100E400014F0800F4FEA440418BF84F00704013DFA
:100E5000E4B2F5D101338342EEDB9DF8218089486D
:100E60004146224602F0C6F9162EC146A34602D1DB
:100E7000A04500F0138197F884108348CDF800B0A6
:100E80004B46324602F0E4F9002011B0BDE8F08F85
:100E90005FFA88F1002310227C480DF06DFC0121DF
:100EA0007B480DF049F997E7E1B20023102277481B
:100EB0000DF062FC012176480DF03EF9A6E773487B
:100EC0000DF04AFC162EACD11520B2E76F480DF09C
:100ED00043FC8EE709216F480DF02EF923461022BE
:100EE00041466A480DF048FC012169480DF024F99B
:100EF000234610229DF8091064480DF03DFC0121A5
:100F000063480DF019F9102223469DF80A105F4836
:100F10000DF032FC01215E480DF00EF921460DF175
:100F20000B0002AA12F8014B6140C9B2082311F06C
:100F3000800F4FEA410118BF81F00701013BC9B2A0
:100F4000F5D19042EED1102250480DF015FC4F48DB
:100F50000DF002FCAFE609214E480DF0EDF82346F6
:100F60001022414649480DF007FC012148480DF088
:100F7000E3F8234610229DF8091044480DF0FCFBCD
:100F8000012143480DF0D8F8102223469DF80A109D
:100F90003E480DF0F1FB01213D480DF0CDF8214612
:100FA0000DF10B0002AA12F8014B6140C9B20823EF
:100FB00011F0800F4FEA410118BF81F00701013B9A
:100FC000C9B2F5D19042EED1102230480DF0D4FBD9
:100FD0002E480DF0C1FBF8E509212E480DF0ACF8C4
:100FE00023461022414629480DF0C6FB012128481E
:100FF0000DF0A2F8234610229DF8091023480DF0A9
:10100000BBFB012122480DF097F8102223469DF8E2
:101010000A101E480DF0B0FB01211D480DF08CF8A0
:1010200021460DF10B0002AA12F8014B6140C9B232
:10103000082311F0800F4FEA410118BF81F007012A
:10104000013BC9B2F5D19042EED110220F480DF00C
:1010500093FB0E480DF080FB41E507210E480DF093
:101060006BF8BCE507210C480DF066F841E5072157
:1010700009480DF061F887E6072107480DF05CF894
:1010800023E600BF60540100AC5401000888FF1F34
:10109000385A010018540100245401009DF80C3006
:1010A00097F88420B3EB420F7FF4EEAE9DF80D303D
:1010B000012B7FF4E9AE9DF80E30122B7FF4E4AEE5
:1010C0009DF810309DF80F0003EB00200FF04AFE52
:1010D0008B490FF09BFE796EF864044610F052F8CD
:1010E00000B17C66396E204610F02EF800B13C66E7
:1010F0003D1FAB4607F1180807F130064FF0000915
:101100009AF806309AF8050003EB00200FF02AFE4B
:101110007C490FF07BFE4BF8040FD8F80010044612
:1011200010F012F809F101090AF1020A30B1B96EA2
:10113000204610F01DF808B1C8F80040316820467C
:1011400010F020F808F1040800B13460B9F1060F7E
:1011500006F10406D4D10020B86407F1140455F850
:10116000041F0FF04BFDAC42F9D19DF81D209DF8F6
:101170001E30B86403EB022002300FF0F3FD624929
:101180000FF0F8FE014661480FF0F4FE60490FF0E1
:1011900033FD60490FF03AFE05460DF0A5FE04460A
:1011A00028460DF0A1FE5C490DF010FF5B49054695
:1011B00020460FF02BFE5A490FF020FD59490446F6
:1011C00028460FF023FE014620460FF017FD01468A
:1011D0004FF07E500FF0CEFE53490FF00DFD9DF8FD
:1011E0001F209DF82030386503EB022009300FF0F6
:1011F000B9FD4E490FF0BEFE014644480FF0BAFE5D
:1012000043490FF0F9FC43490FF000FE05460DF08D
:101210006BFE044628460DF067FE3F490DF0D6FEF2
:101220003E49054620460FF0F1FD3D490FF0E6FC32
:101230003C49044628460FF0E9FD014620460FF0E0
:10124000DDFC01464FF07E500FF094FE36490FF062
:10125000D3FCD7F8808078650446B8F1000F3BD105
:101260003D6D29462E460FF08DFF68B32946B86DB7
:101270000FF088FFE0B1BD65B8F1000F17D008F19D
:10128000130657F82640F96D20460FF07BFF00B19A
:10129000FC65274801F0AEFF0120F6E59DF821909E
:1012A000244849464246C34601F0A4FFE3E53E6DAB
:1012B000314620460FF066FFC8B1F96D20460FF0A9
:1012C00061FF0028E4D1E4E7B96D20460FF03CFF50
:1012D0000028EDD02546CEE708F11306B96D57F882
:1012E000265028460FF030FF0028C4D1C9E7314608
:1012F000F86D0FF029FF0028CBD03446C8E700BFB7
:101300006B57053B2003C839001601470AD7E33F56
:10131000E17A644000007A4400004040A40D8F3917
:101320005A80473A46A6DB3333938843002C014763
:101330008454010060540100052994BF50F8210035
:10134000002070472DE9F0410B4E8046041F00F14C
:10135000140754F8045F314628460FF0F5FE30B10B
:10136000D8F8681028460FF00DFF00B12E46BC4299
:10137000EFD13046BDE8F08100002041F8B50026ED
:10138000041F00F1140754F8045F314628460FF09B
:10139000F9FE00B12E46BC42F5D13046F8BD00BF83
:1013A0002DE9F047876E82464FF00009041F00F1D7
:1013B00014064FF0000854F8045F394628460FF031
:1013C000E1FE0D4950B128460FF0BEFE30B148464F
:1013D00029460FF013FC08F101088146B442EAD116
:1013E000CAF8888040460FF0BDFC014648460FF021
:1013F000C1FDBDE8F08700BF00007042D0F8880052
:10140000704700BF38B5D0F8803043B9456D046DE2
:10141000294620460FF098FE30B1204638BD1333E0
:1014200050F82340204638BD2C46204638BD00BF2A
:1014300038B5D0F8803043B9446D056D2146284653
:101440000FF082FE30B1204638BD133350F82340F0
:10145000204638BD2C46204638BD00BF08B5D0F820
:1014600080301BB1133350F8230008BD416D006D6F
:101470000FF0C4FB4FF07C510FF0C8FC08BD00BF5B
:10148000806C704701299ABF143150F82100002068
:10149000704700BF3E2998BF80F88410704700BF96
:1014A00090F86C00704700BFC0F88010704700BF14
:1014B00080F86C10704700BF8166704770B500F50A
:1014C0000A5506461C3500F1280420468C34FEF7E8
:1014D000CDFFAC42F9D106F1B40501242846002124
:1014E000FFF7E6FF214628460134FFF7D3FF3F2CE4
:1014F00005F18C05F2D142F2A42400250548064AE4
:10150000064B3555002130617161B261F36130469F
:1015100070BD00BF00007A44000048430000C8C20C
:1015200038B500F50A551C3500F1B40402E08C34DE
:10153000AC420AD02046FFF7B3FF0028F7D0204680
:101540008C34FEF7BBFFAC42F4D138BD2DE9F0413D
:1015500042F2A82300F50A56374600228046C250C0
:101560001C36283700F1B40402E08C34B4420DD0AC
:101570002046FFF795FF0028F7D020463D68FFF78B
:101580003DFF8C342844B4423860F1D142F2A823A4
:1015900058F80300BDE8F0812DE9F04F93B0814683
:1015A00042F2AC231046019201284FF0000206914E
:1015B00049F8032000F0038209F50A532C330793FE
:1015C00009F1B40A4FF0010B5046FFF769FFC0B1B3
:1015D00000263446012531465046D9F80870FFF7F9
:1015E000ABFE014638460FF0AFFD18B105FA06F321
:1015F0001C43E4B20136062EEDD1019B012B0AD02B
:10160000F4B90BF1010BBBF13F0F0AF18C0ADBD1EE
:1016100013B0BDE8F08F5946BD480DF0EDF8032139
:10162000BC480CF089FD214600230222B8480DF089
:10163000A3F80321B8480CF07FFD002C00F01881BE
:101640004FEA4B03DBB21946029343F001039DF8C6
:10165000182003931D46184633238DF826208DF855
:1016600025308DF824100BF005FD0DF12500022129
:101670000BF00AFD09AA05928DF824502A4609AB01
:101680000DF1260600205040082510F0800F4FEA8B
:10169000400018BF80F00700013DC0B2F5D19E4266
:1016A00002D013F8012FEEE70BF0E4FC01F09CFCF4
:1016B000002840F0EC809DF808308DF8243002209E
:1016C0000AF02AFB01F090FC002840F06E810AAB82
:1016D00004931F4600250BF00BFD002844D01E2D5F
:1016E00035D101E00BF014FD0BF002FD0028F9D11B
:1016F00001F07AFC00283DD1019B012B40D0039DD5
:101700009DF808208DF82420322328468DF82530B6
:101710008DF826400BF0AEFC0DF1250002210BF0F8
:10172000B3FC8DF8245009AB2A4600205040082510
:1017300010F0800F4FEA400018BF80F00700013D15
:10174000C0B2F5D19E423BD013F8012FEEE70BF06B
:10175000DFFC07F8010B804601F046FC20BB013599
:101760000BF0C6FC0028BAD11E2DBDD001F03CFC08
:101770000028C1D066480CF0EFFF019B012BBED1C1
:10178000049D0BAF15F8011B6148002310220CF0DB
:10179000F3FF012161480CF0CFFCAF42F2D10321ED
:1017A0005D480CF0C9FCAAE75FFA88F1002310221B
:1017B00057480CF0E1FF012159480CF0BDFCCEE781
:1017C0000BF058FC01F010FC002840F0AD809DF8B3
:1017D00008308DF8243002200AF09EFA01F004FC53
:1017E000002840F0E780049E00250BF081FC00B348
:1017F0001E2D11D101E00BF08BFC0BF079FC0028C1
:10180000F9D101F0F1FBD0B9019B012B1DD0079A52
:1018100013681C441460F4E60BF07AFC06F8010B24
:10182000074601F0E1FB38BB01350BF061FC0028F5
:10183000DED11E2DE1D001F0D7FB0028E4D03448E2
:101840000CF08AFF019B012BE1D1049E0BAD16F831
:10185000011B2F48002310220CF08EFF01212F487E
:101860000CF06AFCAE42F2D1079A1368234413606D
:1018700027480CF071FFC4E6F9B200231022244877
:101880000CF07AFF012126480CF056FCCCE7092128
:1018900024480CF051FC2B46102203991C480CF0F4
:1018A0006BFF01211E480CF047FC2B4610229DF8CF
:1018B000251017480CF060FF012119480CF03CFC82
:1018C00010222B469DF8261011480CF055FF0121DF
:1018D00013480CF031FC29460DF1270009AA12F833
:1018E000013B5940C9B2082311F0800F4FEA410172
:1018F00018BF81F00701013BC9B2F5D19042EED18A
:10190000102203480CF038FF01480CF025FFD2E606
:101910000888FF1FFC540100005501000455010018
:10192000385A010018540100092127480CF004FC22
:101930002B461022039925480CF01EFF0121244854
:101940000CF0FAFB2B4610229DF825101F480CF0D6
:1019500013FF01211E480CF0EFFB10222B469DF8CF
:1019600026101A480CF008FF012119480CF0E4FB7E
:10197000059829460DF1270210F8013B5940C9B2DC
:10198000082311F0800F4FEA410118BF81F00701D1
:10199000013BC9B2F5D18242EED110220B480CF0C6
:1019A000EBFE0A480CF0D8FE11E7072109480CF0BD
:1019B000C3FB8CE6072107480CF0BEFB13E7034886
:1019C0000CF0CAFEF8E500BF185401000888FF1F9C
:1019D000385A0100245401002DE9F04F824685B0A9
:1019E0004FF0000901238DF800908DF801908DF8DB
:1019F00002304FF00308002420460BF03BFB02218D
:101A00000DF101000BF040FB8DF8004001F0ECFA05
:101A100030B30921B5480CF08FFB0023102221467A
:101A2000B3480CF0A9FE0121B2480CF085FB00235D
:101A300010229DF80110AE480CF09EFE0121AD4829
:101A40000CF07AFB002310229DF80210A8480CF03D
:101A500093FE0121A7480CF06FFBA5480CF07CFE1B
:101A600002208DF800400AF057F901F0BDFA002875
:101A700040F0898001AF3E4600240BF039FB00287E
:101A800067D0042C58D101E00BF042FB0BF030FB87
:101A90000028F9D101F0A8FA10B195480CF05CFECD
:101AA0009DF80430802B40F01E819DF80530002BFE
:101AB00040F019819DF80640012C40F014818E48B9
:101AC00001F098FB0AF1B406254604E001353F2DEC
:101AD00006F18C0686D03046FFF7E2FC83460028EC
:101AE000F4D13B2265F07F0301208DF801208DF8B1
:101AF00002308DF800B00BF0BDFA0DF101000221AB
:101B00000BF0C2FA01228DF80020E84658466B46D9
:101B10000DF102026040C0B2082410F0800F4FEABD
:101B2000400018BF80F00700013CC0B2F5D19342DD
:101B30002ED013F8014FEDE70BF0EAFA06F8010B8F
:101B4000054601F051FA98B901340BF0D1FA00289A
:101B500097D1042C9AD001F047FA10B164480CF0E8
:101B6000FBFDB8F1010800F0BE809DF8004043E79E
:101B7000E9B2002310225E480CF0FEFD01215D4811
:101B80000CF0DAFAE0E707215C480CF0D5FA71E7CF
:101B90000BF070FA01F028FA00285AD103208DF8D2
:101BA00000900AF0B9F801F01FFA002840F0968082
:101BB00000240BF09DFAB0B30A2C27D101E00BF002
:101BC000A7FA0BF095FA0028F9D101F00DFA0028D8
:101BD0007FD19DF80430812B7FF404AF9DF8053050
:101BE0003B2B7FF4FFAE9DF806308035AB427FF48F
:101BF000F9AE30460121FFF75BFC0AF50A53404875
:101C00001A6A01321A6201F0F5FAEBE60BF080FA7B
:101C100007F8010B804601F0E7F970B901340BF0C9
:101C200067FA0028C8D10A2CCBD001F0DDF90028D2
:101C300050D1022C7FF7D6AECBE75FFA88F10023B4
:101C400010222B480CF098FD01212A480CF074FA60
:101C5000E4E7092125480CF06FFA23461022012100
:101C600023480CF089FD012122480CF065FA234637
:101C700010229DF801101E480CF07EFD01211D4828
:101C80000CF05AFA102223469DF8021018480CF066
:101C900073FD012117480CF04FFA21460DF10302A4
:101CA00018F8014B6140C9B2082311F0800F4FEAC8
:101CB000410118BF81F00701013BC9B2F5D142458E
:101CC000EED110220A480CF057FD09480CF044FDF3
:101CD00064E70A2406480CF03FFDAAE707210748FD
:101CE0000CF02AFA64E705B0BDE8F08F1854010043
:101CF0000888FF1F385A01000855010024540100CC
:101D0000145501002DE9F04742F2A02284B00023CF
:101D10000127835082468DF804308DF8053000F19C
:101D2000B4088DF806704FEA47095FFA89F400217C
:101D30004046FFF7BDFB20468DF804400BF09AF9B2
:101D400002210DF105000BF09FF98DF8044001F020
:101D50004BF930B3092149480CF0EEF90023102269
:101D6000214647480CF008FD012146480CF0E4F9F3
:101D7000002310229DF8051041480CF0FDFC0121C4
:101D800040480CF0D9F9002310229DF806103C4879
:101D90000CF0F2FC01213B480CF0CEF938480CF075
:101DA000DBFC14208DF8044009F0B6FF01F01CF9AB
:101DB00000285DD102AE00240BF09AF940B3082C44
:101DC00019D101E00BF0A4F90BF092F90028F9D138
:101DD00001F00AF9002846D19DF808304B4522D081
:101DE0000137052009F098FF3F2F08F18C089AD1A0
:101DF00004B0BDE8F0870BF08BF9054606F8010B3F
:101E000001F0F2F820BB01340BF072F90028D6D1B2
:101E1000082CD9D001F0E8F830BB042CE0DD9DF8A7
:101E200008304B45DCD19DF80930002BD8D19DF806
:101E30000A100129D4D19DF80C30002BD0D0404697
:101E4000FFF736FB0AF50A531A6A01321A62C7E72E
:101E5000E9B2002310220A480CF08EFC0121094847
:101E60000CF06AF9CFE7082405480CF075FCD4E7BC
:101E7000072105480CF060F99CE700BF18540100E9
:101E80000888FF1F385A0100245401002DE9F0474B
:101E900000F50A56354684B080461C36203500F1E0
:101EA000B4040027204600218C34FFF701FBB44224
:101EB0002F60F7D102270DF106064FF07F093C2273
:101EC000A5237E217F208DF805208DF806308DF822
:101ED000041001AD0BF0CEF80DF1050002210BF05E
:101EE000D3F88DF804902B467F2200205040082420
:101EF00010F0800F4FEA400018BF80F00700013C4F
:101F0000C0B2F5D1B34202D013F8012FEEE70BF0C7
:101F1000B1F801F069F800285AD17E2364208DF8C9
:101F2000043009F0F9FE01F05FF8002840F09080DD
:101F30000DF1080A00240BF0DBF820B3082C15D1B2
:101F400001E00BF0E5F80BF0D3F80028F9D101F02F
:101F50004BF8F0B99DF808307F2B21D0013FAED16E
:101F60004046FFF739FD04B0BDE8F0870BF0D0F82C
:101F700005460AF8010B01F037F8F0B901340BF00F
:101F8000B7F80028DAD1082CDDD001F02DF80028B0
:101F9000E0D032480CF0E0FB9DF808307F2BDDD11B
:101FA0009DF809303C2BD9D19DF80A30A52BD5D10D
:101FB0009DF80B30572BD1D1D2E7E9B20023102284
:101FC00026480CF0D9FB012125480CF0B5F8D5E7DF
:101FD000092124480CF0B0F8234610227F211F4825
:101FE0000CF0CAFB01211E480CF0A6F82346102273
:101FF0009DF8051019480CF0BFFB012118480CF0A2
:102000009BF8102223469DF8061014480CF0B4FBF0
:10201000012113480CF090F821460DF1070215F844
:10202000014B6140C9B2082311F0800F4FEA410112
:1020300018BF81F00701013BC9B2F5D1AA42EED128
:10204000102206480CF098FB04480CF085FB64E76E
:10205000072105480CF070F86AE700BF0888FF1FE9
:10206000385A010018540100245401002DE9F043AE
:1020700085B04FF07F082022FF2381468DF8048031
:102080008DF805208DF8063003260DF1060548F081
:10209000010738460AF0EEFF0DF1050002210AF0B3
:1020A000F3FF8DF804703A4601AB0020504008243D
:1020B00010F0800F4FEA400018BF80F00700013C8D
:1020C000C0B2F5D1AB4202D013F8012FEEE70AF00F
:1020D000D1FF00F089FF002840F0768202208DF8C1
:1020E000048009F019FE00F07FFF002840F0B28262
:1020F0000DF1080800240AF0FBFF002843D0042C4F
:1021000034D101E00BF004F80AF0F2FF0028F9D115
:1021100000F06AFF10B1C1480CF01EFB4FF07F08C1
:1021200000238DF804808DF80630032648F001075F
:1021300038460AF09FFF0DF1050002210AF0A4FFC6
:102140008DF804703A4601AB00205040082410F08E
:10215000800F4FEA400018BF80F00700013CC0B27A
:10216000F5D1AB4228D013F8012FEEE70AF0D0FFEB
:1021700008F8010B074600F037FF70B901340AF088
:10218000B7FF0028BBD1042CBED000F02DFF78B9DA
:10219000013EC3D09DF8048079E7F9B200231022F4
:1021A0009E480CF0E9FA01219D480BF0C5FFE5E7D8
:1021B0009A480CF0D1FAEBE70AF05CFF00F014FF4C
:1021C000002840F0C08102208DF8048009F0A4FDB1
:1021D00000F00AFF002840F038820DF108080024C2
:1021E0000AF086FF002846D0042C37D101E00AF01F
:1021F0008FFF0AF07DFF0028F9D100F0F5FE10B145
:1022000086480CF0A9FA4FF07F082122FF238DF8B1
:1022100004808DF805208DF80630032648F001076C
:1022200038460AF027FF0DF1050002210AF02CFFC5
:102230008DF804703A4601AB00205040082410F09D
:10224000800F4FEA400018BF80F00700013CC0B289
:10225000F5D19D4228D013F8012FEEE70AF058FF80
:1022600008F8010B074600F0BFFE70B901340AF010
:102270003FFF0028B8D1042CBBD000F0B5FE78B9E0
:10228000013EC0D09DF8048050E7F9B2002310222F
:1022900062480CF071FA012161480BF04DFFE5E74F
:1022A0005E480CF059FAEBE70AF0E4FE00F09CFE01
:1022B000002840F0078102208DF8048009F02CFDF1
:1022C00000F092FE002840F0CF810DF108080024B4
:1022D0000AF00EFF002843D0042C34D101E00AF0AC
:1022E00017FF0AF005FF0028F9D100F07DFE10B1BC
:1022F0004A480CF031FA4FF07F0800238DF8048033
:102300008DF80630032648F0010738460AF0B2FE81
:102310000DF1050002210AF0B7FE8DF804703A466F
:1023200001AB00205040082410F0800F4FEA40001D
:1023300018BF80F00700013CC0B2F5D19D4228D003
:1023400013F8012FEEE70AF0E3FE08F8010B074649
:1023500000F04AFE70B901340AF0CAFE0028BBD171
:10236000042CBED000F040FE78B9013EC3D09DF8E9
:10237000048053E7F9B20023102228480CF0FCF93E
:10238000012127480BF0D8FEE5E724480CF0E4F9DA
:10239000EBE70AF06FFE00F027FE002851D1022083
:1023A0008DF8048009F0B8FC00F01EFE002840F013
:1023B00056810DF1080800240AF09AFE18B3042C87
:1023C00014D101E00AF0A4FE0AF092FE0028F9D12F
:1023D00000F00AFE10B111480CF0BEF942F2A4233D
:1023E000002209F8032005B0BDE8F0830AF090FE52
:1023F00008F8010B074600F0F7FD98B901340AF020
:1024000077FE0028DBD1042CDED000F0EDFDA0B972
:10241000013EE3D09DF8048075E700BF0888FF1FE8
:10242000385A0100F9B20023102292480CF0A4F9A6
:10243000012191480BF080FEE0E78E480CF08CF90A
:10244000E6E709218D480BF077FE23461022394636
:1024500088480CF091F9012187480BF06DFE234666
:1024600010229DF8051083480CF086F9012182485E
:102470000BF062FE102223469DF806107D480CF0FA
:102480007BF901217C480BF057FE21460DF1070036
:1024900001AA12F8014B6140C9B2082311F0800F64
:1024A0004FEA410118BF81F00701013BC9B2F5D1E4
:1024B0009042EED110226F480CF05EF96D480CF09E
:1024C0004BF96CE709216D480BF036FE23461022CC
:1024D000394668480CF050F9012167480BF02CFE92
:1024E000234610229DF8051062480CF045F90121A1
:1024F00061480BF021FE102223469DF806105D482E
:102500000CF03AF901215C480BF016FE21460DF162
:10251000070001AA12F8014B6140C9B2082311F06B
:10252000800F4FEA410118BF81F00701013BC9B29A
:10253000F5D19042EED110224E480CF01DF94D48D5
:102540000CF00AF9B7E609214C480BF0F5FD2346DB
:102550001022394647480CF00FF9012146480BF08C
:10256000EBFD234610229DF8051042480CF004F9BB
:10257000012141480BF0E0FD102223469DF8061092
:102580003C480CF0F9F801213B480BF0D5FD214601
:102590000DF1070001AA12F8014B6140C9B20823EE
:1025A00011F0800F4FEA410118BF81F00701013B94
:1025B000C9B2F5D19042EED110222E480CF0DCF8D1
:1025C0002C480CF0C9F8FEE509212C480BF0B4FDAD
:1025D00023461022394627480CF0CEF80121264820
:1025E0000BF0AAFD234610229DF8051021480CF09F
:1025F000C3F8012120480BF09FFD102223469DF8CF
:1026000006101C480CF0B8F801211B480BF094FD93
:1026100021460DF1070001AA12F8014B6140C9B231
:10262000082311F0800F4FEA410118BF81F0070124
:10263000013BC9B2F5D19042EED110220D480CF009
:102640009BF80C480CF088F848E507210C480BF083
:1026500073FDC2E507210A480BF06EFD48E507212E
:1026600007480BF069FDA4E6072105480BF064FD5F
:102670002BE600BF0888FF1F385A010018540100DC
:102680002454010038B500F50A551C3500F1B40496
:1026900002E08C34AC420AD02046FEF701FF00284D
:1026A000F7D020468C34FEF7F5F8AC42F4D138BDB3
:1026B0002DE9F04F00218C4A8C4B016000F1B405EC
:1026C00000F50A5783B08246426203622C461C37EB
:1026D00002E08C34BC420AD02046FEF7E1FE00281E
:1026E000F7D020468C34FEF7D5F8BC42F4D1C82090
:1026F00009F012FB2C46012604E001363F2E04F1BE
:102700008C046ED02046FEF7CBFE0028F5D078482A
:1027100000F070FD3146774800F06CFD2046FEF772
:102720008DF92046FEF7ACFE0DF0C6FE02460B46C4
:10273000714800F05FFD2046FEF704FE804620460B
:10274000FEF71CFE834640460DF0B6FE8046584616
:1027500089460DF0B1FE42464B46CDE9000167487F
:1027600000F048FD00212046FEF78CFE0121804646
:102770002046FEF787FE834640460DF09DFE8046CC
:10278000584689460DF098FE42464B46CDE9000179
:102790005B4800F02FFD2046FEF772FE0146DAF896
:1027A00000000EF02BFACAF800002046FEF72AFEC1
:1027B000DAF818100EF0C8FC00287BD12046FEF78E
:1027C00037FEDAF81C100EF0DDFC002895D020460C
:1027D000FEF72EFE01363F2ECAF81C0004F18C04D1
:1027E00090D1DAF804000EF0BDFA0146DAF80000E4
:1027F0000EF0C0FBDAF81410CAF8000004460EF020
:10280000C1FC08B1CAF81440DAF8101020460EF0E6
:102810009BFC08B1CAF810400B2009F047FA42F2BD
:10282000A4231AF8033000284AD1002B58D042F2D2
:10283000A42301220AF803200023CAF80C302C46F6
:1028400002E08C34BC4215D02046FEF729FE002859
:10285000F7D02046FEF792FDDAF80C100EF092FC4D
:102860000028EED02046FEF789FD8C34BC42CAF821
:102870000C00E9D1234BCAF8083002E08C35BD4288
:1028800015D02846FEF70CFE0028F7D02846FEF7A4
:1028900059FDDAF808100EF057FC0028EED0284653
:1028A000FEF750FD8C35BD42CAF80800E9D103B0EF
:1028B000BDE8F08F2046FEF7A5FDCAF818007DE7B9
:1028C0002BB942F2A42300220AF80320B4E70E48F1
:1028D00000F0A8FC42F2A42300220AF80320ABE790
:1028E0000A4800F0B5FCA2E700C0794400C079C4F2
:1028F000685C01002855010064550100785501000D
:10290000A45501000000A040F8550100C055010089
:1029100042F2AC23C058704780687047C068704767
:102920000068704741607047F8B500F50A550F46DA
:1029300016461C3500F1B40402E08C34AC420FD0D2
:102940002046FEF7ADFD0028F7D020463946FEF7B9
:10295000ABFD204631468C34FEF7AEFDAC42EFD1E4
:10296000F8BD00BF2DE9F041274A284B426200F52F
:102970000A5507464FF0000803621C3500F1B40405
:10298000002602E08C34A54210D02046FEF788FDD8
:102990000028F7D02046FEF761FD1D490EF0F2FB3E
:1029A00080B98C34A54206F10106EED142F2A02393
:1029B000F858801B0EF0D6F9014640460EF0DAFAC0
:1029C000BDE8F0812046FEF749FD014640460EF085
:1029D00015F980462046FEF741FD396A0EF0D2FB1C
:1029E00060B92046FEF73AFD796A0EF0ADFB00288B
:1029F000C8D02046FEF732FD7862C3E72046FEF7D6
:102A00002DFD3862EDE700BF00C0794400C079C4F5
:102A100000008CC2006A7047406A7047F8B500F544
:102A20000A55074600261C3500F1B40402E08C3438
:102A3000AC420FD02046FEF733FD0028F7D02046E9
:102A4000FEF7AEFC014630460EF0D8F88C34AC42AE
:102A50000646EFD142F2A023F8580EF083F9014662
:102A600030460EF087FAF8BD2DE9F04F91B00446DC
:102A7000B8480F9100F066FBB64800F063FB42F2E5
:102A8000A026B44800F05EFB2046A559FEF75EFD87
:102A900081462068D4F804B00DF00EFDCDE90C019C
:102AA0002046FFF7BBFF82462046A768D4F80C807B
:102AB000FFF758FF0DF000FDCDE90A013946404609
:102AC0000EF09AF8A4490EF0A1F90DF0F5FCCDE94D
:102AD000080140460DF0F0FCCDE9060138460DF046
:102AE000EBFCCDE9040150460DF0E6FCDDE90C23DA
:102AF000CDE90201CDE9002329465B464A469748C5
:102B000000F020FB934800F01DFB0921944809F0D8
:102B1000EBFBA15993480BF06FFE0A21924809F094
:102B2000E3FB2046FEF712FD01468E480BF064FEE3
:102B30008C480BF011FE20680DF0BEFC0326024607
:102B40000B46009687480BF05FFE0121874809F08D
:102B5000CBFB84480BF000FE2046FFF75FFF0DF033
:102B6000ABFC009602460B467E480BF04DFE04215E
:102B70007F4809F0B9FBA0680DF09EFC0096024664
:102B80000B4678480BF040FE04217A4809F0ACFB74
:102B9000E0680DF091FC009602460B4671480BF080
:102BA00033FE0421724809F09FFBA168E0680EF033
:102BB00023F869490EF02AF90DF07EFC0027024641
:102BC0000B46009767480BF01FFE02216A4809F088
:102BD0008BFB64480BF0C0FD0A21684809F084FBB8
:102BE0002046FFF7BFFE0DF067FC009602460B463D
:102BF0005C480BF009FE0121614809F075FB59485A
:102C00000BF0AAFDBA46B4344FF00108DDF83CB031
:102C100007E008F10108B8F13F0F04F18C0400F05F
:102C200091802046FEF73CFC0028F2D02046FDF7BC
:102C300021FE2046FDF722FE2046FDF723FE20461A
:102C4000FDF724FE08214F480BF076FA41464E4826
:102C50000BF0D2FDB8F1090F77DD02214B480BF0E4
:102C60006BFA2046FEF70CFC0DF026FC5FFA8BF9A0
:102C700002460B46CDF8009043480BF0C5FD0121FC
:102C80003A480BF059FA5646002520E00621404804
:102C90000BF052FA31463C480BF0AEFD02213D48A4
:102CA0000BF04AFA29462046FEF746FB0DF004FCDD
:102CB000CDF8009002460B4633480BF0A5FD0135D8
:102CC00001212A480BF038FA062D09D03E46092E7C
:102CD00006F10107DADC01212F480BF02DFAD5E7C8
:102CE00011212E480BF028FA00212046FEF7CAFBDE
:102CF0000DF0E2FB022502460B46009522480BF040
:102D000083FD122126480BF017FA01212046FEF719
:102D1000B9FB0DF0D1FB009502460B461A480BF0AB
:102D200073FD012116480BF007FA08F10108164857
:102D30000BF012FDB8F13F0F0AF1060A04F18C0402
:102D40007FF46FAF11B0BDE8F08F012112480BF096
:102D5000F3F982E7685C010000007A44A0580100A2
:102D600040590100C887FF1F4C5901005859010004
:102D70005C590100645901006C590100705901004F
:102D80007C590100805901000888FF1FB8680100C4
:102D90008C590100285A0100385A01009459010049
:102DA000A85901002DE9F04F85B000F1B4058A461D
:102DB00003929B462E464FF0010806E008F10108F9
:102DC000B8F13F0F06F18C067BD03046FEF768FB6A
:102DD0000028F3D000230A2251467D480BF0CCFC9A
:102DE00001217C480BF0A8F903980DF065FB002346
:102DF0000246009376480B460BF006FD012175480C
:102E00000BF09AF9594672480BF0F6FC0121714813
:102E10000BF092F941466E480BF0EEFC01216D4833
:102E20000BF08AF900244FF0020921463046FEF7E4
:102E300083FA0DF041FBCDF8009002460B46644842
:102E40000BF0E2FC0134012162480BF075F9082C0B
:102E50004FF00207E9D100213046FEF713FB0DF0D9
:102E60002BFB009702460B4659480BF0CDFC012185
:102E700058480BF061F901213046FEF703FB0DF0D5
:102E80001BFB009702460B4651480BF0BDFC01218D
:102E900050480BF051F939463046FEF7F3FA0DF081
:102EA0000BFB009702460B4649480BF0ADFC08F1BE
:102EB000010847480BF050FCB8F13F0F06F18C06B3
:102EC00083D101274FF0000904E001373F2F05F1BE
:102ED0008C0579D02846FEF7E3FA0028F5D00023C8
:102EE0000A2251463C480BF047FC0121394809F0C1
:102EF000A7FD03980DF0E0FACDF8009002460B46CE
:102F000035480BF081FC0121324809F099FD594602
:102F100031480BF071FC01212E4809F091FD394632
:102F20002D480BF069FC01212A4809F089FD002495
:102F30004FF0020821462846FEF7FEF90DF0BCFAD4
:102F4000CDF8008002460B4623480BF05DFC0134AF
:102F50000121204809F074FD082C4FF00206E9D148
:102F600000212846FEF78EFA0DF0A6FA00960246DA
:102F70000B4619480BF048FC0121164809F060FD8A
:102F800001212846FEF77EFA0DF096FA00960246D9
:102F90000B4611480BF038FC01210E4809F050FD9A
:102FA00031462846FEF76EFA0DF086FA0096024684
:102FB0000B4609480BF028FC013707480BF0CCFB07
:102FC0003F2F05F18C0585D105B0BDE8F08F00BF1E
:102FD0000888FF1FBC590100DC87FF1F014B1870D8
:102FE000704700BF2087FF1F024B1878B0FA80F0AF
:102FF000400970472087FF1F0278002A00F0908068
:1030000070B5034682B00D46252A2AD158785C1C3B
:1030100008B325282FD0732831D0642824D06928FC
:1030200022D066284FD07A2859D0782835D0582811
:103030002FD062283ED0422838D06C2814D0632884
:1030400012D0742857D054285FD00BF0F9F862786A
:10305000631C002AD8D1344802B0BDE870400BF0A0
:103060007BBB18781C46F0E72B1D29682E481D46AF
:103070000BF0C2FBEBE710460BF0E2F8E7E72E6837
:1030800030460EF0DDFE0146304604350BF054F8B4
:10309000DDE7022125480BF04FF82E1D2968224854
:1030A0000023102235460BF067FBD0E702212048B1
:1030B0000BF042F82E1D29681B48002302223546DA
:1030C0000BF05AFBC3E7073525F007050321D5E9C7
:1030D00000231548009108350BF096FBB7E707353C
:1030E00025F007050021D5E900230F480091083598
:1030F0000BF08AFBABE7296801290EBF0D480E488B
:10310000012104350BF018F8A1E72B68012B07BF4C
:1031100004210A480A48052104350BF00DF896E70A
:1031200001480BF019BB00BF0888FF1FC059010000
:10313000C4590100C8590100CC590100D0590100FF
:10314000D85901000FB400B583B004A951F8040B9D
:103150000191FFF751FF03B05DF804EB04B0704735
:1031600070B51B4B1B4C1B6882B00D460193019B35
:103170002360194604460023164617480A220BF01E
:10318000FBFA032115480AF0D7FF032C07D8DFE824
:1031900004F01A151002052111480AF0CDFF022192
:1031A00010480AF0C9FF31462846FFF725FF02B054
:1031B00070BD07210C480AF0BFFFF0E704210B485F
:1031C0000AF0BAFFEBE7052109480AF0B5FFE6E788
:1031D00018BAFF1F8492FF1F0888FF1FFC540100CC
:1031E000F8590100285A0100F0590100E85901007E
:1031F000E05901000FB400B5094B187883B020B135
:1032000003B05DF804EB04B0704705AB1A460499AF
:103210000193FFF7A5FF03B05DF804EB04B070471E
:103220002087FF1F0FB4094B00B51B78012B83B01B
:1032300004D903B05DF804EB04B0704705AB1A463F
:10324000049901930120FFF78BFFF2E72087FF1F0E
:103250000FB40B4B00B51B78032B83B004D903B01C
:103260005DF804EB04B0704705AB1A46049901936E
:103270000320FFF775FF03B05DF804EB04B070475F
:103280002087FF1F30B4074D074C084900232B70DF
:10329000236003654365836580F85C300B6030BC58
:1032A000704700BF9092FF1F8C92FF1F8892FF1FF4
:1032B0000A4A0B49D06D936D03FB00F34FF47A700B
:1032C00000FB03F0642310B50B600DF04BFD0549C6
:1032D000054C0DF04FFE206010BD00BFA093FF1FF6
:1032E0004087FF1FE4388E3E6093FF1F10B5074CE8
:1032F00020460BF031FA064B204619680BF07CFA99
:1033000003210448BDE810400AF016BF0888FF1FDB
:103310001495FF1F005A010038B5044608460D46B3
:103320000EF08EFD2368024629465B6820469847CA
:10333000054620460BF010FA284438BD2DE9F84325
:103340004C484D4C4D4E4E4F4E4DFFF7FBFE4E4BF5
:103350004E4A5A6014224E494E481A70DC604E4A5A
:103360001E6100244D4E9F61DD624D4F4D4D9962AF
:10337000D8614FF07C514C481A635C630C224B4C73
:103380009E63DF634A4E1D6596274A4D9964D86453
:10339000022101205A655C6200223224C3F8C46015
:1033A000A3F8627064264FF496771D625D611D6418
:1033B0004FF41675597059721872986583F8442045
:1033C000C3F8A440A3F86440DE65A3F86670A3F8D0
:1033D0006070A3F8CC50D967C3F8B8104FF47A7175
:1033E00040F61C49A3F8D0504FF00A089A67C3F87A
:1033F0008000C3F88420C3F88C40C3F8AC4041F28D
:10340000040CC3F8A820C3F8B4004FF05A0EC3F858
:10341000BC60294F83F8C92083F8CA20274EC3F81F
:10342000901041F2883240F2D66144F62065FF24C4
:103430000520C3F86890C3F86C80C3F870C0C3F867
:1034400074E0C3F89470C3F89860C3F89C50C3F854
:10345000B040A3F8C200A3F8CE20A3F8D220C3F84E
:103460008820A3F8C020A3F8A010A3F8A210BDE8FC
:10347000F88300BF045A01006666864000004040A1
:103480003333834000008242A093FF1F20A1070036
:10349000CDCCCC3DCDCC4C40000020C10000204222
:1034A0000000A0400AD7233D9A99794033337340F6
:1034B0009A99993ECDCC4C3E0000114400F0C8458D
:1034C00070B5464C464D4748E66800232B70FFF721
:1034D00025FA014630460DF037FE08B104232B7063
:1034E0004048FFF719FA21690DF02EFE18B12B782C
:1034F00043F010032B703B48FFF78CFAE16A0DF0A4
:1035000041FE18B12B7843F040032B70002335485F
:103510006B70FFF781FA216B314E0DF015FE08B18B
:103520000123737000232F48EB70FFF7F7F905466E
:103530002C482B4EFFF7F0F9014628460DF05CFBB6
:10354000216C0DF01FFE08B10123F370264D2548B4
:1035500000232B70FFF7E2F9A16A0646E0680DF040
:103560004BFB014630460DF00DFE08B104232B70D5
:103570001C48FFF7D1F9A16A064620690DF03EFB11
:10358000014630460DF0E0FD18B12B7843F01003F2
:103590002B701448FFF73EFAE16B0646E06A0DF027
:1035A0002BFB014630460DF0EDFD18B12B7843F0B2
:1035B00040032B7000230B486B70FFF72DFAE16B73
:1035C0000546206B084C0DF019FB014628460DF00E
:1035D000BBFD08B10123637070BD00BFA093FF1F46
:1035E0009C93FF1FC095FF1F1095FF1F2DE9F0430F
:1035F000A14C2368012B83B02FD0022B5ED0032B6C
:103600007ED03BBB9D4B9E4AD3F8AC10D3F8B03074
:1036100012685B1A632B0EDD9A4803FB02F380FBF2
:103620000302DB17C3EB62131944062003B0BDE8A5
:10363000F04308F0B5B9944803FB022380FB030272
:10364000DB17C3EB22121144062003B0BDE8F043A0
:1036500008F0A6B903B0BDE8F0838C4E33680A3396
:10366000B3F57A7F6EDC184633600DF07BFB88493A
:103670000DF0CCFB8046814DD5F8AC000DF072FB0F
:103680000746D5F8B0000DF06DFB39460DF0B4FAE1
:1036900041460DF0BBFB7F490DF06CFC39460DF047
:1036A000ADFA0DF08FFD0146062008F079F97A4B4E
:1036B0001B68002B4BD12368022BA0D1734B6F4E9C
:1036C00000221A60D6F8AC000DF04CFB0546D6F887
:1036D000B0000DF047FB29460DF08EFA00210DF0E9
:1036E00095FB6C490DF046FC29460DF087FA0DF06C
:1036F00069FD0146062008F053F92368032B80D1A9
:10370000624B5E4E4FF47A721A60D6F8AC000DF040
:1037100029FB0546D6F8B0000DF024FB29460DF034
:103720006BFA5C490DF072FB5A490DF023FC2946F7
:103730000DF064FA0DF046FD0146062008F030F960
:1037400023685EE700234FF00008336093E702210F
:1037500052480AF0F1FC52480AF0FEFF0621514897
:103760000AF0EAFC30680DF0FDFA49490DF04EFB15
:103770000CF0A2FE022702460B46009748480BF0C9
:1037800043F80D2148480AF0D7FCD5F8AC000DF0FD
:10379000E9FA804630680DF0E5FA3D490DF036FB58
:1037A0008146D5F8B0000DF0DDFA41460DF024FA5F
:1037B000014648460DF02AFB36490DF0DBFB414639
:1037C0000DF01CFA0CF078FE009702460B463448C8
:1037D0000BF01AF8394631480AF0AEFC30480AF0CE
:1037E000BBFF39462D4808F07FFD30480AF0B4FF92
:1037F00006212C4808F078FD30680DF0B3FA244912
:103800000DF004FB0CF058FE009702460B462748CB
:103810000AF0FAFF0D21244808F066FDD5F8AC0047
:103820000DF0A0FA804630680DF09CFA18490DF0B2
:10383000EDFA0646D5F8B0000DF094FA41460DF0C9
:10384000DBF9014630460DF0E1FA12490DF092FB2A
:1038500041460DF0D3F90CF02FFE009702460B46BF
:1038600012480AF0D1FF39460C4808F03DFD0F48D8
:103870000AF072FF1FE700BFF894FF1FA093FF1F1D
:103880004087FF1F1F85EB51CBF08D28AC92FF1FA7
:10389000CDCCCC3D0000C8424887FF1FB86801006E
:1038A0000888FF1F245A01002C5A0100C887FF1FF7
:1038B00030B51C481C4C83B00AF04EFF19480AF082
:1038C0004BFF18480AF048FF0D2118480AF034FC55
:1038D00017480AF041FF16480AF03EFF14480AF064
:1038E0003BFF0D21114808F0FFFCD4F8A830012B54
:1038F00022D0104D0B48297800230A220AF03CFF01
:10390000002329780A480A220AF036FF2B78052B73
:1039100000F29080DFE813F0390242024B025402B9
:103920005D0266020888FF1FA093FF1F3C5A01003A
:10393000C887FF1F0C95FF1F0921C7480AF0FCFB31
:103940000921C54808F0D0FCC448FEF7E5FF21690D
:103950000DF0FAFB38B10F21C1480AF0EDFB0F2141
:10396000BF4808F0C1FCBD48FEF7D8FFE1680DF084
:1039700009FC38B10E21BB480AF0DEFB0E21B94824
:1039800008F0B2FCB548FEF7C9FF0546B348FEF79C
:10399000C3FF014628460DF02FF9216C0DF0F2FB14
:1039A00038B11121B0480AF0C7FB1121AE4808F028
:1039B0009BFCAA48FEF7D6FFE16A0DF0E3FB38B1A5
:1039C0000C21AA480AF0B8FB0C21A84808F08CFC8E
:1039D000A248FEF7C7FF216B0DF0B6FB38B10D21F1
:1039E000A3480AF0A9FB0D21A14808F07DFCA14BDA
:1039F0009A481B68012B00F02982FEF78DFF216990
:103A00009D4D0DF0BFFB002800F0BD819348FEF7EF
:103A100085FFE968994D0DF097FB58B12B78052B80
:103A200000F02E82082196480AF086FB082194486F
:103A300008F05AFC022193480AF07EFB02219148CB
:103A400008F052FC122008F031F9012800F0DA8168
:103A5000112008F02BF9012800F0E2818A4B1B6845
:103A6000012B00F0EA8102218648884C0AF064FBB1
:103A7000874B884819680AF0BFFE86480AF06CFE3A
:103A8000042185480AF058FB0B2008F00FF90023A9
:103A900001460A227F480AF06FFE0C2008F006F962
:103AA000002301460A227B480AF066FE142008F033
:103AB000FDF8002301460A2276480AF05DFE152033
:103AC00008F0F4F800230A22014672480AF054FE76
:103AD000062172480AF030FB71480AF03DFE0421CD
:103AE0006D4808F001FC0B2008F0E0F800230146C7
:103AF0000A226B480AF040FE0C2008F0D7F8002399
:103B000001460A2266480AF037FE142008F0CEF873
:103B1000002301460A2262480AF02EFE152008F012
:103B2000C5F8002301460A225D480AF025FE062159
:103B30005A4808F0D9FB2368DB074FF0010140F138
:103B4000E18058480AF0F8FA0121564808F0CCFB09
:103B5000236898074FF0010140F1E18051480AF0D5
:103B6000EBFA01214F4808F0BFFB23685A074FF0DA
:103B7000010140F1E1804B480AF0DEFA0121494899
:103B800008F0B2FB23681B074FF0010140F1E18010
:103B900044480AF0D1FA0121424808F0A5FB04216B
:103BA00041480AF0C9FA112008F080F800230146C4
:103BB0000A2238480AF0E0FD102008F077F80023C8
:103BC00001460A2233480AF0D7FD122008F06EF8A9
:103BD000002301460A222F480AF0CEFD132008F0E8
:103BE00065F800230A2201462A480AF0C5FD04218F
:103BF0002D4808F079FB112008F058F80023014601
:103C00000A2227480AF0B8FD102008F04FF80023D8
:103C100001460A2222480AF0AFFD122008F046F8B9
:103C2000002301460A221E480AF0A6FD132008F0D0
:103C30003DF80A220023014619480AF09DFD184864
:103C40000AF08AFD182119480AF076FA184B1888EC
:103C50000DF088F82EE000BF4C5A0100C095FF1F00
:103C6000585A0100685A0100785A01008C5A010024
:103C70009C5A01004093FF1FA093FF1F0C95FF1F4C
:103C8000D05A0100B86801002895FF1F7494FF1FE7
:103C9000FC94FF1F0888FF1F445B01004C5B010080
:103CA000C887FF1F545B01005C5B0100645B01007F
:103CB0009C92FF1F77490DF0A9F80CF0FDFB002442
:103CC00002460B46009474480AF09EFD1F2173487B
:103CD0000AF032FA724B18880DF044F86D490DF075
:103CE00095F80CF0E9FB00940B4602466A480AF08E
:103CF0008BFD02216B480AF01FFA2B78032B30D082
:103D000003B030BD68480AF017FA0121664808F090
:103D1000EBFA236898074FF001013FF51FAF6248A7
:103D20000AF00AFA0121604808F0DEFA23685A070F
:103D30004FF001013FF51FAF5B480AF0FDF901218B
:103D4000594808F0D1FA23681B074FF001013FF5ED
:103D50001FAF55480AF0F0F90121534808F0C4FAA2
:103D60001DE7524B1B78002B45D01E2150480AF00E
:103D7000E3F950481B2108F0B7FA4F4803B0BDE8FB
:103D800030400AF0E9BC4D4D54E606214C480AF09B
:103D9000D3F906214A4808F0A7FA4BE6072149481B
:103DA0000AF0CAF90721474808F09EFA42E60721BF
:103DB00045480AF0C1F90721434808F095FA39E669
:103DC000082142480AF0B8F90821404808F08CFA66
:103DD00030E60B213E480AF0AFF90B213C4808F0D1
:103DE00083FA27E607213B480AF0A6F9072139485C
:103DF00008F07AFA1EE6202137480AF09DF91D21C5
:103E00003648B8E70E2136480AF096F90E213448B4
:103E100008F06AFA112007F049FF01287FF41EAE6E
:103E20000A2130480AF088F90A212E4808F05CFA85
:103E30002D4B1B68012B7FF416AE12212B480AF084
:103E40007BF91221294808F04FFA0CE6FEF764FDD1
:103E5000616A0DF097F988B116212548174D0AF0CF
:103E60006BF90A2123480AF067F91621204808F067
:103E70003BFA0A211F4808F037FADBE50F4DD1E580
:103E80000A211C480AF058F90A211A4808F02CFAAD
:103E9000D0E500BFCDCCCC3D0888FF1F805B010082
:103EA0001895FF1FA05B0100585B0100A892FF1F3F
:103EB000E85B0100085C0100C887FF1F0C95FF1F2D
:103EC000DC5A0100E45A0100F85A0100005B0100CD
:103ED000EC5A01000C5B0100A45B0100C85B01000F
:103EE000145B0100245B01002895FF1F305B01007B
:103EF000AC5A0100C45A01002DE9F04F7C4CE56F2B
:103F0000012D8DB000F0D181032D00F01181DFF87B
:103F10001882784F784EA36F7848012B09BF31681B
:103F2000316801F10041316007F086FA3B68002BEF
:103F300040F0AB807148DFF8F09107F053FA3B682E
:103F4000C8F800000546002B43D1E36F684A012BF7
:103F500060D06B4928460DF015F9C0B9694928466B
:103F60000DF0F2F898B9684A684B12680B920B9AF8
:103F70001A60D4F8B4000CF0F5FE29460CF046FFA8
:103F80000023C8F8000033600DB0BDE8F08FDFF803
:103F900078A15E4FDAF800300A930A983B68DFF8A0
:103FA0008C91C01A0CF0DAFE29460CF02FFF58490C
:103FB0000CF0E0FF56490CF0DDFFD9F800100CF0D2
:103FC0001DFEDAF800300993099BC9F800003B6038
:103FD000CFE70CF071FA022502460B4600954D48DA
:103FE0000AF012FC04214C480AF0A6F8D9F80000A7
:103FF0000CF062FA009502460B4648480AF004FCB1
:104000000421454808F070F9E36FD9F80050384AA8
:10401000012B9ED1424B1B68012B00F09382022B97
:10402000A7D1D2F89C7038460CF09CFE29460DF0C2
:104030008BF840B978420CF095FE29460DF0A2F8B5
:10404000002800F0B282DFF8C0A0304FDAF800306C
:10405000079307983B68DFF8D490C01A0CF07EFEF7
:1040600029460CF0D3FE2A490CF084FF28490CF0B5
:1040700081FFD9F800100CF0C1FDDAF8003006938A
:10408000069BC9F800003B6073E71C4807F0AAF9DB
:104090000CF012FA022502460B4600951D480AF064
:1040A000B3FB03211F480AF047F8D4F89C101948C5
:1040B0000AF0A2FB03211B480AF03EF80F4807F064
:1040C00091F90CF0F9F9009502460B4613480AF0F5
:1040D0009BFB0321134808F007F9D4F89C100F4804
:1040E0000AF08AFB03210F4808F0FEF822E700BF20
:1040F000A093FF1F4C95FF1F7493FF1F7893FF1F22
:104100000000FA430000FAC318BAFF1F1C95FF1FF6
:1041100000007A440888FF1F645C0100C887FF1F05
:104120005C87FF1F005501005493FF1F6093FF1F22
:10413000DFF85493CA4ED9F80030DFF85083D3F833
:1041400054010F210123336006F0DCFB3368C54FB7
:10415000012B3B6800F0D280002B40F09981D9F808
:104160000030C14DD3F85401036C19688EB22E6033
:1041700006F0E8F8B4F8A22040F6E44303FB06F1A9
:10418000B1FBF0F0801A00B20CF0ECFDB749B84E6C
:104190008246D4F894000CF039FE014650460CF0EB
:1041A000E9FE2B683060632BDFF8BCA200F34B8183
:1041B000002333603B68002B3FF4ADAE0221AD48D5
:1041C00009F0BAFFD9F800202B68D2F8540140F664
:1041D000E44B0BFB03FA06F0B5F8BAFBF0F00CF079
:1041E000BDFD8246B4F8A2000CF0BCFD014650466D
:1041F0000CF002FD0CF060F94FF0020A02460B468B
:10420000CDF800A09C480AF0FFFA5146994809F001
:1042100093FF30680CF050F9CDF800A002460B4631
:1042200095480AF0F1FA5146944809F085FF514645
:10423000904809F081FF51468E4808F055F8D9F8AA
:1042400000202B68D2F854010BFB03FB06F07AF830
:10425000BBFBF0F00CF082FD0546B4F8A2000CF0B8
:1042600081FD014628460CF0C7FC0CF025F9CDF87D
:1042700000A002460B4682480AF0C6FA51467D4825
:1042800008F032F830680CF017F9CDF800A00246BB
:104290000B467B480AF0B8FA5146784808F024F8F3
:1042A0005146744808F020F835E6DFF8E081D4F88C
:1042B0009C70D8F80060DFF8D09138460CF052FDC1
:1042C00031460CF05FFF48B178420CF04BFD0146DF
:1042D00030460CF057FF002840F06E81D9F80020DE
:1042E0005F4ED2F854015F4F02230E21336006F077
:1042F00009FB3368012B3B687FF42EAF002B40F0A5
:104300006581D9F80030584DD3F85401036C196811
:104310001FFA81FBC5F800B006F014F8B4F8A0301D
:10432000534E40F6E44A0AFB0BFBBBFBF0F0C01A0D
:1043300000B20CF017FD4D498346D4F898000CF0FC
:1043400065FD014658460CF015FED9F800202B6893
:104350003060D2F854010AFB03FA05F0F3FFB4F819
:10436000A030BAFBF0F00FFA80FAC3EB0A03002B7F
:10437000B4F8C220B8BF5B429342BCBF0023336095
:104380003B68002B3FF4C7AD02213A4809F0D4FE48
:10439000D9F800202B68D2F8540140F6E44A0AFB11
:1043A00003FB05F0CFFFB4F8A010BBFBF0F003B2A5
:1043B000591A31480AF020FA02212E4809F0BCFEB1
:1043C00030680CF079F84FF0020B02460B46CDF83E
:1043D00000B029480AF018FA03212A4809F0ACFE77
:1043E0005946244809F0A8FE5946224807F07CFFA8
:1043F000D9F800202B68D2F854010AFB03FA05F023
:10440000A1FFB4F8A010BAFBF0F00FFA80FAC1EBEC
:104410000A011B480AF0F0F95946164807F064FFF4
:1044200030680CF049F8CDF800B002460B4614484D
:104430000AF0EAF90321134807F056FF59460D48E0
:1044400007F052FF67E5D9F80030D3F8540105F0C2
:1044500079FFDAF8003064389842FFF4A9AEA9E693
:104460005C87FF1F4C95FF1F9893FF1FACC5273734
:104470007493FF1FB86801000888FF1F605C01008B
:10448000C887FF1F4C5C01002095FF1F5493FF1F3E
:104490008148824DDFF834A20AF05EF90C21804891
:1044A00009F04AFE0C217F4809F046FE7E480AF0DA
:1044B00053F90C217A4807F017FF0C21794807F0CF
:1044C00013FFD9F800203B68D2F85401026C116840
:1044D0008EB22E60002B3FF44BAE05F033FF40F65A
:1044E000E44B0A2200230BFB06F1B1FBF0F16A4812
:1044F0000AF042F902216D4809F01EFEB4F8A2103C
:1045000065480AF079F9DAF800302968D3F85401DF
:104510000BFB01FB05F016FF0023BBFBF0F10A22A9
:1045200061480AF029F90221604807F0DDFEB4F87D
:10453000A2105D480AF060F9DAF800302E68D3F86E
:10454000540115E65A4928460CF01CFE58B9594941
:1045500028460CF0F9FD30B9574A584B12680592BD
:10456000059A1A6005E5DFF850A1544FDAF80030DB
:10457000049304983B68DFF86091C01A0CF0EEFBDE
:1045800029460CF043FC4E490CF0F4FC4C490CF06D
:10459000F1FCD9F800100CF031FBDAF8003003938D
:1045A000039BC9F800003B60E3E4434A434B1268B5
:1045B0000892089A1A60DCE4D9F80030414ED3F82A
:1045C000540135600F2106F09DF9BFE532480AF02D
:1045D000C3F835480AF0C0F8E36F012B4FF00B0128
:1045E00052D0394809F0A8FD0B21374807F07CFE6E
:1045F0000C212C48294D354E09F09EFD0C212948EF
:1046000007F072FED9F800203B68D2F85401026C22
:1046100011681FFA81FBC5F800B0002B3FF47CAE97
:1046200005F090FE40F6E44A0A2200230AFB0BF153
:10463000B1FBF0F118480AF09FF80121244809F075
:104640007BFDB4F8A01014480AF0D6F83368296846
:10465000D3F854010AFB01FA05F074FE0023BAFBFB
:10466000F0F10A2210480AF087F80121184807F0F3
:104670003BFEB4F8A0100C480AF0BEF83368D5F839
:1046800000B0D3F8540147E6124809F055FD0B215C
:10469000104807F029FEABE70888FF1F9893FF1F1B
:1046A000505C01003C5C0100C887FF1FB868010036
:1046B0000000FA430000FAC318BAFF1F1C95FF1F41
:1046C00000007A445C87FF1F305C01002095FF1FCB
:1046D000385A0100245C01006093FF1F2DE9F04768
:1046E000B64D2B6882B0002B00F0B180B44CB54FB2
:1046F000D4F88430DFF81483B34EB14D012B00F0B1
:10470000E080D5F85CA0D6F80090AD6D05FB0AF509
:104710004FF47A7000FB05F00CF024FBAB49DFF896
:10472000A4A2054648460CF071FB29460CF022FC79
:10473000A7490CF06BFB0CF045FD632838607ADD6F
:104740002846A2490CF016FC6423CAF80030D8F8B9
:1047500000303060002B77D0E36F994D012B00F0D3
:10476000E080032B00F01681022B00F00A81994DA6
:104770009948022109F0E0FC28680BF09DFE022414
:1047800002460B46009495480AF03EF821469448AC
:1047900009F0D2FC2146904809F0CEFC39688F48D8
:1047A0000AF02AF806218F4809F0C6FC30688749CC
:1047B0000CF02CFB0BF080FE009402460B46874861
:1047C0000AF022F80321884809F0B6FC834809F072
:1047D000C3FF2146804807F087FD28680BF06CFE78
:1047E000009402460B4681480AF00EF821467C48A8
:1047F00007F07AFD7D4809F0AFFF39687B4809F082
:10480000FBFF0621774807F06FFD30686F490CF019
:10481000FDFA0BF051FE009402460B46734809F076
:10482000F3FF0321704807F05FFD704802B0BDE858
:10483000F04709F091BF0028BCBF0023CAF8003040
:10484000D8F80030002B87D102B0BDE8F087684867
:104850005B4CFEF7E3F86749A76EE66E0CF0D6FAFC
:104860000CF0D6FC226F636FD21B9B1B80B29A4266
:10487000A0EB070064DC03FB00F393FBF2F31E44A0
:10488000DFF888814F4FD8F800303E60002B5ED1B2
:104890003346E06DA26D4C4E00FB03F002FB00F0CE
:1048A00000EB800040000CF05DFA48490CF062FB20
:1048B00001232B60D4F884303060012B404D7FF40D
:1048C00020AF4B48FEF7AAF84A49D5F868A0D5F8BA
:1048D0006C900CF09BFA0CF09BFC2A6F6B6FA56D33
:1048E000CAEB0202C9EB030380B29A42CAEB000092
:1048F000D4F85CA0C6BF03FB00000132584390FB14
:10490000F2F0484400FB0AF005FB00F000EB8000E9
:1049100040000CF027FA2D490CF02CFB814630604A
:10492000F4E6354B1B68012B4FF00A013CD03348AD
:1049300009F002FC0A21314807F0D6FCEB6F10E7C2
:1049400003FB0000531C90FBF3F0064498E70221A0
:10495000214809F0F1FB3968204809F04DFF022198
:104960001D4809F0E9FB02211B4807F0BDFC39682E
:104970001E4809F041FF0221174807F0B5FC3B68CB
:1049800087E707211E4809F0D7FB07211C4807F0DD
:10499000ABFCECE610211B4809F0CEFB10211948B6
:1049A00007F0A2FCE36FDFE6174809F0C5FB0A2118
:1049B000154807F099FCEB6FD3E600BFB892FF1FD4
:1049C000A093FF1F4087FF1F6093FF1FE4388E3EB8
:1049D0000000C8425493FF1FB86801000888FF1FF9
:1049E000605C0100A05C0100A85C0100C887FF1F9B
:1049F000C095FF1F00007A445C87FF1F785C0100B0
:104A0000985C0100845C01006C5C01004887FF1F1A
:104A100030B5112083B007F049F9012818D01220D1
:104A200007F044F9012813D000210B2007F038F9D2
:104A300000210C2007F034F90021152007F030F98F
:104A40002649274B0120002208701A6003B030BDB0
:104A50000121152007F024F9224A234C234B126828
:104A6000D4F8881001921B68019A1D4D0B449342A3
:104A70004FF00201296005D901210C2007F010F93F
:104A800003B030BDD4F890000CF06CF9184B1968E5
:104A90000CF05AFB0028EFD101210B2007F000F9A0
:104AA00094F8C8300324012B2C600DD0122007F09D
:104AB000FDF8012808BF094B4FF0110008BF1C701A
:104AC00007F0F4F8012802D1044B02221A700021E9
:104AD0000C2007F0E5F803B030BD00BF0C95FF1FB8
:104AE0004895FF1F18BAFF1FA093FF1F5495FF1F83
:104AF0005493FF1FF0B56D4E6D4D34682B689C428A
:104B000087B03AD014F0010156D014F002014AD017
:104B100014F004013ED0E3070FD52B68DF070CD457
:104B2000644F3A68002A00F09E80634B1B68019333
:104B3000019B934200F289803468A0070DD52B6851
:104B400099070AD45D4F3A68002A3ED05A4B1B6839
:104B50000393039B93425AD8346862070DD52B68A0
:104B60005B070BD4564F3A68002A3FD0524B1B6864
:104B70000593059B934258D834680CB107B0F0BD3B
:104B80002146162006F00CFF2146172006F008FFEC
:104B900007B0F0BD052006F003FF2B68346803F072
:104BA000FB032B60B7E7172006F0FAFE2B6834688A
:104BB00003F0FD032B60ABE7162006F0F1FE2B6837
:104BC000346803F0FE032B609FE73E4B1B68002B0D
:104BD00056D1FF21172006F0E3FE374B3A4A1968F9
:104BE0000291029912680A443A60B0E7354B1B689B
:104BF000002B50D1FF21052006F0D2FE2E4B324A69
:104C000019680491049912680A443A60AFE72F4B7F
:104C10001720D3F88C1006F0C3FE2B68346843F0DD
:104C2000020300222B603A6097E7284B0520D3F857
:104C30008C1006F0B5FE2B68346843F004030022A4
:104C40002B603A60002C99D19AE7204B1620D3F8BC
:104C50008C1006F0A5FE2B68346843F00103002297
:104C60002B603A6069E7FF21162006F099FE124B8F
:104C7000154A19680091009912680A443A6055E78C
:104C8000134809F069FD0C21124809F055FA104843
:104C900009F062FD9DE70E4809F05EFD0C210E480B
:104CA00009F04AFA0A4809F057FDA3E74895FF1FA3
:104CB0007494FF1FEC94FF1F18BAFF1FF094FF1F9E
:104CC000F494FF1F4887FF1F7087FF1FA093FF1FEB
:104CD0000888FF1FAC5C0100BC5C01002DE9F047B7
:104CE0006B4EDFF8D4813368DFF8D091D3F85401EC
:104CF000684D0F2105F006FE00230122222166489F
:104D0000C8F80030C9F8002009F016FA22216248DC
:104D100007F0EAFAD8F80030132B24DC40F6E44719
:104D20003368B5F8A0A0D3F85401036C1C6805F0F3
:104D300009FBA4B2012107FB04F4B4FBF0F45748CB
:104D40005444A5F8A04009F0F7F90121534807F0B1
:104D5000CBFA642006F0E0FFD8F800300133132BC3
:104D6000C8F80030DCDDB5F8A0304D4A4D48A2FB54
:104D700003129B1A02EB5303C3F30F131946A5F852
:104D8000A03009F039FD1D21474809F0D5F902216D
:104D9000464809F0D1F9434809F0DEFCB5F8A01007
:104DA000434809F029FD1D213F4807F09DFA0221E3
:104DB0003E4807F099FA3E4809F0CEFC32680023DD
:104DC000D2F85401C8F800300E2105F09BFD0223F3
:104DD00022213148C9F8003009F0AEF922212E48CD
:104DE00007F082FAD8F80030132B24DC40F6E447B1
:104DF0003368B5F8A290D3F85401036C1C6805F031
:104E0000A1FAA4B2012107FB04F4B4FBF0F4234897
:104E10004C44A5F8A24009F08FF901211F4807F082
:104E200063FA642006F078FFD8F800300133132BC2
:104E3000C8F80030DCDDB5F8A230194A1948A2FBE9
:104E400003129B1A02EB5303C3F30F131946A5F881
:104E5000A23009F0D1FC1D21164809F06DF902219C
:104E6000124809F069F90F4809F076FCB5F8A2106C
:104E70000F4809F0C1FC1D210E4807F035FA0B4818
:104E8000022107F031FA0A48BDE8F04709F064BC96
:104E90002095FF1FA093FF1FCC5C0100105D010057
:104EA000876118860888FF1FF05C0100B868010060
:104EB000C887FF1F145D01005093FF1F5C87FF1F11
:104EC0002DE9F843C04BC14CC14E1B68706D40F2D8
:104ED000513108222160E271002B40F06F810BF00C
:104EE00041FFB16905460BF091FFBA49B84F0BF08D
:104EF0008DFF0CF08DF980B203126372B64AB74B86
:104F000012881B882072A37228461B121512E372A6
:104F10002273F16965730BF079FFAE49AB4D0BF06D
:104F200075FF0CF075F983B21A122946AC48A373C9
:104F3000E27306F0BFF8AB4AAB4B12681988A17256
:104F4000D3B2237203EB83035B00237302EB820370
:104F500043F3D7134FEA212E12124FF008084FF0F7
:104F60000009294663739E4884F80BE040F25533EC
:104F70006272236084F8078084F80E9084F80F90A2
:104F800006F098F840F256339848236084F807807A
:104F9000FDF7C6FC96490BF039FF0CF039F9207289
:104FA0009248FDF7BDFC92490BF030FF0CF030F950
:104FB000904A8F49C0F30723637210680BF0DAFF41
:104FC0000CF000F940FA08F3A0728848E372FDF78C
:104FD000C9FC80490BF01AFF0CF0F4F820738348E9
:104FE000FDF7C0FC7B490BF011FF0CF0EBF840F330
:104FF0000720294660737A4884F80E9084F80F9051
:1050000006F058F8022006F087FE7B4A7B4B1178A9
:105010002172517890786172D178A0721A7898785C
:10502000E172597822736173DA78A07340F25A33CF
:1050300029466B48E273236084F8078006F03AF84B
:105040006F4B67481A7822725A7862729A78A27205
:10505000DA78E2721A7922735A7962739A79DB7973
:10506000E373294640F25E33A273236084F807801D
:1050700006F020F8022006F04FFE624B58481A78DE
:1050800022725A7862729A78A272DA78E2721A7987
:1050900022735A7962739A79DB79E37329464FF464
:1050A0005C73236084F80780A27306F003F8564B04
:1050B0001B68012B00F0AE80022006F02DFEF36D80
:1050C0002373022500221B12284640F2733808275A
:1050D00063732272012362729922A273E372E373F3
:1050E000A572C4F80080E77106F016FE3F48C4F8C8
:1050F0000080E771FDF710FC44490BF087FE0CF0CF
:1051000087F820723948FDF707FC40490BF07EFE16
:105110000CF07EF8C0F3072334486372FDF7FEFB02
:105120003A490BF073FE0CF073F8A0722F48FDF7AC
:10513000F5FB36490BF06AFE0CF06AF8C0F3072362
:105140002A48E372FDF768FC31490BF057FD0CF07B
:105150005FF820732548FDF75FFC2D490BF04EFDED
:105160000CF056F8C0F3072320486373FDF752FC98
:1051700027490BF043FD0CF04BF8A0731B48FDF7DB
:1051800049FC23490BF03AFD0CF042F80F49C0F3FB
:1051900007231348E37305F08DFF284606F0BCFD96
:1051A000B26DF36DE57112FB03F3C3F3072140F217
:1051B0007932237261722260BDE8F8830BF0D2FD70
:1051C000716A05468FE600BF4093FF1F3895FF1FA9
:1051D000A093FF1F000020411895FF1F9C92FF1F06
:1051E00070B8FF1F4087FF1F4487FF1FC095FF1F38
:1051F0000000C8425493FF1F9C93FF1F1095FF1F90
:105200002C87FF1F6087FF1F2895FF1F00007A442F
:10521000339388432648FDF77FFB396D0BF0EEFC96
:1052200081462348FDF77AFB014648460BF08CFF88
:1052300000283FF441AF40F2C3331D4885F8078092
:105240002B60FDF769FBFF6C39460BF07DFFC8B1A1
:10525000184938460BF0DAFD0BF0DAFF80B240FA5D
:1052600008F368722B7200230127042503221249D8
:105270001248A772E57222736373A373E37305F098
:1052800019FF19E70A48FDF747FB0A490BF0BEFD75
:105290000BF0BEFFC0F3072305482B72FDF73CFB64
:1052A00004490BF0B3FD0BF0B3FF6872DBE700BFFE
:1052B000C095FF1F00007A443895FF1F70B8FF1F8C
:1052C0002DE9F04F83B008F0D1FE384D286007F08B
:1052D0008DF8002840F36881354F07F097F83B6858
:1052E0002860042B00F06681092B00F07C83022BE0
:1052F0004CD1A0F13103422B52D8DFE813F09E0DC0
:105300006B0D190D310D4E0D5B00700C7F0C5100B3
:105310005100510051005100510051005100510005
:1053200051005100510051005100510051005100F5
:1053300051005100510051005100510051005100E5
:1053400051005100510051005100510051005100D5
:1053500051005100510051005100510051005100C5
:1053600051004300510051005100510051005100C3
:105370005100510051005100510051005100810075
:105380005100960CFFF7AAFC3B682868082B2AD12D
:10539000322800F00984712832D0312801F0F081E0
:1053A000732831D003B0BDE8F08F00BF9892FF1F83
:1053B0005895FF1F01233B6008F094FE002805DD8F
:1053C000C148C24C09F05AFBA4F8C20007F00EF81D
:1053D000002805DDBE48BD4C09F050FBA4F8C20012
:1053E00063203B682860072B40F09681332802F049
:1053F000798640F37383342802F0FE857128CFD17B
:10540000002273233A602B603B68002BCAD1B14E57
:10541000AD48B14C09F0A0F90421B04808F08CFE69
:10542000A94809F099F91021AD4808F085FEA64871
:1054300009F092F91321AB4808F07EFE2168A248DA
:1054400009F0DAF9A04809F087F91421A64808F014
:1054500073FE9D4809F080F91E21A44808F06CFEF7
:10546000994809F079F91521A14808F065FE964898
:1054700009F072F91E219F4808F05EFE924809F07B
:105480006BF920219C4808F057FE8F4809F064F919
:1054900019219A4808F050FE8B4809F05DF9122155
:1054A000974808F049FE884809F056F919219548AF
:1054B00008F042FE844809F04FF90F21924808F0A5
:1054C0003BFE814809F048F90D21904808F034FE70
:1054D0007D4809F041F97E4809F03EF904217F48F2
:1054E00006F002FF7A4809F037F910217C4806F0EF
:1054F000FBFE774809F030F913217A4806F0F4FEF4
:105500002168734809F078F9714809F025F91421E8
:10551000754806F0E9FE6E4809F01EF91E21734831
:1055200006F0E2FE6A4809F017F91521704806F006
:10553000DBFE674809F010F91E216E4806F0D4FE24
:10554000634809F009F920216B4806F0CDFE604858
:1055500009F002F91921694806F0C6FE5C4809F015
:10556000FBF81221664806F0BFFE594809F0F4F82E
:105570001921644806F0B8FE554809F0EDF80F21EE
:10558000614806F0B1FE524809F0E6F80D215F4887
:1055900006F0AAFE4E4809F0DFF80022012332602F
:1055A0003B6003B0BDE8F08F594F28683B68042B7F
:1055B0007FF49AAEA0F13103402B3FF6F1AE01A289
:1055C00052F823F0CD690000176A00005B69000003
:1055D000516A0000E5690000016A0000136A0000DA
:1055E0001B6A00001F6A0000A1530000A1530000C5
:1055F000A1530000A1530000A1530000A1530000DB
:10560000A1530000A1530000A1530000A1530000CA
:10561000A1530000A1530000A1530000A1530000BA
:10562000A1530000A1530000A1530000A1530000AA
:10563000A1530000A1530000A1530000A15300009A
:10564000A1530000A1530000A1530000A15300008A
:10565000A1530000A1530000A1530000A15300007A
:10566000A1530000A1530000A1530000A15300006A
:10567000A1530000A1530000A1530000A15300005A
:10568000A1530000A1530000A1530000A15300004A
:10569000A1530000A1530000A1530000A15300003A
:1056A000A1530000A1530000A1530000A15300002A
:1056B000A1530000A1530000A1530000A15300001A
:1056C000A1530000015400000888FF1FA093FF1F92
:1056D000C887FF1F4887FF1F2487FF1F74610100D1
:1056E0007C61010090610100A4610100BC610100C6
:1056F000DC610100F4610100146201003862010004
:105700005462010068620100846201009462010039
:105710005895FF1F3B682868062B40F08D80A0F14C
:105720003103402B3FF63CAE01A252F823F000BFFC
:10573000AB6A0000FB6A00004B6B0000956B000039
:105740003B6C0000596C0000C96C0000556A0000F9
:10575000676A0000A1530000A1530000A15300009C
:10576000A1530000A1530000A1530000A153000069
:10577000A1530000A1530000A1530000A153000059
:10578000A1530000A1530000A1530000A153000049
:10579000A1530000A1530000A1530000A153000039
:1057A000A1530000A1530000A1530000A153000029
:1057B000A1530000A1530000A1530000A153000019
:1057C000A1530000A1530000A1530000A153000009
:1057D000A1530000A1530000A1530000A1530000F9
:1057E000A1530000A1530000A1530000A1530000E9
:1057F000F16D0000A1530000A1530000A15300006F
:10580000A1530000A1530000A1530000A1530000C8
:10581000A1530000A1530000A1530000A1530000B8
:10582000A1530000A1530000A1530000A1530000A8
:10583000015400003B682868052B15D1332802F07D
:10584000738440F37881352802F0B684C2F28B84E9
:1058500071287FF4A5ADCE49002373220B603B6015
:105860002A60D1E53B682868032B40F0B680A0F1A0
:105870003003422B3FF694AD01A252F823F000BF53
:105880008D59000079790000C77900001578000073
:1058900057780000DD7800002B790000417C000083
:1058A0007B7C0000C57C0000A1530000A1530000D8
:1058B000A1530000A1530000A1530000A153000018
:1058C000A1530000A1530000A1530000A153000008
:1058D000A1530000A1530000A1530000A1530000F8
:1058E000A1530000A1530000A1530000A1530000E8
:1058F000A1530000A1530000A1530000A1530000D8
:10590000A1530000A1530000A1530000A1530000C7
:10591000A1530000A1530000A1530000A1530000B7
:10592000A1530000A1530000A1530000A1530000A7
:10593000A1530000A1530000A1530000A153000097
:10594000A1530000137D0000536E00006777000034
:10595000A1770000DB770000157A0000B37A000021
:10596000017B0000A1530000537B0000957B0000E9
:10597000A1530000A1530000A1530000A153000057
:10598000A153000001540000FD7B000008F0AAFBB9
:1059900000280DDD7F48804C09F070F80126034691
:1059A000014662227D48A3653E602A60FCF7BAFF8B
:1059B00006F01CFD002842F318837948764C09F064
:1059C0005DF801260346014662227448A3653E60E5
:1059D0002A60FCF7A7FF3B682868012B27D07328B3
:1059E0007FF4E0AC10E56C4C6B4A94F8CA30012BA4
:1059F00084BF002384F8CA3094F8C930012B02D93F
:105A0000002382F8C930322800F0D68671283FF48E
:105A1000F7AC31287FF4C4AC94F8C930B3FA83F3FF
:105A20005B090122782084F8C9303A602860A0F12F
:105A30005203262B3FF6B4AC01A252F823F000BF6C
:105A40006D7D0000A1530000A1530000A153000090
:105A5000A1530000A1530000A1530000A153000076
:105A6000A1530000A1530000A1530000A153000066
:105A7000A1530000A1530000A1530000155C0000D9
:105A800027850000095E0000FB5D000097620000B2
:105A9000A1530000A1530000A1530000315C00009D
:105AA000A15300002D850000A1530000A153000068
:105AB000A1530000A1530000A15300004D7D000040
:105AC000A1530000A1530000A1530000A153000006
:105AD000A1530000A1530000235C0000312802F014
